{
  "deployments": [
    {
      "transactions": [
        {
          "hash": "0x4d6f2d2328e0d82ca81921857202fd8464ade9e0124d76604cff64f10918b47d",
          "transactionType": "CALL",
          "contractName": null,
          "contractAddress": "0x36e63985c2d5965bf3918c92ab881ca797ce822f",
          "function": "setPeer(uint32,bytes32)",
          "arguments": [
            "40232",
            "0x00000000000000000000000036e63985c2d5965bf3918c92ab881ca797ce822f"
          ],
          "transaction": {
            "from": "0x64a822f980dc5f126215d75d11dd8114ed0bdb5f",
            "to": "0x36e63985c2d5965bf3918c92ab881ca797ce822f",
            "gas": "0x1139a",
            "value": "0x0",
            "input": "0x3400288b0000000000000000000000000000000000000000000000000000000000009d2800000000000000000000000036e63985c2d5965bf3918c92ab881ca797ce822f",
            "nonce": "0x438",
            "chainId": "0x14a34"
          },
          "additionalContracts": [],
          "isFixedGasLimit": false
        }
      ],
      "receipts": [
        {
          "status": "0x1",
          "cumulativeGasUsed": "0x45de9b",
          "logs": [
            {
              "address": "0x36e63985c2d5965bf3918c92ab881ca797ce822f",
              "topics": [
                "0x238399d427b947898edb290f5ff0f9109849b1c3ba196a42e35f00c50a54b98b"
              ],
              "data": "0x0000000000000000000000000000000000000000000000000000000000009d2800000000000000000000000036e63985c2d5965bf3918c92ab881ca797ce822f",
              "blockHash": "0xdc9c9a32866a298b13142e7ed3358cad46ceb7e66d45b99a4021ae9b1b44f8b7",
              "blockNumber": "0x172de4f",
              "transactionHash": "0x4d6f2d2328e0d82ca81921857202fd8464ade9e0124d76604cff64f10918b47d",
              "transactionIndex": "0x19",
              "logIndex": "0x14",
              "removed": false
            }
          ],
          "logsBloom": "0x00000000000000000000000008000000000000000000000000000000000000000000000000000000000000000000000000000000000000000800000000000000000000000000000000000000000000000000000000000000800000000000000000000000000000000000000000000000000000000000000000000000000000000000000000000000000000000000000000000000000000000000000000000000000000000000000000000000000000000000000000000000000002000000000000000000000000000000000000000000000000000000000000040002000000000000000000000000000000000000000000000000000000000000000000000000",
          "type": "0x2",
          "transactionHash": "0x4d6f2d2328e0d82ca81921857202fd8464ade9e0124d76604cff64f10918b47d",
          "transactionIndex": "0x19",
          "blockHash": "0xdc9c9a32866a298b13142e7ed3358cad46ceb7e66d45b99a4021ae9b1b44f8b7",
          "blockNumber": "0x172de4f",
          "gasUsed": "0xbc73",
          "effectiveGasPrice": "0xed14c",
          "from": "0x64a822f980dc5f126215d75d11dd8114ed0bdb5f",
          "to": "0x36e63985c2d5965bf3918c92ab881ca797ce822f",
          "contractAddress": null,
          "l1BaseFeeScalar": "0x44d",
          "l1BlobBaseFee": "0x1",
          "l1BlobBaseFeeScalar": "0xa118b",
          "l1Fee": "0xfaf9",
          "l1GasPrice": "0x8e53",
          "l1GasUsed": "0x640"
        }
      ],
      "libraries": [],
      "pending": [],
      "returns": {},
      "timestamp": 1744378744,
      "chain": 84532,
      "commit": "5a12906"
    },
    {
      "transactions": [
        {
          "hash": "0xd75ff9c3f1af7f5689a9284c123e6422f2fc9dda75eeda2f9d3c16827b74feb4",
          "transactionType": "CALL",
          "contractName": null,
          "contractAddress": "0x36e63985c2d5965bf3918c92ab881ca797ce822f",
          "function": "setPeer(uint32,bytes32)",
          "arguments": [
            "40245",
            "0x00000000000000000000000036e63985c2d5965bf3918c92ab881ca797ce822f"
          ],
          "transaction": {
            "from": "0x64a822f980dc5f126215d75d11dd8114ed0bdb5f",
            "to": "0x36e63985c2d5965bf3918c92ab881ca797ce822f",
            "gas": "0x1139a",
            "value": "0x0",
            "input": "0x3400288b0000000000000000000000000000000000000000000000000000000000009d3500000000000000000000000036e63985c2d5965bf3918c92ab881ca797ce822f",
            "nonce": "0x2d1",
            "chainId": "0xaa37dc"
          },
          "additionalContracts": [],
          "isFixedGasLimit": false
        }
      ],
      "receipts": [
        {
          "status": "0x1",
          "cumulativeGasUsed": "0x1e564d",
          "logs": [
            {
              "address": "0x36e63985c2d5965bf3918c92ab881ca797ce822f",
              "topics": [
                "0x238399d427b947898edb290f5ff0f9109849b1c3ba196a42e35f00c50a54b98b"
              ],
              "data": "0x0000000000000000000000000000000000000000000000000000000000009d3500000000000000000000000036e63985c2d5965bf3918c92ab881ca797ce822f",
              "blockHash": "0x2bbeb99b2839f508c72e48b2ac993cad771f15742718e85677ca94e0e8439853",
              "blockNumber": "0x1911fea",
              "transactionHash": "0xd75ff9c3f1af7f5689a9284c123e6422f2fc9dda75eeda2f9d3c16827b74feb4",
              "transactionIndex": "0x8",
              "logIndex": "0x19",
              "removed": false
            }
          ],
          "logsBloom": "0x00000000000000000000000008000000000000000000000000000000000000000000000000000000000000000000000000000000000000000800000000000000000000000000000000000000000000000000000000000000800000000000000000000000000000000000000000000000000000000000000000000000000000000000000000000000000000000000000000000000000000000000000000000000000000000000000000000000000000000000000000000000000002000000000000000000000000000000000000000000000000000000000000040002000000000000000000000000000000000000000000000000000000000000000000000000",
          "type": "0x2",
          "transactionHash": "0xd75ff9c3f1af7f5689a9284c123e6422f2fc9dda75eeda2f9d3c16827b74feb4",
          "transactionIndex": "0x8",
          "blockHash": "0x2bbeb99b2839f508c72e48b2ac993cad771f15742718e85677ca94e0e8439853",
          "blockNumber": "0x1911fea",
          "gasUsed": "0xbc73",
          "effectiveGasPrice": "0xf4347",
          "from": "0x64a822f980dc5f126215d75d11dd8114ed0bdb5f",
          "to": "0x36e63985c2d5965bf3918c92ab881ca797ce822f",
          "contractAddress": null,
          "l1BaseFeeScalar": "0x1db0",
          "l1BlobBaseFee": "0x1",
          "l1BlobBaseFeeScalar": "0xd2730",
          "l1Fee": "0x7fd2a",
          "l1GasPrice": "0xa829",
          "l1GasUsed": "0x640"
        }
      ],
      "libraries": [],
      "pending": [],
      "returns": {},
      "timestamp": 1744378744,
      "chain": 11155420,
      "commit": "5a12906"
    }
  ],
  "timestamp": 1744378752
}