{
  "deployments": [
    {
      "transactions": [
        {
          "hash": "0xe4c632337938e7876d55ca8eaa75a3f57fcbae246905c14aae08696762145654",
          "transactionType": "CALL",
          "contractName": null,
          "contractAddress": "0x9715db39ee1c5ded1bd4b8f856b5fba236d8c934",
          "function": "setPeer(uint32,bytes32)",
          "arguments": [
            "40232",
            "0x0000000000000000000000009715db39ee1c5ded1bd4b8f856b5fba236d8c934"
          ],
          "transaction": {
            "from": "0x64a822f980dc5f126215d75d11dd8114ed0bdb5f",
            "to": "0x9715db39ee1c5ded1bd4b8f856b5fba236d8c934",
            "gas": "0x1143c",
            "value": "0x0",
            "input": "0x3400288b0000000000000000000000000000000000000000000000000000000000009d280000000000000000000000009715db39ee1c5ded1bd4b8f856b5fba236d8c934",
            "nonce": "0x53d",
            "chainId": "0x14a34"
          },
          "additionalContracts": [],
          "isFixedGasLimit": false
        },
        {
          "hash": "0x2438d2abe1877716006b46e8d373f6483a40100c66ea972bfb77fbbd5b2331ac",
          "transactionType": "CALL",
          "contractName": null,
          "contractAddress": "0x07a9fd8574e113889aa913a6a0d2df03c4078563",
          "function": "setPeer(uint32,bytes32)",
          "arguments": [
            "40232",
            "0x00000000000000000000000007a9fd8574e113889aa913a6a0d2df03c4078563"
          ],
          "transaction": {
            "from": "0x64a822f980dc5f126215d75d11dd8114ed0bdb5f",
            "to": "0x07a9fd8574e113889aa913a6a0d2df03c4078563",
            "gas": "0x1143c",
            "value": "0x0",
            "input": "0x3400288b0000000000000000000000000000000000000000000000000000000000009d2800000000000000000000000007a9fd8574e113889aa913a6a0d2df03c4078563",
            "nonce": "0x53e",
            "chainId": "0x14a34"
          },
          "additionalContracts": [],
          "isFixedGasLimit": false
        },
        {
          "hash": "0xb63dc47a168a15c9cd4f460968de6fceaaf156948e8d27cef4b6d5d31eca7bb1",
          "transactionType": "CALL",
          "contractName": null,
          "contractAddress": "0x7c19c7af14e60f375528e4dd624207cb5cc15d19",
          "function": "setPeer(uint32,bytes32)",
          "arguments": [
            "40232",
            "0x0000000000000000000000007c19c7af14e60f375528e4dd624207cb5cc15d19"
          ],
          "transaction": {
            "from": "0x64a822f980dc5f126215d75d11dd8114ed0bdb5f",
            "to": "0x7c19c7af14e60f375528e4dd624207cb5cc15d19",
            "gas": "0x10487",
            "value": "0x0",
            "input": "0x3400288b0000000000000000000000000000000000000000000000000000000000009d280000000000000000000000007c19c7af14e60f375528e4dd624207cb5cc15d19",
            "nonce": "0x53f",
            "chainId": "0x14a34"
          },
          "additionalContracts": [],
          "isFixedGasLimit": false
        }
      ],
      "receipts": [
        {
          "status": "0x1",
          "cumulativeGasUsed": "0x2c46e8",
          "logs": [
            {
              "address": "0x9715db39ee1c5ded1bd4b8f856b5fba236d8c934",
              "topics": [
                "0x238399d427b947898edb290f5ff0f9109849b1c3ba196a42e35f00c50a54b98b"
              ],
              "data": "0x0000000000000000000000000000000000000000000000000000000000009d280000000000000000000000009715db39ee1c5ded1bd4b8f856b5fba236d8c934",
              "blockHash": "0xb489fb8bf388b2fa66ed170bfae2936a245e30c1c3cb1dd75b8b1a6e435dac35",
              "blockNumber": "0x19a50d3",
              "transactionHash": "0xe4c632337938e7876d55ca8eaa75a3f57fcbae246905c14aae08696762145654",
              "transactionIndex": "0xf",
              "logIndex": "0x37",
              "removed": false
            }
          ],
          "logsBloom": "0x00000000000000000000000000000000000000000000000000000000000000000000000000000000000000000000000000000000000000000800000000000000000000000000000000000000000000000008000000000000008000000000080000000000000000000000000000000000000000000000000000000000000000000000000000000000000000000000000000000000000000000000000000000000000000000000000000000000000000000000000000000000000002000000000000000000000000000000000000000000000000000000000000040000000000000000000000000000000000000000000000000000000000000000000000000000",
          "type": "0x2",
          "transactionHash": "0xe4c632337938e7876d55ca8eaa75a3f57fcbae246905c14aae08696762145654",
          "transactionIndex": "0xf",
          "blockHash": "0xb489fb8bf388b2fa66ed170bfae2936a245e30c1c3cb1dd75b8b1a6e435dac35",
          "blockNumber": "0x19a50d3",
          "gasUsed": "0xbce1",
          "effectiveGasPrice": "0x186dd",
          "from": "0x64a822f980dc5f126215d75d11dd8114ed0bdb5f",
          "to": "0x9715db39ee1c5ded1bd4b8f856b5fba236d8c934",
          "contractAddress": null,
          "l1BaseFeeScalar": "0x44d",
          "l1BlobBaseFee": "0x4",
          "l1BlobBaseFeeScalar": "0xa118b",
          "l1Fee": "0x10c4327",
          "l1GasPrice": "0x9847f3",
          "l1GasUsed": "0x640"
        },
        {
          "status": "0x1",
          "cumulativeGasUsed": "0x2d03c9",
          "logs": [
            {
              "address": "0x07a9fd8574e113889aa913a6a0d2df03c4078563",
              "topics": [
                "0x238399d427b947898edb290f5ff0f9109849b1c3ba196a42e35f00c50a54b98b"
              ],
              "data": "0x0000000000000000000000000000000000000000000000000000000000009d2800000000000000000000000007a9fd8574e113889aa913a6a0d2df03c4078563",
              "blockHash": "0xb489fb8bf388b2fa66ed170bfae2936a245e30c1c3cb1dd75b8b1a6e435dac35",
              "blockNumber": "0x19a50d3",
              "transactionHash": "0x2438d2abe1877716006b46e8d373f6483a40100c66ea972bfb77fbbd5b2331ac",
              "transactionIndex": "0x10",
              "logIndex": "0x38",
              "removed": false
            }
          ],
          "logsBloom": "0x00000000000000000000000000000000000000000000000000000000000000000000000000000000000000000000000000000000000000000800000000000000000000000000000000000000000000000000000000000000000000000000000000000000020000000000000000000000000000000000000000000000000000000000000000000000000000000000000000000000000000000000000000000000000000000000000002000000000000000000000000000000000002000000000000000000000000000000000000000000000000000000000000040000000000000000000000000000000000000000000000000400000000000000000000000000",
          "type": "0x2",
          "transactionHash": "0x2438d2abe1877716006b46e8d373f6483a40100c66ea972bfb77fbbd5b2331ac",
          "transactionIndex": "0x10",
          "blockHash": "0xb489fb8bf388b2fa66ed170bfae2936a245e30c1c3cb1dd75b8b1a6e435dac35",
          "blockNumber": "0x19a50d3",
          "gasUsed": "0xbce1",
          "effectiveGasPrice": "0x186dd",
          "from": "0x64a822f980dc5f126215d75d11dd8114ed0bdb5f",
          "to": "0x07a9fd8574e113889aa913a6a0d2df03c4078563",
          "contractAddress": null,
          "l1BaseFeeScalar": "0x44d",
          "l1BlobBaseFee": "0x4",
          "l1BlobBaseFeeScalar": "0xa118b",
          "l1Fee": "0x10c4327",
          "l1GasPrice": "0x9847f3",
          "l1GasUsed": "0x640"
        },
        {
          "status": "0x1",
          "cumulativeGasUsed": "0x2dc068",
          "logs": [
            {
              "address": "0x7c19c7af14e60f375528e4dd624207cb5cc15d19",
              "topics": [
                "0x238399d427b947898edb290f5ff0f9109849b1c3ba196a42e35f00c50a54b98b"
              ],
              "data": "0x0000000000000000000000000000000000000000000000000000000000009d280000000000000000000000007c19c7af14e60f375528e4dd624207cb5cc15d19",
              "blockHash": "0xb489fb8bf388b2fa66ed170bfae2936a245e30c1c3cb1dd75b8b1a6e435dac35",
              "blockNumber": "0x19a50d3",
              "transactionHash": "0xb63dc47a168a15c9cd4f460968de6fceaaf156948e8d27cef4b6d5d31eca7bb1",
              "transactionIndex": "0x11",
              "logIndex": "0x39",
              "removed": false
            }
          ],
          "logsBloom": "0x00000000000000000000000000000000000000000000000000000000000000000000000000000000000000000000000000000000000000000800000000000000000000000000000001000000000000001000000000000000000000000000000000000000000000000000000000200000000000000000000000000000000000000000000000000000000000000000000000000000000000000000000000000000000000000000000000000000000000000000000000000000000002000000000000000000000000000000000000000000000000000000000000040000000000000000000000000000000000000000000000000000000000000000000000000000",
          "type": "0x2",
          "transactionHash": "0xb63dc47a168a15c9cd4f460968de6fceaaf156948e8d27cef4b6d5d31eca7bb1",
          "transactionIndex": "0x11",
          "blockHash": "0xb489fb8bf388b2fa66ed170bfae2936a245e30c1c3cb1dd75b8b1a6e435dac35",
          "blockNumber": "0x19a50d3",
          "gasUsed": "0xbc9f",
          "effectiveGasPrice": "0x186dd",
          "from": "0x64a822f980dc5f126215d75d11dd8114ed0bdb5f",
          "to": "0x7c19c7af14e60f375528e4dd624207cb5cc15d19",
          "contractAddress": null,
          "l1BaseFeeScalar": "0x44d",
          "l1BlobBaseFee": "0x4",
          "l1BlobBaseFeeScalar": "0xa118b",
          "l1Fee": "0x10c4327",
          "l1GasPrice": "0x9847f3",
          "l1GasUsed": "0x640"
        }
      ],
      "libraries": [],
      "pending": [],
      "returns": {},
      "timestamp": 1749549187,
      "chain": 84532,
      "commit": "ce58089"
    },
    {
      "transactions": [
        {
          "hash": "0x3d380c2f788a7bfa82af9a122dc5d7791382f03991231b1a6f31a1b8181e988c",
          "transactionType": "CALL",
          "contractName": null,
          "contractAddress": "0x9715db39ee1c5ded1bd4b8f856b5fba236d8c934",
          "function": "setPeer(uint32,bytes32)",
          "arguments": [
            "40245",
            "0x0000000000000000000000009715db39ee1c5ded1bd4b8f856b5fba236d8c934"
          ],
          "transaction": {
            "from": "0x64a822f980dc5f126215d75d11dd8114ed0bdb5f",
            "to": "0x9715db39ee1c5ded1bd4b8f856b5fba236d8c934",
            "gas": "0x1143c",
            "value": "0x0",
            "input": "0x3400288b0000000000000000000000000000000000000000000000000000000000009d350000000000000000000000009715db39ee1c5ded1bd4b8f856b5fba236d8c934",
            "nonce": "0x369",
            "chainId": "0xaa37dc"
          },
          "additionalContracts": [],
          "isFixedGasLimit": false
        },
        {
          "hash": "0xef4e21ba550bf4c92d538b43912593d7a33071db21d2a4f7e859ebb00bbdf0a1",
          "transactionType": "CALL",
          "contractName": null,
          "contractAddress": "0x07a9fd8574e113889aa913a6a0d2df03c4078563",
          "function": "setPeer(uint32,bytes32)",
          "arguments": [
            "40245",
            "0x00000000000000000000000007a9fd8574e113889aa913a6a0d2df03c4078563"
          ],
          "transaction": {
            "from": "0x64a822f980dc5f126215d75d11dd8114ed0bdb5f",
            "to": "0x07a9fd8574e113889aa913a6a0d2df03c4078563",
            "gas": "0x1143c",
            "value": "0x0",
            "input": "0x3400288b0000000000000000000000000000000000000000000000000000000000009d3500000000000000000000000007a9fd8574e113889aa913a6a0d2df03c4078563",
            "nonce": "0x36a",
            "chainId": "0xaa37dc"
          },
          "additionalContracts": [],
          "isFixedGasLimit": false
        },
        {
          "hash": "0x2b5f1d3bfb7651caa920406a58c6cc6d70eed4f188eaee716fbbc65aab7a3fb7",
          "transactionType": "CALL",
          "contractName": null,
          "contractAddress": "0x7c19c7af14e60f375528e4dd624207cb5cc15d19",
          "function": "setPeer(uint32,bytes32)",
          "arguments": [
            "40245",
            "0x0000000000000000000000007c19c7af14e60f375528e4dd624207cb5cc15d19"
          ],
          "transaction": {
            "from": "0x64a822f980dc5f126215d75d11dd8114ed0bdb5f",
            "to": "0x7c19c7af14e60f375528e4dd624207cb5cc15d19",
            "gas": "0x10487",
            "value": "0x0",
            "input": "0x3400288b0000000000000000000000000000000000000000000000000000000000009d350000000000000000000000007c19c7af14e60f375528e4dd624207cb5cc15d19",
            "nonce": "0x36b",
            "chainId": "0xaa37dc"
          },
          "additionalContracts": [],
          "isFixedGasLimit": false
        }
      ],
      "receipts": [
        {
          "status": "0x1",
          "cumulativeGasUsed": "0xf03fe1",
          "logs": [
            {
              "address": "0x9715db39ee1c5ded1bd4b8f856b5fba236d8c934",
              "topics": [
                "0x238399d427b947898edb290f5ff0f9109849b1c3ba196a42e35f00c50a54b98b"
              ],
              "data": "0x0000000000000000000000000000000000000000000000000000000000009d350000000000000000000000009715db39ee1c5ded1bd4b8f856b5fba236d8c934",
              "blockHash": "0xd6840d92eb62b521c6b699bda9d99b47c657fa67d1f3a2a88d5309c179f1118f",
              "blockNumber": "0x1b8926f",
              "transactionHash": "0x3d380c2f788a7bfa82af9a122dc5d7791382f03991231b1a6f31a1b8181e988c",
              "transactionIndex": "0x5",
              "logIndex": "0x178",
              "removed": false
            }
          ],
          "logsBloom": "0x00000000000000000000000000000000000000000000000000000000000000000000000000000000000000000000000000000000000000000800000000000000000000000000000000000000000000000008000000000000008000000000080000000000000000000000000000000000000000000000000000000000000000000000000000000000000000000000000000000000000000000000000000000000000000000000000000000000000000000000000000000000000002000000000000000000000000000000000000000000000000000000000000040000000000000000000000000000000000000000000000000000000000000000000000000000",
          "type": "0x2",
          "transactionHash": "0x3d380c2f788a7bfa82af9a122dc5d7791382f03991231b1a6f31a1b8181e988c",
          "transactionIndex": "0x5",
          "blockHash": "0xd6840d92eb62b521c6b699bda9d99b47c657fa67d1f3a2a88d5309c179f1118f",
          "blockNumber": "0x1b8926f",
          "gasUsed": "0xbce1",
          "effectiveGasPrice": "0x1c86",
          "from": "0x64a822f980dc5f126215d75d11dd8114ed0bdb5f",
          "to": "0x9715db39ee1c5ded1bd4b8f856b5fba236d8c934",
          "contractAddress": null,
          "l1BaseFeeScalar": "0x1db0",
          "l1BlobBaseFee": "0x4",
          "l1BlobBaseFeeScalar": "0xd2730",
          "l1Fee": "0x6b70751",
          "l1GasPrice": "0x8d5df7",
          "l1GasUsed": "0x640"
        },
        {
          "status": "0x1",
          "cumulativeGasUsed": "0xf0fcc2",
          "logs": [
            {
              "address": "0x07a9fd8574e113889aa913a6a0d2df03c4078563",
              "topics": [
                "0x238399d427b947898edb290f5ff0f9109849b1c3ba196a42e35f00c50a54b98b"
              ],
              "data": "0x0000000000000000000000000000000000000000000000000000000000009d3500000000000000000000000007a9fd8574e113889aa913a6a0d2df03c4078563",
              "blockHash": "0xd6840d92eb62b521c6b699bda9d99b47c657fa67d1f3a2a88d5309c179f1118f",
              "blockNumber": "0x1b8926f",
              "transactionHash": "0xef4e21ba550bf4c92d538b43912593d7a33071db21d2a4f7e859ebb00bbdf0a1",
              "transactionIndex": "0x6",
              "logIndex": "0x179",
              "removed": false
            }
          ],
          "logsBloom": "0x00000000000000000000000000000000000000000000000000000000000000000000000000000000000000000000000000000000000000000800000000000000000000000000000000000000000000000000000000000000000000000000000000000000020000000000000000000000000000000000000000000000000000000000000000000000000000000000000000000000000000000000000000000000000000000000000002000000000000000000000000000000000002000000000000000000000000000000000000000000000000000000000000040000000000000000000000000000000000000000000000000400000000000000000000000000",
          "type": "0x2",
          "transactionHash": "0xef4e21ba550bf4c92d538b43912593d7a33071db21d2a4f7e859ebb00bbdf0a1",
          "transactionIndex": "0x6",
          "blockHash": "0xd6840d92eb62b521c6b699bda9d99b47c657fa67d1f3a2a88d5309c179f1118f",
          "blockNumber": "0x1b8926f",
          "gasUsed": "0xbce1",
          "effectiveGasPrice": "0x1c86",
          "from": "0x64a822f980dc5f126215d75d11dd8114ed0bdb5f",
          "to": "0x07a9fd8574e113889aa913a6a0d2df03c4078563",
          "contractAddress": null,
          "l1BaseFeeScalar": "0x1db0",
          "l1BlobBaseFee": "0x4",
          "l1BlobBaseFeeScalar": "0xd2730",
          "l1Fee": "0x6b70751",
          "l1GasPrice": "0x8d5df7",
          "l1GasUsed": "0x640"
        },
        {
          "status": "0x1",
          "cumulativeGasUsed": "0xf1b961",
          "logs": [
            {
              "address": "0x7c19c7af14e60f375528e4dd624207cb5cc15d19",
              "topics": [
                "0x238399d427b947898edb290f5ff0f9109849b1c3ba196a42e35f00c50a54b98b"
              ],
              "data": "0x0000000000000000000000000000000000000000000000000000000000009d350000000000000000000000007c19c7af14e60f375528e4dd624207cb5cc15d19",
              "blockHash": "0xd6840d92eb62b521c6b699bda9d99b47c657fa67d1f3a2a88d5309c179f1118f",
              "blockNumber": "0x1b8926f",
              "transactionHash": "0x2b5f1d3bfb7651caa920406a58c6cc6d70eed4f188eaee716fbbc65aab7a3fb7",
              "transactionIndex": "0x7",
              "logIndex": "0x17a",
              "removed": false
            }
          ],
          "logsBloom": "0x00000000000000000000000000000000000000000000000000000000000000000000000000000000000000000000000000000000000000000800000000000000000000000000000001000000000000001000000000000000000000000000000000000000000000000000000000200000000000000000000000000000000000000000000000000000000000000000000000000000000000000000000000000000000000000000000000000000000000000000000000000000000002000000000000000000000000000000000000000000000000000000000000040000000000000000000000000000000000000000000000000000000000000000000000000000",
          "type": "0x2",
          "transactionHash": "0x2b5f1d3bfb7651caa920406a58c6cc6d70eed4f188eaee716fbbc65aab7a3fb7",
          "transactionIndex": "0x7",
          "blockHash": "0xd6840d92eb62b521c6b699bda9d99b47c657fa67d1f3a2a88d5309c179f1118f",
          "blockNumber": "0x1b8926f",
          "gasUsed": "0xbc9f",
          "effectiveGasPrice": "0x1c86",
          "from": "0x64a822f980dc5f126215d75d11dd8114ed0bdb5f",
          "to": "0x7c19c7af14e60f375528e4dd624207cb5cc15d19",
          "contractAddress": null,
          "l1BaseFeeScalar": "0x1db0",
          "l1BlobBaseFee": "0x4",
          "l1BlobBaseFeeScalar": "0xd2730",
          "l1Fee": "0x6b70751",
          "l1GasPrice": "0x8d5df7",
          "l1GasUsed": "0x640"
        }
      ],
      "libraries": [],
      "pending": [],
      "returns": {},
      "timestamp": 1749549187,
      "chain": 11155420,
      "commit": "ce58089"
    }
  ],
  "timestamp": 1749549196
}