{
  "deployments": [
    {
      "transactions": [
        {
          "hash": "0x84647fa155876cf4b8ce6196e38ba31d9fce4bc0edbccfffb74a5cc3bd759814",
          "transactionType": "CALL",
          "contractName": null,
          "contractAddress": "0x7d4a6aa0875c8a85dedc58118b76ad68e961caa6",
          "function": "setPeer(uint32,bytes32)",
          "arguments": [
            "40232",
            "0x0000000000000000000000007d4a6aa0875c8a85dedc58118b76ad68e961caa6"
          ],
          "transaction": {
            "from": "0x64a822f980dc5f126215d75d11dd8114ed0bdb5f",
            "to": "0x7d4a6aa0875c8a85dedc58118b76ad68e961caa6",
            "gas": "0x1143c",
            "value": "0x0",
            "input": "0x3400288b0000000000000000000000000000000000000000000000000000000000009d280000000000000000000000007d4a6aa0875c8a85dedc58118b76ad68e961caa6",
            "nonce": "0x50f",
            "chainId": "0x14a34"
          },
          "additionalContracts": [],
          "isFixedGasLimit": false
        },
        {
          "hash": "0x5010d6fdffdaa000d8b60ce90eb07b85e066c6685f037fb932506f1bde104926",
          "transactionType": "CALL",
          "contractName": null,
          "contractAddress": "0x2f6b1de23edce9e76cb7bcfdb07c4b81f6ad75d5",
          "function": "setPeer(uint32,bytes32)",
          "arguments": [
            "40232",
            "0x0000000000000000000000002f6b1de23edce9e76cb7bcfdb07c4b81f6ad75d5"
          ],
          "transaction": {
            "from": "0x64a822f980dc5f126215d75d11dd8114ed0bdb5f",
            "to": "0x2f6b1de23edce9e76cb7bcfdb07c4b81f6ad75d5",
            "gas": "0x1143c",
            "value": "0x0",
            "input": "0x3400288b0000000000000000000000000000000000000000000000000000000000009d280000000000000000000000002f6b1de23edce9e76cb7bcfdb07c4b81f6ad75d5",
            "nonce": "0x510",
            "chainId": "0x14a34"
          },
          "additionalContracts": [],
          "isFixedGasLimit": false
        },
        {
          "hash": "0x15d91ee33afb6289d4bba4ee7a9b3e0c0ad70dbabb6105f4d6ef498e8ecf1849",
          "transactionType": "CALL",
          "contractName": null,
          "contractAddress": "0xcece814d6d590330fa8149490ec7860b30eb631f",
          "function": "setPeer(uint32,bytes32)",
          "arguments": [
            "40232",
            "0x000000000000000000000000cece814d6d590330fa8149490ec7860b30eb631f"
          ],
          "transaction": {
            "from": "0x64a822f980dc5f126215d75d11dd8114ed0bdb5f",
            "to": "0xcece814d6d590330fa8149490ec7860b30eb631f",
            "gas": "0x10487",
            "value": "0x0",
            "input": "0x3400288b0000000000000000000000000000000000000000000000000000000000009d28000000000000000000000000cece814d6d590330fa8149490ec7860b30eb631f",
            "nonce": "0x511",
            "chainId": "0x14a34"
          },
          "additionalContracts": [],
          "isFixedGasLimit": false
        }
      ],
      "receipts": [
        {
          "status": "0x1",
          "cumulativeGasUsed": "0x1ca1baa",
          "logs": [
            {
              "address": "0x7d4a6aa0875c8a85dedc58118b76ad68e961caa6",
              "topics": [
                "0x238399d427b947898edb290f5ff0f9109849b1c3ba196a42e35f00c50a54b98b"
              ],
              "data": "0x0000000000000000000000000000000000000000000000000000000000009d280000000000000000000000007d4a6aa0875c8a85dedc58118b76ad68e961caa6",
              "blockHash": "0x007958795e857c798c0c31c1132b09cb3c46e4d66a14fa9e89b5b781b1abb26d",
              "blockNumber": "0x1928ca7",
              "transactionHash": "0x84647fa155876cf4b8ce6196e38ba31d9fce4bc0edbccfffb74a5cc3bd759814",
              "transactionIndex": "0x5f",
              "logIndex": "0x64",
              "removed": false
            }
          ],
          "logsBloom": "0x00000000000000000000000000000000000000000000000000000000000000000000000000000000000000000000000000000000000000000800000000000000000000000000000000000000000000000000000000000000000000000100000000000000000000000000000000000000000000000000000000000000000000000000000000000000000000000000000000000800000000000000000000000000000000000000040000000000000000000000000000000000000002000000000000000000000000000000000000000000000000000000000000040000000000000000000000000000000000000000000000000000000000000000000000000000",
          "type": "0x2",
          "transactionHash": "0x84647fa155876cf4b8ce6196e38ba31d9fce4bc0edbccfffb74a5cc3bd759814",
          "transactionIndex": "0x5f",
          "blockHash": "0x007958795e857c798c0c31c1132b09cb3c46e4d66a14fa9e89b5b781b1abb26d",
          "blockNumber": "0x1928ca7",
          "gasUsed": "0xbce1",
          "effectiveGasPrice": "0x1b5425c0",
          "from": "0x64a822f980dc5f126215d75d11dd8114ed0bdb5f",
          "to": "0x7d4a6aa0875c8a85dedc58118b76ad68e961caa6",
          "contractAddress": null,
          "l1BaseFeeScalar": "0x44d",
          "l1BlobBaseFee": "0x1",
          "l1BlobBaseFeeScalar": "0xa118b",
          "l1Fee": "0x5993a9b",
          "l1GasPrice": "0x32d982c",
          "l1GasUsed": "0x640"
        },
        {
          "status": "0x1",
          "cumulativeGasUsed": "0x1cad88b",
          "logs": [
            {
              "address": "0x2f6b1de23edce9e76cb7bcfdb07c4b81f6ad75d5",
              "topics": [
                "0x238399d427b947898edb290f5ff0f9109849b1c3ba196a42e35f00c50a54b98b"
              ],
              "data": "0x0000000000000000000000000000000000000000000000000000000000009d280000000000000000000000002f6b1de23edce9e76cb7bcfdb07c4b81f6ad75d5",
              "blockHash": "0x007958795e857c798c0c31c1132b09cb3c46e4d66a14fa9e89b5b781b1abb26d",
              "blockNumber": "0x1928ca7",
              "transactionHash": "0x5010d6fdffdaa000d8b60ce90eb07b85e066c6685f037fb932506f1bde104926",
              "transactionIndex": "0x60",
              "logIndex": "0x65",
              "removed": false
            }
          ],
          "logsBloom": "0x00000000000000000000000000000000000000000000000000000000000000000000000000000000000000000000000000000000000000000800000000000000000000000000000000000000000000000000000000000000000000000000000000000000000000000000000000000000000000000000000000000000000080000000000000000000000000000000000000000000000000000000000000000000000000000000000000000000000000000000000000000000000002000000000000000000000000200000000000000000000000000200000000040000000000000000000000000000000000000000000000000000000000000000000000000000",
          "type": "0x2",
          "transactionHash": "0x5010d6fdffdaa000d8b60ce90eb07b85e066c6685f037fb932506f1bde104926",
          "transactionIndex": "0x60",
          "blockHash": "0x007958795e857c798c0c31c1132b09cb3c46e4d66a14fa9e89b5b781b1abb26d",
          "blockNumber": "0x1928ca7",
          "gasUsed": "0xbce1",
          "effectiveGasPrice": "0x1b5425c0",
          "from": "0x64a822f980dc5f126215d75d11dd8114ed0bdb5f",
          "to": "0x2f6b1de23edce9e76cb7bcfdb07c4b81f6ad75d5",
          "contractAddress": null,
          "l1BaseFeeScalar": "0x44d",
          "l1BlobBaseFee": "0x1",
          "l1BlobBaseFeeScalar": "0xa118b",
          "l1Fee": "0x5993a9b",
          "l1GasPrice": "0x32d982c",
          "l1GasUsed": "0x640"
        },
        {
          "status": "0x1",
          "cumulativeGasUsed": "0x1cb952a",
          "logs": [
            {
              "address": "0xcece814d6d590330fa8149490ec7860b30eb631f",
              "topics": [
                "0x238399d427b947898edb290f5ff0f9109849b1c3ba196a42e35f00c50a54b98b"
              ],
              "data": "0x0000000000000000000000000000000000000000000000000000000000009d28000000000000000000000000cece814d6d590330fa8149490ec7860b30eb631f",
              "blockHash": "0x007958795e857c798c0c31c1132b09cb3c46e4d66a14fa9e89b5b781b1abb26d",
              "blockNumber": "0x1928ca7",
              "transactionHash": "0x15d91ee33afb6289d4bba4ee7a9b3e0c0ad70dbabb6105f4d6ef498e8ecf1849",
              "transactionIndex": "0x61",
              "logIndex": "0x66",
              "removed": false
            }
          ],
          "logsBloom": "0x00000000000000000000000000000000000000000000000000000000000000000000000000000000000000000000000000000000000000000800000000000000000000000000000000000000000000000410000000000000000000000000000000000000000000000000000000000000000000000000000000000000000000000000000000000000000000000000000000000000000000000000000000000000000000000000000000000000000000000000000000000000000002000000000000000000000000000000000000000000000000000000000000040000000000001000000000000000000000000000000000000000000000000000000000000000",
          "type": "0x2",
          "transactionHash": "0x15d91ee33afb6289d4bba4ee7a9b3e0c0ad70dbabb6105f4d6ef498e8ecf1849",
          "transactionIndex": "0x61",
          "blockHash": "0x007958795e857c798c0c31c1132b09cb3c46e4d66a14fa9e89b5b781b1abb26d",
          "blockNumber": "0x1928ca7",
          "gasUsed": "0xbc9f",
          "effectiveGasPrice": "0x1b5425c0",
          "from": "0x64a822f980dc5f126215d75d11dd8114ed0bdb5f",
          "to": "0xcece814d6d590330fa8149490ec7860b30eb631f",
          "contractAddress": null,
          "l1BaseFeeScalar": "0x44d",
          "l1BlobBaseFee": "0x1",
          "l1BlobBaseFeeScalar": "0xa118b",
          "l1Fee": "0x5993a9b",
          "l1GasPrice": "0x32d982c",
          "l1GasUsed": "0x640"
        }
      ],
      "libraries": [],
      "pending": [],
      "returns": {},
      "timestamp": 1748531242,
      "chain": 84532,
      "commit": "de7e330"
    },
    {
      "transactions": [
        {
          "hash": "0x41b582b7b6638109789752fa9e0bb5f9b2be2ec6b58a2ae42e07d091bd39a5da",
          "transactionType": "CALL",
          "contractName": null,
          "contractAddress": "0x7d4a6aa0875c8a85dedc58118b76ad68e961caa6",
          "function": "setPeer(uint32,bytes32)",
          "arguments": [
            "40245",
            "0x0000000000000000000000007d4a6aa0875c8a85dedc58118b76ad68e961caa6"
          ],
          "transaction": {
            "from": "0x64a822f980dc5f126215d75d11dd8114ed0bdb5f",
            "to": "0x7d4a6aa0875c8a85dedc58118b76ad68e961caa6",
            "gas": "0x1143c",
            "value": "0x0",
            "input": "0x3400288b0000000000000000000000000000000000000000000000000000000000009d350000000000000000000000007d4a6aa0875c8a85dedc58118b76ad68e961caa6",
            "nonce": "0x345",
            "chainId": "0xaa37dc"
          },
          "additionalContracts": [],
          "isFixedGasLimit": false
        },
        {
          "hash": "0x491591bd3ff7dd0917853c746e2936f7d0fce10fb361d752877d63a24012f848",
          "transactionType": "CALL",
          "contractName": null,
          "contractAddress": "0x2f6b1de23edce9e76cb7bcfdb07c4b81f6ad75d5",
          "function": "setPeer(uint32,bytes32)",
          "arguments": [
            "40245",
            "0x0000000000000000000000002f6b1de23edce9e76cb7bcfdb07c4b81f6ad75d5"
          ],
          "transaction": {
            "from": "0x64a822f980dc5f126215d75d11dd8114ed0bdb5f",
            "to": "0x2f6b1de23edce9e76cb7bcfdb07c4b81f6ad75d5",
            "gas": "0x1143c",
            "value": "0x0",
            "input": "0x3400288b0000000000000000000000000000000000000000000000000000000000009d350000000000000000000000002f6b1de23edce9e76cb7bcfdb07c4b81f6ad75d5",
            "nonce": "0x346",
            "chainId": "0xaa37dc"
          },
          "additionalContracts": [],
          "isFixedGasLimit": false
        },
        {
          "hash": "0x84b81381187b933c92c5f33563be57702631a5d947b9c0fe619823897963a351",
          "transactionType": "CALL",
          "contractName": null,
          "contractAddress": "0xcece814d6d590330fa8149490ec7860b30eb631f",
          "function": "setPeer(uint32,bytes32)",
          "arguments": [
            "40245",
            "0x000000000000000000000000cece814d6d590330fa8149490ec7860b30eb631f"
          ],
          "transaction": {
            "from": "0x64a822f980dc5f126215d75d11dd8114ed0bdb5f",
            "to": "0xcece814d6d590330fa8149490ec7860b30eb631f",
            "gas": "0x10487",
            "value": "0x0",
            "input": "0x3400288b0000000000000000000000000000000000000000000000000000000000009d35000000000000000000000000cece814d6d590330fa8149490ec7860b30eb631f",
            "nonce": "0x347",
            "chainId": "0xaa37dc"
          },
          "additionalContracts": [],
          "isFixedGasLimit": false
        }
      ],
      "receipts": [
        {
          "status": "0x1",
          "cumulativeGasUsed": "0x1b355e",
          "logs": [
            {
              "address": "0x7d4a6aa0875c8a85dedc58118b76ad68e961caa6",
              "topics": [
                "0x238399d427b947898edb290f5ff0f9109849b1c3ba196a42e35f00c50a54b98b"
              ],
              "data": "0x0000000000000000000000000000000000000000000000000000000000009d350000000000000000000000007d4a6aa0875c8a85dedc58118b76ad68e961caa6",
              "blockHash": "0xcb62d54630e94347fd334643cde8804124e7578716894d8d35b63ba0c70dbd1a",
              "blockNumber": "0x1b0ce43",
              "transactionHash": "0x41b582b7b6638109789752fa9e0bb5f9b2be2ec6b58a2ae42e07d091bd39a5da",
              "transactionIndex": "0x1a",
              "logIndex": "0xf",
              "removed": false
            }
          ],
          "logsBloom": "0x00000000000000000000000000000000000000000000000000000000000000000000000000000000000000000000000000000000000000000800000000000000000000000000000000000000000000000000000000000000000000000100000000000000000000000000000000000000000000000000000000000000000000000000000000000000000000000000000000000800000000000000000000000000000000000000040000000000000000000000000000000000000002000000000000000000000000000000000000000000000000000000000000040000000000000000000000000000000000000000000000000000000000000000000000000000",
          "type": "0x2",
          "transactionHash": "0x41b582b7b6638109789752fa9e0bb5f9b2be2ec6b58a2ae42e07d091bd39a5da",
          "transactionIndex": "0x1a",
          "blockHash": "0xcb62d54630e94347fd334643cde8804124e7578716894d8d35b63ba0c70dbd1a",
          "blockNumber": "0x1b0ce43",
          "gasUsed": "0xbce1",
          "effectiveGasPrice": "0x5a2",
          "from": "0x64a822f980dc5f126215d75d11dd8114ed0bdb5f",
          "to": "0x7d4a6aa0875c8a85dedc58118b76ad68e961caa6",
          "contractAddress": null,
          "l1BaseFeeScalar": "0x1db0",
          "l1BlobBaseFee": "0x1",
          "l1BlobBaseFeeScalar": "0xd2730",
          "l1Fee": "0x283385eb",
          "l1GasPrice": "0x34e579e",
          "l1GasUsed": "0x640"
        },
        {
          "status": "0x1",
          "cumulativeGasUsed": "0x1bf23f",
          "logs": [
            {
              "address": "0x2f6b1de23edce9e76cb7bcfdb07c4b81f6ad75d5",
              "topics": [
                "0x238399d427b947898edb290f5ff0f9109849b1c3ba196a42e35f00c50a54b98b"
              ],
              "data": "0x0000000000000000000000000000000000000000000000000000000000009d350000000000000000000000002f6b1de23edce9e76cb7bcfdb07c4b81f6ad75d5",
              "blockHash": "0xcb62d54630e94347fd334643cde8804124e7578716894d8d35b63ba0c70dbd1a",
              "blockNumber": "0x1b0ce43",
              "transactionHash": "0x491591bd3ff7dd0917853c746e2936f7d0fce10fb361d752877d63a24012f848",
              "transactionIndex": "0x1b",
              "logIndex": "0x10",
              "removed": false
            }
          ],
          "logsBloom": "0x00000000000000000000000000000000000000000000000000000000000000000000000000000000000000000000000000000000000000000800000000000000000000000000000000000000000000000000000000000000000000000000000000000000000000000000000000000000000000000000000000000000000080000000000000000000000000000000000000000000000000000000000000000000000000000000000000000000000000000000000000000000000002000000000000000000000000200000000000000000000000000200000000040000000000000000000000000000000000000000000000000000000000000000000000000000",
          "type": "0x2",
          "transactionHash": "0x491591bd3ff7dd0917853c746e2936f7d0fce10fb361d752877d63a24012f848",
          "transactionIndex": "0x1b",
          "blockHash": "0xcb62d54630e94347fd334643cde8804124e7578716894d8d35b63ba0c70dbd1a",
          "blockNumber": "0x1b0ce43",
          "gasUsed": "0xbce1",
          "effectiveGasPrice": "0x5a2",
          "from": "0x64a822f980dc5f126215d75d11dd8114ed0bdb5f",
          "to": "0x2f6b1de23edce9e76cb7bcfdb07c4b81f6ad75d5",
          "contractAddress": null,
          "l1BaseFeeScalar": "0x1db0",
          "l1BlobBaseFee": "0x1",
          "l1BlobBaseFeeScalar": "0xd2730",
          "l1Fee": "0x283385eb",
          "l1GasPrice": "0x34e579e",
          "l1GasUsed": "0x640"
        },
        {
          "status": "0x1",
          "cumulativeGasUsed": "0x1caede",
          "logs": [
            {
              "address": "0xcece814d6d590330fa8149490ec7860b30eb631f",
              "topics": [
                "0x238399d427b947898edb290f5ff0f9109849b1c3ba196a42e35f00c50a54b98b"
              ],
              "data": "0x0000000000000000000000000000000000000000000000000000000000009d35000000000000000000000000cece814d6d590330fa8149490ec7860b30eb631f",
              "blockHash": "0xcb62d54630e94347fd334643cde8804124e7578716894d8d35b63ba0c70dbd1a",
              "blockNumber": "0x1b0ce43",
              "transactionHash": "0x84b81381187b933c92c5f33563be57702631a5d947b9c0fe619823897963a351",
              "transactionIndex": "0x1c",
              "logIndex": "0x11",
              "removed": false
            }
          ],
          "logsBloom": "0x00000000000000000000000000000000000000000000000000000000000000000000000000000000000000000000000000000000000000000800000000000000000000000000000000000000000000000410000000000000000000000000000000000000000000000000000000000000000000000000000000000000000000000000000000000000000000000000000000000000000000000000000000000000000000000000000000000000000000000000000000000000000002000000000000000000000000000000000000000000000000000000000000040000000000001000000000000000000000000000000000000000000000000000000000000000",
          "type": "0x2",
          "transactionHash": "0x84b81381187b933c92c5f33563be57702631a5d947b9c0fe619823897963a351",
          "transactionIndex": "0x1c",
          "blockHash": "0xcb62d54630e94347fd334643cde8804124e7578716894d8d35b63ba0c70dbd1a",
          "blockNumber": "0x1b0ce43",
          "gasUsed": "0xbc9f",
          "effectiveGasPrice": "0x5a2",
          "from": "0x64a822f980dc5f126215d75d11dd8114ed0bdb5f",
          "to": "0xcece814d6d590330fa8149490ec7860b30eb631f",
          "contractAddress": null,
          "l1BaseFeeScalar": "0x1db0",
          "l1BlobBaseFee": "0x1",
          "l1BlobBaseFeeScalar": "0xd2730",
          "l1Fee": "0x283385eb",
          "l1GasPrice": "0x34e579e",
          "l1GasUsed": "0x640"
        }
      ],
      "libraries": [],
      "pending": [],
      "returns": {},
      "timestamp": 1748531242,
      "chain": 11155420,
      "commit": "de7e330"
    }
  ],
  "timestamp": 1748531251
}