{
  "deployments": [
    {
      "transactions": [
        {
          "hash": "0x9f21017b96553d1bee6139ecd57c5884dd246d954dacd172814ce0bcdc1eec2e",
          "transactionType": "CALL",
          "contractName": null,
          "contractAddress": "0xcf46be46aae4e3bc20fbdadf9b13cde49f4f94b1",
          "function": "setPeer(uint32,bytes32)",
          "arguments": [
            "40232",
            "0x000000000000000000000000cf46be46aae4e3bc20fbdadf9b13cde49f4f94b1"
          ],
          "transaction": {
            "from": "0x64a822f980dc5f126215d75d11dd8114ed0bdb5f",
            "to": "0xcf46be46aae4e3bc20fbdadf9b13cde49f4f94b1",
            "gas": "0x9984",
            "value": "0x0",
            "input": "0x3400288b0000000000000000000000000000000000000000000000000000000000009d28000000000000000000000000cf46be46aae4e3bc20fbdadf9b13cde49f4f94b1",
            "nonce": "0x433",
            "chainId": "0x14a34"
          },
          "additionalContracts": [],
          "isFixedGasLimit": false
        }
      ],
      "receipts": [
        {
          "status": "0x1",
          "cumulativeGasUsed": "0x7cbb71",
          "logs": [
            {
              "address": "0xcf46be46aae4e3bc20fbdadf9b13cde49f4f94b1",
              "topics": [
                "0x238399d427b947898edb290f5ff0f9109849b1c3ba196a42e35f00c50a54b98b"
              ],
              "data": "0x0000000000000000000000000000000000000000000000000000000000009d28000000000000000000000000cf46be46aae4e3bc20fbdadf9b13cde49f4f94b1",
              "blockHash": "0xf8c6ceb97d813e251bd5d6a34992b881df42d86474c113a756ac9e2c481b1a39",
              "blockNumber": "0x172da6b",
              "transactionHash": "0x9f21017b96553d1bee6139ecd57c5884dd246d954dacd172814ce0bcdc1eec2e",
              "transactionIndex": "0x2a",
              "logIndex": "0xbc",
              "removed": false
            }
          ],
          "logsBloom": "0x00000000000000000000000000000000000000000000000000000000000000000000000000000000000000000000000000000000000000000800000000000000000000000000000000000000000000000000000000000000000000000000000200000000000000000000000000000000000000000000000000000000000000000000000000000000000000000000000000000000000000000000000000000000000000000000000000000000000000000000000000000000000002000000000200000000000000000000000000000000000000000000000000040000000000000000000000000000000000000000400000000000000000000000000000000000",
          "type": "0x2",
          "transactionHash": "0x9f21017b96553d1bee6139ecd57c5884dd246d954dacd172814ce0bcdc1eec2e",
          "transactionIndex": "0x2a",
          "blockHash": "0xf8c6ceb97d813e251bd5d6a34992b881df42d86474c113a756ac9e2c481b1a39",
          "blockNumber": "0x172da6b",
          "gasUsed": "0x6f25",
          "effectiveGasPrice": "0xf477d",
          "from": "0x64a822f980dc5f126215d75d11dd8114ed0bdb5f",
          "to": "0xcf46be46aae4e3bc20fbdadf9b13cde49f4f94b1",
          "contractAddress": null,
          "l1BaseFeeScalar": "0x44d",
          "l1BlobBaseFee": "0x1",
          "l1BlobBaseFeeScalar": "0xa118b",
          "l1Fee": "0xbbb2",
          "l1GasPrice": "0x6a67",
          "l1GasUsed": "0x640"
        }
      ],
      "libraries": [],
      "pending": [],
      "returns": {},
      "timestamp": 1744376754,
      "chain": 84532,
      "commit": "5a12906"
    },
    {
      "transactions": [
        {
          "hash": "0xf97c7bf377cc689f8e9e673d8ad126d24f3d296f96c193944774052c3a29e64d",
          "transactionType": "CALL",
          "contractName": null,
          "contractAddress": "0xcf46be46aae4e3bc20fbdadf9b13cde49f4f94b1",
          "function": "setPeer(uint32,bytes32)",
          "arguments": [
            "40245",
            "0x000000000000000000000000cf46be46aae4e3bc20fbdadf9b13cde49f4f94b1"
          ],
          "transaction": {
            "from": "0x64a822f980dc5f126215d75d11dd8114ed0bdb5f",
            "to": "0xcf46be46aae4e3bc20fbdadf9b13cde49f4f94b1",
            "gas": "0x9984",
            "value": "0x0",
            "input": "0x3400288b0000000000000000000000000000000000000000000000000000000000009d35000000000000000000000000cf46be46aae4e3bc20fbdadf9b13cde49f4f94b1",
            "nonce": "0x2cd",
            "chainId": "0xaa37dc"
          },
          "additionalContracts": [],
          "isFixedGasLimit": false
        }
      ],
      "receipts": [
        {
          "status": "0x1",
          "cumulativeGasUsed": "0x198fc4",
          "logs": [
            {
              "address": "0xcf46be46aae4e3bc20fbdadf9b13cde49f4f94b1",
              "topics": [
                "0x238399d427b947898edb290f5ff0f9109849b1c3ba196a42e35f00c50a54b98b"
              ],
              "data": "0x0000000000000000000000000000000000000000000000000000000000009d35000000000000000000000000cf46be46aae4e3bc20fbdadf9b13cde49f4f94b1",
              "blockHash": "0xa971fb4fbb811a2049117706965c029eb381fcc3daff69d9440e1a7e1ce3fda0",
              "blockNumber": "0x1911c06",
              "transactionHash": "0xf97c7bf377cc689f8e9e673d8ad126d24f3d296f96c193944774052c3a29e64d",
              "transactionIndex": "0x7",
              "logIndex": "0x0",
              "removed": false
            }
          ],
          "logsBloom": "0x00000000000000000000000000000000000000000000000000000000000000000000000000000000000000000000000000000000000000000800000000000000000000000000000000000000000000000000000000000000000000000000000200000000000000000000000000000000000000000000000000000000000000000000000000000000000000000000000000000000000000000000000000000000000000000000000000000000000000000000000000000000000002000000000200000000000000000000000000000000000000000000000000040000000000000000000000000000000000000000400000000000000000000000000000000000",
          "type": "0x2",
          "transactionHash": "0xf97c7bf377cc689f8e9e673d8ad126d24f3d296f96c193944774052c3a29e64d",
          "transactionIndex": "0x7",
          "blockHash": "0xa971fb4fbb811a2049117706965c029eb381fcc3daff69d9440e1a7e1ce3fda0",
          "blockNumber": "0x1911c06",
          "gasUsed": "0x6f25",
          "effectiveGasPrice": "0xf4344",
          "from": "0x64a822f980dc5f126215d75d11dd8114ed0bdb5f",
          "to": "0xcf46be46aae4e3bc20fbdadf9b13cde49f4f94b1",
          "contractAddress": null,
          "l1BaseFeeScalar": "0x1db0",
          "l1BlobBaseFee": "0x1",
          "l1BlobBaseFeeScalar": "0xd2730",
          "l1Fee": "0x50473",
          "l1GasPrice": "0x699a",
          "l1GasUsed": "0x640"
        }
      ],
      "libraries": [],
      "pending": [],
      "returns": {},
      "timestamp": 1744376754,
      "chain": 11155420,
      "commit": "5a12906"
    }
  ],
  "timestamp": 1744376761
}