{
  "deployments": [
    {
      "transactions": [
        {
          "hash": "0x408a2ee673121782591ee43203b6f5ca60a497aec16fa47f043a501684944a5d",
          "transactionType": "CALL",
          "contractName": null,
          "contractAddress": "0xf2eef96a19731f9587781b0c6a6e453b12db9b9a",
          "function": "setPeer(uint32,bytes32)",
          "arguments": [
            "40232",
            "0x000000000000000000000000f2eef96a19731f9587781b0c6a6e453b12db9b9a"
          ],
          "transaction": {
            "from": "0x64a822f980dc5f126215d75d11dd8114ed0bdb5f",
            "to": "0xf2eef96a19731f9587781b0c6a6e453b12db9b9a",
            "gas": "0x1143c",
            "value": "0x0",
            "input": "0x3400288b0000000000000000000000000000000000000000000000000000000000009d28000000000000000000000000f2eef96a19731f9587781b0c6a6e453b12db9b9a",
            "nonce": "0x535",
            "chainId": "0x14a34"
          },
          "additionalContracts": [],
          "isFixedGasLimit": false
        },
        {
          "hash": "0x9c05dfd5cad0a4b62c74f920f33c997c984b7f0f98d1429d5d5c47444ba2b78d",
          "transactionType": "CALL",
          "contractName": null,
          "contractAddress": "0xda623abbce0bf37fd77e5daf51ab7029efe1514a",
          "function": "setPeer(uint32,bytes32)",
          "arguments": [
            "40232",
            "0x000000000000000000000000da623abbce0bf37fd77e5daf51ab7029efe1514a"
          ],
          "transaction": {
            "from": "0x64a822f980dc5f126215d75d11dd8114ed0bdb5f",
            "to": "0xda623abbce0bf37fd77e5daf51ab7029efe1514a",
            "gas": "0x1143c",
            "value": "0x0",
            "input": "0x3400288b0000000000000000000000000000000000000000000000000000000000009d28000000000000000000000000da623abbce0bf37fd77e5daf51ab7029efe1514a",
            "nonce": "0x536",
            "chainId": "0x14a34"
          },
          "additionalContracts": [],
          "isFixedGasLimit": false
        },
        {
          "hash": "0x8594f64f0af070baab7fa6eb380290f4c1a265cea303e1ab335c5fc049d63794",
          "transactionType": "CALL",
          "contractName": null,
          "contractAddress": "0x20746cd29652cd5325b8cbae297f748f79f7551a",
          "function": "setPeer(uint32,bytes32)",
          "arguments": [
            "40232",
            "0x00000000000000000000000020746cd29652cd5325b8cbae297f748f79f7551a"
          ],
          "transaction": {
            "from": "0x64a822f980dc5f126215d75d11dd8114ed0bdb5f",
            "to": "0x20746cd29652cd5325b8cbae297f748f79f7551a",
            "gas": "0x10487",
            "value": "0x0",
            "input": "0x3400288b0000000000000000000000000000000000000000000000000000000000009d2800000000000000000000000020746cd29652cd5325b8cbae297f748f79f7551a",
            "nonce": "0x537",
            "chainId": "0x14a34"
          },
          "additionalContracts": [],
          "isFixedGasLimit": false
        }
      ],
      "receipts": [
        {
          "status": "0x1",
          "cumulativeGasUsed": "0x289b11",
          "logs": [
            {
              "address": "0xf2eef96a19731f9587781b0c6a6e453b12db9b9a",
              "topics": [
                "0x238399d427b947898edb290f5ff0f9109849b1c3ba196a42e35f00c50a54b98b"
              ],
              "data": "0x0000000000000000000000000000000000000000000000000000000000009d28000000000000000000000000f2eef96a19731f9587781b0c6a6e453b12db9b9a",
              "blockHash": "0x38fc46691aea2a2ba102ea1300937af8751965f17dec0364343265731c34a993",
              "blockNumber": "0x19a4beb",
              "transactionHash": "0x408a2ee673121782591ee43203b6f5ca60a497aec16fa47f043a501684944a5d",
              "transactionIndex": "0x9",
              "logIndex": "0x6d",
              "removed": false
            }
          ],
          "logsBloom": "0x00000000000000000000000000000000000000000000000000000000000000000000000000000000000000000000000000000000000000000800000000000000000000000000000000000000000000000000000000000000000000000000000000000000000000080000400000000000000000000000000000000000000000000000000000008000000000000000000000000000000000000000000000000000000000000000000000000000000000000000000000000000000002000000000000000000000000000000000000000000000000000000000000040000000000000000000000000000000000000000000000000000000000000000000000000000",
          "type": "0x2",
          "transactionHash": "0x408a2ee673121782591ee43203b6f5ca60a497aec16fa47f043a501684944a5d",
          "transactionIndex": "0x9",
          "blockHash": "0x38fc46691aea2a2ba102ea1300937af8751965f17dec0364343265731c34a993",
          "blockNumber": "0x19a4beb",
          "gasUsed": "0xbce1",
          "effectiveGasPrice": "0x186e3",
          "from": "0x64a822f980dc5f126215d75d11dd8114ed0bdb5f",
          "to": "0xf2eef96a19731f9587781b0c6a6e453b12db9b9a",
          "contractAddress": null,
          "l1BaseFeeScalar": "0x44d",
          "l1BlobBaseFee": "0x7e",
          "l1BlobBaseFeeScalar": "0xa118b",
          "l1Fee": "0x1307b80",
          "l1GasPrice": "0xacc5b1",
          "l1GasUsed": "0x640"
        },
        {
          "status": "0x1",
          "cumulativeGasUsed": "0x2957f2",
          "logs": [
            {
              "address": "0xda623abbce0bf37fd77e5daf51ab7029efe1514a",
              "topics": [
                "0x238399d427b947898edb290f5ff0f9109849b1c3ba196a42e35f00c50a54b98b"
              ],
              "data": "0x0000000000000000000000000000000000000000000000000000000000009d28000000000000000000000000da623abbce0bf37fd77e5daf51ab7029efe1514a",
              "blockHash": "0x38fc46691aea2a2ba102ea1300937af8751965f17dec0364343265731c34a993",
              "blockNumber": "0x19a4beb",
              "transactionHash": "0x9c05dfd5cad0a4b62c74f920f33c997c984b7f0f98d1429d5d5c47444ba2b78d",
              "transactionIndex": "0xa",
              "logIndex": "0x6e",
              "removed": false
            }
          ],
          "logsBloom": "0x00000000000000000000000001000000000000000000000000000000000000000000000000000000000000000000000000000000000000000800000000000000000000000000000400000000000000000000000000000000000000000000000000000000000000000000000000000000000000000000000000000010000000000000000000000000000000000000000000000000000000000000000000000000000000000000000000000000000000000000000000000000000002000000000000000000000000000000000000000000000000000000000000040000000000000000000000000000000000000000000000000000000000000000000000000000",
          "type": "0x2",
          "transactionHash": "0x9c05dfd5cad0a4b62c74f920f33c997c984b7f0f98d1429d5d5c47444ba2b78d",
          "transactionIndex": "0xa",
          "blockHash": "0x38fc46691aea2a2ba102ea1300937af8751965f17dec0364343265731c34a993",
          "blockNumber": "0x19a4beb",
          "gasUsed": "0xbce1",
          "effectiveGasPrice": "0x186e3",
          "from": "0x64a822f980dc5f126215d75d11dd8114ed0bdb5f",
          "to": "0xda623abbce0bf37fd77e5daf51ab7029efe1514a",
          "contractAddress": null,
          "l1BaseFeeScalar": "0x44d",
          "l1BlobBaseFee": "0x7e",
          "l1BlobBaseFeeScalar": "0xa118b",
          "l1Fee": "0x1307b80",
          "l1GasPrice": "0xacc5b1",
          "l1GasUsed": "0x640"
        },
        {
          "status": "0x1",
          "cumulativeGasUsed": "0x2a1491",
          "logs": [
            {
              "address": "0x20746cd29652cd5325b8cbae297f748f79f7551a",
              "topics": [
                "0x238399d427b947898edb290f5ff0f9109849b1c3ba196a42e35f00c50a54b98b"
              ],
              "data": "0x0000000000000000000000000000000000000000000000000000000000009d2800000000000000000000000020746cd29652cd5325b8cbae297f748f79f7551a",
              "blockHash": "0x38fc46691aea2a2ba102ea1300937af8751965f17dec0364343265731c34a993",
              "blockNumber": "0x19a4beb",
              "transactionHash": "0x8594f64f0af070baab7fa6eb380290f4c1a265cea303e1ab335c5fc049d63794",
              "transactionIndex": "0xb",
              "logIndex": "0x6f",
              "removed": false
            }
          ],
          "logsBloom": "0x00000000000000000000000000000000000000000000000000000000000000000000000000000000000000000000000000800000000000000800000000000000000000000000000000000000000000000000000000000000000000000000000000000000000000000000000000000000000000000000000000000000000000000000000000000000000000000000000000000000000000000000000000000000000000000000000000000000020000000000000000000000000002000000000000000000000000000000000000000000000000000000000000040000000004000000000000000000000000000000000000000000000000000000000000000000",
          "type": "0x2",
          "transactionHash": "0x8594f64f0af070baab7fa6eb380290f4c1a265cea303e1ab335c5fc049d63794",
          "transactionIndex": "0xb",
          "blockHash": "0x38fc46691aea2a2ba102ea1300937af8751965f17dec0364343265731c34a993",
          "blockNumber": "0x19a4beb",
          "gasUsed": "0xbc9f",
          "effectiveGasPrice": "0x186e3",
          "from": "0x64a822f980dc5f126215d75d11dd8114ed0bdb5f",
          "to": "0x20746cd29652cd5325b8cbae297f748f79f7551a",
          "contractAddress": null,
          "l1BaseFeeScalar": "0x44d",
          "l1BlobBaseFee": "0x7e",
          "l1BlobBaseFeeScalar": "0xa118b",
          "l1Fee": "0x1307b80",
          "l1GasPrice": "0xacc5b1",
          "l1GasUsed": "0x640"
        }
      ],
      "libraries": [],
      "pending": [],
      "returns": {},
      "timestamp": 1749546674,
      "chain": 84532,
      "commit": "5d7ffa1"
    },
    {
      "transactions": [
        {
          "hash": "0x3388bb1d6f1e3959f15541b9a4ec94797adc76acceefaf8d07b04b9cf5f64006",
          "transactionType": "CALL",
          "contractName": null,
          "contractAddress": "0xf2eef96a19731f9587781b0c6a6e453b12db9b9a",
          "function": "setPeer(uint32,bytes32)",
          "arguments": [
            "40245",
            "0x000000000000000000000000f2eef96a19731f9587781b0c6a6e453b12db9b9a"
          ],
          "transaction": {
            "from": "0x64a822f980dc5f126215d75d11dd8114ed0bdb5f",
            "to": "0xf2eef96a19731f9587781b0c6a6e453b12db9b9a",
            "gas": "0x1143c",
            "value": "0x0",
            "input": "0x3400288b0000000000000000000000000000000000000000000000000000000000009d35000000000000000000000000f2eef96a19731f9587781b0c6a6e453b12db9b9a",
            "nonce": "0x362",
            "chainId": "0xaa37dc"
          },
          "additionalContracts": [],
          "isFixedGasLimit": false
        },
        {
          "hash": "0xebe5fcbe4b860329d2ae3fbcfe21808e0979ba5412db5eec4ba2108fffe83822",
          "transactionType": "CALL",
          "contractName": null,
          "contractAddress": "0xda623abbce0bf37fd77e5daf51ab7029efe1514a",
          "function": "setPeer(uint32,bytes32)",
          "arguments": [
            "40245",
            "0x000000000000000000000000da623abbce0bf37fd77e5daf51ab7029efe1514a"
          ],
          "transaction": {
            "from": "0x64a822f980dc5f126215d75d11dd8114ed0bdb5f",
            "to": "0xda623abbce0bf37fd77e5daf51ab7029efe1514a",
            "gas": "0x1143c",
            "value": "0x0",
            "input": "0x3400288b0000000000000000000000000000000000000000000000000000000000009d35000000000000000000000000da623abbce0bf37fd77e5daf51ab7029efe1514a",
            "nonce": "0x363",
            "chainId": "0xaa37dc"
          },
          "additionalContracts": [],
          "isFixedGasLimit": false
        },
        {
          "hash": "0x030be68ec8e13b549addd2b49039a5a40ef046a24b1da8ebb02feaa8865673fe",
          "transactionType": "CALL",
          "contractName": null,
          "contractAddress": "0x20746cd29652cd5325b8cbae297f748f79f7551a",
          "function": "setPeer(uint32,bytes32)",
          "arguments": [
            "40245",
            "0x00000000000000000000000020746cd29652cd5325b8cbae297f748f79f7551a"
          ],
          "transaction": {
            "from": "0x64a822f980dc5f126215d75d11dd8114ed0bdb5f",
            "to": "0x20746cd29652cd5325b8cbae297f748f79f7551a",
            "gas": "0x10487",
            "value": "0x0",
            "input": "0x3400288b0000000000000000000000000000000000000000000000000000000000009d3500000000000000000000000020746cd29652cd5325b8cbae297f748f79f7551a",
            "nonce": "0x364",
            "chainId": "0xaa37dc"
          },
          "additionalContracts": [],
          "isFixedGasLimit": false
        }
      ],
      "receipts": [
        {
          "status": "0x1",
          "cumulativeGasUsed": "0x1e3e1",
          "logs": [
            {
              "address": "0xf2eef96a19731f9587781b0c6a6e453b12db9b9a",
              "topics": [
                "0x238399d427b947898edb290f5ff0f9109849b1c3ba196a42e35f00c50a54b98b"
              ],
              "data": "0x0000000000000000000000000000000000000000000000000000000000009d35000000000000000000000000f2eef96a19731f9587781b0c6a6e453b12db9b9a",
              "blockHash": "0x4b92bbe3a431a47d8937f010382722d84488fd0bea4959d8f491b4624ec5fd42",
              "blockNumber": "0x1b88d87",
              "transactionHash": "0x3388bb1d6f1e3959f15541b9a4ec94797adc76acceefaf8d07b04b9cf5f64006",
              "transactionIndex": "0x2",
              "logIndex": "0x0",
              "removed": false
            }
          ],
          "logsBloom": "0x00000000000000000000000000000000000000000000000000000000000000000000000000000000000000000000000000000000000000000800000000000000000000000000000000000000000000000000000000000000000000000000000000000000000000080000400000000000000000000000000000000000000000000000000000008000000000000000000000000000000000000000000000000000000000000000000000000000000000000000000000000000000002000000000000000000000000000000000000000000000000000000000000040000000000000000000000000000000000000000000000000000000000000000000000000000",
          "type": "0x2",
          "transactionHash": "0x3388bb1d6f1e3959f15541b9a4ec94797adc76acceefaf8d07b04b9cf5f64006",
          "transactionIndex": "0x2",
          "blockHash": "0x4b92bbe3a431a47d8937f010382722d84488fd0bea4959d8f491b4624ec5fd42",
          "blockNumber": "0x1b88d87",
          "gasUsed": "0xbce1",
          "effectiveGasPrice": "0x17e1f",
          "from": "0x64a822f980dc5f126215d75d11dd8114ed0bdb5f",
          "to": "0xf2eef96a19731f9587781b0c6a6e453b12db9b9a",
          "contractAddress": null,
          "l1BaseFeeScalar": "0x1db0",
          "l1BlobBaseFee": "0x5c",
          "l1BlobBaseFeeScalar": "0xd2730",
          "l1Fee": "0xa25d6cb",
          "l1GasPrice": "0xd5a0cd",
          "l1GasUsed": "0x640"
        },
        {
          "status": "0x1",
          "cumulativeGasUsed": "0x2a0c2",
          "logs": [
            {
              "address": "0xda623abbce0bf37fd77e5daf51ab7029efe1514a",
              "topics": [
                "0x238399d427b947898edb290f5ff0f9109849b1c3ba196a42e35f00c50a54b98b"
              ],
              "data": "0x0000000000000000000000000000000000000000000000000000000000009d35000000000000000000000000da623abbce0bf37fd77e5daf51ab7029efe1514a",
              "blockHash": "0x4b92bbe3a431a47d8937f010382722d84488fd0bea4959d8f491b4624ec5fd42",
              "blockNumber": "0x1b88d87",
              "transactionHash": "0xebe5fcbe4b860329d2ae3fbcfe21808e0979ba5412db5eec4ba2108fffe83822",
              "transactionIndex": "0x3",
              "logIndex": "0x1",
              "removed": false
            }
          ],
          "logsBloom": "0x00000000000000000000000001000000000000000000000000000000000000000000000000000000000000000000000000000000000000000800000000000000000000000000000400000000000000000000000000000000000000000000000000000000000000000000000000000000000000000000000000000010000000000000000000000000000000000000000000000000000000000000000000000000000000000000000000000000000000000000000000000000000002000000000000000000000000000000000000000000000000000000000000040000000000000000000000000000000000000000000000000000000000000000000000000000",
          "type": "0x2",
          "transactionHash": "0xebe5fcbe4b860329d2ae3fbcfe21808e0979ba5412db5eec4ba2108fffe83822",
          "transactionIndex": "0x3",
          "blockHash": "0x4b92bbe3a431a47d8937f010382722d84488fd0bea4959d8f491b4624ec5fd42",
          "blockNumber": "0x1b88d87",
          "gasUsed": "0xbce1",
          "effectiveGasPrice": "0x17e1f",
          "from": "0x64a822f980dc5f126215d75d11dd8114ed0bdb5f",
          "to": "0xda623abbce0bf37fd77e5daf51ab7029efe1514a",
          "contractAddress": null,
          "l1BaseFeeScalar": "0x1db0",
          "l1BlobBaseFee": "0x5c",
          "l1BlobBaseFeeScalar": "0xd2730",
          "l1Fee": "0xa25d6cb",
          "l1GasPrice": "0xd5a0cd",
          "l1GasUsed": "0x640"
        },
        {
          "status": "0x1",
          "cumulativeGasUsed": "0x35d61",
          "logs": [
            {
              "address": "0x20746cd29652cd5325b8cbae297f748f79f7551a",
              "topics": [
                "0x238399d427b947898edb290f5ff0f9109849b1c3ba196a42e35f00c50a54b98b"
              ],
              "data": "0x0000000000000000000000000000000000000000000000000000000000009d3500000000000000000000000020746cd29652cd5325b8cbae297f748f79f7551a",
              "blockHash": "0x4b92bbe3a431a47d8937f010382722d84488fd0bea4959d8f491b4624ec5fd42",
              "blockNumber": "0x1b88d87",
              "transactionHash": "0x030be68ec8e13b549addd2b49039a5a40ef046a24b1da8ebb02feaa8865673fe",
              "transactionIndex": "0x4",
              "logIndex": "0x2",
              "removed": false
            }
          ],
          "logsBloom": "0x00000000000000000000000000000000000000000000000000000000000000000000000000000000000000000000000000800000000000000800000000000000000000000000000000000000000000000000000000000000000000000000000000000000000000000000000000000000000000000000000000000000000000000000000000000000000000000000000000000000000000000000000000000000000000000000000000000000020000000000000000000000000002000000000000000000000000000000000000000000000000000000000000040000000004000000000000000000000000000000000000000000000000000000000000000000",
          "type": "0x2",
          "transactionHash": "0x030be68ec8e13b549addd2b49039a5a40ef046a24b1da8ebb02feaa8865673fe",
          "transactionIndex": "0x4",
          "blockHash": "0x4b92bbe3a431a47d8937f010382722d84488fd0bea4959d8f491b4624ec5fd42",
          "blockNumber": "0x1b88d87",
          "gasUsed": "0xbc9f",
          "effectiveGasPrice": "0x17e1f",
          "from": "0x64a822f980dc5f126215d75d11dd8114ed0bdb5f",
          "to": "0x20746cd29652cd5325b8cbae297f748f79f7551a",
          "contractAddress": null,
          "l1BaseFeeScalar": "0x1db0",
          "l1BlobBaseFee": "0x5c",
          "l1BlobBaseFeeScalar": "0xd2730",
          "l1Fee": "0xa25d6cb",
          "l1GasPrice": "0xd5a0cd",
          "l1GasUsed": "0x640"
        }
      ],
      "libraries": [],
      "pending": [],
      "returns": {},
      "timestamp": 1749546674,
      "chain": 11155420,
      "commit": "5d7ffa1"
    }
  ],
  "timestamp": 1749546683
}