{
  "deployments": [
    {
      "transactions": [
        {
          "hash": null,
          "transactionType": "CALL",
          "contractName": null,
          "contractAddress": "0xcf46be46aae4e3bc20fbdadf9b13cde49f4f94b1",
          "function": "setPeer(uint32,bytes32)",
          "arguments": [
            "40232",
            "0x000000000000000000000000cf46be46aae4e3bc20fbdadf9b13cde49f4f94b1"
          ],
          "transaction": {
            "from": "0x64a822f980dc5f126215d75d11dd8114ed0bdb5f",
            "to": "0xcf46be46aae4e3bc20fbdadf9b13cde49f4f94b1",
            "gas": "0x1143c",
            "value": "0x0",
            "input": "0x3400288b0000000000000000000000000000000000000000000000000000000000009d28000000000000000000000000cf46be46aae4e3bc20fbdadf9b13cde49f4f94b1",
            "nonce": "0x432",
            "chainId": "0x14a34"
          },
          "additionalContracts": [],
          "isFixedGasLimit": false
        }
      ],
      "receipts": [],
      "libraries": [],
      "pending": [],
      "returns": {},
      "timestamp": 1744375798,
      "chain": 84532,
      "commit": "5a12906"
    },
    {
      "transactions": [
        {
          "hash": null,
          "transactionType": "CALL",
          "contractName": null,
          "contractAddress": "0xcf46be46aae4e3bc20fbdadf9b13cde49f4f94b1",
          "function": "setPeer(uint32,bytes32)",
          "arguments": [
            "40245",
            "0x000000000000000000000000cf46be46aae4e3bc20fbdadf9b13cde49f4f94b1"
          ],
          "transaction": {
            "from": "0x64a822f980dc5f126215d75d11dd8114ed0bdb5f",
            "to": "0xcf46be46aae4e3bc20fbdadf9b13cde49f4f94b1",
            "gas": "0x1143c",
            "value": "0x0",
            "input": "0x3400288b0000000000000000000000000000000000000000000000000000000000009d35000000000000000000000000cf46be46aae4e3bc20fbdadf9b13cde49f4f94b1",
            "nonce": "0x2cc",
            "chainId": "0xaa37dc"
          },
          "additionalContracts": [],
          "isFixedGasLimit": false
        }
      ],
      "receipts": [],
      "libraries": [],
      "pending": [],
      "returns": {},
      "timestamp": 1744375798,
      "chain": 11155420,
      "commit": "5a12906"
    }
  ],
  "timestamp": 1744375802
}