{
  "deployments": [
    {
      "transactions": [
        {
          "hash": "0xa8276272000d30cb03fdf4c67aa6a62d3862a5aa1d248a99c453fcf2ac571f58",
          "transactionType": "CALL",
          "contractName": null,
          "contractAddress": "0xb33b4953c70bbf3e2566bc53ea493a30f43c137a",
          "function": "setPeer(uint32,bytes32)",
          "arguments": [
            "40232",
            "0x000000000000000000000000b33b4953c70bbf3e2566bc53ea493a30f43c137a"
          ],
          "transaction": {
            "from": "0x64a822f980dc5f126215d75d11dd8114ed0bdb5f",
            "to": "0xb33b4953c70bbf3e2566bc53ea493a30f43c137a",
            "gas": "0x1143c",
            "value": "0x0",
            "input": "0x3400288b0000000000000000000000000000000000000000000000000000000000009d28000000000000000000000000b33b4953c70bbf3e2566bc53ea493a30f43c137a",
            "nonce": "0x557",
            "chainId": "0x14a34"
          },
          "additionalContracts": [],
          "isFixedGasLimit": false
        },
        {
          "hash": "0x1f080699dc3facf6697c28c38c7634089b72ccf8494d10262c0b64517300198b",
          "transactionType": "CALL",
          "contractName": null,
          "contractAddress": "0x902835e65fe1130675263e2a20639b34602cca36",
          "function": "setPeer(uint32,bytes32)",
          "arguments": [
            "40232",
            "0x000000000000000000000000902835e65fe1130675263e2a20639b34602cca36"
          ],
          "transaction": {
            "from": "0x64a822f980dc5f126215d75d11dd8114ed0bdb5f",
            "to": "0x902835e65fe1130675263e2a20639b34602cca36",
            "gas": "0x1143c",
            "value": "0x0",
            "input": "0x3400288b0000000000000000000000000000000000000000000000000000000000009d28000000000000000000000000902835e65fe1130675263e2a20639b34602cca36",
            "nonce": "0x558",
            "chainId": "0x14a34"
          },
          "additionalContracts": [],
          "isFixedGasLimit": false
        },
        {
          "hash": "0xb401ce7a384fcd6b5dc3a706b4c5cd206cba200e3efb5c4c478d19a3029de136",
          "transactionType": "CALL",
          "contractName": null,
          "contractAddress": "0x63ac8bb8cd93910950d0d98780fc8b956709d68d",
          "function": "setPeer(uint32,bytes32)",
          "arguments": [
            "40232",
            "0x00000000000000000000000063ac8bb8cd93910950d0d98780fc8b956709d68d"
          ],
          "transaction": {
            "from": "0x64a822f980dc5f126215d75d11dd8114ed0bdb5f",
            "to": "0x63ac8bb8cd93910950d0d98780fc8b956709d68d",
            "gas": "0x10487",
            "value": "0x0",
            "input": "0x3400288b0000000000000000000000000000000000000000000000000000000000009d2800000000000000000000000063ac8bb8cd93910950d0d98780fc8b956709d68d",
            "nonce": "0x559",
            "chainId": "0x14a34"
          },
          "additionalContracts": [],
          "isFixedGasLimit": false
        }
      ],
      "receipts": [
        {
          "status": "0x1",
          "cumulativeGasUsed": "0x1bddce",
          "logs": [
            {
              "address": "0xb33b4953c70bbf3e2566bc53ea493a30f43c137a",
              "topics": [
                "0x238399d427b947898edb290f5ff0f9109849b1c3ba196a42e35f00c50a54b98b"
              ],
              "data": "0x0000000000000000000000000000000000000000000000000000000000009d28000000000000000000000000b33b4953c70bbf3e2566bc53ea493a30f43c137a",
              "blockHash": "0xbb69169840e19157d51dc454630dd0756c685cd2d2c819e6e2bbdf14ae56926b",
              "blockNumber": "0x19a7068",
              "transactionHash": "0xa8276272000d30cb03fdf4c67aa6a62d3862a5aa1d248a99c453fcf2ac571f58",
              "transactionIndex": "0x7",
              "logIndex": "0x16",
              "removed": false
            }
          ],
          "logsBloom": "0x00080000000000000000000000000000000000000000000000000000000000000000000000000000000000000000000000400000000000000800000000000000000000000000000000000000000000000000000000000000000000000000000000010000000000000000000000000000000000000000000000000000000000000000000000000000000000000000000000000000000000000000000000000000000000000000000000000000000000000000000000000000000002000000000000000000000000000000000000000000000000000000000000040000000000000000000000000000000000000000000000000000000000000000000000000000",
          "type": "0x2",
          "transactionHash": "0xa8276272000d30cb03fdf4c67aa6a62d3862a5aa1d248a99c453fcf2ac571f58",
          "transactionIndex": "0x7",
          "blockHash": "0xbb69169840e19157d51dc454630dd0756c685cd2d2c819e6e2bbdf14ae56926b",
          "blockNumber": "0x19a7068",
          "gasUsed": "0xbce1",
          "effectiveGasPrice": "0x1bd",
          "from": "0x64a822f980dc5f126215d75d11dd8114ed0bdb5f",
          "to": "0xb33b4953c70bbf3e2566bc53ea493a30f43c137a",
          "contractAddress": null,
          "l1BaseFeeScalar": "0x44d",
          "l1BlobBaseFee": "0x1",
          "l1BlobBaseFeeScalar": "0xa118b",
          "l1Fee": "0x229deb6",
          "l1GasPrice": "0x13a6996",
          "l1GasUsed": "0x640"
        },
        {
          "status": "0x1",
          "cumulativeGasUsed": "0x1c9aaf",
          "logs": [
            {
              "address": "0x902835e65fe1130675263e2a20639b34602cca36",
              "topics": [
                "0x238399d427b947898edb290f5ff0f9109849b1c3ba196a42e35f00c50a54b98b"
              ],
              "data": "0x0000000000000000000000000000000000000000000000000000000000009d28000000000000000000000000902835e65fe1130675263e2a20639b34602cca36",
              "blockHash": "0xbb69169840e19157d51dc454630dd0756c685cd2d2c819e6e2bbdf14ae56926b",
              "blockNumber": "0x19a7068",
              "transactionHash": "0x1f080699dc3facf6697c28c38c7634089b72ccf8494d10262c0b64517300198b",
              "transactionIndex": "0x8",
              "logIndex": "0x17",
              "removed": false
            }
          ],
          "logsBloom": "0x00000000000000020000000000000000000000000000000000000000000000000000000000000000000000000000000000000000000000000800000000000000000000000000000000000000000000000000000000000000000000000000000000000000000000000000000000000000000000000000000000000000000000000000000000000000000000000000000000000000000000000000000000000000001000000000000000000000000000000000000000000000000002000000000000000000000000000000000000000000020000000000000000040000000000000000000000000000000000000000000000000000000000000000000000000000",
          "type": "0x2",
          "transactionHash": "0x1f080699dc3facf6697c28c38c7634089b72ccf8494d10262c0b64517300198b",
          "transactionIndex": "0x8",
          "blockHash": "0xbb69169840e19157d51dc454630dd0756c685cd2d2c819e6e2bbdf14ae56926b",
          "blockNumber": "0x19a7068",
          "gasUsed": "0xbce1",
          "effectiveGasPrice": "0x1bd",
          "from": "0x64a822f980dc5f126215d75d11dd8114ed0bdb5f",
          "to": "0x902835e65fe1130675263e2a20639b34602cca36",
          "contractAddress": null,
          "l1BaseFeeScalar": "0x44d",
          "l1BlobBaseFee": "0x1",
          "l1BlobBaseFeeScalar": "0xa118b",
          "l1Fee": "0x229deb6",
          "l1GasPrice": "0x13a6996",
          "l1GasUsed": "0x640"
        },
        {
          "status": "0x1",
          "cumulativeGasUsed": "0x1d574e",
          "logs": [
            {
              "address": "0x63ac8bb8cd93910950d0d98780fc8b956709d68d",
              "topics": [
                "0x238399d427b947898edb290f5ff0f9109849b1c3ba196a42e35f00c50a54b98b"
              ],
              "data": "0x0000000000000000000000000000000000000000000000000000000000009d2800000000000000000000000063ac8bb8cd93910950d0d98780fc8b956709d68d",
              "blockHash": "0xbb69169840e19157d51dc454630dd0756c685cd2d2c819e6e2bbdf14ae56926b",
              "blockNumber": "0x19a7068",
              "transactionHash": "0xb401ce7a384fcd6b5dc3a706b4c5cd206cba200e3efb5c4c478d19a3029de136",
              "transactionIndex": "0x9",
              "logIndex": "0x18",
              "removed": false
            }
          ],
          "logsBloom": "0x00000000000000000000000000000000000000000000000000000000000000000000000000000000000000000000000000000000000000000800000000000000000000000000000000000000000000000000000000000000000000000000000000000000000000000000000000000000000000000000000000000000000000000000000000000000000000000000000000020000000000000000000000000000000000000000000000000000000000000000000000000000000002000000000000000000000000000000000000002000000000000000000000040000000000000000000000000000000000000000200000000000000000000000000000000000",
          "type": "0x2",
          "transactionHash": "0xb401ce7a384fcd6b5dc3a706b4c5cd206cba200e3efb5c4c478d19a3029de136",
          "transactionIndex": "0x9",
          "blockHash": "0xbb69169840e19157d51dc454630dd0756c685cd2d2c819e6e2bbdf14ae56926b",
          "blockNumber": "0x19a7068",
          "gasUsed": "0xbc9f",
          "effectiveGasPrice": "0x1bd",
          "from": "0x64a822f980dc5f126215d75d11dd8114ed0bdb5f",
          "to": "0x63ac8bb8cd93910950d0d98780fc8b956709d68d",
          "contractAddress": null,
          "l1BaseFeeScalar": "0x44d",
          "l1BlobBaseFee": "0x1",
          "l1BlobBaseFeeScalar": "0xa118b",
          "l1Fee": "0x229deb6",
          "l1GasPrice": "0x13a6996",
          "l1GasUsed": "0x640"
        }
      ],
      "libraries": [],
      "pending": [],
      "returns": {},
      "timestamp": 1749565355,
      "chain": 84532,
      "commit": "0288ae1"
    },
    {
      "transactions": [
        {
          "hash": "0xa751475a2ddcbbfdb7b602b8840d39a78fa3339448aa1d51daa01e0799458b8d",
          "transactionType": "CALL",
          "contractName": null,
          "contractAddress": "0xb33b4953c70bbf3e2566bc53ea493a30f43c137a",
          "function": "setPeer(uint32,bytes32)",
          "arguments": [
            "40245",
            "0x000000000000000000000000b33b4953c70bbf3e2566bc53ea493a30f43c137a"
          ],
          "transaction": {
            "from": "0x64a822f980dc5f126215d75d11dd8114ed0bdb5f",
            "to": "0xb33b4953c70bbf3e2566bc53ea493a30f43c137a",
            "gas": "0x1143c",
            "value": "0x0",
            "input": "0x3400288b0000000000000000000000000000000000000000000000000000000000009d35000000000000000000000000b33b4953c70bbf3e2566bc53ea493a30f43c137a",
            "nonce": "0x37f",
            "chainId": "0xaa37dc"
          },
          "additionalContracts": [],
          "isFixedGasLimit": false
        },
        {
          "hash": "0x44e0263bc1bbc0711975779f64935c027f0b65bd848465a0dcd46332b118abca",
          "transactionType": "CALL",
          "contractName": null,
          "contractAddress": "0x902835e65fe1130675263e2a20639b34602cca36",
          "function": "setPeer(uint32,bytes32)",
          "arguments": [
            "40245",
            "0x000000000000000000000000902835e65fe1130675263e2a20639b34602cca36"
          ],
          "transaction": {
            "from": "0x64a822f980dc5f126215d75d11dd8114ed0bdb5f",
            "to": "0x902835e65fe1130675263e2a20639b34602cca36",
            "gas": "0x1143c",
            "value": "0x0",
            "input": "0x3400288b0000000000000000000000000000000000000000000000000000000000009d35000000000000000000000000902835e65fe1130675263e2a20639b34602cca36",
            "nonce": "0x380",
            "chainId": "0xaa37dc"
          },
          "additionalContracts": [],
          "isFixedGasLimit": false
        },
        {
          "hash": "0x9181c3d767c184d5b873c9596bc9a66aa3ae52e4e6ec59f80c5954436410afac",
          "transactionType": "CALL",
          "contractName": null,
          "contractAddress": "0x63ac8bb8cd93910950d0d98780fc8b956709d68d",
          "function": "setPeer(uint32,bytes32)",
          "arguments": [
            "40245",
            "0x00000000000000000000000063ac8bb8cd93910950d0d98780fc8b956709d68d"
          ],
          "transaction": {
            "from": "0x64a822f980dc5f126215d75d11dd8114ed0bdb5f",
            "to": "0x63ac8bb8cd93910950d0d98780fc8b956709d68d",
            "gas": "0x10487",
            "value": "0x0",
            "input": "0x3400288b0000000000000000000000000000000000000000000000000000000000009d3500000000000000000000000063ac8bb8cd93910950d0d98780fc8b956709d68d",
            "nonce": "0x381",
            "chainId": "0xaa37dc"
          },
          "additionalContracts": [],
          "isFixedGasLimit": false
        }
      ],
      "receipts": [
        {
          "status": "0x1",
          "cumulativeGasUsed": "0x33ded",
          "logs": [
            {
              "address": "0xb33b4953c70bbf3e2566bc53ea493a30f43c137a",
              "topics": [
                "0x238399d427b947898edb290f5ff0f9109849b1c3ba196a42e35f00c50a54b98b"
              ],
              "data": "0x0000000000000000000000000000000000000000000000000000000000009d35000000000000000000000000b33b4953c70bbf3e2566bc53ea493a30f43c137a",
              "blockHash": "0xe7f1376b262c0d1adda044f5609a5d755585e88fe7be65761e1901c80a5fb73e",
              "blockNumber": "0x1b8b204",
              "transactionHash": "0xa751475a2ddcbbfdb7b602b8840d39a78fa3339448aa1d51daa01e0799458b8d",
              "transactionIndex": "0x3",
              "logIndex": "0x2",
              "removed": false
            }
          ],
          "logsBloom": "0x00080000000000000000000000000000000000000000000000000000000000000000000000000000000000000000000000400000000000000800000000000000000000000000000000000000000000000000000000000000000000000000000000010000000000000000000000000000000000000000000000000000000000000000000000000000000000000000000000000000000000000000000000000000000000000000000000000000000000000000000000000000000002000000000000000000000000000000000000000000000000000000000000040000000000000000000000000000000000000000000000000000000000000000000000000000",
          "type": "0x2",
          "transactionHash": "0xa751475a2ddcbbfdb7b602b8840d39a78fa3339448aa1d51daa01e0799458b8d",
          "transactionIndex": "0x3",
          "blockHash": "0xe7f1376b262c0d1adda044f5609a5d755585e88fe7be65761e1901c80a5fb73e",
          "blockNumber": "0x1b8b204",
          "gasUsed": "0xbce1",
          "effectiveGasPrice": "0xf433d",
          "from": "0x64a822f980dc5f126215d75d11dd8114ed0bdb5f",
          "to": "0xb33b4953c70bbf3e2566bc53ea493a30f43c137a",
          "contractAddress": null,
          "l1BaseFeeScalar": "0x1db0",
          "l1BlobBaseFee": "0x1",
          "l1BlobBaseFeeScalar": "0xd2730",
          "l1Fee": "0xfac88e1",
          "l1GasPrice": "0x149fa63",
          "l1GasUsed": "0x640"
        },
        {
          "status": "0x1",
          "cumulativeGasUsed": "0x3face",
          "logs": [
            {
              "address": "0x902835e65fe1130675263e2a20639b34602cca36",
              "topics": [
                "0x238399d427b947898edb290f5ff0f9109849b1c3ba196a42e35f00c50a54b98b"
              ],
              "data": "0x0000000000000000000000000000000000000000000000000000000000009d35000000000000000000000000902835e65fe1130675263e2a20639b34602cca36",
              "blockHash": "0xe7f1376b262c0d1adda044f5609a5d755585e88fe7be65761e1901c80a5fb73e",
              "blockNumber": "0x1b8b204",
              "transactionHash": "0x44e0263bc1bbc0711975779f64935c027f0b65bd848465a0dcd46332b118abca",
              "transactionIndex": "0x4",
              "logIndex": "0x3",
              "removed": false
            }
          ],
          "logsBloom": "0x00000000000000020000000000000000000000000000000000000000000000000000000000000000000000000000000000000000000000000800000000000000000000000000000000000000000000000000000000000000000000000000000000000000000000000000000000000000000000000000000000000000000000000000000000000000000000000000000000000000000000000000000000000000001000000000000000000000000000000000000000000000000002000000000000000000000000000000000000000000020000000000000000040000000000000000000000000000000000000000000000000000000000000000000000000000",
          "type": "0x2",
          "transactionHash": "0x44e0263bc1bbc0711975779f64935c027f0b65bd848465a0dcd46332b118abca",
          "transactionIndex": "0x4",
          "blockHash": "0xe7f1376b262c0d1adda044f5609a5d755585e88fe7be65761e1901c80a5fb73e",
          "blockNumber": "0x1b8b204",
          "gasUsed": "0xbce1",
          "effectiveGasPrice": "0xf433d",
          "from": "0x64a822f980dc5f126215d75d11dd8114ed0bdb5f",
          "to": "0x902835e65fe1130675263e2a20639b34602cca36",
          "contractAddress": null,
          "l1BaseFeeScalar": "0x1db0",
          "l1BlobBaseFee": "0x1",
          "l1BlobBaseFeeScalar": "0xd2730",
          "l1Fee": "0xfac88e1",
          "l1GasPrice": "0x149fa63",
          "l1GasUsed": "0x640"
        },
        {
          "status": "0x1",
          "cumulativeGasUsed": "0x4b76d",
          "logs": [
            {
              "address": "0x63ac8bb8cd93910950d0d98780fc8b956709d68d",
              "topics": [
                "0x238399d427b947898edb290f5ff0f9109849b1c3ba196a42e35f00c50a54b98b"
              ],
              "data": "0x0000000000000000000000000000000000000000000000000000000000009d3500000000000000000000000063ac8bb8cd93910950d0d98780fc8b956709d68d",
              "blockHash": "0xe7f1376b262c0d1adda044f5609a5d755585e88fe7be65761e1901c80a5fb73e",
              "blockNumber": "0x1b8b204",
              "transactionHash": "0x9181c3d767c184d5b873c9596bc9a66aa3ae52e4e6ec59f80c5954436410afac",
              "transactionIndex": "0x5",
              "logIndex": "0x4",
              "removed": false
            }
          ],
          "logsBloom": "0x00000000000000000000000000000000000000000000000000000000000000000000000000000000000000000000000000000000000000000800000000000000000000000000000000000000000000000000000000000000000000000000000000000000000000000000000000000000000000000000000000000000000000000000000000000000000000000000000000020000000000000000000000000000000000000000000000000000000000000000000000000000000002000000000000000000000000000000000000002000000000000000000000040000000000000000000000000000000000000000200000000000000000000000000000000000",
          "type": "0x2",
          "transactionHash": "0x9181c3d767c184d5b873c9596bc9a66aa3ae52e4e6ec59f80c5954436410afac",
          "transactionIndex": "0x5",
          "blockHash": "0xe7f1376b262c0d1adda044f5609a5d755585e88fe7be65761e1901c80a5fb73e",
          "blockNumber": "0x1b8b204",
          "gasUsed": "0xbc9f",
          "effectiveGasPrice": "0xf433d",
          "from": "0x64a822f980dc5f126215d75d11dd8114ed0bdb5f",
          "to": "0x63ac8bb8cd93910950d0d98780fc8b956709d68d",
          "contractAddress": null,
          "l1BaseFeeScalar": "0x1db0",
          "l1BlobBaseFee": "0x1",
          "l1BlobBaseFeeScalar": "0xd2730",
          "l1Fee": "0xfac88e1",
          "l1GasPrice": "0x149fa63",
          "l1GasUsed": "0x640"
        }
      ],
      "libraries": [],
      "pending": [],
      "returns": {},
      "timestamp": 1749565355,
      "chain": 11155420,
      "commit": "0288ae1"
    }
  ],
  "timestamp": 1749565366
}