{
  "deployments": [
    {
      "transactions": [
        {
          "hash": "0x1a5bd7d84b5f91537e3a10db39a0a70a540ec2f058d5a6e7dcfcea4131999fed",
          "transactionType": "CALL",
          "contractName": null,
          "contractAddress": "0x7f4ee1b1bd6b55ae244dc01cf64809e68d54c1a5",
          "function": "setPeer(uint32,bytes32)",
          "arguments": [
            "40232",
            "0x0000000000000000000000007f4ee1b1bd6b55ae244dc01cf64809e68d54c1a5"
          ],
          "transaction": {
            "from": "0x64a822f980dc5f126215d75d11dd8114ed0bdb5f",
            "to": "0x7f4ee1b1bd6b55ae244dc01cf64809e68d54c1a5",
            "gas": "0x9984",
            "value": "0x0",
            "input": "0x3400288b0000000000000000000000000000000000000000000000000000000000009d280000000000000000000000007f4ee1b1bd6b55ae244dc01cf64809e68d54c1a5",
            "nonce": "0x44e",
            "chainId": "0x14a34"
          },
          "additionalContracts": [],
          "isFixedGasLimit": false
        },
        {
          "hash": "0xc41c6ce0e8aae7b0d9e4999144ce7b7410f128039df24dad9d319972aee5de69",
          "transactionType": "CALL",
          "contractName": null,
          "contractAddress": "0xe1b5a0319ab2eaa7a095916eb699356e5da0337e",
          "function": "setPeer(uint32,bytes32)",
          "arguments": [
            "40232",
            "0x000000000000000000000000e1b5a0319ab2eaa7a095916eb699356e5da0337e"
          ],
          "transaction": {
            "from": "0x64a822f980dc5f126215d75d11dd8114ed0bdb5f",
            "to": "0xe1b5a0319ab2eaa7a095916eb699356e5da0337e",
            "gas": "0x9984",
            "value": "0x0",
            "input": "0x3400288b0000000000000000000000000000000000000000000000000000000000009d28000000000000000000000000e1b5a0319ab2eaa7a095916eb699356e5da0337e",
            "nonce": "0x44f",
            "chainId": "0x14a34"
          },
          "additionalContracts": [],
          "isFixedGasLimit": false
        },
        {
          "hash": "0x627d432accdcacc9d7b198f6764041791bf91597827c2608b8792d72bcf7aae0",
          "transactionType": "CALL",
          "contractName": null,
          "contractAddress": "0xbfad15080e1b22c41a95b18e8ef258e9e4002080",
          "function": "setPeer(uint32,bytes32)",
          "arguments": [
            "40232",
            "0x000000000000000000000000bfad15080e1b22c41a95b18e8ef258e9e4002080"
          ],
          "transaction": {
            "from": "0x64a822f980dc5f126215d75d11dd8114ed0bdb5f",
            "to": "0xbfad15080e1b22c41a95b18e8ef258e9e4002080",
            "gas": "0x10458",
            "value": "0x0",
            "input": "0x3400288b0000000000000000000000000000000000000000000000000000000000009d28000000000000000000000000bfad15080e1b22c41a95b18e8ef258e9e4002080",
            "nonce": "0x450",
            "chainId": "0x14a34"
          },
          "additionalContracts": [],
          "isFixedGasLimit": false
        }
      ],
      "receipts": [
        {
          "status": "0x1",
          "cumulativeGasUsed": "0xacab7",
          "logs": [
            {
              "address": "0x7f4ee1b1bd6b55ae244dc01cf64809e68d54c1a5",
              "topics": [
                "0x238399d427b947898edb290f5ff0f9109849b1c3ba196a42e35f00c50a54b98b"
              ],
              "data": "0x0000000000000000000000000000000000000000000000000000000000009d280000000000000000000000007f4ee1b1bd6b55ae244dc01cf64809e68d54c1a5",
              "blockHash": "0xfbcf83e36bd3e9cc9c6f912c13391756a42e45dd25768b19e126260734e0d530",
              "blockNumber": "0x17c5850",
              "transactionHash": "0x1a5bd7d84b5f91537e3a10db39a0a70a540ec2f058d5a6e7dcfcea4131999fed",
              "transactionIndex": "0x7",
              "logIndex": "0x10",
              "removed": false
            }
          ],
          "logsBloom": "0x00000000000000000000000000000000000000000000000000000000000000000000000000200000000000000000000000000000000000000800000000000000000000000000000000000000000000000000000000000000000000000000000000000000000000000000000000000000000000100000000000000000000000000000000000000000000000000000000000000000000000000000000000000000000000000000000000000000000000000000000000000000000002000000000000000000000000000000000000000000000000000000000000040000000000000000000000000000000000000000000000040000000000000000000000000000",
          "type": "0x2",
          "transactionHash": "0x1a5bd7d84b5f91537e3a10db39a0a70a540ec2f058d5a6e7dcfcea4131999fed",
          "transactionIndex": "0x7",
          "blockHash": "0xfbcf83e36bd3e9cc9c6f912c13391756a42e45dd25768b19e126260734e0d530",
          "blockNumber": "0x17c5850",
          "gasUsed": "0x6f25",
          "effectiveGasPrice": "0xdfa69",
          "from": "0x64a822f980dc5f126215d75d11dd8114ed0bdb5f",
          "to": "0x7f4ee1b1bd6b55ae244dc01cf64809e68d54c1a5",
          "contractAddress": null,
          "l1BaseFeeScalar": "0x44d",
          "l1BlobBaseFee": "0x1",
          "l1BlobBaseFeeScalar": "0xa118b",
          "l1Fee": "0x82ce6",
          "l1GasPrice": "0x4a3ec",
          "l1GasUsed": "0x640"
        },
        {
          "status": "0x1",
          "cumulativeGasUsed": "0xb39dc",
          "logs": [
            {
              "address": "0xe1b5a0319ab2eaa7a095916eb699356e5da0337e",
              "topics": [
                "0x238399d427b947898edb290f5ff0f9109849b1c3ba196a42e35f00c50a54b98b"
              ],
              "data": "0x0000000000000000000000000000000000000000000000000000000000009d28000000000000000000000000e1b5a0319ab2eaa7a095916eb699356e5da0337e",
              "blockHash": "0xfbcf83e36bd3e9cc9c6f912c13391756a42e45dd25768b19e126260734e0d530",
              "blockNumber": "0x17c5850",
              "transactionHash": "0xc41c6ce0e8aae7b0d9e4999144ce7b7410f128039df24dad9d319972aee5de69",
              "transactionIndex": "0x8",
              "logIndex": "0x11",
              "removed": false
            }
          ],
          "logsBloom": "0x00000000000400000000000000000000000000000000000000000000000000000000000000000000000000000000000000000000000000000800000000000000000000000000000000000000000000000000000000000000000000000000000000000000000000000000000000000000000000000000000000000000000000000000000000000000000000000000000000000000000000000000000000000000000000000000000000000000000000000000000000000000000012000000000000000000000000000000000000000000000000000800000000040000000000000000000000000000000000000000000000000000000000000000000000000000",
          "type": "0x2",
          "transactionHash": "0xc41c6ce0e8aae7b0d9e4999144ce7b7410f128039df24dad9d319972aee5de69",
          "transactionIndex": "0x8",
          "blockHash": "0xfbcf83e36bd3e9cc9c6f912c13391756a42e45dd25768b19e126260734e0d530",
          "blockNumber": "0x17c5850",
          "gasUsed": "0x6f25",
          "effectiveGasPrice": "0xdfa69",
          "from": "0x64a822f980dc5f126215d75d11dd8114ed0bdb5f",
          "to": "0xe1b5a0319ab2eaa7a095916eb699356e5da0337e",
          "contractAddress": null,
          "l1BaseFeeScalar": "0x44d",
          "l1BlobBaseFee": "0x1",
          "l1BlobBaseFeeScalar": "0xa118b",
          "l1Fee": "0x82ce6",
          "l1GasPrice": "0x4a3ec",
          "l1GasUsed": "0x640"
        },
        {
          "status": "0x1",
          "cumulativeGasUsed": "0xe33de",
          "logs": [
            {
              "address": "0xbfad15080e1b22c41a95b18e8ef258e9e4002080",
              "topics": [
                "0x238399d427b947898edb290f5ff0f9109849b1c3ba196a42e35f00c50a54b98b"
              ],
              "data": "0x0000000000000000000000000000000000000000000000000000000000009d28000000000000000000000000bfad15080e1b22c41a95b18e8ef258e9e4002080",
              "blockHash": "0xfbcf83e36bd3e9cc9c6f912c13391756a42e45dd25768b19e126260734e0d530",
              "blockNumber": "0x17c5850",
              "transactionHash": "0x627d432accdcacc9d7b198f6764041791bf91597827c2608b8792d72bcf7aae0",
              "transactionIndex": "0xb",
              "logIndex": "0x18",
              "removed": false
            }
          ],
          "logsBloom": "0x00000000000000000000004000000000000000000000000000200000000000001000000000000000000000000000000000000000000000000800000000000000000000000000000000000000000000000000000000000000000000000000000000000000000000000000000000000000000000000000000000000000000000000000000000000000000000000000000000000000000000000000000000000000000000000000000000000000000000000000000000000000000002000000000000000000000000000000000000000000000000000000000000040000000000000000000000000000000000000000000000000000000000000000000000000000",
          "type": "0x2",
          "transactionHash": "0x627d432accdcacc9d7b198f6764041791bf91597827c2608b8792d72bcf7aae0",
          "transactionIndex": "0xb",
          "blockHash": "0xfbcf83e36bd3e9cc9c6f912c13391756a42e45dd25768b19e126260734e0d530",
          "blockNumber": "0x17c5850",
          "gasUsed": "0xbc7d",
          "effectiveGasPrice": "0xdfa69",
          "from": "0x64a822f980dc5f126215d75d11dd8114ed0bdb5f",
          "to": "0xbfad15080e1b22c41a95b18e8ef258e9e4002080",
          "contractAddress": null,
          "l1BaseFeeScalar": "0x44d",
          "l1BlobBaseFee": "0x1",
          "l1BlobBaseFeeScalar": "0xa118b",
          "l1Fee": "0x82ce6",
          "l1GasPrice": "0x4a3ec",
          "l1GasUsed": "0x640"
        }
      ],
      "libraries": [],
      "pending": [],
      "returns": {},
      "timestamp": 1745620859,
      "chain": 84532,
      "commit": "8f2ffff"
    },
    {
      "transactions": [
        {
          "hash": "0xd5ab59e0af79c3bbeb7881cb5afa7073c3ff217cfe14d1943c9ca51fb87552af",
          "transactionType": "CALL",
          "contractName": null,
          "contractAddress": "0x7f4ee1b1bd6b55ae244dc01cf64809e68d54c1a5",
          "function": "setPeer(uint32,bytes32)",
          "arguments": [
            "40245",
            "0x0000000000000000000000007f4ee1b1bd6b55ae244dc01cf64809e68d54c1a5"
          ],
          "transaction": {
            "from": "0x64a822f980dc5f126215d75d11dd8114ed0bdb5f",
            "to": "0x7f4ee1b1bd6b55ae244dc01cf64809e68d54c1a5",
            "gas": "0x9984",
            "value": "0x0",
            "input": "0x3400288b0000000000000000000000000000000000000000000000000000000000009d350000000000000000000000007f4ee1b1bd6b55ae244dc01cf64809e68d54c1a5",
            "nonce": "0x2d8",
            "chainId": "0xaa37dc"
          },
          "additionalContracts": [],
          "isFixedGasLimit": false
        },
        {
          "hash": "0x4dddaf9c0c6132762d37431e572ba7784f0d297d2a7071bce804bc7d1dc084f0",
          "transactionType": "CALL",
          "contractName": null,
          "contractAddress": "0xe1b5a0319ab2eaa7a095916eb699356e5da0337e",
          "function": "setPeer(uint32,bytes32)",
          "arguments": [
            "40245",
            "0x000000000000000000000000e1b5a0319ab2eaa7a095916eb699356e5da0337e"
          ],
          "transaction": {
            "from": "0x64a822f980dc5f126215d75d11dd8114ed0bdb5f",
            "to": "0xe1b5a0319ab2eaa7a095916eb699356e5da0337e",
            "gas": "0x9984",
            "value": "0x0",
            "input": "0x3400288b0000000000000000000000000000000000000000000000000000000000009d35000000000000000000000000e1b5a0319ab2eaa7a095916eb699356e5da0337e",
            "nonce": "0x2d9",
            "chainId": "0xaa37dc"
          },
          "additionalContracts": [],
          "isFixedGasLimit": false
        },
        {
          "hash": "0x00b578c8dcc832a853546864f1d5d945208b2f8feca38f4f483963ae6a6ad897",
          "transactionType": "CALL",
          "contractName": null,
          "contractAddress": "0xbfad15080e1b22c41a95b18e8ef258e9e4002080",
          "function": "setPeer(uint32,bytes32)",
          "arguments": [
            "40245",
            "0x000000000000000000000000bfad15080e1b22c41a95b18e8ef258e9e4002080"
          ],
          "transaction": {
            "from": "0x64a822f980dc5f126215d75d11dd8114ed0bdb5f",
            "to": "0xbfad15080e1b22c41a95b18e8ef258e9e4002080",
            "gas": "0x10458",
            "value": "0x0",
            "input": "0x3400288b0000000000000000000000000000000000000000000000000000000000009d35000000000000000000000000bfad15080e1b22c41a95b18e8ef258e9e4002080",
            "nonce": "0x2da",
            "chainId": "0xaa37dc"
          },
          "additionalContracts": [],
          "isFixedGasLimit": false
        }
      ],
      "receipts": [
        {
          "status": "0x1",
          "cumulativeGasUsed": "0x272fe6",
          "logs": [
            {
              "address": "0x7f4ee1b1bd6b55ae244dc01cf64809e68d54c1a5",
              "topics": [
                "0x238399d427b947898edb290f5ff0f9109849b1c3ba196a42e35f00c50a54b98b"
              ],
              "data": "0x0000000000000000000000000000000000000000000000000000000000009d350000000000000000000000007f4ee1b1bd6b55ae244dc01cf64809e68d54c1a5",
              "blockHash": "0xc0400656cea38388220a0386cb747918f716c27e7570466209286b25a5960cde",
              "blockNumber": "0x19a99ec",
              "transactionHash": "0xd5ab59e0af79c3bbeb7881cb5afa7073c3ff217cfe14d1943c9ca51fb87552af",
              "transactionIndex": "0x5",
              "logIndex": "0x1",
              "removed": false
            }
          ],
          "logsBloom": "0x00000000000000000000000000000000000000000000000000000000000000000000000000200000000000000000000000000000000000000800000000000000000000000000000000000000000000000000000000000000000000000000000000000000000000000000000000000000000000100000000000000000000000000000000000000000000000000000000000000000000000000000000000000000000000000000000000000000000000000000000000000000000002000000000000000000000000000000000000000000000000000000000000040000000000000000000000000000000000000000000000040000000000000000000000000000",
          "type": "0x2",
          "transactionHash": "0xd5ab59e0af79c3bbeb7881cb5afa7073c3ff217cfe14d1943c9ca51fb87552af",
          "transactionIndex": "0x5",
          "blockHash": "0xc0400656cea38388220a0386cb747918f716c27e7570466209286b25a5960cde",
          "blockNumber": "0x19a99ec",
          "gasUsed": "0x6f25",
          "effectiveGasPrice": "0xf43a3",
          "from": "0x64a822f980dc5f126215d75d11dd8114ed0bdb5f",
          "to": "0x7f4ee1b1bd6b55ae244dc01cf64809e68d54c1a5",
          "contractAddress": null,
          "l1BaseFeeScalar": "0x1db0",
          "l1BlobBaseFee": "0x1",
          "l1BlobBaseFeeScalar": "0xd2730",
          "l1Fee": "0x352a5e",
          "l1GasPrice": "0x45f3f",
          "l1GasUsed": "0x640"
        },
        {
          "status": "0x1",
          "cumulativeGasUsed": "0x279f0b",
          "logs": [
            {
              "address": "0xe1b5a0319ab2eaa7a095916eb699356e5da0337e",
              "topics": [
                "0x238399d427b947898edb290f5ff0f9109849b1c3ba196a42e35f00c50a54b98b"
              ],
              "data": "0x0000000000000000000000000000000000000000000000000000000000009d35000000000000000000000000e1b5a0319ab2eaa7a095916eb699356e5da0337e",
              "blockHash": "0xc0400656cea38388220a0386cb747918f716c27e7570466209286b25a5960cde",
              "blockNumber": "0x19a99ec",
              "transactionHash": "0x4dddaf9c0c6132762d37431e572ba7784f0d297d2a7071bce804bc7d1dc084f0",
              "transactionIndex": "0x6",
              "logIndex": "0x2",
              "removed": false
            }
          ],
          "logsBloom": "0x00000000000400000000000000000000000000000000000000000000000000000000000000000000000000000000000000000000000000000800000000000000000000000000000000000000000000000000000000000000000000000000000000000000000000000000000000000000000000000000000000000000000000000000000000000000000000000000000000000000000000000000000000000000000000000000000000000000000000000000000000000000000012000000000000000000000000000000000000000000000000000800000000040000000000000000000000000000000000000000000000000000000000000000000000000000",
          "type": "0x2",
          "transactionHash": "0x4dddaf9c0c6132762d37431e572ba7784f0d297d2a7071bce804bc7d1dc084f0",
          "transactionIndex": "0x6",
          "blockHash": "0xc0400656cea38388220a0386cb747918f716c27e7570466209286b25a5960cde",
          "blockNumber": "0x19a99ec",
          "gasUsed": "0x6f25",
          "effectiveGasPrice": "0xf43a3",
          "from": "0x64a822f980dc5f126215d75d11dd8114ed0bdb5f",
          "to": "0xe1b5a0319ab2eaa7a095916eb699356e5da0337e",
          "contractAddress": null,
          "l1BaseFeeScalar": "0x1db0",
          "l1BlobBaseFee": "0x1",
          "l1BlobBaseFeeScalar": "0xd2730",
          "l1Fee": "0x352a5e",
          "l1GasPrice": "0x45f3f",
          "l1GasUsed": "0x640",
          "operatorFeeConstant": "0x0",
          "operatorFeeScalar": "0x0"
        },
        {
          "status": "0x1",
          "cumulativeGasUsed": "0x285b88",
          "logs": [
            {
              "address": "0xbfad15080e1b22c41a95b18e8ef258e9e4002080",
              "topics": [
                "0x238399d427b947898edb290f5ff0f9109849b1c3ba196a42e35f00c50a54b98b"
              ],
              "data": "0x0000000000000000000000000000000000000000000000000000000000009d35000000000000000000000000bfad15080e1b22c41a95b18e8ef258e9e4002080",
              "blockHash": "0xc0400656cea38388220a0386cb747918f716c27e7570466209286b25a5960cde",
              "blockNumber": "0x19a99ec",
              "transactionHash": "0x00b578c8dcc832a853546864f1d5d945208b2f8feca38f4f483963ae6a6ad897",
              "transactionIndex": "0x7",
              "logIndex": "0x3",
              "removed": false
            }
          ],
          "logsBloom": "0x00000000000000000000004000000000000000000000000000200000000000001000000000000000000000000000000000000000000000000800000000000000000000000000000000000000000000000000000000000000000000000000000000000000000000000000000000000000000000000000000000000000000000000000000000000000000000000000000000000000000000000000000000000000000000000000000000000000000000000000000000000000000002000000000000000000000000000000000000000000000000000000000000040000000000000000000000000000000000000000000000000000000000000000000000000000",
          "type": "0x2",
          "transactionHash": "0x00b578c8dcc832a853546864f1d5d945208b2f8feca38f4f483963ae6a6ad897",
          "transactionIndex": "0x7",
          "blockHash": "0xc0400656cea38388220a0386cb747918f716c27e7570466209286b25a5960cde",
          "blockNumber": "0x19a99ec",
          "gasUsed": "0xbc7d",
          "effectiveGasPrice": "0xf43a3",
          "from": "0x64a822f980dc5f126215d75d11dd8114ed0bdb5f",
          "to": "0xbfad15080e1b22c41a95b18e8ef258e9e4002080",
          "contractAddress": null,
          "l1BaseFeeScalar": "0x1db0",
          "l1BlobBaseFee": "0x1",
          "l1BlobBaseFeeScalar": "0xd2730",
          "l1Fee": "0x352a5e",
          "l1GasPrice": "0x45f3f",
          "l1GasUsed": "0x640",
          "operatorFeeConstant": "0x0",
          "operatorFeeScalar": "0x0"
        }
      ],
      "libraries": [],
      "pending": [],
      "returns": {},
      "timestamp": 1745620859,
      "chain": 11155420,
      "commit": "8f2ffff"
    }
  ],
  "timestamp": 1745620870
}