{
  "deployments": [
    {
      "transactions": [
        {
          "hash": "0xd0691683b9d8a810c9f25b82ed9c24b0cccb60267cbc54836f5d9964a7c4dda0",
          "transactionType": "CALL",
          "contractName": null,
          "contractAddress": "0xe2a31810adf5edcd0f7969dbc68f1d1ac521deb1",
          "function": "setPeer(uint32,bytes32)",
          "arguments": [
            "40232",
            "0x000000000000000000000000e2a31810adf5edcd0f7969dbc68f1d1ac521deb1"
          ],
          "transaction": {
            "from": "0x64a822f980dc5f126215d75d11dd8114ed0bdb5f",
            "to": "0xe2a31810adf5edcd0f7969dbc68f1d1ac521deb1",
            "gas": "0x1143c",
            "value": "0x0",
            "input": "0x3400288b0000000000000000000000000000000000000000000000000000000000009d28000000000000000000000000e2a31810adf5edcd0f7969dbc68f1d1ac521deb1",
            "nonce": "0x4eb",
            "chainId": "0x14a34"
          },
          "additionalContracts": [],
          "isFixedGasLimit": false
        },
        {
          "hash": "0x50eb88769981039027c8ae41bf6163e4e4ac8a1bd832607ca4c4396b22b8203d",
          "transactionType": "CALL",
          "contractName": null,
          "contractAddress": "0x3bf9f33ac98bcce1e20ecf9f8503a6c472222b24",
          "function": "setPeer(uint32,bytes32)",
          "arguments": [
            "40232",
            "0x0000000000000000000000003bf9f33ac98bcce1e20ecf9f8503a6c472222b24"
          ],
          "transaction": {
            "from": "0x64a822f980dc5f126215d75d11dd8114ed0bdb5f",
            "to": "0x3bf9f33ac98bcce1e20ecf9f8503a6c472222b24",
            "gas": "0x1143c",
            "value": "0x0",
            "input": "0x3400288b0000000000000000000000000000000000000000000000000000000000009d280000000000000000000000003bf9f33ac98bcce1e20ecf9f8503a6c472222b24",
            "nonce": "0x4ec",
            "chainId": "0x14a34"
          },
          "additionalContracts": [],
          "isFixedGasLimit": false
        },
        {
          "hash": "0xa36f375b319ec1e01f7d8446dd935bbc1b73902c10908661d43e652615d1de10",
          "transactionType": "CALL",
          "contractName": null,
          "contractAddress": "0x15fe102c2c4ddcef80d7fb00a07c01998451c9ee",
          "function": "setPeer(uint32,bytes32)",
          "arguments": [
            "40232",
            "0x00000000000000000000000015fe102c2c4ddcef80d7fb00a07c01998451c9ee"
          ],
          "transaction": {
            "from": "0x64a822f980dc5f126215d75d11dd8114ed0bdb5f",
            "to": "0x15fe102c2c4ddcef80d7fb00a07c01998451c9ee",
            "gas": "0x10458",
            "value": "0x0",
            "input": "0x3400288b0000000000000000000000000000000000000000000000000000000000009d2800000000000000000000000015fe102c2c4ddcef80d7fb00a07c01998451c9ee",
            "nonce": "0x4ed",
            "chainId": "0x14a34"
          },
          "additionalContracts": [],
          "isFixedGasLimit": false
        }
      ],
      "receipts": [
        {
          "status": "0x1",
          "cumulativeGasUsed": "0xb42651",
          "logs": [
            {
              "address": "0xe2a31810adf5edcd0f7969dbc68f1d1ac521deb1",
              "topics": [
                "0x238399d427b947898edb290f5ff0f9109849b1c3ba196a42e35f00c50a54b98b"
              ],
              "data": "0x0000000000000000000000000000000000000000000000000000000000009d28000000000000000000000000e2a31810adf5edcd0f7969dbc68f1d1ac521deb1",
              "blockHash": "0x2fbc03cbec804b763c0fb53dcd93ad6c228ff275d2aa8fc32c47c1f238bc629c",
              "blockNumber": "0x18f28f1",
              "transactionHash": "0xd0691683b9d8a810c9f25b82ed9c24b0cccb60267cbc54836f5d9964a7c4dda0",
              "transactionIndex": "0xba",
              "logIndex": "0x5f",
              "removed": false
            }
          ],
          "logsBloom": "0x00000000000000000000000000000000000000000000000000000000000000000000000000000000000000000000000000000000000000000800000000000000000000000000000000000000000000000000000000000000000000000000000000000000000000000000000000000000000000000000000000000000000000100000000000000000000000000000000000000000000000000000000000000008000000000000000000000000400000000000000000000000000002000000000000000000000000000000000000000000000000000000000000040000000000000000000000000000000000000000000000000000000000000000000000000000",
          "type": "0x2",
          "transactionHash": "0xd0691683b9d8a810c9f25b82ed9c24b0cccb60267cbc54836f5d9964a7c4dda0",
          "transactionIndex": "0xba",
          "blockHash": "0x2fbc03cbec804b763c0fb53dcd93ad6c228ff275d2aa8fc32c47c1f238bc629c",
          "blockNumber": "0x18f28f1",
          "gasUsed": "0xbce1",
          "effectiveGasPrice": "0x15f5131a",
          "from": "0x64a822f980dc5f126215d75d11dd8114ed0bdb5f",
          "to": "0xe2a31810adf5edcd0f7969dbc68f1d1ac521deb1",
          "contractAddress": null,
          "l1BaseFeeScalar": "0x44d",
          "l1BlobBaseFee": "0x1",
          "l1BlobBaseFeeScalar": "0xa118b",
          "l1Fee": "0x1a8ede",
          "l1GasPrice": "0xf1357",
          "l1GasUsed": "0x640"
        },
        {
          "status": "0x1",
          "cumulativeGasUsed": "0xb4e332",
          "logs": [
            {
              "address": "0x3bf9f33ac98bcce1e20ecf9f8503a6c472222b24",
              "topics": [
                "0x238399d427b947898edb290f5ff0f9109849b1c3ba196a42e35f00c50a54b98b"
              ],
              "data": "0x0000000000000000000000000000000000000000000000000000000000009d280000000000000000000000003bf9f33ac98bcce1e20ecf9f8503a6c472222b24",
              "blockHash": "0x2fbc03cbec804b763c0fb53dcd93ad6c228ff275d2aa8fc32c47c1f238bc629c",
              "blockNumber": "0x18f28f1",
              "transactionHash": "0x50eb88769981039027c8ae41bf6163e4e4ac8a1bd832607ca4c4396b22b8203d",
              "transactionIndex": "0xbb",
              "logIndex": "0x60",
              "removed": false
            }
          ],
          "logsBloom": "0x00000000000000000000000000000000000000000000000000000000000000000000000000000000000000000000000000000000000000000800000000000000000000000000000000000000000000000000000000000000000000000000000000000000000000000000000000000000000000000000000000000000000000000000200000000000000000000000000000000000000000000000000000000000000000000000000000000000000000000000000000000000000002000000000000020000000000000000000000000000800000000000000000040000000000000000000000000000000000000000000000000000000000000000000000000000",
          "type": "0x2",
          "transactionHash": "0x50eb88769981039027c8ae41bf6163e4e4ac8a1bd832607ca4c4396b22b8203d",
          "transactionIndex": "0xbb",
          "blockHash": "0x2fbc03cbec804b763c0fb53dcd93ad6c228ff275d2aa8fc32c47c1f238bc629c",
          "blockNumber": "0x18f28f1",
          "gasUsed": "0xbce1",
          "effectiveGasPrice": "0x15f5131a",
          "from": "0x64a822f980dc5f126215d75d11dd8114ed0bdb5f",
          "to": "0x3bf9f33ac98bcce1e20ecf9f8503a6c472222b24",
          "contractAddress": null,
          "l1BaseFeeScalar": "0x44d",
          "l1BlobBaseFee": "0x1",
          "l1BlobBaseFeeScalar": "0xa118b",
          "l1Fee": "0x1a8ede",
          "l1GasPrice": "0xf1357",
          "l1GasUsed": "0x640"
        },
        {
          "status": "0x1",
          "cumulativeGasUsed": "0xb59faf",
          "logs": [
            {
              "address": "0x15fe102c2c4ddcef80d7fb00a07c01998451c9ee",
              "topics": [
                "0x238399d427b947898edb290f5ff0f9109849b1c3ba196a42e35f00c50a54b98b"
              ],
              "data": "0x0000000000000000000000000000000000000000000000000000000000009d2800000000000000000000000015fe102c2c4ddcef80d7fb00a07c01998451c9ee",
              "blockHash": "0x2fbc03cbec804b763c0fb53dcd93ad6c228ff275d2aa8fc32c47c1f238bc629c",
              "blockNumber": "0x18f28f1",
              "transactionHash": "0xa36f375b319ec1e01f7d8446dd935bbc1b73902c10908661d43e652615d1de10",
              "transactionIndex": "0xbc",
              "logIndex": "0x61",
              "removed": false
            }
          ],
          "logsBloom": "0x00000001000000000000000000000000000000000000000000000000000000000000000000000000000000000000000000000000000000000800000000000000000000000000000000000000000000000000000000000000000000000000000000000000000000000000000000000000000000000000000000000000000000000000000000000000002000000000000000000000000000000000000000000000000000000000000000000000000000000000000000000000000002000000000000000000000000000000000000040000000000000000000000040000000000000000000000000000000000000000000000000000000000000000000000000000",
          "type": "0x2",
          "transactionHash": "0xa36f375b319ec1e01f7d8446dd935bbc1b73902c10908661d43e652615d1de10",
          "transactionIndex": "0xbc",
          "blockHash": "0x2fbc03cbec804b763c0fb53dcd93ad6c228ff275d2aa8fc32c47c1f238bc629c",
          "blockNumber": "0x18f28f1",
          "gasUsed": "0xbc7d",
          "effectiveGasPrice": "0x15f5131a",
          "from": "0x64a822f980dc5f126215d75d11dd8114ed0bdb5f",
          "to": "0x15fe102c2c4ddcef80d7fb00a07c01998451c9ee",
          "contractAddress": null,
          "l1BaseFeeScalar": "0x44d",
          "l1BlobBaseFee": "0x1",
          "l1BlobBaseFeeScalar": "0xa118b",
          "l1Fee": "0x1a8ede",
          "l1GasPrice": "0xf1357",
          "l1GasUsed": "0x640"
        }
      ],
      "libraries": [],
      "pending": [],
      "returns": {},
      "timestamp": 1748086973,
      "chain": 84532,
      "commit": "16f1541"
    },
    {
      "transactions": [
        {
          "hash": "0xb7ac14ddc15610a8a0e873cdc1bb16a3f20183a0a62a21362da8298acbdc156f",
          "transactionType": "CALL",
          "contractName": null,
          "contractAddress": "0xe2a31810adf5edcd0f7969dbc68f1d1ac521deb1",
          "function": "setPeer(uint32,bytes32)",
          "arguments": [
            "40245",
            "0x000000000000000000000000e2a31810adf5edcd0f7969dbc68f1d1ac521deb1"
          ],
          "transaction": {
            "from": "0x64a822f980dc5f126215d75d11dd8114ed0bdb5f",
            "to": "0xe2a31810adf5edcd0f7969dbc68f1d1ac521deb1",
            "gas": "0x1143c",
            "value": "0x0",
            "input": "0x3400288b0000000000000000000000000000000000000000000000000000000000009d35000000000000000000000000e2a31810adf5edcd0f7969dbc68f1d1ac521deb1",
            "nonce": "0x330",
            "chainId": "0xaa37dc"
          },
          "additionalContracts": [],
          "isFixedGasLimit": false
        },
        {
          "hash": "0x6aa6e885f6213c90fcc5dba992eb9af8ff8d0cd7419ab443c6935add9dbea350",
          "transactionType": "CALL",
          "contractName": null,
          "contractAddress": "0x3bf9f33ac98bcce1e20ecf9f8503a6c472222b24",
          "function": "setPeer(uint32,bytes32)",
          "arguments": [
            "40245",
            "0x0000000000000000000000003bf9f33ac98bcce1e20ecf9f8503a6c472222b24"
          ],
          "transaction": {
            "from": "0x64a822f980dc5f126215d75d11dd8114ed0bdb5f",
            "to": "0x3bf9f33ac98bcce1e20ecf9f8503a6c472222b24",
            "gas": "0x1143c",
            "value": "0x0",
            "input": "0x3400288b0000000000000000000000000000000000000000000000000000000000009d350000000000000000000000003bf9f33ac98bcce1e20ecf9f8503a6c472222b24",
            "nonce": "0x331",
            "chainId": "0xaa37dc"
          },
          "additionalContracts": [],
          "isFixedGasLimit": false
        },
        {
          "hash": "0xc6e3dc612a3c9234431e53d9163cdb99998ff8209aef6c1f9d5f1d9b9eb2653e",
          "transactionType": "CALL",
          "contractName": null,
          "contractAddress": "0x15fe102c2c4ddcef80d7fb00a07c01998451c9ee",
          "function": "setPeer(uint32,bytes32)",
          "arguments": [
            "40245",
            "0x00000000000000000000000015fe102c2c4ddcef80d7fb00a07c01998451c9ee"
          ],
          "transaction": {
            "from": "0x64a822f980dc5f126215d75d11dd8114ed0bdb5f",
            "to": "0x15fe102c2c4ddcef80d7fb00a07c01998451c9ee",
            "gas": "0x10458",
            "value": "0x0",
            "input": "0x3400288b0000000000000000000000000000000000000000000000000000000000009d3500000000000000000000000015fe102c2c4ddcef80d7fb00a07c01998451c9ee",
            "nonce": "0x332",
            "chainId": "0xaa37dc"
          },
          "additionalContracts": [],
          "isFixedGasLimit": false
        }
      ],
      "receipts": [
        {
          "status": "0x1",
          "cumulativeGasUsed": "0x3cf68d",
          "logs": [
            {
              "address": "0xe2a31810adf5edcd0f7969dbc68f1d1ac521deb1",
              "topics": [
                "0x238399d427b947898edb290f5ff0f9109849b1c3ba196a42e35f00c50a54b98b"
              ],
              "data": "0x0000000000000000000000000000000000000000000000000000000000009d35000000000000000000000000e2a31810adf5edcd0f7969dbc68f1d1ac521deb1",
              "blockHash": "0x3b88adf9542465b5df78347a67a0839849a2bdc73dff3246160c500705e07f6d",
              "blockNumber": "0x1ad6a8d",
              "transactionHash": "0xb7ac14ddc15610a8a0e873cdc1bb16a3f20183a0a62a21362da8298acbdc156f",
              "transactionIndex": "0x2b",
              "logIndex": "0xd",
              "removed": false
            }
          ],
          "logsBloom": "0x00000000000000000000000000000000000000000000000000000000000000000000000000000000000000000000000000000000000000000800000000000000000000000000000000000000000000000000000000000000000000000000000000000000000000000000000000000000000000000000000000000000000000100000000000000000000000000000000000000000000000000000000000000008000000000000000000000000400000000000000000000000000002000000000000000000000000000000000000000000000000000000000000040000000000000000000000000000000000000000000000000000000000000000000000000000",
          "type": "0x2",
          "transactionHash": "0xb7ac14ddc15610a8a0e873cdc1bb16a3f20183a0a62a21362da8298acbdc156f",
          "transactionIndex": "0x2b",
          "blockHash": "0x3b88adf9542465b5df78347a67a0839849a2bdc73dff3246160c500705e07f6d",
          "blockNumber": "0x1ad6a8d",
          "gasUsed": "0xbce1",
          "effectiveGasPrice": "0x5b8",
          "from": "0x64a822f980dc5f126215d75d11dd8114ed0bdb5f",
          "to": "0xe2a31810adf5edcd0f7969dbc68f1d1ac521deb1",
          "contractAddress": null,
          "l1BaseFeeScalar": "0x1db0",
          "l1BlobBaseFee": "0x1",
          "l1BlobBaseFeeScalar": "0xd2730",
          "l1Fee": "0x8020d8",
          "l1GasPrice": "0xa8969",
          "l1GasUsed": "0x640"
        },
        {
          "status": "0x1",
          "cumulativeGasUsed": "0x3db36e",
          "logs": [
            {
              "address": "0x3bf9f33ac98bcce1e20ecf9f8503a6c472222b24",
              "topics": [
                "0x238399d427b947898edb290f5ff0f9109849b1c3ba196a42e35f00c50a54b98b"
              ],
              "data": "0x0000000000000000000000000000000000000000000000000000000000009d350000000000000000000000003bf9f33ac98bcce1e20ecf9f8503a6c472222b24",
              "blockHash": "0x3b88adf9542465b5df78347a67a0839849a2bdc73dff3246160c500705e07f6d",
              "blockNumber": "0x1ad6a8d",
              "transactionHash": "0x6aa6e885f6213c90fcc5dba992eb9af8ff8d0cd7419ab443c6935add9dbea350",
              "transactionIndex": "0x2c",
              "logIndex": "0xe",
              "removed": false
            }
          ],
          "logsBloom": "0x00000000000000000000000000000000000000000000000000000000000000000000000000000000000000000000000000000000000000000800000000000000000000000000000000000000000000000000000000000000000000000000000000000000000000000000000000000000000000000000000000000000000000000000200000000000000000000000000000000000000000000000000000000000000000000000000000000000000000000000000000000000000002000000000000020000000000000000000000000000800000000000000000040000000000000000000000000000000000000000000000000000000000000000000000000000",
          "type": "0x2",
          "transactionHash": "0x6aa6e885f6213c90fcc5dba992eb9af8ff8d0cd7419ab443c6935add9dbea350",
          "transactionIndex": "0x2c",
          "blockHash": "0x3b88adf9542465b5df78347a67a0839849a2bdc73dff3246160c500705e07f6d",
          "blockNumber": "0x1ad6a8d",
          "gasUsed": "0xbce1",
          "effectiveGasPrice": "0x5b8",
          "from": "0x64a822f980dc5f126215d75d11dd8114ed0bdb5f",
          "to": "0x3bf9f33ac98bcce1e20ecf9f8503a6c472222b24",
          "contractAddress": null,
          "l1BaseFeeScalar": "0x1db0",
          "l1BlobBaseFee": "0x1",
          "l1BlobBaseFeeScalar": "0xd2730",
          "l1Fee": "0x8020d8",
          "l1GasPrice": "0xa8969",
          "l1GasUsed": "0x640"
        },
        {
          "status": "0x1",
          "cumulativeGasUsed": "0x3e6feb",
          "logs": [
            {
              "address": "0x15fe102c2c4ddcef80d7fb00a07c01998451c9ee",
              "topics": [
                "0x238399d427b947898edb290f5ff0f9109849b1c3ba196a42e35f00c50a54b98b"
              ],
              "data": "0x0000000000000000000000000000000000000000000000000000000000009d3500000000000000000000000015fe102c2c4ddcef80d7fb00a07c01998451c9ee",
              "blockHash": "0x3b88adf9542465b5df78347a67a0839849a2bdc73dff3246160c500705e07f6d",
              "blockNumber": "0x1ad6a8d",
              "transactionHash": "0xc6e3dc612a3c9234431e53d9163cdb99998ff8209aef6c1f9d5f1d9b9eb2653e",
              "transactionIndex": "0x2d",
              "logIndex": "0xf",
              "removed": false
            }
          ],
          "logsBloom": "0x00000001000000000000000000000000000000000000000000000000000000000000000000000000000000000000000000000000000000000800000000000000000000000000000000000000000000000000000000000000000000000000000000000000000000000000000000000000000000000000000000000000000000000000000000000000002000000000000000000000000000000000000000000000000000000000000000000000000000000000000000000000000002000000000000000000000000000000000000040000000000000000000000040000000000000000000000000000000000000000000000000000000000000000000000000000",
          "type": "0x2",
          "transactionHash": "0xc6e3dc612a3c9234431e53d9163cdb99998ff8209aef6c1f9d5f1d9b9eb2653e",
          "transactionIndex": "0x2d",
          "blockHash": "0x3b88adf9542465b5df78347a67a0839849a2bdc73dff3246160c500705e07f6d",
          "blockNumber": "0x1ad6a8d",
          "gasUsed": "0xbc7d",
          "effectiveGasPrice": "0x5b8",
          "from": "0x64a822f980dc5f126215d75d11dd8114ed0bdb5f",
          "to": "0x15fe102c2c4ddcef80d7fb00a07c01998451c9ee",
          "contractAddress": null,
          "l1BaseFeeScalar": "0x1db0",
          "l1BlobBaseFee": "0x1",
          "l1BlobBaseFeeScalar": "0xd2730",
          "l1Fee": "0x8020d8",
          "l1GasPrice": "0xa8969",
          "l1GasUsed": "0x640"
        }
      ],
      "libraries": [],
      "pending": [],
      "returns": {},
      "timestamp": 1748086974,
      "chain": 11155420,
      "commit": "16f1541"
    }
  ],
  "timestamp": 1748086983
}