{
  "deployments": [
    {
      "transactions": [
        {
          "hash": "0xfd1cf41cea344a03b1a65479caa95747c84109497415e220bc1d3490fc095bb2",
          "transactionType": "CALL",
          "contractName": null,
          "contractAddress": "0x5553125c800f8faf9bf937de58b2e9c60f5f5f80",
          "function": "setPeer(uint32,bytes32)",
          "arguments": [
            "40232",
            "0x0000000000000000000000005553125c800f8faf9bf937de58b2e9c60f5f5f80"
          ],
          "transaction": {
            "from": "0x64a822f980dc5f126215d75d11dd8114ed0bdb5f",
            "to": "0x5553125c800f8faf9bf937de58b2e9c60f5f5f80",
            "gas": "0x1143c",
            "value": "0x0",
            "input": "0x3400288b0000000000000000000000000000000000000000000000000000000000009d280000000000000000000000005553125c800f8faf9bf937de58b2e9c60f5f5f80",
            "nonce": "0x54f",
            "chainId": "0x14a34"
          },
          "additionalContracts": [],
          "isFixedGasLimit": false
        },
        {
          "hash": "0xad66a325be1b74c84884a925551368360b8de2c5db39a89f8345e033e7862135",
          "transactionType": "CALL",
          "contractName": null,
          "contractAddress": "0x269180c430e762fa4a671ce4188cfdc20d98b2db",
          "function": "setPeer(uint32,bytes32)",
          "arguments": [
            "40232",
            "0x000000000000000000000000269180c430e762fa4a671ce4188cfdc20d98b2db"
          ],
          "transaction": {
            "from": "0x64a822f980dc5f126215d75d11dd8114ed0bdb5f",
            "to": "0x269180c430e762fa4a671ce4188cfdc20d98b2db",
            "gas": "0x1143c",
            "value": "0x0",
            "input": "0x3400288b0000000000000000000000000000000000000000000000000000000000009d28000000000000000000000000269180c430e762fa4a671ce4188cfdc20d98b2db",
            "nonce": "0x550",
            "chainId": "0x14a34"
          },
          "additionalContracts": [],
          "isFixedGasLimit": false
        },
        {
          "hash": "0xf06033783cf381c734832283e8400bb53e5299f659c9a4ea9fa130dc33f73fbc",
          "transactionType": "CALL",
          "contractName": null,
          "contractAddress": "0x7f6c49afc17727b78a701fb9044d78df8426458d",
          "function": "setPeer(uint32,bytes32)",
          "arguments": [
            "40232",
            "0x0000000000000000000000007f6c49afc17727b78a701fb9044d78df8426458d"
          ],
          "transaction": {
            "from": "0x64a822f980dc5f126215d75d11dd8114ed0bdb5f",
            "to": "0x7f6c49afc17727b78a701fb9044d78df8426458d",
            "gas": "0x10487",
            "value": "0x0",
            "input": "0x3400288b0000000000000000000000000000000000000000000000000000000000009d280000000000000000000000007f6c49afc17727b78a701fb9044d78df8426458d",
            "nonce": "0x551",
            "chainId": "0x14a34"
          },
          "additionalContracts": [],
          "isFixedGasLimit": false
        }
      ],
      "receipts": [
        {
          "status": "0x1",
          "cumulativeGasUsed": "0x572cc",
          "logs": [
            {
              "address": "0x5553125c800f8faf9bf937de58b2e9c60f5f5f80",
              "topics": [
                "0x238399d427b947898edb290f5ff0f9109849b1c3ba196a42e35f00c50a54b98b"
              ],
              "data": "0x0000000000000000000000000000000000000000000000000000000000009d280000000000000000000000005553125c800f8faf9bf937de58b2e9c60f5f5f80",
              "blockHash": "0x76e51b4f40557b28fdc4c126899c0cbb686d69ce304e5a8eae8fa6d0e9221b96",
              "blockNumber": "0x19a6c69",
              "transactionHash": "0xfd1cf41cea344a03b1a65479caa95747c84109497415e220bc1d3490fc095bb2",
              "transactionIndex": "0x3",
              "logIndex": "0x1",
              "removed": false
            }
          ],
          "logsBloom": "0x00000000000000400000000000000000000000000000100002000000000000000000000000000000000000000000000000000000000000000800000000000000000000000000000000000000000000000000000000000000000000000000000000000000000000000000000000000000000000000000000000000000000000000000000000000000000000000000000000000000000000000000000000000000000000000000000000000000000000000000000000000000000002000000000000000000000000000000000000000000000000000000000000040000000000000000000000000000000000000000000000000000000000000000000000000000",
          "type": "0x2",
          "transactionHash": "0xfd1cf41cea344a03b1a65479caa95747c84109497415e220bc1d3490fc095bb2",
          "transactionIndex": "0x3",
          "blockHash": "0x76e51b4f40557b28fdc4c126899c0cbb686d69ce304e5a8eae8fa6d0e9221b96",
          "blockNumber": "0x19a6c69",
          "gasUsed": "0xbce1",
          "effectiveGasPrice": "0x1c17e",
          "from": "0x64a822f980dc5f126215d75d11dd8114ed0bdb5f",
          "to": "0x5553125c800f8faf9bf937de58b2e9c60f5f5f80",
          "contractAddress": null,
          "l1BaseFeeScalar": "0x44d",
          "l1BlobBaseFee": "0x1",
          "l1BlobBaseFeeScalar": "0xa118b",
          "l1Fee": "0x25ce86e",
          "l1GasPrice": "0x157628c",
          "l1GasUsed": "0x640"
        },
        {
          "status": "0x1",
          "cumulativeGasUsed": "0x62fad",
          "logs": [
            {
              "address": "0x269180c430e762fa4a671ce4188cfdc20d98b2db",
              "topics": [
                "0x238399d427b947898edb290f5ff0f9109849b1c3ba196a42e35f00c50a54b98b"
              ],
              "data": "0x0000000000000000000000000000000000000000000000000000000000009d28000000000000000000000000269180c430e762fa4a671ce4188cfdc20d98b2db",
              "blockHash": "0x76e51b4f40557b28fdc4c126899c0cbb686d69ce304e5a8eae8fa6d0e9221b96",
              "blockNumber": "0x19a6c69",
              "transactionHash": "0xad66a325be1b74c84884a925551368360b8de2c5db39a89f8345e033e7862135",
              "transactionIndex": "0x4",
              "logIndex": "0x2",
              "removed": false
            }
          ],
          "logsBloom": "0x00000000000000000000000000000000000000000002000002000000000000000000000000000000000000000000000000000000000000000800000000000000000000000000000000000000000000000000000000000000000000000000000000000000000000000000000000000000000000000000000000000000000000000000000000000000000000000000000000000000000000000000000000000000000000000000000000000000000000000000000000000000000002000000000000000000000000000000000000000000000000040000000000040000000000000000000000000000000000000000000000000000000000000000000000000000",
          "type": "0x2",
          "transactionHash": "0xad66a325be1b74c84884a925551368360b8de2c5db39a89f8345e033e7862135",
          "transactionIndex": "0x4",
          "blockHash": "0x76e51b4f40557b28fdc4c126899c0cbb686d69ce304e5a8eae8fa6d0e9221b96",
          "blockNumber": "0x19a6c69",
          "gasUsed": "0xbce1",
          "effectiveGasPrice": "0x1c17e",
          "from": "0x64a822f980dc5f126215d75d11dd8114ed0bdb5f",
          "to": "0x269180c430e762fa4a671ce4188cfdc20d98b2db",
          "contractAddress": null,
          "l1BaseFeeScalar": "0x44d",
          "l1BlobBaseFee": "0x1",
          "l1BlobBaseFeeScalar": "0xa118b",
          "l1Fee": "0x25ce86e",
          "l1GasPrice": "0x157628c",
          "l1GasUsed": "0x640"
        },
        {
          "status": "0x1",
          "cumulativeGasUsed": "0x77262",
          "logs": [
            {
              "address": "0x7f6c49afc17727b78a701fb9044d78df8426458d",
              "topics": [
                "0x238399d427b947898edb290f5ff0f9109849b1c3ba196a42e35f00c50a54b98b"
              ],
              "data": "0x0000000000000000000000000000000000000000000000000000000000009d280000000000000000000000007f6c49afc17727b78a701fb9044d78df8426458d",
              "blockHash": "0x76e51b4f40557b28fdc4c126899c0cbb686d69ce304e5a8eae8fa6d0e9221b96",
              "blockNumber": "0x19a6c69",
              "transactionHash": "0xf06033783cf381c734832283e8400bb53e5299f659c9a4ea9fa130dc33f73fbc",
              "transactionIndex": "0x6",
              "logIndex": "0x4",
              "removed": false
            }
          ],
          "logsBloom": "0x00000000000000000000000000000000000000000000000000000004000000000000000000000000000000000000000000000000000000000800000000000000000000000000000000000000000000000000000000000000400000000000000000000000000000000000000000000000000000000000000000000000000000000000000000000010000000000000000000000000000000000000000000000000000000000000000000000000000000000000000000000000000002000000000000000000000000000000000000000000000000000000000000040000000000000000000000000000000000000000000000000000000000000000000000000000",
          "type": "0x2",
          "transactionHash": "0xf06033783cf381c734832283e8400bb53e5299f659c9a4ea9fa130dc33f73fbc",
          "transactionIndex": "0x6",
          "blockHash": "0x76e51b4f40557b28fdc4c126899c0cbb686d69ce304e5a8eae8fa6d0e9221b96",
          "blockNumber": "0x19a6c69",
          "gasUsed": "0xbc9f",
          "effectiveGasPrice": "0x1c17e",
          "from": "0x64a822f980dc5f126215d75d11dd8114ed0bdb5f",
          "to": "0x7f6c49afc17727b78a701fb9044d78df8426458d",
          "contractAddress": null,
          "l1BaseFeeScalar": "0x44d",
          "l1BlobBaseFee": "0x1",
          "l1BlobBaseFeeScalar": "0xa118b",
          "l1Fee": "0x25ce86e",
          "l1GasPrice": "0x157628c",
          "l1GasUsed": "0x640"
        }
      ],
      "libraries": [],
      "pending": [],
      "returns": {},
      "timestamp": 1749563309,
      "chain": 84532,
      "commit": "f03650b"
    },
    {
      "transactions": [
        {
          "hash": "0x5cdcfb31ce169726ba3c94fe3a28344efbb32375ddf84dec101a7213afacec16",
          "transactionType": "CALL",
          "contractName": null,
          "contractAddress": "0x5553125c800f8faf9bf937de58b2e9c60f5f5f80",
          "function": "setPeer(uint32,bytes32)",
          "arguments": [
            "40245",
            "0x0000000000000000000000005553125c800f8faf9bf937de58b2e9c60f5f5f80"
          ],
          "transaction": {
            "from": "0x64a822f980dc5f126215d75d11dd8114ed0bdb5f",
            "to": "0x5553125c800f8faf9bf937de58b2e9c60f5f5f80",
            "gas": "0x1143c",
            "value": "0x0",
            "input": "0x3400288b0000000000000000000000000000000000000000000000000000000000009d350000000000000000000000005553125c800f8faf9bf937de58b2e9c60f5f5f80",
            "nonce": "0x378",
            "chainId": "0xaa37dc"
          },
          "additionalContracts": [],
          "isFixedGasLimit": false
        },
        {
          "hash": "0xb638b0c4fb1302058ee10282770fb53ab6795aefeb3022900cae3b00e92a62e6",
          "transactionType": "CALL",
          "contractName": null,
          "contractAddress": "0x269180c430e762fa4a671ce4188cfdc20d98b2db",
          "function": "setPeer(uint32,bytes32)",
          "arguments": [
            "40245",
            "0x000000000000000000000000269180c430e762fa4a671ce4188cfdc20d98b2db"
          ],
          "transaction": {
            "from": "0x64a822f980dc5f126215d75d11dd8114ed0bdb5f",
            "to": "0x269180c430e762fa4a671ce4188cfdc20d98b2db",
            "gas": "0x1143c",
            "value": "0x0",
            "input": "0x3400288b0000000000000000000000000000000000000000000000000000000000009d35000000000000000000000000269180c430e762fa4a671ce4188cfdc20d98b2db",
            "nonce": "0x379",
            "chainId": "0xaa37dc"
          },
          "additionalContracts": [],
          "isFixedGasLimit": false
        },
        {
          "hash": "0x6377ffca2041d88d0219900776fce4233a2397ae47ed19be2edd624e11cb19ba",
          "transactionType": "CALL",
          "contractName": null,
          "contractAddress": "0x7f6c49afc17727b78a701fb9044d78df8426458d",
          "function": "setPeer(uint32,bytes32)",
          "arguments": [
            "40245",
            "0x0000000000000000000000007f6c49afc17727b78a701fb9044d78df8426458d"
          ],
          "transaction": {
            "from": "0x64a822f980dc5f126215d75d11dd8114ed0bdb5f",
            "to": "0x7f6c49afc17727b78a701fb9044d78df8426458d",
            "gas": "0x10487",
            "value": "0x0",
            "input": "0x3400288b0000000000000000000000000000000000000000000000000000000000009d350000000000000000000000007f6c49afc17727b78a701fb9044d78df8426458d",
            "nonce": "0x37a",
            "chainId": "0xaa37dc"
          },
          "additionalContracts": [],
          "isFixedGasLimit": false
        }
      ],
      "receipts": [
        {
          "status": "0x1",
          "cumulativeGasUsed": "0x5c8a8",
          "logs": [
            {
              "address": "0x5553125c800f8faf9bf937de58b2e9c60f5f5f80",
              "topics": [
                "0x238399d427b947898edb290f5ff0f9109849b1c3ba196a42e35f00c50a54b98b"
              ],
              "data": "0x0000000000000000000000000000000000000000000000000000000000009d350000000000000000000000005553125c800f8faf9bf937de58b2e9c60f5f5f80",
              "blockHash": "0x2a2a256ba53e049a6524346d8f4ca7952befa0a45e899a5057db2be306feccdc",
              "blockNumber": "0x1b8ae05",
              "transactionHash": "0x5cdcfb31ce169726ba3c94fe3a28344efbb32375ddf84dec101a7213afacec16",
              "transactionIndex": "0x5",
              "logIndex": "0x6",
              "removed": false
            }
          ],
          "logsBloom": "0x00000000000000400000000000000000000000000000100002000000000000000000000000000000000000000000000000000000000000000800000000000000000000000000000000000000000000000000000000000000000000000000000000000000000000000000000000000000000000000000000000000000000000000000000000000000000000000000000000000000000000000000000000000000000000000000000000000000000000000000000000000000000002000000000000000000000000000000000000000000000000000000000000040000000000000000000000000000000000000000000000000000000000000000000000000000",
          "type": "0x2",
          "transactionHash": "0x5cdcfb31ce169726ba3c94fe3a28344efbb32375ddf84dec101a7213afacec16",
          "transactionIndex": "0x5",
          "blockHash": "0x2a2a256ba53e049a6524346d8f4ca7952befa0a45e899a5057db2be306feccdc",
          "blockNumber": "0x1b8ae05",
          "gasUsed": "0xbce1",
          "effectiveGasPrice": "0xf4340",
          "from": "0x64a822f980dc5f126215d75d11dd8114ed0bdb5f",
          "to": "0x5553125c800f8faf9bf937de58b2e9c60f5f5f80",
          "contractAddress": null,
          "l1BaseFeeScalar": "0x1db0",
          "l1BlobBaseFee": "0x1",
          "l1BlobBaseFeeScalar": "0xd2730",
          "l1Fee": "0xed2b274",
          "l1GasPrice": "0x1381055",
          "l1GasUsed": "0x640"
        },
        {
          "status": "0x1",
          "cumulativeGasUsed": "0x68589",
          "logs": [
            {
              "address": "0x269180c430e762fa4a671ce4188cfdc20d98b2db",
              "topics": [
                "0x238399d427b947898edb290f5ff0f9109849b1c3ba196a42e35f00c50a54b98b"
              ],
              "data": "0x0000000000000000000000000000000000000000000000000000000000009d35000000000000000000000000269180c430e762fa4a671ce4188cfdc20d98b2db",
              "blockHash": "0x2a2a256ba53e049a6524346d8f4ca7952befa0a45e899a5057db2be306feccdc",
              "blockNumber": "0x1b8ae05",
              "transactionHash": "0xb638b0c4fb1302058ee10282770fb53ab6795aefeb3022900cae3b00e92a62e6",
              "transactionIndex": "0x6",
              "logIndex": "0x7",
              "removed": false
            }
          ],
          "logsBloom": "0x00000000000000000000000000000000000000000002000002000000000000000000000000000000000000000000000000000000000000000800000000000000000000000000000000000000000000000000000000000000000000000000000000000000000000000000000000000000000000000000000000000000000000000000000000000000000000000000000000000000000000000000000000000000000000000000000000000000000000000000000000000000000002000000000000000000000000000000000000000000000000040000000000040000000000000000000000000000000000000000000000000000000000000000000000000000",
          "type": "0x2",
          "transactionHash": "0xb638b0c4fb1302058ee10282770fb53ab6795aefeb3022900cae3b00e92a62e6",
          "transactionIndex": "0x6",
          "blockHash": "0x2a2a256ba53e049a6524346d8f4ca7952befa0a45e899a5057db2be306feccdc",
          "blockNumber": "0x1b8ae05",
          "gasUsed": "0xbce1",
          "effectiveGasPrice": "0xf4340",
          "from": "0x64a822f980dc5f126215d75d11dd8114ed0bdb5f",
          "to": "0x269180c430e762fa4a671ce4188cfdc20d98b2db",
          "contractAddress": null,
          "l1BaseFeeScalar": "0x1db0",
          "l1BlobBaseFee": "0x1",
          "l1BlobBaseFeeScalar": "0xd2730",
          "l1Fee": "0xed2b274",
          "l1GasPrice": "0x1381055",
          "l1GasUsed": "0x640"
        },
        {
          "status": "0x1",
          "cumulativeGasUsed": "0x74228",
          "logs": [
            {
              "address": "0x7f6c49afc17727b78a701fb9044d78df8426458d",
              "topics": [
                "0x238399d427b947898edb290f5ff0f9109849b1c3ba196a42e35f00c50a54b98b"
              ],
              "data": "0x0000000000000000000000000000000000000000000000000000000000009d350000000000000000000000007f6c49afc17727b78a701fb9044d78df8426458d",
              "blockHash": "0x2a2a256ba53e049a6524346d8f4ca7952befa0a45e899a5057db2be306feccdc",
              "blockNumber": "0x1b8ae05",
              "transactionHash": "0x6377ffca2041d88d0219900776fce4233a2397ae47ed19be2edd624e11cb19ba",
              "transactionIndex": "0x7",
              "logIndex": "0x8",
              "removed": false
            }
          ],
          "logsBloom": "0x00000000000000000000000000000000000000000000000000000004000000000000000000000000000000000000000000000000000000000800000000000000000000000000000000000000000000000000000000000000400000000000000000000000000000000000000000000000000000000000000000000000000000000000000000000010000000000000000000000000000000000000000000000000000000000000000000000000000000000000000000000000000002000000000000000000000000000000000000000000000000000000000000040000000000000000000000000000000000000000000000000000000000000000000000000000",
          "type": "0x2",
          "transactionHash": "0x6377ffca2041d88d0219900776fce4233a2397ae47ed19be2edd624e11cb19ba",
          "transactionIndex": "0x7",
          "blockHash": "0x2a2a256ba53e049a6524346d8f4ca7952befa0a45e899a5057db2be306feccdc",
          "blockNumber": "0x1b8ae05",
          "gasUsed": "0xbc9f",
          "effectiveGasPrice": "0xf4340",
          "from": "0x64a822f980dc5f126215d75d11dd8114ed0bdb5f",
          "to": "0x7f6c49afc17727b78a701fb9044d78df8426458d",
          "contractAddress": null,
          "l1BaseFeeScalar": "0x1db0",
          "l1BlobBaseFee": "0x1",
          "l1BlobBaseFeeScalar": "0xd2730",
          "l1Fee": "0xed2b274",
          "l1GasPrice": "0x1381055",
          "l1GasUsed": "0x640"
        }
      ],
      "libraries": [],
      "pending": [],
      "returns": {},
      "timestamp": 1749563310,
      "chain": 11155420,
      "commit": "f03650b"
    }
  ],
  "timestamp": 1749563318
}