{
  "deployments": [
    {
      "transactions": [
        {
          "hash": "0xeec75b7f647857a880a3bdb00a71b7606dd779ad54e2c1adc687f12b9dfce807",
          "transactionType": "CALL",
          "contractName": null,
          "contractAddress": "0x1ea5c55900eddf66bb4d4d8d68da44d65b4c5659",
          "function": "setPeer(uint32,bytes32)",
          "arguments": [
            "40232",
            "0x0000000000000000000000001ea5c55900eddf66bb4d4d8d68da44d65b4c5659"
          ],
          "transaction": {
            "from": "0x64a822f980dc5f126215d75d11dd8114ed0bdb5f",
            "to": "0x1ea5c55900eddf66bb4d4d8d68da44d65b4c5659",
            "gas": "0x104d2",
            "value": "0x0",
            "input": "0x3400288b0000000000000000000000000000000000000000000000000000000000009d280000000000000000000000001ea5c55900eddf66bb4d4d8d68da44d65b4c5659",
            "nonce": "0x4d5",
            "chainId": "0x14a34"
          },
          "additionalContracts": [],
          "isFixedGasLimit": false
        },
        {
          "hash": "0xac9a4d7d93b6af791738ca292fab0f6c9b33589385cdd95a7112c7e065c11dfd",
          "transactionType": "CALL",
          "contractName": null,
          "contractAddress": "0x5c66419d240ac6c91f22a151d7a0ec9f24a0bedc",
          "function": "setPeer(uint32,bytes32)",
          "arguments": [
            "40232",
            "0x0000000000000000000000005c66419d240ac6c91f22a151d7a0ec9f24a0bedc"
          ],
          "transaction": {
            "from": "0x64a822f980dc5f126215d75d11dd8114ed0bdb5f",
            "to": "0x5c66419d240ac6c91f22a151d7a0ec9f24a0bedc",
            "gas": "0x1143c",
            "value": "0x0",
            "input": "0x3400288b0000000000000000000000000000000000000000000000000000000000009d280000000000000000000000005c66419d240ac6c91f22a151d7a0ec9f24a0bedc",
            "nonce": "0x4d6",
            "chainId": "0x14a34"
          },
          "additionalContracts": [],
          "isFixedGasLimit": false
        },
        {
          "hash": "0x5c6d1696fe37b2342a1af5aa0613b265b9c8de870ec357269778097cbcc65ee0",
          "transactionType": "CALL",
          "contractName": null,
          "contractAddress": "0xca0f5185eed9f77b0facee6a8c780a447d61f126",
          "function": "setPeer(uint32,bytes32)",
          "arguments": [
            "40232",
            "0x000000000000000000000000ca0f5185eed9f77b0facee6a8c780a447d61f126"
          ],
          "transaction": {
            "from": "0x64a822f980dc5f126215d75d11dd8114ed0bdb5f",
            "to": "0xca0f5185eed9f77b0facee6a8c780a447d61f126",
            "gas": "0x113bb",
            "value": "0x0",
            "input": "0x3400288b0000000000000000000000000000000000000000000000000000000000009d28000000000000000000000000ca0f5185eed9f77b0facee6a8c780a447d61f126",
            "nonce": "0x4d7",
            "chainId": "0x14a34"
          },
          "additionalContracts": [],
          "isFixedGasLimit": false
        }
      ],
      "receipts": [
        {
          "status": "0x1",
          "cumulativeGasUsed": "0x517991",
          "logs": [
            {
              "address": "0x1ea5c55900eddf66bb4d4d8d68da44d65b4c5659",
              "topics": [
                "0x238399d427b947898edb290f5ff0f9109849b1c3ba196a42e35f00c50a54b98b"
              ],
              "data": "0x0000000000000000000000000000000000000000000000000000000000009d280000000000000000000000001ea5c55900eddf66bb4d4d8d68da44d65b4c5659",
              "blockHash": "0xa2085ea800a5b1b2219b7c9582127cdc9c816aefd156b7dad3b9f68d498ad989",
              "blockNumber": "0x1801282",
              "transactionHash": "0xeec75b7f647857a880a3bdb00a71b7606dd779ad54e2c1adc687f12b9dfce807",
              "transactionIndex": "0x1b",
              "logIndex": "0xa6",
              "removed": false
            }
          ],
          "logsBloom": "0x00000000000000000000000000000000000000000000000000000000000000000000000000000000000000000000000000000000000000000800000000000000000020000000000002000000000000000000000000000000000000000000000000000000000000000000000000000000000000000000000000000000000000000000000000000000000000000000000000000000000000000000000200000000000000000000000000000000000000000000000000000000000002000000000000000000000000000000000000000000000000000000000000040000000000000000000000000000000000000000000000000000000000000000000000000000",
          "type": "0x2",
          "transactionHash": "0xeec75b7f647857a880a3bdb00a71b7606dd779ad54e2c1adc687f12b9dfce807",
          "transactionIndex": "0x1b",
          "blockHash": "0xa2085ea800a5b1b2219b7c9582127cdc9c816aefd156b7dad3b9f68d498ad989",
          "blockNumber": "0x1801282",
          "gasUsed": "0xbcd5",
          "effectiveGasPrice": "0xf08f4",
          "from": "0x64a822f980dc5f126215d75d11dd8114ed0bdb5f",
          "to": "0x1ea5c55900eddf66bb4d4d8d68da44d65b4c5659",
          "contractAddress": null,
          "l1BaseFeeScalar": "0x44d",
          "l1BlobBaseFee": "0x1",
          "l1BlobBaseFeeScalar": "0xa118b",
          "l1Fee": "0x29f0cb42d7",
          "l1GasPrice": "0x17cee9096e",
          "l1GasUsed": "0x640"
        },
        {
          "status": "0x1",
          "cumulativeGasUsed": "0x523672",
          "logs": [
            {
              "address": "0x5c66419d240ac6c91f22a151d7a0ec9f24a0bedc",
              "topics": [
                "0x238399d427b947898edb290f5ff0f9109849b1c3ba196a42e35f00c50a54b98b"
              ],
              "data": "0x0000000000000000000000000000000000000000000000000000000000009d280000000000000000000000005c66419d240ac6c91f22a151d7a0ec9f24a0bedc",
              "blockHash": "0xa2085ea800a5b1b2219b7c9582127cdc9c816aefd156b7dad3b9f68d498ad989",
              "blockNumber": "0x1801282",
              "transactionHash": "0xac9a4d7d93b6af791738ca292fab0f6c9b33589385cdd95a7112c7e065c11dfd",
              "transactionIndex": "0x1c",
              "logIndex": "0xa7",
              "removed": false
            }
          ],
          "logsBloom": "0x00000000000000000000000000000000000000000000000000000000000000000000000000000000000000000000000000000000000000000800000000000000000000000000000000000000200000000000040000000400000000000000000000000000000000000000000000000000000000000000000000000000000000000000000000000000000000000000000000000000000000000000000000000000000000000000000000000000000000000000000000000000000002000000000000000000000000000000000000000000000000000000000000040000000000000000000000000000000000000000000000000000000000000000000000000000",
          "type": "0x2",
          "transactionHash": "0xac9a4d7d93b6af791738ca292fab0f6c9b33589385cdd95a7112c7e065c11dfd",
          "transactionIndex": "0x1c",
          "blockHash": "0xa2085ea800a5b1b2219b7c9582127cdc9c816aefd156b7dad3b9f68d498ad989",
          "blockNumber": "0x1801282",
          "gasUsed": "0xbce1",
          "effectiveGasPrice": "0xf08f4",
          "from": "0x64a822f980dc5f126215d75d11dd8114ed0bdb5f",
          "to": "0x5c66419d240ac6c91f22a151d7a0ec9f24a0bedc",
          "contractAddress": null,
          "l1BaseFeeScalar": "0x44d",
          "l1BlobBaseFee": "0x1",
          "l1BlobBaseFeeScalar": "0xa118b",
          "l1Fee": "0x29f0cb42d7",
          "l1GasPrice": "0x17cee9096e",
          "l1GasUsed": "0x640"
        },
        {
          "status": "0x1",
          "cumulativeGasUsed": "0x52f2fb",
          "logs": [
            {
              "address": "0xca0f5185eed9f77b0facee6a8c780a447d61f126",
              "topics": [
                "0x238399d427b947898edb290f5ff0f9109849b1c3ba196a42e35f00c50a54b98b"
              ],
              "data": "0x0000000000000000000000000000000000000000000000000000000000009d28000000000000000000000000ca0f5185eed9f77b0facee6a8c780a447d61f126",
              "blockHash": "0xa2085ea800a5b1b2219b7c9582127cdc9c816aefd156b7dad3b9f68d498ad989",
              "blockNumber": "0x1801282",
              "transactionHash": "0x5c6d1696fe37b2342a1af5aa0613b265b9c8de870ec357269778097cbcc65ee0",
              "transactionIndex": "0x1d",
              "logIndex": "0xa8",
              "removed": false
            }
          ],
          "logsBloom": "0x00000000000000000800000000000000000000000000000000000000000000000000000000000000000000000000000000000000000000000800000000000000000000000000000000000000000000000000000000000000000000000000000000000000000000000000000000000000000000000000000000000200000000000000000000000000000000040000000000000000000000000000000000000000000000000000000000000000000000000000000000000000000002000000000000000000000000000000000000000000000000000000000000040000000000000000000000000000000000000000000000000000000000000000000000000000",
          "type": "0x2",
          "transactionHash": "0x5c6d1696fe37b2342a1af5aa0613b265b9c8de870ec357269778097cbcc65ee0",
          "transactionIndex": "0x1d",
          "blockHash": "0xa2085ea800a5b1b2219b7c9582127cdc9c816aefd156b7dad3b9f68d498ad989",
          "blockNumber": "0x1801282",
          "gasUsed": "0xbc89",
          "effectiveGasPrice": "0xf08f4",
          "from": "0x64a822f980dc5f126215d75d11dd8114ed0bdb5f",
          "to": "0xca0f5185eed9f77b0facee6a8c780a447d61f126",
          "contractAddress": null,
          "l1BaseFeeScalar": "0x44d",
          "l1BlobBaseFee": "0x1",
          "l1BlobBaseFeeScalar": "0xa118b",
          "l1Fee": "0x29f0cb42d7",
          "l1GasPrice": "0x17cee9096e",
          "l1GasUsed": "0x640"
        }
      ],
      "libraries": [],
      "pending": [],
      "returns": {},
      "timestamp": 1746109407,
      "chain": 84532,
      "commit": "5016a8a"
    },
    {
      "transactions": [
        {
          "hash": "0xf3c28d2a058408e6b261535a04bacce77c3a1e3e2b38a57588bd8678a6bb0336",
          "transactionType": "CALL",
          "contractName": null,
          "contractAddress": "0x1ea5c55900eddf66bb4d4d8d68da44d65b4c5659",
          "function": "setPeer(uint32,bytes32)",
          "arguments": [
            "40245",
            "0x0000000000000000000000001ea5c55900eddf66bb4d4d8d68da44d65b4c5659"
          ],
          "transaction": {
            "from": "0x64a822f980dc5f126215d75d11dd8114ed0bdb5f",
            "to": "0x1ea5c55900eddf66bb4d4d8d68da44d65b4c5659",
            "gas": "0x104d2",
            "value": "0x0",
            "input": "0x3400288b0000000000000000000000000000000000000000000000000000000000009d350000000000000000000000001ea5c55900eddf66bb4d4d8d68da44d65b4c5659",
            "nonce": "0x31d",
            "chainId": "0xaa37dc"
          },
          "additionalContracts": [],
          "isFixedGasLimit": false
        },
        {
          "hash": "0x2255fc0fdce017501043be3145deebd278d91371cc074971bd9a2bc1d659971f",
          "transactionType": "CALL",
          "contractName": null,
          "contractAddress": "0x5c66419d240ac6c91f22a151d7a0ec9f24a0bedc",
          "function": "setPeer(uint32,bytes32)",
          "arguments": [
            "40245",
            "0x0000000000000000000000005c66419d240ac6c91f22a151d7a0ec9f24a0bedc"
          ],
          "transaction": {
            "from": "0x64a822f980dc5f126215d75d11dd8114ed0bdb5f",
            "to": "0x5c66419d240ac6c91f22a151d7a0ec9f24a0bedc",
            "gas": "0x1143c",
            "value": "0x0",
            "input": "0x3400288b0000000000000000000000000000000000000000000000000000000000009d350000000000000000000000005c66419d240ac6c91f22a151d7a0ec9f24a0bedc",
            "nonce": "0x31e",
            "chainId": "0xaa37dc"
          },
          "additionalContracts": [],
          "isFixedGasLimit": false
        },
        {
          "hash": "0xb5ca26693dc3b2b7c32bc7e791de5c2eeab41c48f2e68a2449e7b166c42475ba",
          "transactionType": "CALL",
          "contractName": null,
          "contractAddress": "0xca0f5185eed9f77b0facee6a8c780a447d61f126",
          "function": "setPeer(uint32,bytes32)",
          "arguments": [
            "40245",
            "0x000000000000000000000000ca0f5185eed9f77b0facee6a8c780a447d61f126"
          ],
          "transaction": {
            "from": "0x64a822f980dc5f126215d75d11dd8114ed0bdb5f",
            "to": "0xca0f5185eed9f77b0facee6a8c780a447d61f126",
            "gas": "0x113bb",
            "value": "0x0",
            "input": "0x3400288b0000000000000000000000000000000000000000000000000000000000009d35000000000000000000000000ca0f5185eed9f77b0facee6a8c780a447d61f126",
            "nonce": "0x31f",
            "chainId": "0xaa37dc"
          },
          "additionalContracts": [],
          "isFixedGasLimit": false
        }
      ],
      "receipts": [
        {
          "status": "0x1",
          "cumulativeGasUsed": "0x12758f3",
          "logs": [
            {
              "address": "0x1ea5c55900eddf66bb4d4d8d68da44d65b4c5659",
              "topics": [
                "0x238399d427b947898edb290f5ff0f9109849b1c3ba196a42e35f00c50a54b98b"
              ],
              "data": "0x0000000000000000000000000000000000000000000000000000000000009d350000000000000000000000001ea5c55900eddf66bb4d4d8d68da44d65b4c5659",
              "blockHash": "0x00206324c8033f4eb941d9927504a77802a7014473e625fb68371869f5f34c70",
              "blockNumber": "0x19e541e",
              "transactionHash": "0xf3c28d2a058408e6b261535a04bacce77c3a1e3e2b38a57588bd8678a6bb0336",
              "transactionIndex": "0x2a",
              "logIndex": "0x4b",
              "removed": false
            }
          ],
          "logsBloom": "0x00000000000000000000000000000000000000000000000000000000000000000000000000000000000000000000000000000000000000000800000000000000000020000000000002000000000000000000000000000000000000000000000000000000000000000000000000000000000000000000000000000000000000000000000000000000000000000000000000000000000000000000000200000000000000000000000000000000000000000000000000000000000002000000000000000000000000000000000000000000000000000000000000040000000000000000000000000000000000000000000000000000000000000000000000000000",
          "type": "0x2",
          "transactionHash": "0xf3c28d2a058408e6b261535a04bacce77c3a1e3e2b38a57588bd8678a6bb0336",
          "transactionIndex": "0x2a",
          "blockHash": "0x00206324c8033f4eb941d9927504a77802a7014473e625fb68371869f5f34c70",
          "blockNumber": "0x19e541e",
          "gasUsed": "0xbcd5",
          "effectiveGasPrice": "0x1e301c",
          "from": "0x64a822f980dc5f126215d75d11dd8114ed0bdb5f",
          "to": "0x1ea5c55900eddf66bb4d4d8d68da44d65b4c5659",
          "contractAddress": null,
          "l1BaseFeeScalar": "0x1db0",
          "l1BlobBaseFee": "0x1",
          "l1BlobBaseFeeScalar": "0xd2730",
          "l1Fee": "0x128013d0a8a",
          "l1GasPrice": "0x1857ae486b",
          "l1GasUsed": "0x640"
        },
        {
          "status": "0x1",
          "cumulativeGasUsed": "0x2cd97c",
          "logs": [
            {
              "address": "0x5c66419d240ac6c91f22a151d7a0ec9f24a0bedc",
              "topics": [
                "0x238399d427b947898edb290f5ff0f9109849b1c3ba196a42e35f00c50a54b98b"
              ],
              "data": "0x0000000000000000000000000000000000000000000000000000000000009d350000000000000000000000005c66419d240ac6c91f22a151d7a0ec9f24a0bedc",
              "blockHash": "0x03979aba384fbf42ea212863772afa763e4391937fc2ba1154d2b07ed601f886",
              "blockNumber": "0x19e541f",
              "transactionHash": "0x2255fc0fdce017501043be3145deebd278d91371cc074971bd9a2bc1d659971f",
              "transactionIndex": "0x6",
              "logIndex": "0x27",
              "removed": false
            }
          ],
          "logsBloom": "0x00000000000000000000000000000000000000000000000000000000000000000000000000000000000000000000000000000000000000000800000000000000000000000000000000000000200000000000040000000400000000000000000000000000000000000000000000000000000000000000000000000000000000000000000000000000000000000000000000000000000000000000000000000000000000000000000000000000000000000000000000000000000002000000000000000000000000000000000000000000000000000000000000040000000000000000000000000000000000000000000000000000000000000000000000000000",
          "type": "0x2",
          "transactionHash": "0x2255fc0fdce017501043be3145deebd278d91371cc074971bd9a2bc1d659971f",
          "transactionIndex": "0x6",
          "blockHash": "0x03979aba384fbf42ea212863772afa763e4391937fc2ba1154d2b07ed601f886",
          "blockNumber": "0x19e541f",
          "gasUsed": "0xbce1",
          "effectiveGasPrice": "0x1e35dc",
          "from": "0x64a822f980dc5f126215d75d11dd8114ed0bdb5f",
          "to": "0x5c66419d240ac6c91f22a151d7a0ec9f24a0bedc",
          "contractAddress": null,
          "l1BaseFeeScalar": "0x1db0",
          "l1BlobBaseFee": "0x1",
          "l1BlobBaseFeeScalar": "0xd2730",
          "l1Fee": "0x11ef520d19f",
          "l1GasPrice": "0x1799361136",
          "l1GasUsed": "0x640"
        },
        {
          "status": "0x1",
          "cumulativeGasUsed": "0x2d9605",
          "logs": [
            {
              "address": "0xca0f5185eed9f77b0facee6a8c780a447d61f126",
              "topics": [
                "0x238399d427b947898edb290f5ff0f9109849b1c3ba196a42e35f00c50a54b98b"
              ],
              "data": "0x0000000000000000000000000000000000000000000000000000000000009d35000000000000000000000000ca0f5185eed9f77b0facee6a8c780a447d61f126",
              "blockHash": "0x03979aba384fbf42ea212863772afa763e4391937fc2ba1154d2b07ed601f886",
              "blockNumber": "0x19e541f",
              "transactionHash": "0xb5ca26693dc3b2b7c32bc7e791de5c2eeab41c48f2e68a2449e7b166c42475ba",
              "transactionIndex": "0x7",
              "logIndex": "0x28",
              "removed": false
            }
          ],
          "logsBloom": "0x00000000000000000800000000000000000000000000000000000000000000000000000000000000000000000000000000000000000000000800000000000000000000000000000000000000000000000000000000000000000000000000000000000000000000000000000000000000000000000000000000000200000000000000000000000000000000040000000000000000000000000000000000000000000000000000000000000000000000000000000000000000000002000000000000000000000000000000000000000000000000000000000000040000000000000000000000000000000000000000000000000000000000000000000000000000",
          "type": "0x2",
          "transactionHash": "0xb5ca26693dc3b2b7c32bc7e791de5c2eeab41c48f2e68a2449e7b166c42475ba",
          "transactionIndex": "0x7",
          "blockHash": "0x03979aba384fbf42ea212863772afa763e4391937fc2ba1154d2b07ed601f886",
          "blockNumber": "0x19e541f",
          "gasUsed": "0xbc89",
          "effectiveGasPrice": "0x1e35dc",
          "from": "0x64a822f980dc5f126215d75d11dd8114ed0bdb5f",
          "to": "0xca0f5185eed9f77b0facee6a8c780a447d61f126",
          "contractAddress": null,
          "l1BaseFeeScalar": "0x1db0",
          "l1BlobBaseFee": "0x1",
          "l1BlobBaseFeeScalar": "0xd2730",
          "l1Fee": "0x11ef520d19f",
          "l1GasPrice": "0x1799361136",
          "l1GasUsed": "0x640"
        }
      ],
      "libraries": [],
      "pending": [],
      "returns": {},
      "timestamp": 1746109407,
      "chain": 11155420,
      "commit": "5016a8a"
    }
  ],
  "timestamp": 1746109420
}