{
  "deployments": [
    {
      "transactions": [
        {
          "hash": "0x02190a4a894a9fe990b1d1eab8679ef3c5453a9dccd3d46a0874fdcf9c0bb690",
          "transactionType": "CALL",
          "contractName": null,
          "contractAddress": "0x19e8dd0f7c324346b9b6ce8ffbd3eb126d5d3eb5",
          "function": "setPeer(uint32,bytes32)",
          "arguments": [
            "40232",
            "0x00000000000000000000000019e8dd0f7c324346b9b6ce8ffbd3eb126d5d3eb5"
          ],
          "transaction": {
            "from": "0x64a822f980dc5f126215d75d11dd8114ed0bdb5f",
            "to": "0x19e8dd0f7c324346b9b6ce8ffbd3eb126d5d3eb5",
            "gas": "0x1139a",
            "value": "0x0",
            "input": "0x3400288b0000000000000000000000000000000000000000000000000000000000009d2800000000000000000000000019e8dd0f7c324346b9b6ce8ffbd3eb126d5d3eb5",
            "nonce": "0x435",
            "chainId": "0x14a34"
          },
          "additionalContracts": [],
          "isFixedGasLimit": false
        }
      ],
      "receipts": [
        {
          "status": "0x1",
          "cumulativeGasUsed": "0x48dce3",
          "logs": [
            {
              "address": "0x19e8dd0f7c324346b9b6ce8ffbd3eb126d5d3eb5",
              "topics": [
                "0x238399d427b947898edb290f5ff0f9109849b1c3ba196a42e35f00c50a54b98b"
              ],
              "data": "0x0000000000000000000000000000000000000000000000000000000000009d2800000000000000000000000019e8dd0f7c324346b9b6ce8ffbd3eb126d5d3eb5",
              "blockHash": "0x84c3deee8c8fb1d66f0e68aa55736027bc90a182252254b5b845e19db7574cbf",
              "blockNumber": "0x172dc17",
              "transactionHash": "0x02190a4a894a9fe990b1d1eab8679ef3c5453a9dccd3d46a0874fdcf9c0bb690",
              "transactionIndex": "0x25",
              "logIndex": "0x26",
              "removed": false
            }
          ],
          "logsBloom": "0x00000000000000000000000000000000000000000000000000000000000000000000000000000000000000000000000000000000000000000800000400000000000000000000000000000000000000000000000000000000000000000000000000000000200000000000000000000000000000000000000000000000000000000000000000000000000000000000000000000000000000002000000000000000000000000000000000000000000000000000000000000000000002000000000000000000000000000000000000000000000000000000000000040000000000000000000000000000000000000000000000000000000000000000000000000000",
          "type": "0x2",
          "transactionHash": "0x02190a4a894a9fe990b1d1eab8679ef3c5453a9dccd3d46a0874fdcf9c0bb690",
          "transactionIndex": "0x25",
          "blockHash": "0x84c3deee8c8fb1d66f0e68aa55736027bc90a182252254b5b845e19db7574cbf",
          "blockNumber": "0x172dc17",
          "gasUsed": "0xbc73",
          "effectiveGasPrice": "0xf4707",
          "from": "0x64a822f980dc5f126215d75d11dd8114ed0bdb5f",
          "to": "0x19e8dd0f7c324346b9b6ce8ffbd3eb126d5d3eb5",
          "contractAddress": null,
          "l1BaseFeeScalar": "0x44d",
          "l1BlobBaseFee": "0x1",
          "l1BlobBaseFeeScalar": "0xa118b",
          "l1Fee": "0xae40",
          "l1GasPrice": "0x62c5",
          "l1GasUsed": "0x640"
        }
      ],
      "libraries": [],
      "pending": [],
      "returns": {},
      "timestamp": 1744377609,
      "chain": 84532,
      "commit": "5a12906"
    },
    {
      "transactions": [
        {
          "hash": "0x72103c870e5a2b5f5bfcd0f1e20b100cbe22315fd6a8676129895be93e2ae0a7",
          "transactionType": "CALL",
          "contractName": null,
          "contractAddress": "0x19e8dd0f7c324346b9b6ce8ffbd3eb126d5d3eb5",
          "function": "setPeer(uint32,bytes32)",
          "arguments": [
            "40245",
            "0x00000000000000000000000019e8dd0f7c324346b9b6ce8ffbd3eb126d5d3eb5"
          ],
          "transaction": {
            "from": "0x64a822f980dc5f126215d75d11dd8114ed0bdb5f",
            "to": "0x19e8dd0f7c324346b9b6ce8ffbd3eb126d5d3eb5",
            "gas": "0x1139a",
            "value": "0x0",
            "input": "0x3400288b0000000000000000000000000000000000000000000000000000000000009d3500000000000000000000000019e8dd0f7c324346b9b6ce8ffbd3eb126d5d3eb5",
            "nonce": "0x2cf",
            "chainId": "0xaa37dc"
          },
          "additionalContracts": [],
          "isFixedGasLimit": false
        }
      ],
      "receipts": [
        {
          "status": "0x1",
          "cumulativeGasUsed": "0x2cc2da",
          "logs": [
            {
              "address": "0x19e8dd0f7c324346b9b6ce8ffbd3eb126d5d3eb5",
              "topics": [
                "0x238399d427b947898edb290f5ff0f9109849b1c3ba196a42e35f00c50a54b98b"
              ],
              "data": "0x0000000000000000000000000000000000000000000000000000000000009d3500000000000000000000000019e8dd0f7c324346b9b6ce8ffbd3eb126d5d3eb5",
              "blockHash": "0xe916fdd454afd5fe7aaae2fc0553d1e7ec9bf1ca532d37b261901890749cb069",
              "blockNumber": "0x1911db3",
              "transactionHash": "0x72103c870e5a2b5f5bfcd0f1e20b100cbe22315fd6a8676129895be93e2ae0a7",
              "transactionIndex": "0x9",
              "logIndex": "0x11",
              "removed": false
            }
          ],
          "logsBloom": "0x00000000000000000000000000000000000000000000000000000000000000000000000000000000000000000000000000000000000000000800000400000000000000000000000000000000000000000000000000000000000000000000000000000000200000000000000000000000000000000000000000000000000000000000000000000000000000000000000000000000000000002000000000000000000000000000000000000000000000000000000000000000000002000000000000000000000000000000000000000000000000000000000000040000000000000000000000000000000000000000000000000000000000000000000000000000",
          "type": "0x2",
          "transactionHash": "0x72103c870e5a2b5f5bfcd0f1e20b100cbe22315fd6a8676129895be93e2ae0a7",
          "transactionIndex": "0x9",
          "blockHash": "0xe916fdd454afd5fe7aaae2fc0553d1e7ec9bf1ca532d37b261901890749cb069",
          "blockNumber": "0x1911db3",
          "gasUsed": "0xbc73",
          "effectiveGasPrice": "0xf4346",
          "from": "0x64a822f980dc5f126215d75d11dd8114ed0bdb5f",
          "to": "0x19e8dd0f7c324346b9b6ce8ffbd3eb126d5d3eb5",
          "contractAddress": null,
          "l1BaseFeeScalar": "0x1db0",
          "l1BlobBaseFee": "0x1",
          "l1BlobBaseFeeScalar": "0xd2730",
          "l1Fee": "0x4717c",
          "l1GasPrice": "0x5d84",
          "l1GasUsed": "0x640"
        }
      ],
      "libraries": [],
      "pending": [],
      "returns": {},
      "timestamp": 1744377609,
      "chain": 11155420,
      "commit": "5a12906"
    }
  ],
  "timestamp": 1744377618
}