{
  "deployments": [
    {
      "transactions": [
        {
          "hash": "0x6c71d6b3a876669842e2a76bac44c8cfea3df54b1e805df1ca5fe3333f711e8c",
          "transactionType": "CALL",
          "contractName": null,
          "contractAddress": "0xad825df382892f9d6ab2487218f9d258c4eec1f7",
          "function": "setPeer(uint32,bytes32)",
          "arguments": [
            "40232",
            "0x000000000000000000000000ad825df382892f9d6ab2487218f9d258c4eec1f7"
          ],
          "transaction": {
            "from": "0x64a822f980dc5f126215d75d11dd8114ed0bdb5f",
            "to": "0xad825df382892f9d6ab2487218f9d258c4eec1f7",
            "gas": "0x1143c",
            "value": "0x0",
            "input": "0x3400288b0000000000000000000000000000000000000000000000000000000000009d28000000000000000000000000ad825df382892f9d6ab2487218f9d258c4eec1f7",
            "nonce": "0x47b",
            "chainId": "0x14a34"
          },
          "additionalContracts": [],
          "isFixedGasLimit": false
        },
        {
          "hash": "0x9ad7a69ffeabf653f8644705b8ee66179e200bd4e392b037d5462b0196562271",
          "transactionType": "CALL",
          "contractName": null,
          "contractAddress": "0x8bba107bd0fc08d71115c0fc9d2c7108d8990dc1",
          "function": "setPeer(uint32,bytes32)",
          "arguments": [
            "40232",
            "0x0000000000000000000000008bba107bd0fc08d71115c0fc9d2c7108d8990dc1"
          ],
          "transaction": {
            "from": "0x64a822f980dc5f126215d75d11dd8114ed0bdb5f",
            "to": "0x8bba107bd0fc08d71115c0fc9d2c7108d8990dc1",
            "gas": "0x9984",
            "value": "0x0",
            "input": "0x3400288b0000000000000000000000000000000000000000000000000000000000009d280000000000000000000000008bba107bd0fc08d71115c0fc9d2c7108d8990dc1",
            "nonce": "0x47c",
            "chainId": "0x14a34"
          },
          "additionalContracts": [],
          "isFixedGasLimit": false
        },
        {
          "hash": "0x2362b159121b10d6f488954e2db7a6e747398a29c3c6857bfddab3f73a82e935",
          "transactionType": "CALL",
          "contractName": null,
          "contractAddress": "0x6fe8acd6a069a818ecd3cd3b2dfdbcbba753f9f5",
          "function": "setPeer(uint32,bytes32)",
          "arguments": [
            "40232",
            "0x0000000000000000000000006fe8acd6a069a818ecd3cd3b2dfdbcbba753f9f5"
          ],
          "transaction": {
            "from": "0x64a822f980dc5f126215d75d11dd8114ed0bdb5f",
            "to": "0x6fe8acd6a069a818ecd3cd3b2dfdbcbba753f9f5",
            "gas": "0x990a",
            "value": "0x0",
            "input": "0x3400288b0000000000000000000000000000000000000000000000000000000000009d280000000000000000000000006fe8acd6a069a818ecd3cd3b2dfdbcbba753f9f5",
            "nonce": "0x47d",
            "chainId": "0x14a34"
          },
          "additionalContracts": [],
          "isFixedGasLimit": false
        }
      ],
      "receipts": [
        {
          "status": "0x1",
          "cumulativeGasUsed": "0x5ec78a",
          "logs": [
            {
              "address": "0xad825df382892f9d6ab2487218f9d258c4eec1f7",
              "topics": [
                "0x238399d427b947898edb290f5ff0f9109849b1c3ba196a42e35f00c50a54b98b"
              ],
              "data": "0x0000000000000000000000000000000000000000000000000000000000009d28000000000000000000000000ad825df382892f9d6ab2487218f9d258c4eec1f7",
              "blockHash": "0x34bac01fca3afad359cbe7ce7cae0b67bc70c3c933bdc29094a0e07a01721956",
              "blockNumber": "0x17e1acf",
              "transactionHash": "0x6c71d6b3a876669842e2a76bac44c8cfea3df54b1e805df1ca5fe3333f711e8c",
              "transactionIndex": "0x37",
              "logIndex": "0xcd",
              "removed": false
            }
          ],
          "logsBloom": "0x00000000000000000000000000000000000000000000000000000000000000000000000000000000040000000000000000000000000000000800000000000000000000000000000000000000000000000000000000000000000000000000000000000000000000000000000000000000000000000000000000000000000000000000000000000000000000000000000000000000000000000000000000000000000000000000000000010000000000000000000000000000000002000000000000000000000000000000000000000000000000000000000000040000000000000000000000000000000000000000020000000000000000000000000000000000",
          "type": "0x2",
          "transactionHash": "0x6c71d6b3a876669842e2a76bac44c8cfea3df54b1e805df1ca5fe3333f711e8c",
          "transactionIndex": "0x37",
          "blockHash": "0x34bac01fca3afad359cbe7ce7cae0b67bc70c3c933bdc29094a0e07a01721956",
          "blockNumber": "0x17e1acf",
          "gasUsed": "0xbce1",
          "effectiveGasPrice": "0xb73",
          "from": "0x64a822f980dc5f126215d75d11dd8114ed0bdb5f",
          "to": "0xad825df382892f9d6ab2487218f9d258c4eec1f7",
          "contractAddress": null,
          "l1BaseFeeScalar": "0x44d",
          "l1BlobBaseFee": "0x1",
          "l1BlobBaseFeeScalar": "0xa118b",
          "l1Fee": "0x1647d00fe",
          "l1GasPrice": "0xca5dbf15",
          "l1GasUsed": "0x640"
        },
        {
          "status": "0x1",
          "cumulativeGasUsed": "0x5f36af",
          "logs": [
            {
              "address": "0x8bba107bd0fc08d71115c0fc9d2c7108d8990dc1",
              "topics": [
                "0x238399d427b947898edb290f5ff0f9109849b1c3ba196a42e35f00c50a54b98b"
              ],
              "data": "0x0000000000000000000000000000000000000000000000000000000000009d280000000000000000000000008bba107bd0fc08d71115c0fc9d2c7108d8990dc1",
              "blockHash": "0x34bac01fca3afad359cbe7ce7cae0b67bc70c3c933bdc29094a0e07a01721956",
              "blockNumber": "0x17e1acf",
              "transactionHash": "0x9ad7a69ffeabf653f8644705b8ee66179e200bd4e392b037d5462b0196562271",
              "transactionIndex": "0x38",
              "logIndex": "0xce",
              "removed": false
            }
          ],
          "logsBloom": "0x00000000000000000000000200000000000000000000000000000000000000000000000000000000000000000000000000000000000000000800000000000000000000000000000000000000000000000000000000000000000000000000000000000000000000000000000000000000000000000000000000000000000000000000000000000000000000000000000000000000000000000000000000000000000000000000000000000000000000000000000000000000000002000000000000000000002000000000000000080000000000000000000000040000000000000000000000000000000000000000000000000000000000000000000000000000",
          "type": "0x2",
          "transactionHash": "0x9ad7a69ffeabf653f8644705b8ee66179e200bd4e392b037d5462b0196562271",
          "transactionIndex": "0x38",
          "blockHash": "0x34bac01fca3afad359cbe7ce7cae0b67bc70c3c933bdc29094a0e07a01721956",
          "blockNumber": "0x17e1acf",
          "gasUsed": "0x6f25",
          "effectiveGasPrice": "0xb73",
          "from": "0x64a822f980dc5f126215d75d11dd8114ed0bdb5f",
          "to": "0x8bba107bd0fc08d71115c0fc9d2c7108d8990dc1",
          "contractAddress": null,
          "l1BaseFeeScalar": "0x44d",
          "l1BlobBaseFee": "0x1",
          "l1BlobBaseFeeScalar": "0xa118b",
          "l1Fee": "0x1647d00fe",
          "l1GasPrice": "0xca5dbf15",
          "l1GasUsed": "0x640"
        },
        {
          "status": "0x1",
          "cumulativeGasUsed": "0x5fa57c",
          "logs": [
            {
              "address": "0x6fe8acd6a069a818ecd3cd3b2dfdbcbba753f9f5",
              "topics": [
                "0x238399d427b947898edb290f5ff0f9109849b1c3ba196a42e35f00c50a54b98b"
              ],
              "data": "0x0000000000000000000000000000000000000000000000000000000000009d280000000000000000000000006fe8acd6a069a818ecd3cd3b2dfdbcbba753f9f5",
              "blockHash": "0x34bac01fca3afad359cbe7ce7cae0b67bc70c3c933bdc29094a0e07a01721956",
              "blockNumber": "0x17e1acf",
              "transactionHash": "0x2362b159121b10d6f488954e2db7a6e747398a29c3c6857bfddab3f73a82e935",
              "transactionIndex": "0x39",
              "logIndex": "0xcf",
              "removed": false
            }
          ],
          "logsBloom": "0x00000000000000000000000000000000000000000000000000000000000000000000000000000000000000000000000000000000000000000800000000000000000000000000000000000000000000000000000000000000000000000000000000000000000000000000000000000000000000000000000000000000000000000001000000000000000002000000000000000000000000000000000000000000000000000000000000000000000000000000000000000000000002000000000000000000000000000000000000000000000000000000000000040000200000000000000000000000000000000000000000000000000000000000000000000000",
          "type": "0x2",
          "transactionHash": "0x2362b159121b10d6f488954e2db7a6e747398a29c3c6857bfddab3f73a82e935",
          "transactionIndex": "0x39",
          "blockHash": "0x34bac01fca3afad359cbe7ce7cae0b67bc70c3c933bdc29094a0e07a01721956",
          "blockNumber": "0x17e1acf",
          "gasUsed": "0x6ecd",
          "effectiveGasPrice": "0xb73",
          "from": "0x64a822f980dc5f126215d75d11dd8114ed0bdb5f",
          "to": "0x6fe8acd6a069a818ecd3cd3b2dfdbcbba753f9f5",
          "contractAddress": null,
          "l1BaseFeeScalar": "0x44d",
          "l1BlobBaseFee": "0x1",
          "l1BlobBaseFeeScalar": "0xa118b",
          "l1Fee": "0x1647d00fe",
          "l1GasPrice": "0xca5dbf15",
          "l1GasUsed": "0x640"
        }
      ],
      "libraries": [],
      "pending": [],
      "returns": {},
      "timestamp": 1745851510,
      "chain": 84532,
      "commit": "35ba9f4"
    },
    {
      "transactions": [
        {
          "hash": "0x31b9a13b64547e6517cee5028cc2d3b0aff0a23d5bc0bd6947a6380a722439c9",
          "transactionType": "CALL",
          "contractName": null,
          "contractAddress": "0xad825df382892f9d6ab2487218f9d258c4eec1f7",
          "function": "setPeer(uint32,bytes32)",
          "arguments": [
            "40245",
            "0x000000000000000000000000ad825df382892f9d6ab2487218f9d258c4eec1f7"
          ],
          "transaction": {
            "from": "0x64a822f980dc5f126215d75d11dd8114ed0bdb5f",
            "to": "0xad825df382892f9d6ab2487218f9d258c4eec1f7",
            "gas": "0x1143c",
            "value": "0x0",
            "input": "0x3400288b0000000000000000000000000000000000000000000000000000000000009d35000000000000000000000000ad825df382892f9d6ab2487218f9d258c4eec1f7",
            "nonce": "0x2f3",
            "chainId": "0xaa37dc"
          },
          "additionalContracts": [],
          "isFixedGasLimit": false
        },
        {
          "hash": "0x9e28af0abb8cd1e78cdecfac88f0da762366bcfc61020db0e8ff24a412db559c",
          "transactionType": "CALL",
          "contractName": null,
          "contractAddress": "0x8bba107bd0fc08d71115c0fc9d2c7108d8990dc1",
          "function": "setPeer(uint32,bytes32)",
          "arguments": [
            "40245",
            "0x0000000000000000000000008bba107bd0fc08d71115c0fc9d2c7108d8990dc1"
          ],
          "transaction": {
            "from": "0x64a822f980dc5f126215d75d11dd8114ed0bdb5f",
            "to": "0x8bba107bd0fc08d71115c0fc9d2c7108d8990dc1",
            "gas": "0x9984",
            "value": "0x0",
            "input": "0x3400288b0000000000000000000000000000000000000000000000000000000000009d350000000000000000000000008bba107bd0fc08d71115c0fc9d2c7108d8990dc1",
            "nonce": "0x2f4",
            "chainId": "0xaa37dc"
          },
          "additionalContracts": [],
          "isFixedGasLimit": false
        },
        {
          "hash": "0xe39e8cbf416c899726b4f7dd4e7b2764868888cf58b1f912883f678afd89b3f2",
          "transactionType": "CALL",
          "contractName": null,
          "contractAddress": "0x6fe8acd6a069a818ecd3cd3b2dfdbcbba753f9f5",
          "function": "setPeer(uint32,bytes32)",
          "arguments": [
            "40245",
            "0x0000000000000000000000006fe8acd6a069a818ecd3cd3b2dfdbcbba753f9f5"
          ],
          "transaction": {
            "from": "0x64a822f980dc5f126215d75d11dd8114ed0bdb5f",
            "to": "0x6fe8acd6a069a818ecd3cd3b2dfdbcbba753f9f5",
            "gas": "0x990a",
            "value": "0x0",
            "input": "0x3400288b0000000000000000000000000000000000000000000000000000000000009d350000000000000000000000006fe8acd6a069a818ecd3cd3b2dfdbcbba753f9f5",
            "nonce": "0x2f5",
            "chainId": "0xaa37dc"
          },
          "additionalContracts": [],
          "isFixedGasLimit": false
        }
      ],
      "receipts": [
        {
          "status": "0x1",
          "cumulativeGasUsed": "0x10d40b1",
          "logs": [
            {
              "address": "0xad825df382892f9d6ab2487218f9d258c4eec1f7",
              "topics": [
                "0x238399d427b947898edb290f5ff0f9109849b1c3ba196a42e35f00c50a54b98b"
              ],
              "data": "0x0000000000000000000000000000000000000000000000000000000000009d35000000000000000000000000ad825df382892f9d6ab2487218f9d258c4eec1f7",
              "blockHash": "0x273037107608ce7c1eeed43be50ab4b7b3eb03393fdf3ea7b474f1c081b0dd7f",
              "blockNumber": "0x19c5c6b",
              "transactionHash": "0x31b9a13b64547e6517cee5028cc2d3b0aff0a23d5bc0bd6947a6380a722439c9",
              "transactionIndex": "0x11",
              "logIndex": "0x24",
              "removed": false
            }
          ],
          "logsBloom": "0x00000000000000000000000000000000000000000000000000000000000000000000000000000000040000000000000000000000000000000800000000000000000000000000000000000000000000000000000000000000000000000000000000000000000000000000000000000000000000000000000000000000000000000000000000000000000000000000000000000000000000000000000000000000000000000000000000010000000000000000000000000000000002000000000000000000000000000000000000000000000000000000000000040000000000000000000000000000000000000000020000000000000000000000000000000000",
          "type": "0x2",
          "transactionHash": "0x31b9a13b64547e6517cee5028cc2d3b0aff0a23d5bc0bd6947a6380a722439c9",
          "transactionIndex": "0x11",
          "blockHash": "0x273037107608ce7c1eeed43be50ab4b7b3eb03393fdf3ea7b474f1c081b0dd7f",
          "blockNumber": "0x19c5c6b",
          "gasUsed": "0xbce1",
          "effectiveGasPrice": "0xf455d",
          "from": "0x64a822f980dc5f126215d75d11dd8114ed0bdb5f",
          "to": "0xad825df382892f9d6ab2487218f9d258c4eec1f7",
          "contractAddress": null,
          "l1BaseFeeScalar": "0x1db0",
          "l1BlobBaseFee": "0x1",
          "l1BlobBaseFeeScalar": "0xd2730",
          "l1Fee": "0x6ecda2606",
          "l1GasPrice": "0x91cb33f1",
          "l1GasUsed": "0x640"
        },
        {
          "status": "0x1",
          "cumulativeGasUsed": "0x10dafd6",
          "logs": [
            {
              "address": "0x8bba107bd0fc08d71115c0fc9d2c7108d8990dc1",
              "topics": [
                "0x238399d427b947898edb290f5ff0f9109849b1c3ba196a42e35f00c50a54b98b"
              ],
              "data": "0x0000000000000000000000000000000000000000000000000000000000009d350000000000000000000000008bba107bd0fc08d71115c0fc9d2c7108d8990dc1",
              "blockHash": "0x273037107608ce7c1eeed43be50ab4b7b3eb03393fdf3ea7b474f1c081b0dd7f",
              "blockNumber": "0x19c5c6b",
              "transactionHash": "0x9e28af0abb8cd1e78cdecfac88f0da762366bcfc61020db0e8ff24a412db559c",
              "transactionIndex": "0x12",
              "logIndex": "0x25",
              "removed": false
            }
          ],
          "logsBloom": "0x00000000000000000000000200000000000000000000000000000000000000000000000000000000000000000000000000000000000000000800000000000000000000000000000000000000000000000000000000000000000000000000000000000000000000000000000000000000000000000000000000000000000000000000000000000000000000000000000000000000000000000000000000000000000000000000000000000000000000000000000000000000000002000000000000000000002000000000000000080000000000000000000000040000000000000000000000000000000000000000000000000000000000000000000000000000",
          "type": "0x2",
          "transactionHash": "0x9e28af0abb8cd1e78cdecfac88f0da762366bcfc61020db0e8ff24a412db559c",
          "transactionIndex": "0x12",
          "blockHash": "0x273037107608ce7c1eeed43be50ab4b7b3eb03393fdf3ea7b474f1c081b0dd7f",
          "blockNumber": "0x19c5c6b",
          "gasUsed": "0x6f25",
          "effectiveGasPrice": "0xf455d",
          "from": "0x64a822f980dc5f126215d75d11dd8114ed0bdb5f",
          "to": "0x8bba107bd0fc08d71115c0fc9d2c7108d8990dc1",
          "contractAddress": null,
          "l1BaseFeeScalar": "0x1db0",
          "l1BlobBaseFee": "0x1",
          "l1BlobBaseFeeScalar": "0xd2730",
          "l1Fee": "0x6ecda2606",
          "l1GasPrice": "0x91cb33f1",
          "l1GasUsed": "0x640"
        },
        {
          "status": "0x1",
          "cumulativeGasUsed": "0x10e1ea3",
          "logs": [
            {
              "address": "0x6fe8acd6a069a818ecd3cd3b2dfdbcbba753f9f5",
              "topics": [
                "0x238399d427b947898edb290f5ff0f9109849b1c3ba196a42e35f00c50a54b98b"
              ],
              "data": "0x0000000000000000000000000000000000000000000000000000000000009d350000000000000000000000006fe8acd6a069a818ecd3cd3b2dfdbcbba753f9f5",
              "blockHash": "0x273037107608ce7c1eeed43be50ab4b7b3eb03393fdf3ea7b474f1c081b0dd7f",
              "blockNumber": "0x19c5c6b",
              "transactionHash": "0xe39e8cbf416c899726b4f7dd4e7b2764868888cf58b1f912883f678afd89b3f2",
              "transactionIndex": "0x13",
              "logIndex": "0x26",
              "removed": false
            }
          ],
          "logsBloom": "0x00000000000000000000000000000000000000000000000000000000000000000000000000000000000000000000000000000000000000000800000000000000000000000000000000000000000000000000000000000000000000000000000000000000000000000000000000000000000000000000000000000000000000000001000000000000000002000000000000000000000000000000000000000000000000000000000000000000000000000000000000000000000002000000000000000000000000000000000000000000000000000000000000040000200000000000000000000000000000000000000000000000000000000000000000000000",
          "type": "0x2",
          "transactionHash": "0xe39e8cbf416c899726b4f7dd4e7b2764868888cf58b1f912883f678afd89b3f2",
          "transactionIndex": "0x13",
          "blockHash": "0x273037107608ce7c1eeed43be50ab4b7b3eb03393fdf3ea7b474f1c081b0dd7f",
          "blockNumber": "0x19c5c6b",
          "gasUsed": "0x6ecd",
          "effectiveGasPrice": "0xf455d",
          "from": "0x64a822f980dc5f126215d75d11dd8114ed0bdb5f",
          "to": "0x6fe8acd6a069a818ecd3cd3b2dfdbcbba753f9f5",
          "contractAddress": null,
          "l1BaseFeeScalar": "0x1db0",
          "l1BlobBaseFee": "0x1",
          "l1BlobBaseFeeScalar": "0xd2730",
          "l1Fee": "0x6ecda2606",
          "l1GasPrice": "0x91cb33f1",
          "l1GasUsed": "0x640"
        }
      ],
      "libraries": [],
      "pending": [],
      "returns": {},
      "timestamp": 1745851511,
      "chain": 11155420,
      "commit": "35ba9f4"
    }
  ],
  "timestamp": 1745851523
}