{
  "deployments": [
    {
      "transactions": [
        {
          "hash": "0x8db2bee5c112b725db0a27838791f494b76bd20067a753770b65ab31916c55c5",
          "transactionType": "CALL",
          "contractName": null,
          "contractAddress": "0x8d7e4a290960ab3b27d8851d0bcf99fad192b259",
          "function": "setPeer(uint32,bytes32)",
          "arguments": [
            "40232",
            "0x0000000000000000000000008d7e4a290960ab3b27d8851d0bcf99fad192b259"
          ],
          "transaction": {
            "from": "0x64a822f980dc5f126215d75d11dd8114ed0bdb5f",
            "to": "0x8d7e4a290960ab3b27d8851d0bcf99fad192b259",
            "gas": "0x1143c",
            "value": "0x0",
            "input": "0x3400288b0000000000000000000000000000000000000000000000000000000000009d280000000000000000000000008d7e4a290960ab3b27d8851d0bcf99fad192b259",
            "nonce": "0x521",
            "chainId": "0x14a34"
          },
          "additionalContracts": [],
          "isFixedGasLimit": false
        },
        {
          "hash": "0xdf3f745b9f7d1a9871e85d6da4fb35f3cbc3bc29578a3483c31308110f9a084d",
          "transactionType": "CALL",
          "contractName": null,
          "contractAddress": "0xd17b3e1eac5a31aebe5c17c0d1fb9c7425a49a71",
          "function": "setPeer(uint32,bytes32)",
          "arguments": [
            "40232",
            "0x000000000000000000000000d17b3e1eac5a31aebe5c17c0d1fb9c7425a49a71"
          ],
          "transaction": {
            "from": "0x64a822f980dc5f126215d75d11dd8114ed0bdb5f",
            "to": "0xd17b3e1eac5a31aebe5c17c0d1fb9c7425a49a71",
            "gas": "0x1143c",
            "value": "0x0",
            "input": "0x3400288b0000000000000000000000000000000000000000000000000000000000009d28000000000000000000000000d17b3e1eac5a31aebe5c17c0d1fb9c7425a49a71",
            "nonce": "0x522",
            "chainId": "0x14a34"
          },
          "additionalContracts": [],
          "isFixedGasLimit": false
        },
        {
          "hash": "0xb3a03657adf0238f8eb0c7ec462e75d299a2575ce6e7112b606c144e09a2687f",
          "transactionType": "CALL",
          "contractName": null,
          "contractAddress": "0xe0e3ec73699ff0da625c6f8a4e266d6da97d758b",
          "function": "setPeer(uint32,bytes32)",
          "arguments": [
            "40232",
            "0x000000000000000000000000e0e3ec73699ff0da625c6f8a4e266d6da97d758b"
          ],
          "transaction": {
            "from": "0x64a822f980dc5f126215d75d11dd8114ed0bdb5f",
            "to": "0xe0e3ec73699ff0da625c6f8a4e266d6da97d758b",
            "gas": "0x10487",
            "value": "0x0",
            "input": "0x3400288b0000000000000000000000000000000000000000000000000000000000009d28000000000000000000000000e0e3ec73699ff0da625c6f8a4e266d6da97d758b",
            "nonce": "0x523",
            "chainId": "0x14a34"
          },
          "additionalContracts": [],
          "isFixedGasLimit": false
        }
      ],
      "receipts": [
        {
          "status": "0x1",
          "cumulativeGasUsed": "0xefa11e",
          "logs": [
            {
              "address": "0x8d7e4a290960ab3b27d8851d0bcf99fad192b259",
              "topics": [
                "0x238399d427b947898edb290f5ff0f9109849b1c3ba196a42e35f00c50a54b98b"
              ],
              "data": "0x0000000000000000000000000000000000000000000000000000000000009d280000000000000000000000008d7e4a290960ab3b27d8851d0bcf99fad192b259",
              "blockHash": "0x2ec45783b1fc8e82e099b96da10285277a6680065e1043ecd406255fb0c67bf4",
              "blockNumber": "0x19297fc",
              "transactionHash": "0x8db2bee5c112b725db0a27838791f494b76bd20067a753770b65ab31916c55c5",
              "transactionIndex": "0x107",
              "logIndex": "0xa5",
              "removed": false
            }
          ],
          "logsBloom": "0x00000000000000000000000000000000000000000000000000000000000000000000000000000000000000000000000000000000000000000800000000000000000000000000000000000000000000000000000000000000000000000000000000000000000000000000000000000000000000000000000000000000800000000000000000000000000000000000000000000000000000000000000000000000000000000000000000000000000000000000000000000000000002000000000000000000000000000000000000002000000000000000000000040000000000000000000000000000000000000000000000000000020000000000000000000000",
          "type": "0x2",
          "transactionHash": "0x8db2bee5c112b725db0a27838791f494b76bd20067a753770b65ab31916c55c5",
          "transactionIndex": "0x107",
          "blockHash": "0x2ec45783b1fc8e82e099b96da10285277a6680065e1043ecd406255fb0c67bf4",
          "blockNumber": "0x19297fc",
          "gasUsed": "0xbce1",
          "effectiveGasPrice": "0x2596ab46",
          "from": "0x64a822f980dc5f126215d75d11dd8114ed0bdb5f",
          "to": "0x8d7e4a290960ab3b27d8851d0bcf99fad192b259",
          "contractAddress": null,
          "l1BaseFeeScalar": "0x44d",
          "l1BlobBaseFee": "0x1",
          "l1BlobBaseFeeScalar": "0xa118b",
          "l1Fee": "0x12bf4f37",
          "l1GasPrice": "0xaa4672f",
          "l1GasUsed": "0x640"
        },
        {
          "status": "0x1",
          "cumulativeGasUsed": "0xf05dff",
          "logs": [
            {
              "address": "0xd17b3e1eac5a31aebe5c17c0d1fb9c7425a49a71",
              "topics": [
                "0x238399d427b947898edb290f5ff0f9109849b1c3ba196a42e35f00c50a54b98b"
              ],
              "data": "0x0000000000000000000000000000000000000000000000000000000000009d28000000000000000000000000d17b3e1eac5a31aebe5c17c0d1fb9c7425a49a71",
              "blockHash": "0x2ec45783b1fc8e82e099b96da10285277a6680065e1043ecd406255fb0c67bf4",
              "blockNumber": "0x19297fc",
              "transactionHash": "0xdf3f745b9f7d1a9871e85d6da4fb35f3cbc3bc29578a3483c31308110f9a084d",
              "transactionIndex": "0x108",
              "logIndex": "0xa6",
              "removed": false
            }
          ],
          "logsBloom": "0x00000000000000000000000000000000000000000000000000000000000000000000000000000000000000000000000000000000000000000800000000000000000001000000000000000000000000000000000000000000000000000000000000000000000000000000000000000000000000000000000000000000000000000000000000000000000000000000000000000000000000002000000000000000000000000000000000000000000000000000000000000000000002000000000000000000000000000000000000000000000000000000000000040000000000000000000000000000000000000000002000000000000000000000000000000000",
          "type": "0x2",
          "transactionHash": "0xdf3f745b9f7d1a9871e85d6da4fb35f3cbc3bc29578a3483c31308110f9a084d",
          "transactionIndex": "0x108",
          "blockHash": "0x2ec45783b1fc8e82e099b96da10285277a6680065e1043ecd406255fb0c67bf4",
          "blockNumber": "0x19297fc",
          "gasUsed": "0xbce1",
          "effectiveGasPrice": "0x2596ab46",
          "from": "0x64a822f980dc5f126215d75d11dd8114ed0bdb5f",
          "to": "0xd17b3e1eac5a31aebe5c17c0d1fb9c7425a49a71",
          "contractAddress": null,
          "l1BaseFeeScalar": "0x44d",
          "l1BlobBaseFee": "0x1",
          "l1BlobBaseFeeScalar": "0xa118b",
          "l1Fee": "0x12bf4f37",
          "l1GasPrice": "0xaa4672f",
          "l1GasUsed": "0x640"
        },
        {
          "status": "0x1",
          "cumulativeGasUsed": "0xf11a9e",
          "logs": [
            {
              "address": "0xe0e3ec73699ff0da625c6f8a4e266d6da97d758b",
              "topics": [
                "0x238399d427b947898edb290f5ff0f9109849b1c3ba196a42e35f00c50a54b98b"
              ],
              "data": "0x0000000000000000000000000000000000000000000000000000000000009d28000000000000000000000000e0e3ec73699ff0da625c6f8a4e266d6da97d758b",
              "blockHash": "0x2ec45783b1fc8e82e099b96da10285277a6680065e1043ecd406255fb0c67bf4",
              "blockNumber": "0x19297fc",
              "transactionHash": "0xb3a03657adf0238f8eb0c7ec462e75d299a2575ce6e7112b606c144e09a2687f",
              "transactionIndex": "0x109",
              "logIndex": "0xa7",
              "removed": false
            }
          ],
          "logsBloom": "0x00000000000000000000000000000000000004000000000000000000000000000000000000000000000000000000000000000000000000000800000000000000000001000000000000000000000000000000000000000000000000000000000000000000000000000000000000000000000000000000000000000000000000000000000000000000000000000000000000000000000000000000000000001000000000000000000000000000000000000000000000000000000002000000000000000000000000000000000000000000000000000000000000040000000000000000000000000000000000000000000000000000000000000000000000000000",
          "type": "0x2",
          "transactionHash": "0xb3a03657adf0238f8eb0c7ec462e75d299a2575ce6e7112b606c144e09a2687f",
          "transactionIndex": "0x109",
          "blockHash": "0x2ec45783b1fc8e82e099b96da10285277a6680065e1043ecd406255fb0c67bf4",
          "blockNumber": "0x19297fc",
          "gasUsed": "0xbc9f",
          "effectiveGasPrice": "0x2596ab46",
          "from": "0x64a822f980dc5f126215d75d11dd8114ed0bdb5f",
          "to": "0xe0e3ec73699ff0da625c6f8a4e266d6da97d758b",
          "contractAddress": null,
          "l1BaseFeeScalar": "0x44d",
          "l1BlobBaseFee": "0x1",
          "l1BlobBaseFeeScalar": "0xa118b",
          "l1Fee": "0x12bf4f37",
          "l1GasPrice": "0xaa4672f",
          "l1GasUsed": "0x640"
        }
      ],
      "libraries": [],
      "pending": [],
      "returns": {},
      "timestamp": 1748537044,
      "chain": 84532,
      "commit": "3f4c6ce"
    },
    {
      "transactions": [
        {
          "hash": "0x8f62d44bf79213550ec9c359967e65fc679a579f1f695a698fb73e6d9ec212b3",
          "transactionType": "CALL",
          "contractName": null,
          "contractAddress": "0x8d7e4a290960ab3b27d8851d0bcf99fad192b259",
          "function": "setPeer(uint32,bytes32)",
          "arguments": [
            "40245",
            "0x0000000000000000000000008d7e4a290960ab3b27d8851d0bcf99fad192b259"
          ],
          "transaction": {
            "from": "0x64a822f980dc5f126215d75d11dd8114ed0bdb5f",
            "to": "0x8d7e4a290960ab3b27d8851d0bcf99fad192b259",
            "gas": "0x1143c",
            "value": "0x0",
            "input": "0x3400288b0000000000000000000000000000000000000000000000000000000000009d350000000000000000000000008d7e4a290960ab3b27d8851d0bcf99fad192b259",
            "nonce": "0x350",
            "chainId": "0xaa37dc"
          },
          "additionalContracts": [],
          "isFixedGasLimit": false
        },
        {
          "hash": "0xe1d733a4b664543f6709088a7c2cbedbcc583048f1f31d763b8c24f357ca5a5e",
          "transactionType": "CALL",
          "contractName": null,
          "contractAddress": "0xd17b3e1eac5a31aebe5c17c0d1fb9c7425a49a71",
          "function": "setPeer(uint32,bytes32)",
          "arguments": [
            "40245",
            "0x000000000000000000000000d17b3e1eac5a31aebe5c17c0d1fb9c7425a49a71"
          ],
          "transaction": {
            "from": "0x64a822f980dc5f126215d75d11dd8114ed0bdb5f",
            "to": "0xd17b3e1eac5a31aebe5c17c0d1fb9c7425a49a71",
            "gas": "0x1143c",
            "value": "0x0",
            "input": "0x3400288b0000000000000000000000000000000000000000000000000000000000009d35000000000000000000000000d17b3e1eac5a31aebe5c17c0d1fb9c7425a49a71",
            "nonce": "0x351",
            "chainId": "0xaa37dc"
          },
          "additionalContracts": [],
          "isFixedGasLimit": false
        },
        {
          "hash": "0x3a243a5d2ca8fd02901353ba42655f8952eae543b2a43a269f5472e122b1322a",
          "transactionType": "CALL",
          "contractName": null,
          "contractAddress": "0xe0e3ec73699ff0da625c6f8a4e266d6da97d758b",
          "function": "setPeer(uint32,bytes32)",
          "arguments": [
            "40245",
            "0x000000000000000000000000e0e3ec73699ff0da625c6f8a4e266d6da97d758b"
          ],
          "transaction": {
            "from": "0x64a822f980dc5f126215d75d11dd8114ed0bdb5f",
            "to": "0xe0e3ec73699ff0da625c6f8a4e266d6da97d758b",
            "gas": "0x10487",
            "value": "0x0",
            "input": "0x3400288b0000000000000000000000000000000000000000000000000000000000009d35000000000000000000000000e0e3ec73699ff0da625c6f8a4e266d6da97d758b",
            "nonce": "0x352",
            "chainId": "0xaa37dc"
          },
          "additionalContracts": [],
          "isFixedGasLimit": false
        }
      ],
      "receipts": [
        {
          "status": "0x1",
          "cumulativeGasUsed": "0x270ebb",
          "logs": [
            {
              "address": "0x8d7e4a290960ab3b27d8851d0bcf99fad192b259",
              "topics": [
                "0x238399d427b947898edb290f5ff0f9109849b1c3ba196a42e35f00c50a54b98b"
              ],
              "data": "0x0000000000000000000000000000000000000000000000000000000000009d350000000000000000000000008d7e4a290960ab3b27d8851d0bcf99fad192b259",
              "blockHash": "0x3abafbf27e27d9b0ababd6183f1a0e425e72567cc010437f9ed7f0218ad6c968",
              "blockNumber": "0x1b0d998",
              "transactionHash": "0x8f62d44bf79213550ec9c359967e65fc679a579f1f695a698fb73e6d9ec212b3",
              "transactionIndex": "0x21",
              "logIndex": "0x15",
              "removed": false
            }
          ],
          "logsBloom": "0x00000000000000000000000000000000000000000000000000000000000000000000000000000000000000000000000000000000000000000800000000000000000000000000000000000000000000000000000000000000000000000000000000000000000000000000000000000000000000000000000000000000800000000000000000000000000000000000000000000000000000000000000000000000000000000000000000000000000000000000000000000000000002000000000000000000000000000000000000002000000000000000000000040000000000000000000000000000000000000000000000000000020000000000000000000000",
          "type": "0x2",
          "transactionHash": "0x8f62d44bf79213550ec9c359967e65fc679a579f1f695a698fb73e6d9ec212b3",
          "transactionIndex": "0x21",
          "blockHash": "0x3abafbf27e27d9b0ababd6183f1a0e425e72567cc010437f9ed7f0218ad6c968",
          "blockNumber": "0x1b0d998",
          "gasUsed": "0xbce1",
          "effectiveGasPrice": "0xf4352",
          "from": "0x64a822f980dc5f126215d75d11dd8114ed0bdb5f",
          "to": "0x8d7e4a290960ab3b27d8851d0bcf99fad192b259",
          "contractAddress": null,
          "l1BaseFeeScalar": "0x1db0",
          "l1BlobBaseFee": "0x1",
          "l1BlobBaseFeeScalar": "0xd2730",
          "l1Fee": "0x70524c52",
          "l1GasPrice": "0x93ca99e",
          "l1GasUsed": "0x640"
        },
        {
          "status": "0x1",
          "cumulativeGasUsed": "0x27cb9c",
          "logs": [
            {
              "address": "0xd17b3e1eac5a31aebe5c17c0d1fb9c7425a49a71",
              "topics": [
                "0x238399d427b947898edb290f5ff0f9109849b1c3ba196a42e35f00c50a54b98b"
              ],
              "data": "0x0000000000000000000000000000000000000000000000000000000000009d35000000000000000000000000d17b3e1eac5a31aebe5c17c0d1fb9c7425a49a71",
              "blockHash": "0x3abafbf27e27d9b0ababd6183f1a0e425e72567cc010437f9ed7f0218ad6c968",
              "blockNumber": "0x1b0d998",
              "transactionHash": "0xe1d733a4b664543f6709088a7c2cbedbcc583048f1f31d763b8c24f357ca5a5e",
              "transactionIndex": "0x22",
              "logIndex": "0x16",
              "removed": false
            }
          ],
          "logsBloom": "0x00000000000000000000000000000000000000000000000000000000000000000000000000000000000000000000000000000000000000000800000000000000000001000000000000000000000000000000000000000000000000000000000000000000000000000000000000000000000000000000000000000000000000000000000000000000000000000000000000000000000000002000000000000000000000000000000000000000000000000000000000000000000002000000000000000000000000000000000000000000000000000000000000040000000000000000000000000000000000000000002000000000000000000000000000000000",
          "type": "0x2",
          "transactionHash": "0xe1d733a4b664543f6709088a7c2cbedbcc583048f1f31d763b8c24f357ca5a5e",
          "transactionIndex": "0x22",
          "blockHash": "0x3abafbf27e27d9b0ababd6183f1a0e425e72567cc010437f9ed7f0218ad6c968",
          "blockNumber": "0x1b0d998",
          "gasUsed": "0xbce1",
          "effectiveGasPrice": "0xf4352",
          "from": "0x64a822f980dc5f126215d75d11dd8114ed0bdb5f",
          "to": "0xd17b3e1eac5a31aebe5c17c0d1fb9c7425a49a71",
          "contractAddress": null,
          "l1BaseFeeScalar": "0x1db0",
          "l1BlobBaseFee": "0x1",
          "l1BlobBaseFeeScalar": "0xd2730",
          "l1Fee": "0x70524c52",
          "l1GasPrice": "0x93ca99e",
          "l1GasUsed": "0x640"
        },
        {
          "status": "0x1",
          "cumulativeGasUsed": "0x28883b",
          "logs": [
            {
              "address": "0xe0e3ec73699ff0da625c6f8a4e266d6da97d758b",
              "topics": [
                "0x238399d427b947898edb290f5ff0f9109849b1c3ba196a42e35f00c50a54b98b"
              ],
              "data": "0x0000000000000000000000000000000000000000000000000000000000009d35000000000000000000000000e0e3ec73699ff0da625c6f8a4e266d6da97d758b",
              "blockHash": "0x3abafbf27e27d9b0ababd6183f1a0e425e72567cc010437f9ed7f0218ad6c968",
              "blockNumber": "0x1b0d998",
              "transactionHash": "0x3a243a5d2ca8fd02901353ba42655f8952eae543b2a43a269f5472e122b1322a",
              "transactionIndex": "0x23",
              "logIndex": "0x17",
              "removed": false
            }
          ],
          "logsBloom": "0x00000000000000000000000000000000000004000000000000000000000000000000000000000000000000000000000000000000000000000800000000000000000001000000000000000000000000000000000000000000000000000000000000000000000000000000000000000000000000000000000000000000000000000000000000000000000000000000000000000000000000000000000000001000000000000000000000000000000000000000000000000000000002000000000000000000000000000000000000000000000000000000000000040000000000000000000000000000000000000000000000000000000000000000000000000000",
          "type": "0x2",
          "transactionHash": "0x3a243a5d2ca8fd02901353ba42655f8952eae543b2a43a269f5472e122b1322a",
          "transactionIndex": "0x23",
          "blockHash": "0x3abafbf27e27d9b0ababd6183f1a0e425e72567cc010437f9ed7f0218ad6c968",
          "blockNumber": "0x1b0d998",
          "gasUsed": "0xbc9f",
          "effectiveGasPrice": "0xf4352",
          "from": "0x64a822f980dc5f126215d75d11dd8114ed0bdb5f",
          "to": "0xe0e3ec73699ff0da625c6f8a4e266d6da97d758b",
          "contractAddress": null,
          "l1BaseFeeScalar": "0x1db0",
          "l1BlobBaseFee": "0x1",
          "l1BlobBaseFeeScalar": "0xd2730",
          "l1Fee": "0x70524c52",
          "l1GasPrice": "0x93ca99e",
          "l1GasUsed": "0x640"
        }
      ],
      "libraries": [],
      "pending": [],
      "returns": {},
      "timestamp": 1748537044,
      "chain": 11155420,
      "commit": "3f4c6ce"
    }
  ],
  "timestamp": 1748537053
}