{
  "deployments": [
    {
      "transactions": [
        {
          "hash": "0x350bf3ce7e5606a97e3c45cf8ce13af068b9737503568666b0276315dca0fb98",
          "transactionType": "CALL",
          "contractName": null,
          "contractAddress": "0x0b1966ba8465812ad4a2668bc2ff49c55d130ab9",
          "function": "setPeer(uint32,bytes32)",
          "arguments": [
            "40232",
            "0x0000000000000000000000000b1966ba8465812ad4a2668bc2ff49c55d130ab9"
          ],
          "transaction": {
            "from": "0x64a822f980dc5f126215d75d11dd8114ed0bdb5f",
            "to": "0x0b1966ba8465812ad4a2668bc2ff49c55d130ab9",
            "gas": "0x1143c",
            "value": "0x0",
            "input": "0x3400288b0000000000000000000000000000000000000000000000000000000000009d280000000000000000000000000b1966ba8465812ad4a2668bc2ff49c55d130ab9",
            "nonce": "0x4e2",
            "chainId": "0x14a34"
          },
          "additionalContracts": [],
          "isFixedGasLimit": false
        },
        {
          "hash": "0xf1d3196cb50ba06c1ae46f6e3d53ade1610b1fd2ecc47cd3998bd3b6ef90b6e3",
          "transactionType": "CALL",
          "contractName": null,
          "contractAddress": "0xb4949b733e7ce080d13892c709a1d0aa53aee746",
          "function": "setPeer(uint32,bytes32)",
          "arguments": [
            "40232",
            "0x000000000000000000000000b4949b733e7ce080d13892c709a1d0aa53aee746"
          ],
          "transaction": {
            "from": "0x64a822f980dc5f126215d75d11dd8114ed0bdb5f",
            "to": "0xb4949b733e7ce080d13892c709a1d0aa53aee746",
            "gas": "0x1143c",
            "value": "0x0",
            "input": "0x3400288b0000000000000000000000000000000000000000000000000000000000009d28000000000000000000000000b4949b733e7ce080d13892c709a1d0aa53aee746",
            "nonce": "0x4e3",
            "chainId": "0x14a34"
          },
          "additionalContracts": [],
          "isFixedGasLimit": false
        },
        {
          "hash": "0xd1b846a37704b8653de78d7777e9b421c69ad490819ace8898865196c2d07576",
          "transactionType": "CALL",
          "contractName": null,
          "contractAddress": "0xdd30495cbbeceac42b1c3139863d6dc309bb0244",
          "function": "setPeer(uint32,bytes32)",
          "arguments": [
            "40232",
            "0x000000000000000000000000dd30495cbbeceac42b1c3139863d6dc309bb0244"
          ],
          "transaction": {
            "from": "0x64a822f980dc5f126215d75d11dd8114ed0bdb5f",
            "to": "0xdd30495cbbeceac42b1c3139863d6dc309bb0244",
            "gas": "0x113bb",
            "value": "0x0",
            "input": "0x3400288b0000000000000000000000000000000000000000000000000000000000009d28000000000000000000000000dd30495cbbeceac42b1c3139863d6dc309bb0244",
            "nonce": "0x4e4",
            "chainId": "0x14a34"
          },
          "additionalContracts": [],
          "isFixedGasLimit": false
        }
      ],
      "receipts": [
        {
          "status": "0x1",
          "cumulativeGasUsed": "0xc62e7c",
          "logs": [
            {
              "address": "0x0b1966ba8465812ad4a2668bc2ff49c55d130ab9",
              "topics": [
                "0x238399d427b947898edb290f5ff0f9109849b1c3ba196a42e35f00c50a54b98b"
              ],
              "data": "0x0000000000000000000000000000000000000000000000000000000000009d280000000000000000000000000b1966ba8465812ad4a2668bc2ff49c55d130ab9",
              "blockHash": "0x9f8185e9e9a4b74fc26f74e777dc17d5742d261fb8406e36e98d0181cff634e0",
              "blockNumber": "0x18016b4",
              "transactionHash": "0x350bf3ce7e5606a97e3c45cf8ce13af068b9737503568666b0276315dca0fb98",
              "transactionIndex": "0x53",
              "logIndex": "0xfc",
              "removed": false
            }
          ],
          "logsBloom": "0x00000000000000000000000000000000000000000000000000000000000000000000000000000000000000000000000000000000000000000800000000000000000000000000000400000000000000000000000000000000000000000000000000000000000000000000000000000000000000000000000000000000000000000000000000000000800000000000000000000000000000000000000000000000000000000000000000000000000000000000000000000004000002000000000000000000000000000000000000000000000000000000000000040000000000000000000000000000000000000000000000000000000000000000000000000000",
          "type": "0x2",
          "transactionHash": "0x350bf3ce7e5606a97e3c45cf8ce13af068b9737503568666b0276315dca0fb98",
          "transactionIndex": "0x53",
          "blockHash": "0x9f8185e9e9a4b74fc26f74e777dc17d5742d261fb8406e36e98d0181cff634e0",
          "blockNumber": "0x18016b4",
          "gasUsed": "0xbce1",
          "effectiveGasPrice": "0xdee7d",
          "from": "0x64a822f980dc5f126215d75d11dd8114ed0bdb5f",
          "to": "0x0b1966ba8465812ad4a2668bc2ff49c55d130ab9",
          "contractAddress": null,
          "l1BaseFeeScalar": "0x44d",
          "l1BlobBaseFee": "0x1",
          "l1BlobBaseFeeScalar": "0xa118b",
          "l1Fee": "0x60b2387547",
          "l1GasPrice": "0x36e41f9570",
          "l1GasUsed": "0x640"
        },
        {
          "status": "0x1",
          "cumulativeGasUsed": "0xc7a1bf",
          "logs": [
            {
              "address": "0xb4949b733e7ce080d13892c709a1d0aa53aee746",
              "topics": [
                "0x238399d427b947898edb290f5ff0f9109849b1c3ba196a42e35f00c50a54b98b"
              ],
              "data": "0x0000000000000000000000000000000000000000000000000000000000009d28000000000000000000000000b4949b733e7ce080d13892c709a1d0aa53aee746",
              "blockHash": "0x9f8185e9e9a4b74fc26f74e777dc17d5742d261fb8406e36e98d0181cff634e0",
              "blockNumber": "0x18016b4",
              "transactionHash": "0xf1d3196cb50ba06c1ae46f6e3d53ade1610b1fd2ecc47cd3998bd3b6ef90b6e3",
              "transactionIndex": "0x55",
              "logIndex": "0xfd",
              "removed": false
            }
          ],
          "logsBloom": "0x00000000000000000000000000000000000000000000000000000000000000000800000000000000000000000000000000000000000000000800000000000000000000000000000000000000000000000000000000000000000000000000000000000000000000000000000000000000000000000000000000000000000000000000000000000000000000000000000000000000000000000000000000000000000000000000000000000000000000000000000000000000000002000000000000000000000000000000000000000000000000000000000000040000000002000000000000000000000000000000000000000000000000000000000020000000",
          "type": "0x2",
          "transactionHash": "0xf1d3196cb50ba06c1ae46f6e3d53ade1610b1fd2ecc47cd3998bd3b6ef90b6e3",
          "transactionIndex": "0x55",
          "blockHash": "0x9f8185e9e9a4b74fc26f74e777dc17d5742d261fb8406e36e98d0181cff634e0",
          "blockNumber": "0x18016b4",
          "gasUsed": "0xbce1",
          "effectiveGasPrice": "0xdee7d",
          "from": "0x64a822f980dc5f126215d75d11dd8114ed0bdb5f",
          "to": "0xb4949b733e7ce080d13892c709a1d0aa53aee746",
          "contractAddress": null,
          "l1BaseFeeScalar": "0x44d",
          "l1BlobBaseFee": "0x1",
          "l1BlobBaseFeeScalar": "0xa118b",
          "l1Fee": "0x60b2387547",
          "l1GasPrice": "0x36e41f9570",
          "l1GasUsed": "0x640"
        },
        {
          "status": "0x1",
          "cumulativeGasUsed": "0xc85e48",
          "logs": [
            {
              "address": "0xdd30495cbbeceac42b1c3139863d6dc309bb0244",
              "topics": [
                "0x238399d427b947898edb290f5ff0f9109849b1c3ba196a42e35f00c50a54b98b"
              ],
              "data": "0x0000000000000000000000000000000000000000000000000000000000009d28000000000000000000000000dd30495cbbeceac42b1c3139863d6dc309bb0244",
              "blockHash": "0x9f8185e9e9a4b74fc26f74e777dc17d5742d261fb8406e36e98d0181cff634e0",
              "blockNumber": "0x18016b4",
              "transactionHash": "0xd1b846a37704b8653de78d7777e9b421c69ad490819ace8898865196c2d07576",
              "transactionIndex": "0x56",
              "logIndex": "0xfe",
              "removed": false
            }
          ],
          "logsBloom": "0x00000000000000000000000040000000000000000000000000000000000000000000000000000000000000000000000000000000000000000800000000000000000000000000000000000000000000000000000000400000000000000000000000000000000000000000000000000000000000000000000000000000000000000000000000000000000000000000000000000000000000000000000000000000000000000000000000000000000000000000000000000000000002000000000000000000000000000000000000000000000000000000000000040000000000800000000000000000000000000000000000000000000000000000000000000000",
          "type": "0x2",
          "transactionHash": "0xd1b846a37704b8653de78d7777e9b421c69ad490819ace8898865196c2d07576",
          "transactionIndex": "0x56",
          "blockHash": "0x9f8185e9e9a4b74fc26f74e777dc17d5742d261fb8406e36e98d0181cff634e0",
          "blockNumber": "0x18016b4",
          "gasUsed": "0xbc89",
          "effectiveGasPrice": "0xdee7d",
          "from": "0x64a822f980dc5f126215d75d11dd8114ed0bdb5f",
          "to": "0xdd30495cbbeceac42b1c3139863d6dc309bb0244",
          "contractAddress": null,
          "l1BaseFeeScalar": "0x44d",
          "l1BlobBaseFee": "0x1",
          "l1BlobBaseFeeScalar": "0xa118b",
          "l1Fee": "0x60b2387547",
          "l1GasPrice": "0x36e41f9570",
          "l1GasUsed": "0x640"
        }
      ],
      "libraries": [],
      "pending": [],
      "returns": {},
      "timestamp": 1746111556,
      "chain": 84532,
      "commit": "c456253"
    },
    {
      "transactions": [
        {
          "hash": "0x70e6776e9346b8d78f34adad6f12fead126b08f3604c204ad11e6fbd909864a6",
          "transactionType": "CALL",
          "contractName": null,
          "contractAddress": "0x0b1966ba8465812ad4a2668bc2ff49c55d130ab9",
          "function": "setPeer(uint32,bytes32)",
          "arguments": [
            "40245",
            "0x0000000000000000000000000b1966ba8465812ad4a2668bc2ff49c55d130ab9"
          ],
          "transaction": {
            "from": "0x64a822f980dc5f126215d75d11dd8114ed0bdb5f",
            "to": "0x0b1966ba8465812ad4a2668bc2ff49c55d130ab9",
            "gas": "0x1143c",
            "value": "0x0",
            "input": "0x3400288b0000000000000000000000000000000000000000000000000000000000009d350000000000000000000000000b1966ba8465812ad4a2668bc2ff49c55d130ab9",
            "nonce": "0x329",
            "chainId": "0xaa37dc"
          },
          "additionalContracts": [],
          "isFixedGasLimit": false
        },
        {
          "hash": "0xa6ff5163e6e66f97d3b9bee3412b3f8979443d0156d898a79d3298d1ced993b5",
          "transactionType": "CALL",
          "contractName": null,
          "contractAddress": "0xb4949b733e7ce080d13892c709a1d0aa53aee746",
          "function": "setPeer(uint32,bytes32)",
          "arguments": [
            "40245",
            "0x000000000000000000000000b4949b733e7ce080d13892c709a1d0aa53aee746"
          ],
          "transaction": {
            "from": "0x64a822f980dc5f126215d75d11dd8114ed0bdb5f",
            "to": "0xb4949b733e7ce080d13892c709a1d0aa53aee746",
            "gas": "0x1143c",
            "value": "0x0",
            "input": "0x3400288b0000000000000000000000000000000000000000000000000000000000009d35000000000000000000000000b4949b733e7ce080d13892c709a1d0aa53aee746",
            "nonce": "0x32a",
            "chainId": "0xaa37dc"
          },
          "additionalContracts": [],
          "isFixedGasLimit": false
        },
        {
          "hash": "0xa815a889e255c46acbee8f1ea11d9535f99f3f29eaffcaefb2baefc574652222",
          "transactionType": "CALL",
          "contractName": null,
          "contractAddress": "0xdd30495cbbeceac42b1c3139863d6dc309bb0244",
          "function": "setPeer(uint32,bytes32)",
          "arguments": [
            "40245",
            "0x000000000000000000000000dd30495cbbeceac42b1c3139863d6dc309bb0244"
          ],
          "transaction": {
            "from": "0x64a822f980dc5f126215d75d11dd8114ed0bdb5f",
            "to": "0xdd30495cbbeceac42b1c3139863d6dc309bb0244",
            "gas": "0x113bb",
            "value": "0x0",
            "input": "0x3400288b0000000000000000000000000000000000000000000000000000000000009d35000000000000000000000000dd30495cbbeceac42b1c3139863d6dc309bb0244",
            "nonce": "0x32b",
            "chainId": "0xaa37dc"
          },
          "additionalContracts": [],
          "isFixedGasLimit": false
        }
      ],
      "receipts": [
        {
          "status": "0x1",
          "cumulativeGasUsed": "0x49b0c7",
          "logs": [
            {
              "address": "0x0b1966ba8465812ad4a2668bc2ff49c55d130ab9",
              "topics": [
                "0x238399d427b947898edb290f5ff0f9109849b1c3ba196a42e35f00c50a54b98b"
              ],
              "data": "0x0000000000000000000000000000000000000000000000000000000000009d350000000000000000000000000b1966ba8465812ad4a2668bc2ff49c55d130ab9",
              "blockHash": "0x5232d723f207ba30b97d568c9306eb1cbbe4884d4465c5033159e0db926e29ff",
              "blockNumber": "0x19e5850",
              "transactionHash": "0x70e6776e9346b8d78f34adad6f12fead126b08f3604c204ad11e6fbd909864a6",
              "transactionIndex": "0x32",
              "logIndex": "0x46",
              "removed": false
            }
          ],
          "logsBloom": "0x00000000000000000000000000000000000000000000000000000000000000000000000000000000000000000000000000000000000000000800000000000000000000000000000400000000000000000000000000000000000000000000000000000000000000000000000000000000000000000000000000000000000000000000000000000000800000000000000000000000000000000000000000000000000000000000000000000000000000000000000000000004000002000000000000000000000000000000000000000000000000000000000000040000000000000000000000000000000000000000000000000000000000000000000000000000",
          "type": "0x2",
          "transactionHash": "0x70e6776e9346b8d78f34adad6f12fead126b08f3604c204ad11e6fbd909864a6",
          "transactionIndex": "0x32",
          "blockHash": "0x5232d723f207ba30b97d568c9306eb1cbbe4884d4465c5033159e0db926e29ff",
          "blockNumber": "0x19e5850",
          "gasUsed": "0xbce1",
          "effectiveGasPrice": "0x1e3fc7",
          "from": "0x64a822f980dc5f126215d75d11dd8114ed0bdb5f",
          "to": "0x0b1966ba8465812ad4a2668bc2ff49c55d130ab9",
          "contractAddress": null,
          "l1BaseFeeScalar": "0x1db0",
          "l1BlobBaseFee": "0x1",
          "l1BlobBaseFeeScalar": "0xd2730",
          "l1Fee": "0x250b3713f55",
          "l1GasPrice": "0x30bdea27b5",
          "l1GasUsed": "0x640"
        },
        {
          "status": "0x1",
          "cumulativeGasUsed": "0x5f9510",
          "logs": [
            {
              "address": "0xb4949b733e7ce080d13892c709a1d0aa53aee746",
              "topics": [
                "0x238399d427b947898edb290f5ff0f9109849b1c3ba196a42e35f00c50a54b98b"
              ],
              "data": "0x0000000000000000000000000000000000000000000000000000000000009d35000000000000000000000000b4949b733e7ce080d13892c709a1d0aa53aee746",
              "blockHash": "0x5232d723f207ba30b97d568c9306eb1cbbe4884d4465c5033159e0db926e29ff",
              "blockNumber": "0x19e5850",
              "transactionHash": "0xa6ff5163e6e66f97d3b9bee3412b3f8979443d0156d898a79d3298d1ced993b5",
              "transactionIndex": "0x34",
              "logIndex": "0x47",
              "removed": false
            }
          ],
          "logsBloom": "0x00000000000000000000000000000000000000000000000000000000000000000800000000000000000000000000000000000000000000000800000000000000000000000000000000000000000000000000000000000000000000000000000000000000000000000000000000000000000000000000000000000000000000000000000000000000000000000000000000000000000000000000000000000000000000000000000000000000000000000000000000000000000002000000000000000000000000000000000000000000000000000000000000040000000002000000000000000000000000000000000000000000000000000000000020000000",
          "type": "0x2",
          "transactionHash": "0xa6ff5163e6e66f97d3b9bee3412b3f8979443d0156d898a79d3298d1ced993b5",
          "transactionIndex": "0x34",
          "blockHash": "0x5232d723f207ba30b97d568c9306eb1cbbe4884d4465c5033159e0db926e29ff",
          "blockNumber": "0x19e5850",
          "gasUsed": "0xbce1",
          "effectiveGasPrice": "0x1e3fc7",
          "from": "0x64a822f980dc5f126215d75d11dd8114ed0bdb5f",
          "to": "0xb4949b733e7ce080d13892c709a1d0aa53aee746",
          "contractAddress": null,
          "l1BaseFeeScalar": "0x1db0",
          "l1BlobBaseFee": "0x1",
          "l1BlobBaseFeeScalar": "0xd2730",
          "l1Fee": "0x250b3713f55",
          "l1GasPrice": "0x30bdea27b5",
          "l1GasUsed": "0x640"
        },
        {
          "status": "0x1",
          "cumulativeGasUsed": "0x605199",
          "logs": [
            {
              "address": "0xdd30495cbbeceac42b1c3139863d6dc309bb0244",
              "topics": [
                "0x238399d427b947898edb290f5ff0f9109849b1c3ba196a42e35f00c50a54b98b"
              ],
              "data": "0x0000000000000000000000000000000000000000000000000000000000009d35000000000000000000000000dd30495cbbeceac42b1c3139863d6dc309bb0244",
              "blockHash": "0x5232d723f207ba30b97d568c9306eb1cbbe4884d4465c5033159e0db926e29ff",
              "blockNumber": "0x19e5850",
              "transactionHash": "0xa815a889e255c46acbee8f1ea11d9535f99f3f29eaffcaefb2baefc574652222",
              "transactionIndex": "0x35",
              "logIndex": "0x48",
              "removed": false
            }
          ],
          "logsBloom": "0x00000000000000000000000040000000000000000000000000000000000000000000000000000000000000000000000000000000000000000800000000000000000000000000000000000000000000000000000000400000000000000000000000000000000000000000000000000000000000000000000000000000000000000000000000000000000000000000000000000000000000000000000000000000000000000000000000000000000000000000000000000000000002000000000000000000000000000000000000000000000000000000000000040000000000800000000000000000000000000000000000000000000000000000000000000000",
          "type": "0x2",
          "transactionHash": "0xa815a889e255c46acbee8f1ea11d9535f99f3f29eaffcaefb2baefc574652222",
          "transactionIndex": "0x35",
          "blockHash": "0x5232d723f207ba30b97d568c9306eb1cbbe4884d4465c5033159e0db926e29ff",
          "blockNumber": "0x19e5850",
          "gasUsed": "0xbc89",
          "effectiveGasPrice": "0x1e3fc7",
          "from": "0x64a822f980dc5f126215d75d11dd8114ed0bdb5f",
          "to": "0xdd30495cbbeceac42b1c3139863d6dc309bb0244",
          "contractAddress": null,
          "l1BaseFeeScalar": "0x1db0",
          "l1BlobBaseFee": "0x1",
          "l1BlobBaseFeeScalar": "0xd2730",
          "l1Fee": "0x250b3713f55",
          "l1GasPrice": "0x30bdea27b5",
          "l1GasUsed": "0x640"
        }
      ],
      "libraries": [],
      "pending": [],
      "returns": {},
      "timestamp": 1746111556,
      "chain": 11155420,
      "commit": "c456253"
    }
  ],
  "timestamp": 1746111566
}