{
  "deployments": [
    {
      "transactions": [
        {
          "hash": "0x8ddb6750349cc466c6c3a4e6f6af1bb07fd924e84cfa49dd49251c7570923b27",
          "transactionType": "CALL",
          "contractName": null,
          "contractAddress": "0x7f4ee1b1bd6b55ae244dc01cf64809e68d54c1a5",
          "function": "setPeer(uint32,bytes32)",
          "arguments": [
            "40232",
            "0x0000000000000000000000007f4ee1b1bd6b55ae244dc01cf64809e68d54c1a5"
          ],
          "transaction": {
            "from": "0x64a822f980dc5f126215d75d11dd8114ed0bdb5f",
            "to": "0x7f4ee1b1bd6b55ae244dc01cf64809e68d54c1a5",
            "gas": "0x1143c",
            "value": "0x0",
            "input": "0x3400288b0000000000000000000000000000000000000000000000000000000000009d280000000000000000000000007f4ee1b1bd6b55ae244dc01cf64809e68d54c1a5",
            "nonce": "0x444",
            "chainId": "0x14a34"
          },
          "additionalContracts": [],
          "isFixedGasLimit": false
        },
        {
          "hash": "0xb4e88739cb17e2b8b53bad5dbb2150ba9f9bcba6e69d98f57939ee7079e5846a",
          "transactionType": "CALL",
          "contractName": null,
          "contractAddress": "0xe1b5a0319ab2eaa7a095916eb699356e5da0337e",
          "function": "setPeer(uint32,bytes32)",
          "arguments": [
            "40232",
            "0x000000000000000000000000e1b5a0319ab2eaa7a095916eb699356e5da0337e"
          ],
          "transaction": {
            "from": "0x64a822f980dc5f126215d75d11dd8114ed0bdb5f",
            "to": "0xe1b5a0319ab2eaa7a095916eb699356e5da0337e",
            "gas": "0x1143c",
            "value": "0x0",
            "input": "0x3400288b0000000000000000000000000000000000000000000000000000000000009d28000000000000000000000000e1b5a0319ab2eaa7a095916eb699356e5da0337e",
            "nonce": "0x445",
            "chainId": "0x14a34"
          },
          "additionalContracts": [],
          "isFixedGasLimit": false
        }
      ],
      "receipts": [
        {
          "status": "0x1",
          "cumulativeGasUsed": "0xb52057",
          "logs": [
            {
              "address": "0x7f4ee1b1bd6b55ae244dc01cf64809e68d54c1a5",
              "topics": [
                "0x238399d427b947898edb290f5ff0f9109849b1c3ba196a42e35f00c50a54b98b"
              ],
              "data": "0x0000000000000000000000000000000000000000000000000000000000009d280000000000000000000000007f4ee1b1bd6b55ae244dc01cf64809e68d54c1a5",
              "blockHash": "0xcee5b6d97e9f4b5692a44190e66e69908a2eea63d3845e53bf09589f3519a431",
              "blockNumber": "0x17c4b44",
              "transactionHash": "0x8ddb6750349cc466c6c3a4e6f6af1bb07fd924e84cfa49dd49251c7570923b27",
              "transactionIndex": "0x27",
              "logIndex": "0x162",
              "removed": false
            }
          ],
          "logsBloom": "0x00000000000000000000000000000000000000000000000000000000000000000000000000200000000000000000000000000000000000000800000000000000000000000000000000000000000000000000000000000000000000000000000000000000000000000000000000000000000000100000000000000000000000000000000000000000000000000000000000000000000000000000000000000000000000000000000000000000000000000000000000000000000002000000000000000000000000000000000000000000000000000000000000040000000000000000000000000000000000000000000000040000000000000000000000000000",
          "type": "0x2",
          "transactionHash": "0x8ddb6750349cc466c6c3a4e6f6af1bb07fd924e84cfa49dd49251c7570923b27",
          "transactionIndex": "0x27",
          "blockHash": "0xcee5b6d97e9f4b5692a44190e66e69908a2eea63d3845e53bf09589f3519a431",
          "blockNumber": "0x17c4b44",
          "gasUsed": "0xbce1",
          "effectiveGasPrice": "0x65513",
          "from": "0x64a822f980dc5f126215d75d11dd8114ed0bdb5f",
          "to": "0x7f4ee1b1bd6b55ae244dc01cf64809e68d54c1a5",
          "contractAddress": null,
          "l1BaseFeeScalar": "0x44d",
          "l1BlobBaseFee": "0x1",
          "l1BlobBaseFeeScalar": "0xa118b",
          "l1Fee": "0xe83e8b6",
          "l1GasPrice": "0x83d64cd",
          "l1GasUsed": "0x640"
        },
        {
          "status": "0x1",
          "cumulativeGasUsed": "0xb5dd38",
          "logs": [
            {
              "address": "0xe1b5a0319ab2eaa7a095916eb699356e5da0337e",
              "topics": [
                "0x238399d427b947898edb290f5ff0f9109849b1c3ba196a42e35f00c50a54b98b"
              ],
              "data": "0x0000000000000000000000000000000000000000000000000000000000009d28000000000000000000000000e1b5a0319ab2eaa7a095916eb699356e5da0337e",
              "blockHash": "0xcee5b6d97e9f4b5692a44190e66e69908a2eea63d3845e53bf09589f3519a431",
              "blockNumber": "0x17c4b44",
              "transactionHash": "0xb4e88739cb17e2b8b53bad5dbb2150ba9f9bcba6e69d98f57939ee7079e5846a",
              "transactionIndex": "0x28",
              "logIndex": "0x163",
              "removed": false
            }
          ],
          "logsBloom": "0x00000000000400000000000000000000000000000000000000000000000000000000000000000000000000000000000000000000000000000800000000000000000000000000000000000000000000000000000000000000000000000000000000000000000000000000000000000000000000000000000000000000000000000000000000000000000000000000000000000000000000000000000000000000000000000000000000000000000000000000000000000000000012000000000000000000000000000000000000000000000000000800000000040000000000000000000000000000000000000000000000000000000000000000000000000000",
          "type": "0x2",
          "transactionHash": "0xb4e88739cb17e2b8b53bad5dbb2150ba9f9bcba6e69d98f57939ee7079e5846a",
          "transactionIndex": "0x28",
          "blockHash": "0xcee5b6d97e9f4b5692a44190e66e69908a2eea63d3845e53bf09589f3519a431",
          "blockNumber": "0x17c4b44",
          "gasUsed": "0xbce1",
          "effectiveGasPrice": "0x65513",
          "from": "0x64a822f980dc5f126215d75d11dd8114ed0bdb5f",
          "to": "0xe1b5a0319ab2eaa7a095916eb699356e5da0337e",
          "contractAddress": null,
          "l1BaseFeeScalar": "0x44d",
          "l1BlobBaseFee": "0x1",
          "l1BlobBaseFeeScalar": "0xa118b",
          "l1Fee": "0xe83e8b6",
          "l1GasPrice": "0x83d64cd",
          "l1GasUsed": "0x640"
        }
      ],
      "libraries": [],
      "pending": [],
      "returns": {},
      "timestamp": 1745614180,
      "chain": 84532,
      "commit": "4fec197"
    },
    {
      "transactions": [
        {
          "hash": "0xec850fe11eb3c73080c8b05e0561b38c55fee60d082c8597b3ea36292119a5b9",
          "transactionType": "CALL",
          "contractName": null,
          "contractAddress": "0x7f4ee1b1bd6b55ae244dc01cf64809e68d54c1a5",
          "function": "setPeer(uint32,bytes32)",
          "arguments": [
            "40245",
            "0x0000000000000000000000007f4ee1b1bd6b55ae244dc01cf64809e68d54c1a5"
          ],
          "transaction": {
            "from": "0x64a822f980dc5f126215d75d11dd8114ed0bdb5f",
            "to": "0x7f4ee1b1bd6b55ae244dc01cf64809e68d54c1a5",
            "gas": "0x1143c",
            "value": "0x0",
            "input": "0x3400288b0000000000000000000000000000000000000000000000000000000000009d350000000000000000000000007f4ee1b1bd6b55ae244dc01cf64809e68d54c1a5",
            "nonce": "0x2d4",
            "chainId": "0xaa37dc"
          },
          "additionalContracts": [],
          "isFixedGasLimit": false
        },
        {
          "hash": "0x27f7e80dd2790864f94924189097884a3f1c2e5437a30f87b57468a083d59a33",
          "transactionType": "CALL",
          "contractName": null,
          "contractAddress": "0xe1b5a0319ab2eaa7a095916eb699356e5da0337e",
          "function": "setPeer(uint32,bytes32)",
          "arguments": [
            "40245",
            "0x000000000000000000000000e1b5a0319ab2eaa7a095916eb699356e5da0337e"
          ],
          "transaction": {
            "from": "0x64a822f980dc5f126215d75d11dd8114ed0bdb5f",
            "to": "0xe1b5a0319ab2eaa7a095916eb699356e5da0337e",
            "gas": "0x1143c",
            "value": "0x0",
            "input": "0x3400288b0000000000000000000000000000000000000000000000000000000000009d35000000000000000000000000e1b5a0319ab2eaa7a095916eb699356e5da0337e",
            "nonce": "0x2d5",
            "chainId": "0xaa37dc"
          },
          "additionalContracts": [],
          "isFixedGasLimit": false
        }
      ],
      "receipts": [
        {
          "status": "0x1",
          "cumulativeGasUsed": "0x35a422",
          "logs": [
            {
              "address": "0x7f4ee1b1bd6b55ae244dc01cf64809e68d54c1a5",
              "topics": [
                "0x238399d427b947898edb290f5ff0f9109849b1c3ba196a42e35f00c50a54b98b"
              ],
              "data": "0x0000000000000000000000000000000000000000000000000000000000009d350000000000000000000000007f4ee1b1bd6b55ae244dc01cf64809e68d54c1a5",
              "blockHash": "0xb1e79804c48eecea803ea83a753acf70f0fe7bb3065461d5e40435df656ea4e0",
              "blockNumber": "0x19a8ce0",
              "transactionHash": "0xec850fe11eb3c73080c8b05e0561b38c55fee60d082c8597b3ea36292119a5b9",
              "transactionIndex": "0x2",
              "logIndex": "0x0",
              "removed": false
            }
          ],
          "logsBloom": "0x00000000000000000000000000000000000000000000000000000000000000000000000000200000000000000000000000000000000000000800000000000000000000000000000000000000000000000000000000000000000000000000000000000000000000000000000000000000000000100000000000000000000000000000000000000000000000000000000000000000000000000000000000000000000000000000000000000000000000000000000000000000000002000000000000000000000000000000000000000000000000000000000000040000000000000000000000000000000000000000000000040000000000000000000000000000",
          "type": "0x2",
          "transactionHash": "0xec850fe11eb3c73080c8b05e0561b38c55fee60d082c8597b3ea36292119a5b9",
          "transactionIndex": "0x2",
          "blockHash": "0xb1e79804c48eecea803ea83a753acf70f0fe7bb3065461d5e40435df656ea4e0",
          "blockNumber": "0x19a8ce0",
          "gasUsed": "0xbce1",
          "effectiveGasPrice": "0xf4471",
          "from": "0x64a822f980dc5f126215d75d11dd8114ed0bdb5f",
          "to": "0x7f4ee1b1bd6b55ae244dc01cf64809e68d54c1a5",
          "contractAddress": null,
          "l1BaseFeeScalar": "0x1db0",
          "l1BlobBaseFee": "0x1",
          "l1BlobBaseFeeScalar": "0xd2730",
          "l1Fee": "0x4101be2a",
          "l1GasPrice": "0x5589074",
          "l1GasUsed": "0x640",
          "operatorFeeConstant": "0x0",
          "operatorFeeScalar": "0x0"
        },
        {
          "status": "0x1",
          "cumulativeGasUsed": "0x366103",
          "logs": [
            {
              "address": "0xe1b5a0319ab2eaa7a095916eb699356e5da0337e",
              "topics": [
                "0x238399d427b947898edb290f5ff0f9109849b1c3ba196a42e35f00c50a54b98b"
              ],
              "data": "0x0000000000000000000000000000000000000000000000000000000000009d35000000000000000000000000e1b5a0319ab2eaa7a095916eb699356e5da0337e",
              "blockHash": "0xb1e79804c48eecea803ea83a753acf70f0fe7bb3065461d5e40435df656ea4e0",
              "blockNumber": "0x19a8ce0",
              "transactionHash": "0x27f7e80dd2790864f94924189097884a3f1c2e5437a30f87b57468a083d59a33",
              "transactionIndex": "0x3",
              "logIndex": "0x1",
              "removed": false
            }
          ],
          "logsBloom": "0x00000000000400000000000000000000000000000000000000000000000000000000000000000000000000000000000000000000000000000800000000000000000000000000000000000000000000000000000000000000000000000000000000000000000000000000000000000000000000000000000000000000000000000000000000000000000000000000000000000000000000000000000000000000000000000000000000000000000000000000000000000000000012000000000000000000000000000000000000000000000000000800000000040000000000000000000000000000000000000000000000000000000000000000000000000000",
          "type": "0x2",
          "transactionHash": "0x27f7e80dd2790864f94924189097884a3f1c2e5437a30f87b57468a083d59a33",
          "transactionIndex": "0x3",
          "blockHash": "0xb1e79804c48eecea803ea83a753acf70f0fe7bb3065461d5e40435df656ea4e0",
          "blockNumber": "0x19a8ce0",
          "gasUsed": "0xbce1",
          "effectiveGasPrice": "0xf4471",
          "from": "0x64a822f980dc5f126215d75d11dd8114ed0bdb5f",
          "to": "0xe1b5a0319ab2eaa7a095916eb699356e5da0337e",
          "contractAddress": null,
          "l1BaseFeeScalar": "0x1db0",
          "l1BlobBaseFee": "0x1",
          "l1BlobBaseFeeScalar": "0xd2730",
          "l1Fee": "0x4101be2a",
          "l1GasPrice": "0x5589074",
          "l1GasUsed": "0x640",
          "operatorFeeConstant": "0x0",
          "operatorFeeScalar": "0x0"
        }
      ],
      "libraries": [],
      "pending": [],
      "returns": {},
      "timestamp": 1745614180,
      "chain": 11155420,
      "commit": "4fec197"
    }
  ],
  "timestamp": 1745614189
}