{
  "deployments": [
    {
      "transactions": [
        {
          "hash": "0x145acaaff31c89725074952cc0415ef58b8350333acc48ab3cb0b344db05a8cb",
          "transactionType": "CALL",
          "contractName": null,
          "contractAddress": "0xe699c56efa32d7debece8f507210eaf270aa60c7",
          "function": "setPeer(uint32,bytes32)",
          "arguments": [
            "40232",
            "0x000000000000000000000000e699c56efa32d7debece8f507210eaf270aa60c7"
          ],
          "transaction": {
            "from": "0x64a822f980dc5f126215d75d11dd8114ed0bdb5f",
            "to": "0xe699c56efa32d7debece8f507210eaf270aa60c7",
            "gas": "0x1143c",
            "value": "0x0",
            "input": "0x3400288b0000000000000000000000000000000000000000000000000000000000009d28000000000000000000000000e699c56efa32d7debece8f507210eaf270aa60c7",
            "nonce": "0x456",
            "chainId": "0x14a34"
          },
          "additionalContracts": [],
          "isFixedGasLimit": false
        },
        {
          "hash": "0xa90dbb8bdc8d59008bca1a68ec43592f8fc2e8359776f42f588e3968a3d0ac54",
          "transactionType": "CALL",
          "contractName": null,
          "contractAddress": "0x8bba107bd0fc08d71115c0fc9d2c7108d8990dc1",
          "function": "setPeer(uint32,bytes32)",
          "arguments": [
            "40232",
            "0x0000000000000000000000008bba107bd0fc08d71115c0fc9d2c7108d8990dc1"
          ],
          "transaction": {
            "from": "0x64a822f980dc5f126215d75d11dd8114ed0bdb5f",
            "to": "0x8bba107bd0fc08d71115c0fc9d2c7108d8990dc1",
            "gas": "0x1143c",
            "value": "0x0",
            "input": "0x3400288b0000000000000000000000000000000000000000000000000000000000009d280000000000000000000000008bba107bd0fc08d71115c0fc9d2c7108d8990dc1",
            "nonce": "0x457",
            "chainId": "0x14a34"
          },
          "additionalContracts": [],
          "isFixedGasLimit": false
        },
        {
          "hash": "0xfa2ce4837c86055750439dda8475612fad152cf10f51b49319724d9e55fd1eb9",
          "transactionType": "CALL",
          "contractName": null,
          "contractAddress": "0x6fe8acd6a069a818ecd3cd3b2dfdbcbba753f9f5",
          "function": "setPeer(uint32,bytes32)",
          "arguments": [
            "40232",
            "0x0000000000000000000000006fe8acd6a069a818ecd3cd3b2dfdbcbba753f9f5"
          ],
          "transaction": {
            "from": "0x64a822f980dc5f126215d75d11dd8114ed0bdb5f",
            "to": "0x6fe8acd6a069a818ecd3cd3b2dfdbcbba753f9f5",
            "gas": "0x113bb",
            "value": "0x0",
            "input": "0x3400288b0000000000000000000000000000000000000000000000000000000000009d280000000000000000000000006fe8acd6a069a818ecd3cd3b2dfdbcbba753f9f5",
            "nonce": "0x458",
            "chainId": "0x14a34"
          },
          "additionalContracts": [],
          "isFixedGasLimit": false
        }
      ],
      "receipts": [
        {
          "status": "0x1",
          "cumulativeGasUsed": "0x880134",
          "logs": [
            {
              "address": "0xe699c56efa32d7debece8f507210eaf270aa60c7",
              "topics": [
                "0x238399d427b947898edb290f5ff0f9109849b1c3ba196a42e35f00c50a54b98b"
              ],
              "data": "0x0000000000000000000000000000000000000000000000000000000000009d28000000000000000000000000e699c56efa32d7debece8f507210eaf270aa60c7",
              "blockHash": "0x3b1509409b768cc1e8a1f019db2243ff876f0adf822e74e9d6303a3834ef4134",
              "blockNumber": "0x17df66c",
              "transactionHash": "0x145acaaff31c89725074952cc0415ef58b8350333acc48ab3cb0b344db05a8cb",
              "transactionIndex": "0x1f",
              "logIndex": "0x64",
              "removed": false
            }
          ],
          "logsBloom": "0x00000000000000000000000100000000000000000000000000000000000000000000000000000000000000000400000000000000000000000800000000000000000000000000000000000000000000000000000000000000000000000000000000000000000000000000000000000000000000000000000000000000000000000000000000000000000000000000000000000000000000000000000000000000000000000000000000000000000000000000000000000000000002000000000000080000000000000000000000000000000000000000000000040000000000000000000000000000000000000000000000000000000000000000000000000000",
          "type": "0x2",
          "transactionHash": "0x145acaaff31c89725074952cc0415ef58b8350333acc48ab3cb0b344db05a8cb",
          "transactionIndex": "0x1f",
          "blockHash": "0x3b1509409b768cc1e8a1f019db2243ff876f0adf822e74e9d6303a3834ef4134",
          "blockNumber": "0x17df66c",
          "gasUsed": "0xbce1",
          "effectiveGasPrice": "0xd31f9",
          "from": "0x64a822f980dc5f126215d75d11dd8114ed0bdb5f",
          "to": "0xe699c56efa32d7debece8f507210eaf270aa60c7",
          "contractAddress": null,
          "l1BaseFeeScalar": "0x44d",
          "l1BlobBaseFee": "0x1",
          "l1BlobBaseFeeScalar": "0xa118b",
          "l1Fee": "0x7e52e1adf",
          "l1GasPrice": "0x47b5acfa2",
          "l1GasUsed": "0x640"
        },
        {
          "status": "0x1",
          "cumulativeGasUsed": "0x88be15",
          "logs": [
            {
              "address": "0x8bba107bd0fc08d71115c0fc9d2c7108d8990dc1",
              "topics": [
                "0x238399d427b947898edb290f5ff0f9109849b1c3ba196a42e35f00c50a54b98b"
              ],
              "data": "0x0000000000000000000000000000000000000000000000000000000000009d280000000000000000000000008bba107bd0fc08d71115c0fc9d2c7108d8990dc1",
              "blockHash": "0x3b1509409b768cc1e8a1f019db2243ff876f0adf822e74e9d6303a3834ef4134",
              "blockNumber": "0x17df66c",
              "transactionHash": "0xa90dbb8bdc8d59008bca1a68ec43592f8fc2e8359776f42f588e3968a3d0ac54",
              "transactionIndex": "0x20",
              "logIndex": "0x65",
              "removed": false
            }
          ],
          "logsBloom": "0x00000000000000000000000200000000000000000000000000000000000000000000000000000000000000000000000000000000000000000800000000000000000000000000000000000000000000000000000000000000000000000000000000000000000000000000000000000000000000000000000000000000000000000000000000000000000000000000000000000000000000000000000000000000000000000000000000000000000000000000000000000000000002000000000000000000002000000000000000080000000000000000000000040000000000000000000000000000000000000000000000000000000000000000000000000000",
          "type": "0x2",
          "transactionHash": "0xa90dbb8bdc8d59008bca1a68ec43592f8fc2e8359776f42f588e3968a3d0ac54",
          "transactionIndex": "0x20",
          "blockHash": "0x3b1509409b768cc1e8a1f019db2243ff876f0adf822e74e9d6303a3834ef4134",
          "blockNumber": "0x17df66c",
          "gasUsed": "0xbce1",
          "effectiveGasPrice": "0xd31f9",
          "from": "0x64a822f980dc5f126215d75d11dd8114ed0bdb5f",
          "to": "0x8bba107bd0fc08d71115c0fc9d2c7108d8990dc1",
          "contractAddress": null,
          "l1BaseFeeScalar": "0x44d",
          "l1BlobBaseFee": "0x1",
          "l1BlobBaseFeeScalar": "0xa118b",
          "l1Fee": "0x7e52e1adf",
          "l1GasPrice": "0x47b5acfa2",
          "l1GasUsed": "0x640"
        },
        {
          "status": "0x1",
          "cumulativeGasUsed": "0x897a9e",
          "logs": [
            {
              "address": "0x6fe8acd6a069a818ecd3cd3b2dfdbcbba753f9f5",
              "topics": [
                "0x238399d427b947898edb290f5ff0f9109849b1c3ba196a42e35f00c50a54b98b"
              ],
              "data": "0x0000000000000000000000000000000000000000000000000000000000009d280000000000000000000000006fe8acd6a069a818ecd3cd3b2dfdbcbba753f9f5",
              "blockHash": "0x3b1509409b768cc1e8a1f019db2243ff876f0adf822e74e9d6303a3834ef4134",
              "blockNumber": "0x17df66c",
              "transactionHash": "0xfa2ce4837c86055750439dda8475612fad152cf10f51b49319724d9e55fd1eb9",
              "transactionIndex": "0x21",
              "logIndex": "0x66",
              "removed": false
            }
          ],
          "logsBloom": "0x00000000000000000000000000000000000000000000000000000000000000000000000000000000000000000000000000000000000000000800000000000000000000000000000000000000000000000000000000000000000000000000000000000000000000000000000000000000000000000000000000000000000000000001000000000000000002000000000000000000000000000000000000000000000000000000000000000000000000000000000000000000000002000000000000000000000000000000000000000000000000000000000000040000200000000000000000000000000000000000000000000000000000000000000000000000",
          "type": "0x2",
          "transactionHash": "0xfa2ce4837c86055750439dda8475612fad152cf10f51b49319724d9e55fd1eb9",
          "transactionIndex": "0x21",
          "blockHash": "0x3b1509409b768cc1e8a1f019db2243ff876f0adf822e74e9d6303a3834ef4134",
          "blockNumber": "0x17df66c",
          "gasUsed": "0xbc89",
          "effectiveGasPrice": "0xd31f9",
          "from": "0x64a822f980dc5f126215d75d11dd8114ed0bdb5f",
          "to": "0x6fe8acd6a069a818ecd3cd3b2dfdbcbba753f9f5",
          "contractAddress": null,
          "l1BaseFeeScalar": "0x44d",
          "l1BlobBaseFee": "0x1",
          "l1BlobBaseFeeScalar": "0xa118b",
          "l1Fee": "0x7e52e1adf",
          "l1GasPrice": "0x47b5acfa2",
          "l1GasUsed": "0x640"
        }
      ],
      "libraries": [],
      "pending": [],
      "returns": {},
      "timestamp": 1745832882,
      "chain": 84532,
      "commit": "35ba9f4"
    },
    {
      "transactions": [
        {
          "hash": "0x8dfa602bd770caa26afa6026125e722b9b5bd0091b97aa3dc29910d9a80a9707",
          "transactionType": "CALL",
          "contractName": null,
          "contractAddress": "0xe699c56efa32d7debece8f507210eaf270aa60c7",
          "function": "setPeer(uint32,bytes32)",
          "arguments": [
            "40245",
            "0x000000000000000000000000e699c56efa32d7debece8f507210eaf270aa60c7"
          ],
          "transaction": {
            "from": "0x64a822f980dc5f126215d75d11dd8114ed0bdb5f",
            "to": "0xe699c56efa32d7debece8f507210eaf270aa60c7",
            "gas": "0x1143c",
            "value": "0x0",
            "input": "0x3400288b0000000000000000000000000000000000000000000000000000000000009d35000000000000000000000000e699c56efa32d7debece8f507210eaf270aa60c7",
            "nonce": "0x2df",
            "chainId": "0xaa37dc"
          },
          "additionalContracts": [],
          "isFixedGasLimit": false
        },
        {
          "hash": "0xde706135c761ad4d87c55c730f86e8bbcf2fbba8da35927bf88aadf42c0eaad4",
          "transactionType": "CALL",
          "contractName": null,
          "contractAddress": "0x8bba107bd0fc08d71115c0fc9d2c7108d8990dc1",
          "function": "setPeer(uint32,bytes32)",
          "arguments": [
            "40245",
            "0x0000000000000000000000008bba107bd0fc08d71115c0fc9d2c7108d8990dc1"
          ],
          "transaction": {
            "from": "0x64a822f980dc5f126215d75d11dd8114ed0bdb5f",
            "to": "0x8bba107bd0fc08d71115c0fc9d2c7108d8990dc1",
            "gas": "0x1143c",
            "value": "0x0",
            "input": "0x3400288b0000000000000000000000000000000000000000000000000000000000009d350000000000000000000000008bba107bd0fc08d71115c0fc9d2c7108d8990dc1",
            "nonce": "0x2e0",
            "chainId": "0xaa37dc"
          },
          "additionalContracts": [],
          "isFixedGasLimit": false
        },
        {
          "hash": "0x10ec2ae398209d6f2a59377e1114b15802b22e6bd55739f8792d5260ab8c6b5c",
          "transactionType": "CALL",
          "contractName": null,
          "contractAddress": "0x6fe8acd6a069a818ecd3cd3b2dfdbcbba753f9f5",
          "function": "setPeer(uint32,bytes32)",
          "arguments": [
            "40245",
            "0x0000000000000000000000006fe8acd6a069a818ecd3cd3b2dfdbcbba753f9f5"
          ],
          "transaction": {
            "from": "0x64a822f980dc5f126215d75d11dd8114ed0bdb5f",
            "to": "0x6fe8acd6a069a818ecd3cd3b2dfdbcbba753f9f5",
            "gas": "0x113bb",
            "value": "0x0",
            "input": "0x3400288b0000000000000000000000000000000000000000000000000000000000009d350000000000000000000000006fe8acd6a069a818ecd3cd3b2dfdbcbba753f9f5",
            "nonce": "0x2e1",
            "chainId": "0xaa37dc"
          },
          "additionalContracts": [],
          "isFixedGasLimit": false
        }
      ],
      "receipts": [
        {
          "status": "0x1",
          "cumulativeGasUsed": "0xa4b6b4",
          "logs": [
            {
              "address": "0xe699c56efa32d7debece8f507210eaf270aa60c7",
              "topics": [
                "0x238399d427b947898edb290f5ff0f9109849b1c3ba196a42e35f00c50a54b98b"
              ],
              "data": "0x0000000000000000000000000000000000000000000000000000000000009d35000000000000000000000000e699c56efa32d7debece8f507210eaf270aa60c7",
              "blockHash": "0x020eb217777e765803f3cbe4e3f85ed8610861d0e7cee9fcf49c7e3c188956c8",
              "blockNumber": "0x19c3808",
              "transactionHash": "0x8dfa602bd770caa26afa6026125e722b9b5bd0091b97aa3dc29910d9a80a9707",
              "transactionIndex": "0x19",
              "logIndex": "0xa",
              "removed": false
            }
          ],
          "logsBloom": "0x00000000000000000000000100000000000000000000000000000000000000000000000000000000000000000400000000000000000000000800000000000000000000000000000000000000000000000000000000000000000000000000000000000000000000000000000000000000000000000000000000000000000000000000000000000000000000000000000000000000000000000000000000000000000000000000000000000000000000000000000000000000000002000000000000080000000000000000000000000000000000000000000000040000000000000000000000000000000000000000000000000000000000000000000000000000",
          "type": "0x2",
          "transactionHash": "0x8dfa602bd770caa26afa6026125e722b9b5bd0091b97aa3dc29910d9a80a9707",
          "transactionIndex": "0x19",
          "blockHash": "0x020eb217777e765803f3cbe4e3f85ed8610861d0e7cee9fcf49c7e3c188956c8",
          "blockNumber": "0x19c3808",
          "gasUsed": "0xbce1",
          "effectiveGasPrice": "0xf44b2",
          "from": "0x64a822f980dc5f126215d75d11dd8114ed0bdb5f",
          "to": "0xe699c56efa32d7debece8f507210eaf270aa60c7",
          "contractAddress": null,
          "l1BaseFeeScalar": "0x1db0",
          "l1BlobBaseFee": "0x1",
          "l1BlobBaseFeeScalar": "0xd2730",
          "l1Fee": "0x37573e7436",
          "l1GasPrice": "0x48d11c47a",
          "l1GasUsed": "0x640"
        },
        {
          "status": "0x1",
          "cumulativeGasUsed": "0xa62a03",
          "logs": [
            {
              "address": "0x8bba107bd0fc08d71115c0fc9d2c7108d8990dc1",
              "topics": [
                "0x238399d427b947898edb290f5ff0f9109849b1c3ba196a42e35f00c50a54b98b"
              ],
              "data": "0x0000000000000000000000000000000000000000000000000000000000009d350000000000000000000000008bba107bd0fc08d71115c0fc9d2c7108d8990dc1",
              "blockHash": "0x020eb217777e765803f3cbe4e3f85ed8610861d0e7cee9fcf49c7e3c188956c8",
              "blockNumber": "0x19c3808",
              "transactionHash": "0xde706135c761ad4d87c55c730f86e8bbcf2fbba8da35927bf88aadf42c0eaad4",
              "transactionIndex": "0x1b",
              "logIndex": "0xb",
              "removed": false
            }
          ],
          "logsBloom": "0x00000000000000000000000200000000000000000000000000000000000000000000000000000000000000000000000000000000000000000800000000000000000000000000000000000000000000000000000000000000000000000000000000000000000000000000000000000000000000000000000000000000000000000000000000000000000000000000000000000000000000000000000000000000000000000000000000000000000000000000000000000000000002000000000000000000002000000000000000080000000000000000000000040000000000000000000000000000000000000000000000000000000000000000000000000000",
          "type": "0x2",
          "transactionHash": "0xde706135c761ad4d87c55c730f86e8bbcf2fbba8da35927bf88aadf42c0eaad4",
          "transactionIndex": "0x1b",
          "blockHash": "0x020eb217777e765803f3cbe4e3f85ed8610861d0e7cee9fcf49c7e3c188956c8",
          "blockNumber": "0x19c3808",
          "gasUsed": "0xbce1",
          "effectiveGasPrice": "0xf44b2",
          "from": "0x64a822f980dc5f126215d75d11dd8114ed0bdb5f",
          "to": "0x8bba107bd0fc08d71115c0fc9d2c7108d8990dc1",
          "contractAddress": null,
          "l1BaseFeeScalar": "0x1db0",
          "l1BlobBaseFee": "0x1",
          "l1BlobBaseFeeScalar": "0xd2730",
          "l1Fee": "0x37573e7436",
          "l1GasPrice": "0x48d11c47a",
          "l1GasUsed": "0x640"
        },
        {
          "status": "0x1",
          "cumulativeGasUsed": "0xa6e68c",
          "logs": [
            {
              "address": "0x6fe8acd6a069a818ecd3cd3b2dfdbcbba753f9f5",
              "topics": [
                "0x238399d427b947898edb290f5ff0f9109849b1c3ba196a42e35f00c50a54b98b"
              ],
              "data": "0x0000000000000000000000000000000000000000000000000000000000009d350000000000000000000000006fe8acd6a069a818ecd3cd3b2dfdbcbba753f9f5",
              "blockHash": "0x020eb217777e765803f3cbe4e3f85ed8610861d0e7cee9fcf49c7e3c188956c8",
              "blockNumber": "0x19c3808",
              "transactionHash": "0x10ec2ae398209d6f2a59377e1114b15802b22e6bd55739f8792d5260ab8c6b5c",
              "transactionIndex": "0x1c",
              "logIndex": "0xc",
              "removed": false
            }
          ],
          "logsBloom": "0x00000000000000000000000000000000000000000000000000000000000000000000000000000000000000000000000000000000000000000800000000000000000000000000000000000000000000000000000000000000000000000000000000000000000000000000000000000000000000000000000000000000000000000001000000000000000002000000000000000000000000000000000000000000000000000000000000000000000000000000000000000000000002000000000000000000000000000000000000000000000000000000000000040000200000000000000000000000000000000000000000000000000000000000000000000000",
          "type": "0x2",
          "transactionHash": "0x10ec2ae398209d6f2a59377e1114b15802b22e6bd55739f8792d5260ab8c6b5c",
          "transactionIndex": "0x1c",
          "blockHash": "0x020eb217777e765803f3cbe4e3f85ed8610861d0e7cee9fcf49c7e3c188956c8",
          "blockNumber": "0x19c3808",
          "gasUsed": "0xbc89",
          "effectiveGasPrice": "0xf44b2",
          "from": "0x64a822f980dc5f126215d75d11dd8114ed0bdb5f",
          "to": "0x6fe8acd6a069a818ecd3cd3b2dfdbcbba753f9f5",
          "contractAddress": null,
          "l1BaseFeeScalar": "0x1db0",
          "l1BlobBaseFee": "0x1",
          "l1BlobBaseFeeScalar": "0xd2730",
          "l1Fee": "0x37573e7436",
          "l1GasPrice": "0x48d11c47a",
          "l1GasUsed": "0x640"
        }
      ],
      "libraries": [],
      "pending": [],
      "returns": {},
      "timestamp": 1745832882,
      "chain": 11155420,
      "commit": "35ba9f4"
    }
  ],
  "timestamp": 1745832891
}