{
  "deployments": [
    {
      "transactions": [
        {
          "hash": "0x701dd2c9e8966429cc831a8a31dadce336c2abe0fb0ba2cac671a4e6a5e74a9a",
          "transactionType": "CALL",
          "contractName": null,
          "contractAddress": "0xb4c3b2c231ecfade23bbf4308ae17b536c2b16e0",
          "function": "setPeer(uint32,bytes32)",
          "arguments": [
            "40232",
            "0x000000000000000000000000b4c3b2c231ecfade23bbf4308ae17b536c2b16e0"
          ],
          "transaction": {
            "from": "0x64a822f980dc5f126215d75d11dd8114ed0bdb5f",
            "to": "0xb4c3b2c231ecfade23bbf4308ae17b536c2b16e0",
            "gas": "0x1143c",
            "value": "0x0",
            "input": "0x3400288b0000000000000000000000000000000000000000000000000000000000009d28000000000000000000000000b4c3b2c231ecfade23bbf4308ae17b536c2b16e0",
            "nonce": "0x529",
            "chainId": "0x14a34"
          },
          "additionalContracts": [],
          "isFixedGasLimit": false
        },
        {
          "hash": "0xa899a64c965704b1184b6d22ab81e05059528b8ffd315fc55e72d4c23a4ef439",
          "transactionType": "CALL",
          "contractName": null,
          "contractAddress": "0xdb8b8d70f1c4f42da2d5934c174be3d8e26f1a93",
          "function": "setPeer(uint32,bytes32)",
          "arguments": [
            "40232",
            "0x000000000000000000000000db8b8d70f1c4f42da2d5934c174be3d8e26f1a93"
          ],
          "transaction": {
            "from": "0x64a822f980dc5f126215d75d11dd8114ed0bdb5f",
            "to": "0xdb8b8d70f1c4f42da2d5934c174be3d8e26f1a93",
            "gas": "0x1143c",
            "value": "0x0",
            "input": "0x3400288b0000000000000000000000000000000000000000000000000000000000009d28000000000000000000000000db8b8d70f1c4f42da2d5934c174be3d8e26f1a93",
            "nonce": "0x52a",
            "chainId": "0x14a34"
          },
          "additionalContracts": [],
          "isFixedGasLimit": false
        },
        {
          "hash": "0x86d0f578d226ac438793ea45c304ec6555549a83cb40fc4ccb36fe5bc3cee843",
          "transactionType": "CALL",
          "contractName": null,
          "contractAddress": "0xba1276bed1bbf4ec8666939946a10b48bce15af7",
          "function": "setPeer(uint32,bytes32)",
          "arguments": [
            "40232",
            "0x000000000000000000000000ba1276bed1bbf4ec8666939946a10b48bce15af7"
          ],
          "transaction": {
            "from": "0x64a822f980dc5f126215d75d11dd8114ed0bdb5f",
            "to": "0xba1276bed1bbf4ec8666939946a10b48bce15af7",
            "gas": "0x10487",
            "value": "0x0",
            "input": "0x3400288b0000000000000000000000000000000000000000000000000000000000009d28000000000000000000000000ba1276bed1bbf4ec8666939946a10b48bce15af7",
            "nonce": "0x52b",
            "chainId": "0x14a34"
          },
          "additionalContracts": [],
          "isFixedGasLimit": false
        }
      ],
      "receipts": [
        {
          "status": "0x1",
          "cumulativeGasUsed": "0x123c993",
          "logs": [
            {
              "address": "0xb4c3b2c231ecfade23bbf4308ae17b536c2b16e0",
              "topics": [
                "0x238399d427b947898edb290f5ff0f9109849b1c3ba196a42e35f00c50a54b98b"
              ],
              "data": "0x0000000000000000000000000000000000000000000000000000000000009d28000000000000000000000000b4c3b2c231ecfade23bbf4308ae17b536c2b16e0",
              "blockHash": "0x14aeaf9d7e22fa1b3212281dd1c736097f38650a667275763683fb4a237ec9d4",
              "blockNumber": "0x193386a",
              "transactionHash": "0x701dd2c9e8966429cc831a8a31dadce336c2abe0fb0ba2cac671a4e6a5e74a9a",
              "transactionIndex": "0x152",
              "logIndex": "0x84",
              "removed": false
            }
          ],
          "logsBloom": "0x00000000000000000000000000000000000000000000000000000000000000000000000000000000000000000000000000000000000000000800000000000000000000000000000000000000000000000000000000000000000000000000000000000000000000000000000000000000000000000000000000000000000000000000000000000000000004000000000000000000000000000000000000000000000000000000000000000000000000000000000000000000000002400000000000000000000000000000000000000000000000000000000000040000000000000000000000000000000000000000000000001000000000000000000000000000",
          "type": "0x2",
          "transactionHash": "0x701dd2c9e8966429cc831a8a31dadce336c2abe0fb0ba2cac671a4e6a5e74a9a",
          "transactionIndex": "0x152",
          "blockHash": "0x14aeaf9d7e22fa1b3212281dd1c736097f38650a667275763683fb4a237ec9d4",
          "blockNumber": "0x193386a",
          "gasUsed": "0xbce1",
          "effectiveGasPrice": "0x19bca57a",
          "from": "0x64a822f980dc5f126215d75d11dd8114ed0bdb5f",
          "to": "0xb4c3b2c231ecfade23bbf4308ae17b536c2b16e0",
          "contractAddress": null,
          "l1BaseFeeScalar": "0x44d",
          "l1BlobBaseFee": "0x1",
          "l1BlobBaseFeeScalar": "0xa118b",
          "l1Fee": "0x1a5",
          "l1GasPrice": "0xca",
          "l1GasUsed": "0x640"
        },
        {
          "status": "0x1",
          "cumulativeGasUsed": "0x13112cd",
          "logs": [
            {
              "address": "0xdb8b8d70f1c4f42da2d5934c174be3d8e26f1a93",
              "topics": [
                "0x238399d427b947898edb290f5ff0f9109849b1c3ba196a42e35f00c50a54b98b"
              ],
              "data": "0x0000000000000000000000000000000000000000000000000000000000009d28000000000000000000000000db8b8d70f1c4f42da2d5934c174be3d8e26f1a93",
              "blockHash": "0x14aeaf9d7e22fa1b3212281dd1c736097f38650a667275763683fb4a237ec9d4",
              "blockNumber": "0x193386a",
              "transactionHash": "0xa899a64c965704b1184b6d22ab81e05059528b8ffd315fc55e72d4c23a4ef439",
              "transactionIndex": "0x15f",
              "logIndex": "0x8c",
              "removed": false
            }
          ],
          "logsBloom": "0x00000000000000000000000000000000000000000000000000000000000000000000000000000000000000000000000000000000000000000800000000000000000000000000000000000000000000000000000000000000000000000000000000000000000080000000000000000000000000000000000000000000000000000800000000400000000000000000000000000000000000000000000000000000000000000000000000000000000000000000000000000000000002000000000000000000000000000000000000000000000000000000000000040000000000000000000000000000000000000000000000000000000000000000000000000000",
          "type": "0x2",
          "transactionHash": "0xa899a64c965704b1184b6d22ab81e05059528b8ffd315fc55e72d4c23a4ef439",
          "transactionIndex": "0x15f",
          "blockHash": "0x14aeaf9d7e22fa1b3212281dd1c736097f38650a667275763683fb4a237ec9d4",
          "blockNumber": "0x193386a",
          "gasUsed": "0xbce1",
          "effectiveGasPrice": "0x19bca57a",
          "from": "0x64a822f980dc5f126215d75d11dd8114ed0bdb5f",
          "to": "0xdb8b8d70f1c4f42da2d5934c174be3d8e26f1a93",
          "contractAddress": null,
          "l1BaseFeeScalar": "0x44d",
          "l1BlobBaseFee": "0x1",
          "l1BlobBaseFeeScalar": "0xa118b",
          "l1Fee": "0x1a5",
          "l1GasPrice": "0xca",
          "l1GasUsed": "0x640"
        },
        {
          "status": "0x1",
          "cumulativeGasUsed": "0x131cf6c",
          "logs": [
            {
              "address": "0xba1276bed1bbf4ec8666939946a10b48bce15af7",
              "topics": [
                "0x238399d427b947898edb290f5ff0f9109849b1c3ba196a42e35f00c50a54b98b"
              ],
              "data": "0x0000000000000000000000000000000000000000000000000000000000009d28000000000000000000000000ba1276bed1bbf4ec8666939946a10b48bce15af7",
              "blockHash": "0x14aeaf9d7e22fa1b3212281dd1c736097f38650a667275763683fb4a237ec9d4",
              "blockNumber": "0x193386a",
              "transactionHash": "0x86d0f578d226ac438793ea45c304ec6555549a83cb40fc4ccb36fe5bc3cee843",
              "transactionIndex": "0x160",
              "logIndex": "0x8d",
              "removed": false
            }
          ],
          "logsBloom": "0x00000000000000000000000000000000000000000000000000000000000000000000000000000800000000000000000000000000000000000800000000000000000000000000000000000000000000000000000000000000000000000000000000000000000000000000000000000000000000000000000000000000000000000000000000000000000000000000000000000000000000000000040000000000000000000000000000000000000000000000000000000000000002000000000000000000000000000000000000000000000000000000000000040000000000000000000000000000004000000000000000000000000000000000000000000000",
          "type": "0x2",
          "transactionHash": "0x86d0f578d226ac438793ea45c304ec6555549a83cb40fc4ccb36fe5bc3cee843",
          "transactionIndex": "0x160",
          "blockHash": "0x14aeaf9d7e22fa1b3212281dd1c736097f38650a667275763683fb4a237ec9d4",
          "blockNumber": "0x193386a",
          "gasUsed": "0xbc9f",
          "effectiveGasPrice": "0x19bca57a",
          "from": "0x64a822f980dc5f126215d75d11dd8114ed0bdb5f",
          "to": "0xba1276bed1bbf4ec8666939946a10b48bce15af7",
          "contractAddress": null,
          "l1BaseFeeScalar": "0x44d",
          "l1BlobBaseFee": "0x1",
          "l1BlobBaseFeeScalar": "0xa118b",
          "l1Fee": "0x1a5",
          "l1GasPrice": "0xca",
          "l1GasUsed": "0x640"
        }
      ],
      "libraries": [],
      "pending": [],
      "returns": {},
      "timestamp": 1748619184,
      "chain": 84532,
      "commit": "12ff2ab"
    },
    {
      "transactions": [
        {
          "hash": "0x0969c9925ac6d4c7d100ce16b872c1cf83a7e47f3054afb58ea63bc68a367840",
          "transactionType": "CALL",
          "contractName": null,
          "contractAddress": "0xb4c3b2c231ecfade23bbf4308ae17b536c2b16e0",
          "function": "setPeer(uint32,bytes32)",
          "arguments": [
            "40245",
            "0x000000000000000000000000b4c3b2c231ecfade23bbf4308ae17b536c2b16e0"
          ],
          "transaction": {
            "from": "0x64a822f980dc5f126215d75d11dd8114ed0bdb5f",
            "to": "0xb4c3b2c231ecfade23bbf4308ae17b536c2b16e0",
            "gas": "0x1143c",
            "value": "0x0",
            "input": "0x3400288b0000000000000000000000000000000000000000000000000000000000009d35000000000000000000000000b4c3b2c231ecfade23bbf4308ae17b536c2b16e0",
            "nonce": "0x357",
            "chainId": "0xaa37dc"
          },
          "additionalContracts": [],
          "isFixedGasLimit": false
        },
        {
          "hash": "0x900444293b2057041ae6e42ac0e3d55acf4b97a164dfb2247b5ecf7705a914b0",
          "transactionType": "CALL",
          "contractName": null,
          "contractAddress": "0xdb8b8d70f1c4f42da2d5934c174be3d8e26f1a93",
          "function": "setPeer(uint32,bytes32)",
          "arguments": [
            "40245",
            "0x000000000000000000000000db8b8d70f1c4f42da2d5934c174be3d8e26f1a93"
          ],
          "transaction": {
            "from": "0x64a822f980dc5f126215d75d11dd8114ed0bdb5f",
            "to": "0xdb8b8d70f1c4f42da2d5934c174be3d8e26f1a93",
            "gas": "0x1143c",
            "value": "0x0",
            "input": "0x3400288b0000000000000000000000000000000000000000000000000000000000009d35000000000000000000000000db8b8d70f1c4f42da2d5934c174be3d8e26f1a93",
            "nonce": "0x358",
            "chainId": "0xaa37dc"
          },
          "additionalContracts": [],
          "isFixedGasLimit": false
        },
        {
          "hash": "0x1b7e091ada41b4799133134e7e4bb05ceeca1dbebe803776b88418caa8f94f14",
          "transactionType": "CALL",
          "contractName": null,
          "contractAddress": "0xba1276bed1bbf4ec8666939946a10b48bce15af7",
          "function": "setPeer(uint32,bytes32)",
          "arguments": [
            "40245",
            "0x000000000000000000000000ba1276bed1bbf4ec8666939946a10b48bce15af7"
          ],
          "transaction": {
            "from": "0x64a822f980dc5f126215d75d11dd8114ed0bdb5f",
            "to": "0xba1276bed1bbf4ec8666939946a10b48bce15af7",
            "gas": "0x10487",
            "value": "0x0",
            "input": "0x3400288b0000000000000000000000000000000000000000000000000000000000009d35000000000000000000000000ba1276bed1bbf4ec8666939946a10b48bce15af7",
            "nonce": "0x359",
            "chainId": "0xaa37dc"
          },
          "additionalContracts": [],
          "isFixedGasLimit": false
        }
      ],
      "receipts": [
        {
          "status": "0x1",
          "cumulativeGasUsed": "0x12e6196",
          "logs": [
            {
              "address": "0xb4c3b2c231ecfade23bbf4308ae17b536c2b16e0",
              "topics": [
                "0x238399d427b947898edb290f5ff0f9109849b1c3ba196a42e35f00c50a54b98b"
              ],
              "data": "0x0000000000000000000000000000000000000000000000000000000000009d35000000000000000000000000b4c3b2c231ecfade23bbf4308ae17b536c2b16e0",
              "blockHash": "0x7a17b2aba8da6bb45a31fa8c4cb2ac87a77d138d1182923206617355a549b406",
              "blockNumber": "0x1b17a06",
              "transactionHash": "0x0969c9925ac6d4c7d100ce16b872c1cf83a7e47f3054afb58ea63bc68a367840",
              "transactionIndex": "0x38",
              "logIndex": "0xf7",
              "removed": false
            }
          ],
          "logsBloom": "0x00000000000000000000000000000000000000000000000000000000000000000000000000000000000000000000000000000000000000000800000000000000000000000000000000000000000000000000000000000000000000000000000000000000000000000000000000000000000000000000000000000000000000000000000000000000000004000000000000000000000000000000000000000000000000000000000000000000000000000000000000000000000002400000000000000000000000000000000000000000000000000000000000040000000000000000000000000000000000000000000000001000000000000000000000000000",
          "type": "0x2",
          "transactionHash": "0x0969c9925ac6d4c7d100ce16b872c1cf83a7e47f3054afb58ea63bc68a367840",
          "transactionIndex": "0x38",
          "blockHash": "0x7a17b2aba8da6bb45a31fa8c4cb2ac87a77d138d1182923206617355a549b406",
          "blockNumber": "0x1b17a06",
          "gasUsed": "0xbce1",
          "effectiveGasPrice": "0x617",
          "from": "0x64a822f980dc5f126215d75d11dd8114ed0bdb5f",
          "to": "0xb4c3b2c231ecfade23bbf4308ae17b536c2b16e0",
          "contractAddress": null,
          "l1BaseFeeScalar": "0x1db0",
          "l1BlobBaseFee": "0x1",
          "l1BlobBaseFeeScalar": "0xd2730",
          "l1Fee": "0xf89",
          "l1GasPrice": "0x140",
          "l1GasUsed": "0x640"
        },
        {
          "status": "0x1",
          "cumulativeGasUsed": "0x1393e7b",
          "logs": [
            {
              "address": "0xdb8b8d70f1c4f42da2d5934c174be3d8e26f1a93",
              "topics": [
                "0x238399d427b947898edb290f5ff0f9109849b1c3ba196a42e35f00c50a54b98b"
              ],
              "data": "0x0000000000000000000000000000000000000000000000000000000000009d35000000000000000000000000db8b8d70f1c4f42da2d5934c174be3d8e26f1a93",
              "blockHash": "0x7a17b2aba8da6bb45a31fa8c4cb2ac87a77d138d1182923206617355a549b406",
              "blockNumber": "0x1b17a06",
              "transactionHash": "0x900444293b2057041ae6e42ac0e3d55acf4b97a164dfb2247b5ecf7705a914b0",
              "transactionIndex": "0x3a",
              "logIndex": "0xf8",
              "removed": false
            }
          ],
          "logsBloom": "0x00000000000000000000000000000000000000000000000000000000000000000000000000000000000000000000000000000000000000000800000000000000000000000000000000000000000000000000000000000000000000000000000000000000000080000000000000000000000000000000000000000000000000000800000000400000000000000000000000000000000000000000000000000000000000000000000000000000000000000000000000000000000002000000000000000000000000000000000000000000000000000000000000040000000000000000000000000000000000000000000000000000000000000000000000000000",
          "type": "0x2",
          "transactionHash": "0x900444293b2057041ae6e42ac0e3d55acf4b97a164dfb2247b5ecf7705a914b0",
          "transactionIndex": "0x3a",
          "blockHash": "0x7a17b2aba8da6bb45a31fa8c4cb2ac87a77d138d1182923206617355a549b406",
          "blockNumber": "0x1b17a06",
          "gasUsed": "0xbce1",
          "effectiveGasPrice": "0x617",
          "from": "0x64a822f980dc5f126215d75d11dd8114ed0bdb5f",
          "to": "0xdb8b8d70f1c4f42da2d5934c174be3d8e26f1a93",
          "contractAddress": null,
          "l1BaseFeeScalar": "0x1db0",
          "l1BlobBaseFee": "0x1",
          "l1BlobBaseFeeScalar": "0xd2730",
          "l1Fee": "0xf89",
          "l1GasPrice": "0x140",
          "l1GasUsed": "0x640"
        },
        {
          "status": "0x1",
          "cumulativeGasUsed": "0x139fb1a",
          "logs": [
            {
              "address": "0xba1276bed1bbf4ec8666939946a10b48bce15af7",
              "topics": [
                "0x238399d427b947898edb290f5ff0f9109849b1c3ba196a42e35f00c50a54b98b"
              ],
              "data": "0x0000000000000000000000000000000000000000000000000000000000009d35000000000000000000000000ba1276bed1bbf4ec8666939946a10b48bce15af7",
              "blockHash": "0x7a17b2aba8da6bb45a31fa8c4cb2ac87a77d138d1182923206617355a549b406",
              "blockNumber": "0x1b17a06",
              "transactionHash": "0x1b7e091ada41b4799133134e7e4bb05ceeca1dbebe803776b88418caa8f94f14",
              "transactionIndex": "0x3b",
              "logIndex": "0xf9",
              "removed": false
            }
          ],
          "logsBloom": "0x00000000000000000000000000000000000000000000000000000000000000000000000000000800000000000000000000000000000000000800000000000000000000000000000000000000000000000000000000000000000000000000000000000000000000000000000000000000000000000000000000000000000000000000000000000000000000000000000000000000000000000000040000000000000000000000000000000000000000000000000000000000000002000000000000000000000000000000000000000000000000000000000000040000000000000000000000000000004000000000000000000000000000000000000000000000",
          "type": "0x2",
          "transactionHash": "0x1b7e091ada41b4799133134e7e4bb05ceeca1dbebe803776b88418caa8f94f14",
          "transactionIndex": "0x3b",
          "blockHash": "0x7a17b2aba8da6bb45a31fa8c4cb2ac87a77d138d1182923206617355a549b406",
          "blockNumber": "0x1b17a06",
          "gasUsed": "0xbc9f",
          "effectiveGasPrice": "0x617",
          "from": "0x64a822f980dc5f126215d75d11dd8114ed0bdb5f",
          "to": "0xba1276bed1bbf4ec8666939946a10b48bce15af7",
          "contractAddress": null,
          "l1BaseFeeScalar": "0x1db0",
          "l1BlobBaseFee": "0x1",
          "l1BlobBaseFeeScalar": "0xd2730",
          "l1Fee": "0xf89",
          "l1GasPrice": "0x140",
          "l1GasUsed": "0x640"
        }
      ],
      "libraries": [],
      "pending": [],
      "returns": {},
      "timestamp": 1748619185,
      "chain": 11155420,
      "commit": "12ff2ab"
    }
  ],
  "timestamp": 1748619194
}