{
  "deployments": [
    {
      "transactions": [
        {
          "hash": "0xe325141561e9c2b2ad8a2a000f2158abadb7528e0e8c12f2df0ba490d36fbc53",
          "transactionType": "CALL",
          "contractName": null,
          "contractAddress": "0xcf46be46aae4e3bc20fbdadf9b13cde49f4f94b1",
          "function": "setPeer(uint32,bytes32)",
          "arguments": [
            "40232",
            "0x000000000000000000000000cf46be46aae4e3bc20fbdadf9b13cde49f4f94b1"
          ],
          "transaction": {
            "from": "0x64a822f980dc5f126215d75d11dd8114ed0bdb5f",
            "to": "0xcf46be46aae4e3bc20fbdadf9b13cde49f4f94b1",
            "gas": "0x1143c",
            "value": "0x0",
            "input": "0x3400288b0000000000000000000000000000000000000000000000000000000000009d28000000000000000000000000cf46be46aae4e3bc20fbdadf9b13cde49f4f94b1",
            "nonce": "0x432",
            "chainId": "0x14a34"
          },
          "additionalContracts": [],
          "isFixedGasLimit": false
        }
      ],
      "receipts": [
        {
          "status": "0x1",
          "cumulativeGasUsed": "0xa36bae",
          "logs": [
            {
              "address": "0xcf46be46aae4e3bc20fbdadf9b13cde49f4f94b1",
              "topics": [
                "0x238399d427b947898edb290f5ff0f9109849b1c3ba196a42e35f00c50a54b98b"
              ],
              "data": "0x0000000000000000000000000000000000000000000000000000000000009d28000000000000000000000000cf46be46aae4e3bc20fbdadf9b13cde49f4f94b1",
              "blockHash": "0x2314d68aaa1a23f4bb148f2d3abeeb365adb95eee7d8e8f608f82743d5826ba8",
              "blockNumber": "0x172d895",
              "transactionHash": "0xe325141561e9c2b2ad8a2a000f2158abadb7528e0e8c12f2df0ba490d36fbc53",
              "transactionIndex": "0x2d",
              "logIndex": "0x125",
              "removed": false
            }
          ],
          "logsBloom": "0x00000000000000000000000000000000000000000000000000000000000000000000000000000000000000000000000000000000000000000800000000000000000000000000000000000000000000000000000000000000000000000000000200000000000000000000000000000000000000000000000000000000000000000000000000000000000000000000000000000000000000000000000000000000000000000000000000000000000000000000000000000000000002000000000200000000000000000000000000000000000000000000000000040000000000000000000000000000000000000000400000000000000000000000000000000000",
          "type": "0x2",
          "transactionHash": "0xe325141561e9c2b2ad8a2a000f2158abadb7528e0e8c12f2df0ba490d36fbc53",
          "transactionIndex": "0x2d",
          "blockHash": "0x2314d68aaa1a23f4bb148f2d3abeeb365adb95eee7d8e8f608f82743d5826ba8",
          "blockNumber": "0x172d895",
          "gasUsed": "0xbce1",
          "effectiveGasPrice": "0xf47af",
          "from": "0x64a822f980dc5f126215d75d11dd8114ed0bdb5f",
          "to": "0xcf46be46aae4e3bc20fbdadf9b13cde49f4f94b1",
          "contractAddress": null,
          "l1BaseFeeScalar": "0x44d",
          "l1BlobBaseFee": "0x1",
          "l1BlobBaseFeeScalar": "0xa118b",
          "l1Fee": "0x3291",
          "l1GasPrice": "0x1c8f",
          "l1GasUsed": "0x640"
        }
      ],
      "libraries": [],
      "pending": [],
      "returns": {},
      "timestamp": 1744375814,
      "chain": 84532,
      "commit": "5a12906"
    },
    {
      "transactions": [
        {
          "hash": "0xccdd49a81eef7ff639b130c83c7ca8df7eb9859dcc9796ee683b8bdcab4a6d7d",
          "transactionType": "CALL",
          "contractName": null,
          "contractAddress": "0xcf46be46aae4e3bc20fbdadf9b13cde49f4f94b1",
          "function": "setPeer(uint32,bytes32)",
          "arguments": [
            "40245",
            "0x000000000000000000000000cf46be46aae4e3bc20fbdadf9b13cde49f4f94b1"
          ],
          "transaction": {
            "from": "0x64a822f980dc5f126215d75d11dd8114ed0bdb5f",
            "to": "0xcf46be46aae4e3bc20fbdadf9b13cde49f4f94b1",
            "gas": "0x1143c",
            "value": "0x0",
            "input": "0x3400288b0000000000000000000000000000000000000000000000000000000000009d35000000000000000000000000cf46be46aae4e3bc20fbdadf9b13cde49f4f94b1",
            "nonce": "0x2cc",
            "chainId": "0xaa37dc"
          },
          "additionalContracts": [],
          "isFixedGasLimit": false
        }
      ],
      "receipts": [
        {
          "status": "0x1",
          "cumulativeGasUsed": "0x5b358",
          "logs": [
            {
              "address": "0xcf46be46aae4e3bc20fbdadf9b13cde49f4f94b1",
              "topics": [
                "0x238399d427b947898edb290f5ff0f9109849b1c3ba196a42e35f00c50a54b98b"
              ],
              "data": "0x0000000000000000000000000000000000000000000000000000000000009d35000000000000000000000000cf46be46aae4e3bc20fbdadf9b13cde49f4f94b1",
              "blockHash": "0xcaa3ebce2a51ed0206f42f115ecd0bfeab0496cb57c3d1fb5f37033b366bc27e",
              "blockNumber": "0x1911a31",
              "transactionHash": "0xccdd49a81eef7ff639b130c83c7ca8df7eb9859dcc9796ee683b8bdcab4a6d7d",
              "transactionIndex": "0x4",
              "logIndex": "0x6",
              "removed": false
            }
          ],
          "logsBloom": "0x00000000000000000000000000000000000000000000000000000000000000000000000000000000000000000000000000000000000000000800000000000000000000000000000000000000000000000000000000000000000000000000000200000000000000000000000000000000000000000000000000000000000000000000000000000000000000000000000000000000000000000000000000000000000000000000000000000000000000000000000000000000000002000000000200000000000000000000000000000000000000000000000000040000000000000000000000000000000000000000400000000000000000000000000000000000",
          "type": "0x2",
          "transactionHash": "0xccdd49a81eef7ff639b130c83c7ca8df7eb9859dcc9796ee683b8bdcab4a6d7d",
          "transactionIndex": "0x4",
          "blockHash": "0xcaa3ebce2a51ed0206f42f115ecd0bfeab0496cb57c3d1fb5f37033b366bc27e",
          "blockNumber": "0x1911a31",
          "gasUsed": "0xbce1",
          "effectiveGasPrice": "0xf4344",
          "from": "0x64a822f980dc5f126215d75d11dd8114ed0bdb5f",
          "to": "0xcf46be46aae4e3bc20fbdadf9b13cde49f4f94b1",
          "contractAddress": null,
          "l1BaseFeeScalar": "0x1db0",
          "l1BlobBaseFee": "0x1",
          "l1BlobBaseFeeScalar": "0xd2730",
          "l1Fee": "0x10a19",
          "l1GasPrice": "0x15db",
          "l1GasUsed": "0x640"
        }
      ],
      "libraries": [],
      "pending": [],
      "returns": {},
      "timestamp": 1744375814,
      "chain": 11155420,
      "commit": "5a12906"
    }
  ],
  "timestamp": 1744375822
}