{
  "deployments": [
    {
      "transactions": [
        {
          "hash": "0x7f01058dc5958da104d821b0df005fa8517cb464b85a71b90ed5f55485805609",
          "transactionType": "CALL",
          "contractName": null,
          "contractAddress": "0x5de653f33a781b98baceaecb097746d94695a50c",
          "function": "setPeer(uint32,bytes32)",
          "arguments": [
            "40232",
            "0x0000000000000000000000005de653f33a781b98baceaecb097746d94695a50c"
          ],
          "transaction": {
            "from": "0x64a822f980dc5f126215d75d11dd8114ed0bdb5f",
            "to": "0x5de653f33a781b98baceaecb097746d94695a50c",
            "gas": "0x9984",
            "value": "0x0",
            "input": "0x3400288b0000000000000000000000000000000000000000000000000000000000009d280000000000000000000000005de653f33a781b98baceaecb097746d94695a50c",
            "nonce": "0x4fb",
            "chainId": "0x14a34"
          },
          "additionalContracts": [],
          "isFixedGasLimit": false
        },
        {
          "hash": "0xd9b54bb3eefd18866d6ae225947b8c1913bdacdddafc545a623cf786513d2d24",
          "transactionType": "CALL",
          "contractName": null,
          "contractAddress": "0xf08d9bbb37d131d334085c6884565f9996ef7a73",
          "function": "setPeer(uint32,bytes32)",
          "arguments": [
            "40232",
            "0x000000000000000000000000f08d9bbb37d131d334085c6884565f9996ef7a73"
          ],
          "transaction": {
            "from": "0x64a822f980dc5f126215d75d11dd8114ed0bdb5f",
            "to": "0xf08d9bbb37d131d334085c6884565f9996ef7a73",
            "gas": "0x9984",
            "value": "0x0",
            "input": "0x3400288b0000000000000000000000000000000000000000000000000000000000009d28000000000000000000000000f08d9bbb37d131d334085c6884565f9996ef7a73",
            "nonce": "0x4fc",
            "chainId": "0x14a34"
          },
          "additionalContracts": [],
          "isFixedGasLimit": false
        },
        {
          "hash": "0x17e7a19b1580c679d1a6f2fa6932430271d4de421f48112c83e5bfaa6a1be822",
          "transactionType": "CALL",
          "contractName": null,
          "contractAddress": "0xdf9e0e55c4c88ba3b5ad0f9295000c43d96647c9",
          "function": "setPeer(uint32,bytes32)",
          "arguments": [
            "40232",
            "0x000000000000000000000000df9e0e55c4c88ba3b5ad0f9295000c43d96647c9"
          ],
          "transaction": {
            "from": "0x64a822f980dc5f126215d75d11dd8114ed0bdb5f",
            "to": "0xdf9e0e55c4c88ba3b5ad0f9295000c43d96647c9",
            "gas": "0x10458",
            "value": "0x0",
            "input": "0x3400288b0000000000000000000000000000000000000000000000000000000000009d28000000000000000000000000df9e0e55c4c88ba3b5ad0f9295000c43d96647c9",
            "nonce": "0x4fd",
            "chainId": "0x14a34"
          },
          "additionalContracts": [],
          "isFixedGasLimit": false
        }
      ],
      "receipts": [
        {
          "status": "0x1",
          "cumulativeGasUsed": "0xcb8eba",
          "logs": [
            {
              "address": "0x5de653f33a781b98baceaecb097746d94695a50c",
              "topics": [
                "0x238399d427b947898edb290f5ff0f9109849b1c3ba196a42e35f00c50a54b98b"
              ],
              "data": "0x0000000000000000000000000000000000000000000000000000000000009d280000000000000000000000005de653f33a781b98baceaecb097746d94695a50c",
              "blockHash": "0x306ffbafe46dc1d2caaa5ccb6a7e366119421997e5c9e143592c1215bd84b150",
              "blockNumber": "0x1927427",
              "transactionHash": "0x7f01058dc5958da104d821b0df005fa8517cb464b85a71b90ed5f55485805609",
              "transactionIndex": "0xe9",
              "logIndex": "0x77",
              "removed": false
            }
          ],
          "logsBloom": "0x00020000000000000000000000000000000000000000000000000000000000000000000000000000000000000000000000000000000000000800000000000000000000000000000000000000000000000000000000000000000000000000000000000000000000000000000000000000000000000000000000000000000000000000000000000000000000000000000200000000000000000000000000000000000000000000000000000000000000000000000000000000000002000000000000000000000000000000020000000000000000000000000000040000000000000000000000000000000000000000000000000000000000000000000000000000",
          "type": "0x2",
          "transactionHash": "0x7f01058dc5958da104d821b0df005fa8517cb464b85a71b90ed5f55485805609",
          "transactionIndex": "0xe9",
          "blockHash": "0x306ffbafe46dc1d2caaa5ccb6a7e366119421997e5c9e143592c1215bd84b150",
          "blockNumber": "0x1927427",
          "gasUsed": "0x6f25",
          "effectiveGasPrice": "0x18d97186",
          "from": "0x64a822f980dc5f126215d75d11dd8114ed0bdb5f",
          "to": "0x5de653f33a781b98baceaecb097746d94695a50c",
          "contractAddress": null,
          "l1BaseFeeScalar": "0x44d",
          "l1BlobBaseFee": "0x1",
          "l1BlobBaseFeeScalar": "0xa118b",
          "l1Fee": "0x66466052",
          "l1GasPrice": "0x3a0ed681",
          "l1GasUsed": "0x640"
        },
        {
          "status": "0x1",
          "cumulativeGasUsed": "0xcbfddf",
          "logs": [
            {
              "address": "0xf08d9bbb37d131d334085c6884565f9996ef7a73",
              "topics": [
                "0x238399d427b947898edb290f5ff0f9109849b1c3ba196a42e35f00c50a54b98b"
              ],
              "data": "0x0000000000000000000000000000000000000000000000000000000000009d28000000000000000000000000f08d9bbb37d131d334085c6884565f9996ef7a73",
              "blockHash": "0x306ffbafe46dc1d2caaa5ccb6a7e366119421997e5c9e143592c1215bd84b150",
              "blockNumber": "0x1927427",
              "transactionHash": "0xd9b54bb3eefd18866d6ae225947b8c1913bdacdddafc545a623cf786513d2d24",
              "transactionIndex": "0xea",
              "logIndex": "0x78",
              "removed": false
            }
          ],
          "logsBloom": "0x00000000000000000000000000000000000000000000000040000000000000000000000000000000000000000000000000000000000000000800000000000000000000000000000000000000000000000000000000000000000000000000000000000000000000000000000000000000000000000800000000000000000000000000000000000000000000000000000000000000000000000000000000000000000000000000000000000000000000000000000000000800000002000000000000000000000000000000000000000000000000000000000000040000000000000000000000000000000000000000000000000000000000000000000000000000",
          "type": "0x2",
          "transactionHash": "0xd9b54bb3eefd18866d6ae225947b8c1913bdacdddafc545a623cf786513d2d24",
          "transactionIndex": "0xea",
          "blockHash": "0x306ffbafe46dc1d2caaa5ccb6a7e366119421997e5c9e143592c1215bd84b150",
          "blockNumber": "0x1927427",
          "gasUsed": "0x6f25",
          "effectiveGasPrice": "0x18d97186",
          "from": "0x64a822f980dc5f126215d75d11dd8114ed0bdb5f",
          "to": "0xf08d9bbb37d131d334085c6884565f9996ef7a73",
          "contractAddress": null,
          "l1BaseFeeScalar": "0x44d",
          "l1BlobBaseFee": "0x1",
          "l1BlobBaseFeeScalar": "0xa118b",
          "l1Fee": "0x66466052",
          "l1GasPrice": "0x3a0ed681",
          "l1GasUsed": "0x640"
        },
        {
          "status": "0x1",
          "cumulativeGasUsed": "0xccba5c",
          "logs": [
            {
              "address": "0xdf9e0e55c4c88ba3b5ad0f9295000c43d96647c9",
              "topics": [
                "0x238399d427b947898edb290f5ff0f9109849b1c3ba196a42e35f00c50a54b98b"
              ],
              "data": "0x0000000000000000000000000000000000000000000000000000000000009d28000000000000000000000000df9e0e55c4c88ba3b5ad0f9295000c43d96647c9",
              "blockHash": "0x306ffbafe46dc1d2caaa5ccb6a7e366119421997e5c9e143592c1215bd84b150",
              "blockNumber": "0x1927427",
              "transactionHash": "0x17e7a19b1580c679d1a6f2fa6932430271d4de421f48112c83e5bfaa6a1be822",
              "transactionIndex": "0xeb",
              "logIndex": "0x79",
              "removed": false
            }
          ],
          "logsBloom": "0x00000000000000000000000000000000000000000000000000040000000000000000000000000000000000000000000000000000000000000800000000000000000000000000000000000000000000000000000000000000000000000000020000000000000000000080000000000000000000000000000000000000000000000000000000000000000000000000000000000000000000000000000000000000000000000000000000000000000000000000000000000000000002000000000000000000000000000000000000000000000000000000000000040000000000000000000000000000000000000000000000000000000000000000000000000000",
          "type": "0x2",
          "transactionHash": "0x17e7a19b1580c679d1a6f2fa6932430271d4de421f48112c83e5bfaa6a1be822",
          "transactionIndex": "0xeb",
          "blockHash": "0x306ffbafe46dc1d2caaa5ccb6a7e366119421997e5c9e143592c1215bd84b150",
          "blockNumber": "0x1927427",
          "gasUsed": "0xbc7d",
          "effectiveGasPrice": "0x18d97186",
          "from": "0x64a822f980dc5f126215d75d11dd8114ed0bdb5f",
          "to": "0xdf9e0e55c4c88ba3b5ad0f9295000c43d96647c9",
          "contractAddress": null,
          "l1BaseFeeScalar": "0x44d",
          "l1BlobBaseFee": "0x1",
          "l1BlobBaseFeeScalar": "0xa118b",
          "l1Fee": "0x66466052",
          "l1GasPrice": "0x3a0ed681",
          "l1GasUsed": "0x640"
        }
      ],
      "libraries": [],
      "pending": [],
      "returns": {},
      "timestamp": 1748518697,
      "chain": 84532,
      "commit": "de7e330"
    },
    {
      "transactions": [
        {
          "hash": "0xa971ead887e90608be7c568404965c04f0b204f161865d01b3dc9c989518591f",
          "transactionType": "CALL",
          "contractName": null,
          "contractAddress": "0x5de653f33a781b98baceaecb097746d94695a50c",
          "function": "setPeer(uint32,bytes32)",
          "arguments": [
            "40245",
            "0x0000000000000000000000005de653f33a781b98baceaecb097746d94695a50c"
          ],
          "transaction": {
            "from": "0x64a822f980dc5f126215d75d11dd8114ed0bdb5f",
            "to": "0x5de653f33a781b98baceaecb097746d94695a50c",
            "gas": "0x9984",
            "value": "0x0",
            "input": "0x3400288b0000000000000000000000000000000000000000000000000000000000009d350000000000000000000000005de653f33a781b98baceaecb097746d94695a50c",
            "nonce": "0x33c",
            "chainId": "0xaa37dc"
          },
          "additionalContracts": [],
          "isFixedGasLimit": false
        },
        {
          "hash": "0xbc60bbaf0298fc62c99f84af304e22f6763fb14775b5d120ef5cdd7473c6e00a",
          "transactionType": "CALL",
          "contractName": null,
          "contractAddress": "0xf08d9bbb37d131d334085c6884565f9996ef7a73",
          "function": "setPeer(uint32,bytes32)",
          "arguments": [
            "40245",
            "0x000000000000000000000000f08d9bbb37d131d334085c6884565f9996ef7a73"
          ],
          "transaction": {
            "from": "0x64a822f980dc5f126215d75d11dd8114ed0bdb5f",
            "to": "0xf08d9bbb37d131d334085c6884565f9996ef7a73",
            "gas": "0x9984",
            "value": "0x0",
            "input": "0x3400288b0000000000000000000000000000000000000000000000000000000000009d35000000000000000000000000f08d9bbb37d131d334085c6884565f9996ef7a73",
            "nonce": "0x33d",
            "chainId": "0xaa37dc"
          },
          "additionalContracts": [],
          "isFixedGasLimit": false
        },
        {
          "hash": "0x71ad7ee10da3e1d1fa9c3a487783709adbf23c11af3414810bd431e99e9514f8",
          "transactionType": "CALL",
          "contractName": null,
          "contractAddress": "0xdf9e0e55c4c88ba3b5ad0f9295000c43d96647c9",
          "function": "setPeer(uint32,bytes32)",
          "arguments": [
            "40245",
            "0x000000000000000000000000df9e0e55c4c88ba3b5ad0f9295000c43d96647c9"
          ],
          "transaction": {
            "from": "0x64a822f980dc5f126215d75d11dd8114ed0bdb5f",
            "to": "0xdf9e0e55c4c88ba3b5ad0f9295000c43d96647c9",
            "gas": "0x10458",
            "value": "0x0",
            "input": "0x3400288b0000000000000000000000000000000000000000000000000000000000009d35000000000000000000000000df9e0e55c4c88ba3b5ad0f9295000c43d96647c9",
            "nonce": "0x33e",
            "chainId": "0xaa37dc"
          },
          "additionalContracts": [],
          "isFixedGasLimit": false
        }
      ],
      "receipts": [
        {
          "status": "0x1",
          "cumulativeGasUsed": "0x38ffce",
          "logs": [
            {
              "address": "0x5de653f33a781b98baceaecb097746d94695a50c",
              "topics": [
                "0x238399d427b947898edb290f5ff0f9109849b1c3ba196a42e35f00c50a54b98b"
              ],
              "data": "0x0000000000000000000000000000000000000000000000000000000000009d350000000000000000000000005de653f33a781b98baceaecb097746d94695a50c",
              "blockHash": "0x33f7c02ba50804be955daa145d6aa99fbe7f7a71cfa24ba96eb3a27de724b559",
              "blockNumber": "0x1b0b5c2",
              "transactionHash": "0xa971ead887e90608be7c568404965c04f0b204f161865d01b3dc9c989518591f",
              "transactionIndex": "0x19",
              "logIndex": "0xc",
              "removed": false
            }
          ],
          "logsBloom": "0x00020000000000000000000000000000000000000000000000000000000000000000000000000000000000000000000000000000000000000800000000000000000000000000000000000000000000000000000000000000000000000000000000000000000000000000000000000000000000000000000000000000000000000000000000000000000000000000000200000000000000000000000000000000000000000000000000000000000000000000000000000000000002000000000000000000000000000000020000000000000000000000000000040000000000000000000000000000000000000000000000000000000000000000000000000000",
          "type": "0x2",
          "transactionHash": "0xa971ead887e90608be7c568404965c04f0b204f161865d01b3dc9c989518591f",
          "transactionIndex": "0x19",
          "blockHash": "0x33f7c02ba50804be955daa145d6aa99fbe7f7a71cfa24ba96eb3a27de724b559",
          "blockNumber": "0x1b0b5c2",
          "gasUsed": "0x6f25",
          "effectiveGasPrice": "0x5c0",
          "from": "0x64a822f980dc5f126215d75d11dd8114ed0bdb5f",
          "to": "0x5de653f33a781b98baceaecb097746d94695a50c",
          "contractAddress": null,
          "l1BaseFeeScalar": "0x1db0",
          "l1BlobBaseFee": "0x1",
          "l1BlobBaseFeeScalar": "0xd2730",
          "l1Fee": "0x336e1937f",
          "l1GasPrice": "0x43abd050",
          "l1GasUsed": "0x640"
        },
        {
          "status": "0x1",
          "cumulativeGasUsed": "0x396ef3",
          "logs": [
            {
              "address": "0xf08d9bbb37d131d334085c6884565f9996ef7a73",
              "topics": [
                "0x238399d427b947898edb290f5ff0f9109849b1c3ba196a42e35f00c50a54b98b"
              ],
              "data": "0x0000000000000000000000000000000000000000000000000000000000009d35000000000000000000000000f08d9bbb37d131d334085c6884565f9996ef7a73",
              "blockHash": "0x33f7c02ba50804be955daa145d6aa99fbe7f7a71cfa24ba96eb3a27de724b559",
              "blockNumber": "0x1b0b5c2",
              "transactionHash": "0xbc60bbaf0298fc62c99f84af304e22f6763fb14775b5d120ef5cdd7473c6e00a",
              "transactionIndex": "0x1a",
              "logIndex": "0xd",
              "removed": false
            }
          ],
          "logsBloom": "0x00000000000000000000000000000000000000000000000040000000000000000000000000000000000000000000000000000000000000000800000000000000000000000000000000000000000000000000000000000000000000000000000000000000000000000000000000000000000000000800000000000000000000000000000000000000000000000000000000000000000000000000000000000000000000000000000000000000000000000000000000000800000002000000000000000000000000000000000000000000000000000000000000040000000000000000000000000000000000000000000000000000000000000000000000000000",
          "type": "0x2",
          "transactionHash": "0xbc60bbaf0298fc62c99f84af304e22f6763fb14775b5d120ef5cdd7473c6e00a",
          "transactionIndex": "0x1a",
          "blockHash": "0x33f7c02ba50804be955daa145d6aa99fbe7f7a71cfa24ba96eb3a27de724b559",
          "blockNumber": "0x1b0b5c2",
          "gasUsed": "0x6f25",
          "effectiveGasPrice": "0x5c0",
          "from": "0x64a822f980dc5f126215d75d11dd8114ed0bdb5f",
          "to": "0xf08d9bbb37d131d334085c6884565f9996ef7a73",
          "contractAddress": null,
          "l1BaseFeeScalar": "0x1db0",
          "l1BlobBaseFee": "0x1",
          "l1BlobBaseFeeScalar": "0xd2730",
          "l1Fee": "0x336e1937f",
          "l1GasPrice": "0x43abd050",
          "l1GasUsed": "0x640"
        },
        {
          "status": "0x1",
          "cumulativeGasUsed": "0x3a2b70",
          "logs": [
            {
              "address": "0xdf9e0e55c4c88ba3b5ad0f9295000c43d96647c9",
              "topics": [
                "0x238399d427b947898edb290f5ff0f9109849b1c3ba196a42e35f00c50a54b98b"
              ],
              "data": "0x0000000000000000000000000000000000000000000000000000000000009d35000000000000000000000000df9e0e55c4c88ba3b5ad0f9295000c43d96647c9",
              "blockHash": "0x33f7c02ba50804be955daa145d6aa99fbe7f7a71cfa24ba96eb3a27de724b559",
              "blockNumber": "0x1b0b5c2",
              "transactionHash": "0x71ad7ee10da3e1d1fa9c3a487783709adbf23c11af3414810bd431e99e9514f8",
              "transactionIndex": "0x1b",
              "logIndex": "0xe",
              "removed": false
            }
          ],
          "logsBloom": "0x00000000000000000000000000000000000000000000000000040000000000000000000000000000000000000000000000000000000000000800000000000000000000000000000000000000000000000000000000000000000000000000020000000000000000000080000000000000000000000000000000000000000000000000000000000000000000000000000000000000000000000000000000000000000000000000000000000000000000000000000000000000000002000000000000000000000000000000000000000000000000000000000000040000000000000000000000000000000000000000000000000000000000000000000000000000",
          "type": "0x2",
          "transactionHash": "0x71ad7ee10da3e1d1fa9c3a487783709adbf23c11af3414810bd431e99e9514f8",
          "transactionIndex": "0x1b",
          "blockHash": "0x33f7c02ba50804be955daa145d6aa99fbe7f7a71cfa24ba96eb3a27de724b559",
          "blockNumber": "0x1b0b5c2",
          "gasUsed": "0xbc7d",
          "effectiveGasPrice": "0x5c0",
          "from": "0x64a822f980dc5f126215d75d11dd8114ed0bdb5f",
          "to": "0xdf9e0e55c4c88ba3b5ad0f9295000c43d96647c9",
          "contractAddress": null,
          "l1BaseFeeScalar": "0x1db0",
          "l1BlobBaseFee": "0x1",
          "l1BlobBaseFeeScalar": "0xd2730",
          "l1Fee": "0x336e1937f",
          "l1GasPrice": "0x43abd050",
          "l1GasUsed": "0x640"
        }
      ],
      "libraries": [],
      "pending": [],
      "returns": {},
      "timestamp": 1748518698,
      "chain": 11155420,
      "commit": "de7e330"
    }
  ],
  "timestamp": 1748518705
}