{
  "deployments": [
    {
      "transactions": [
        {
          "hash": "0xc9f34be7052ee48cbaccebc5eec00c66090416873e1ea3a07f157a32775f94c7",
          "transactionType": "CALL",
          "contractName": null,
          "contractAddress": "0xdf8af2156452d563d8aaca797c66fda743fabee8",
          "function": "setPeer(uint32,bytes32)",
          "arguments": [
            "40232",
            "0x000000000000000000000000df8af2156452d563d8aaca797c66fda743fabee8"
          ],
          "transaction": {
            "from": "0x64a822f980dc5f126215d75d11dd8114ed0bdb5f",
            "to": "0xdf8af2156452d563d8aaca797c66fda743fabee8",
            "gas": "0x1143c",
            "value": "0x0",
            "input": "0x3400288b0000000000000000000000000000000000000000000000000000000000009d28000000000000000000000000df8af2156452d563d8aaca797c66fda743fabee8",
            "nonce": "0x4c9",
            "chainId": "0x14a34"
          },
          "additionalContracts": [],
          "isFixedGasLimit": false
        },
        {
          "hash": "0x0274890271fdc2a40c9253b2d0bc946457891ccfd39a367f6840429d7fda632d",
          "transactionType": "CALL",
          "contractName": null,
          "contractAddress": "0xd44d0759ce9c6c850bbcd58e221d68e4dd44eec9",
          "function": "setPeer(uint32,bytes32)",
          "arguments": [
            "40232",
            "0x000000000000000000000000d44d0759ce9c6c850bbcd58e221d68e4dd44eec9"
          ],
          "transaction": {
            "from": "0x64a822f980dc5f126215d75d11dd8114ed0bdb5f",
            "to": "0xd44d0759ce9c6c850bbcd58e221d68e4dd44eec9",
            "gas": "0x1143c",
            "value": "0x0",
            "input": "0x3400288b0000000000000000000000000000000000000000000000000000000000009d28000000000000000000000000d44d0759ce9c6c850bbcd58e221d68e4dd44eec9",
            "nonce": "0x4ca",
            "chainId": "0x14a34"
          },
          "additionalContracts": [],
          "isFixedGasLimit": false
        },
        {
          "hash": "0x8be17f0f83146e0efc490e4ec0e24deb4e276219dcf3320895a22c1fcd7d9572",
          "transactionType": "CALL",
          "contractName": null,
          "contractAddress": "0x4e9a3a757404deb48c39848ffe42bef37f455cb2",
          "function": "setPeer(uint32,bytes32)",
          "arguments": [
            "40232",
            "0x0000000000000000000000004e9a3a757404deb48c39848ffe42bef37f455cb2"
          ],
          "transaction": {
            "from": "0x64a822f980dc5f126215d75d11dd8114ed0bdb5f",
            "to": "0x4e9a3a757404deb48c39848ffe42bef37f455cb2",
            "gas": "0x113bb",
            "value": "0x0",
            "input": "0x3400288b0000000000000000000000000000000000000000000000000000000000009d280000000000000000000000004e9a3a757404deb48c39848ffe42bef37f455cb2",
            "nonce": "0x4cb",
            "chainId": "0x14a34"
          },
          "additionalContracts": [],
          "isFixedGasLimit": false
        }
      ],
      "receipts": [
        {
          "status": "0x1",
          "cumulativeGasUsed": "0x50542d",
          "logs": [
            {
              "address": "0xdf8af2156452d563d8aaca797c66fda743fabee8",
              "topics": [
                "0x238399d427b947898edb290f5ff0f9109849b1c3ba196a42e35f00c50a54b98b"
              ],
              "data": "0x0000000000000000000000000000000000000000000000000000000000009d28000000000000000000000000df8af2156452d563d8aaca797c66fda743fabee8",
              "blockHash": "0x917a7dfa1fd2bd4878586ec9148d2066af1e4703e0252a485b2ba643fb600dfc",
              "blockNumber": "0x1800930",
              "transactionHash": "0xc9f34be7052ee48cbaccebc5eec00c66090416873e1ea3a07f157a32775f94c7",
              "transactionIndex": "0x17",
              "logIndex": "0x53",
              "removed": false
            }
          ],
          "logsBloom": "0x00000000000000000000000000000000000000000000000000000000000000000000000000000000000000000000000000000000000000000800000000000000000000000000000000000000000000000000000000000000002000000000000000000000000000000000000000020000000000000000000000000000000000000000000000000000000000000000000000000000040000000000000000000000000000000000000000000000000000000000000000000000000002000000000000000000000000000000000000000000000000000000000000040000000000000000000000000000000000000000000000000000000000000000000000000000",
          "type": "0x2",
          "transactionHash": "0xc9f34be7052ee48cbaccebc5eec00c66090416873e1ea3a07f157a32775f94c7",
          "transactionIndex": "0x17",
          "blockHash": "0x917a7dfa1fd2bd4878586ec9148d2066af1e4703e0252a485b2ba643fb600dfc",
          "blockNumber": "0x1800930",
          "gasUsed": "0xbce1",
          "effectiveGasPrice": "0xd4f71",
          "from": "0x64a822f980dc5f126215d75d11dd8114ed0bdb5f",
          "to": "0xdf8af2156452d563d8aaca797c66fda743fabee8",
          "contractAddress": null,
          "l1BaseFeeScalar": "0x44d",
          "l1BlobBaseFee": "0x1",
          "l1BlobBaseFeeScalar": "0xa118b",
          "l1Fee": "0x2fe29d2f6e",
          "l1GasPrice": "0x1b2ecba03e",
          "l1GasUsed": "0x640"
        },
        {
          "status": "0x1",
          "cumulativeGasUsed": "0x51110e",
          "logs": [
            {
              "address": "0xd44d0759ce9c6c850bbcd58e221d68e4dd44eec9",
              "topics": [
                "0x238399d427b947898edb290f5ff0f9109849b1c3ba196a42e35f00c50a54b98b"
              ],
              "data": "0x0000000000000000000000000000000000000000000000000000000000009d28000000000000000000000000d44d0759ce9c6c850bbcd58e221d68e4dd44eec9",
              "blockHash": "0x917a7dfa1fd2bd4878586ec9148d2066af1e4703e0252a485b2ba643fb600dfc",
              "blockNumber": "0x1800930",
              "transactionHash": "0x0274890271fdc2a40c9253b2d0bc946457891ccfd39a367f6840429d7fda632d",
              "transactionIndex": "0x18",
              "logIndex": "0x54",
              "removed": false
            }
          ],
          "logsBloom": "0x80000000000000000000000000000000000000000000000000000000000000000000000000000000000000000000000000000000000000000800000000000000000000000000000000000000000000000000000000000000000000000000000000000000000000000000000000000000000000000000000000000000000000000000000000000000000000000000000002000000000000000000000000000000000000000000000000000000000000000000000800000000000002000000000000000000000000000000000000000000000000000000000000040000000000000000000000000000000000000000000000000000000000000000000000000000",
          "type": "0x2",
          "transactionHash": "0x0274890271fdc2a40c9253b2d0bc946457891ccfd39a367f6840429d7fda632d",
          "transactionIndex": "0x18",
          "blockHash": "0x917a7dfa1fd2bd4878586ec9148d2066af1e4703e0252a485b2ba643fb600dfc",
          "blockNumber": "0x1800930",
          "gasUsed": "0xbce1",
          "effectiveGasPrice": "0xd4f71",
          "from": "0x64a822f980dc5f126215d75d11dd8114ed0bdb5f",
          "to": "0xd44d0759ce9c6c850bbcd58e221d68e4dd44eec9",
          "contractAddress": null,
          "l1BaseFeeScalar": "0x44d",
          "l1BlobBaseFee": "0x1",
          "l1BlobBaseFeeScalar": "0xa118b",
          "l1Fee": "0x2fe29d2f6e",
          "l1GasPrice": "0x1b2ecba03e",
          "l1GasUsed": "0x640"
        },
        {
          "status": "0x1",
          "cumulativeGasUsed": "0x51cd97",
          "logs": [
            {
              "address": "0x4e9a3a757404deb48c39848ffe42bef37f455cb2",
              "topics": [
                "0x238399d427b947898edb290f5ff0f9109849b1c3ba196a42e35f00c50a54b98b"
              ],
              "data": "0x0000000000000000000000000000000000000000000000000000000000009d280000000000000000000000004e9a3a757404deb48c39848ffe42bef37f455cb2",
              "blockHash": "0x917a7dfa1fd2bd4878586ec9148d2066af1e4703e0252a485b2ba643fb600dfc",
              "blockNumber": "0x1800930",
              "transactionHash": "0x8be17f0f83146e0efc490e4ec0e24deb4e276219dcf3320895a22c1fcd7d9572",
              "transactionIndex": "0x19",
              "logIndex": "0x55",
              "removed": false
            }
          ],
          "logsBloom": "0x00000000000000000000000000000002000000000000000000000000000000000000000000000000000000000000000000000000100000000800000000000000000000000000000000000000000000000000000000000000000000000000000040000000000000000000000000000000000000000000000000000000000000000000000000000000000000000000000000000000000000000000000000000000000000000000000000000000000000000000000000000000000002000000000000000000000000000000000000000000000000000000000000040000000000000000000000000000000000000000000000000000000000000000000000000000",
          "type": "0x2",
          "transactionHash": "0x8be17f0f83146e0efc490e4ec0e24deb4e276219dcf3320895a22c1fcd7d9572",
          "transactionIndex": "0x19",
          "blockHash": "0x917a7dfa1fd2bd4878586ec9148d2066af1e4703e0252a485b2ba643fb600dfc",
          "blockNumber": "0x1800930",
          "gasUsed": "0xbc89",
          "effectiveGasPrice": "0xd4f71",
          "from": "0x64a822f980dc5f126215d75d11dd8114ed0bdb5f",
          "to": "0x4e9a3a757404deb48c39848ffe42bef37f455cb2",
          "contractAddress": null,
          "l1BaseFeeScalar": "0x44d",
          "l1BlobBaseFee": "0x1",
          "l1BlobBaseFeeScalar": "0xa118b",
          "l1Fee": "0x2fe29d2f6e",
          "l1GasPrice": "0x1b2ecba03e",
          "l1GasUsed": "0x640"
        }
      ],
      "libraries": [],
      "pending": [],
      "returns": {},
      "timestamp": 1746104635,
      "chain": 84532,
      "commit": "9a01c26"
    },
    {
      "transactions": [
        {
          "hash": "0x93acd043fee06059246f1caab8c8cead48ba051d086efb7efd75b23334e51f44",
          "transactionType": "CALL",
          "contractName": null,
          "contractAddress": "0xdf8af2156452d563d8aaca797c66fda743fabee8",
          "function": "setPeer(uint32,bytes32)",
          "arguments": [
            "40245",
            "0x000000000000000000000000df8af2156452d563d8aaca797c66fda743fabee8"
          ],
          "transaction": {
            "from": "0x64a822f980dc5f126215d75d11dd8114ed0bdb5f",
            "to": "0xdf8af2156452d563d8aaca797c66fda743fabee8",
            "gas": "0x1143c",
            "value": "0x0",
            "input": "0x3400288b0000000000000000000000000000000000000000000000000000000000009d35000000000000000000000000df8af2156452d563d8aaca797c66fda743fabee8",
            "nonce": "0x310",
            "chainId": "0xaa37dc"
          },
          "additionalContracts": [],
          "isFixedGasLimit": false
        },
        {
          "hash": "0xf60ca94a3e1d42ee0325df4e60a35b886c364aa30d8e56c91f54235a7157fe19",
          "transactionType": "CALL",
          "contractName": null,
          "contractAddress": "0xd44d0759ce9c6c850bbcd58e221d68e4dd44eec9",
          "function": "setPeer(uint32,bytes32)",
          "arguments": [
            "40245",
            "0x000000000000000000000000d44d0759ce9c6c850bbcd58e221d68e4dd44eec9"
          ],
          "transaction": {
            "from": "0x64a822f980dc5f126215d75d11dd8114ed0bdb5f",
            "to": "0xd44d0759ce9c6c850bbcd58e221d68e4dd44eec9",
            "gas": "0x1143c",
            "value": "0x0",
            "input": "0x3400288b0000000000000000000000000000000000000000000000000000000000009d35000000000000000000000000d44d0759ce9c6c850bbcd58e221d68e4dd44eec9",
            "nonce": "0x311",
            "chainId": "0xaa37dc"
          },
          "additionalContracts": [],
          "isFixedGasLimit": false
        },
        {
          "hash": "0x243f1cff9f98cb0101175fc3dd5a7f29ac6ebb8626cfaf2bb85e6335b6bb9769",
          "transactionType": "CALL",
          "contractName": null,
          "contractAddress": "0x4e9a3a757404deb48c39848ffe42bef37f455cb2",
          "function": "setPeer(uint32,bytes32)",
          "arguments": [
            "40245",
            "0x0000000000000000000000004e9a3a757404deb48c39848ffe42bef37f455cb2"
          ],
          "transaction": {
            "from": "0x64a822f980dc5f126215d75d11dd8114ed0bdb5f",
            "to": "0x4e9a3a757404deb48c39848ffe42bef37f455cb2",
            "gas": "0x113bb",
            "value": "0x0",
            "input": "0x3400288b0000000000000000000000000000000000000000000000000000000000009d350000000000000000000000004e9a3a757404deb48c39848ffe42bef37f455cb2",
            "nonce": "0x312",
            "chainId": "0xaa37dc"
          },
          "additionalContracts": [],
          "isFixedGasLimit": false
        }
      ],
      "receipts": [
        {
          "status": "0x1",
          "cumulativeGasUsed": "0x12af583",
          "logs": [
            {
              "address": "0xdf8af2156452d563d8aaca797c66fda743fabee8",
              "topics": [
                "0x238399d427b947898edb290f5ff0f9109849b1c3ba196a42e35f00c50a54b98b"
              ],
              "data": "0x0000000000000000000000000000000000000000000000000000000000009d35000000000000000000000000df8af2156452d563d8aaca797c66fda743fabee8",
              "blockHash": "0x23f54ce544229166ccf026cbdce79c505160d25aafd5976ef3812eb531b35204",
              "blockNumber": "0x19e4acc",
              "transactionHash": "0x93acd043fee06059246f1caab8c8cead48ba051d086efb7efd75b23334e51f44",
              "transactionIndex": "0x1c",
              "logIndex": "0x4e",
              "removed": false
            }
          ],
          "logsBloom": "0x00000000000000000000000000000000000000000000000000000000000000000000000000000000000000000000000000000000000000000800000000000000000000000000000000000000000000000000000000000000002000000000000000000000000000000000000000020000000000000000000000000000000000000000000000000000000000000000000000000000040000000000000000000000000000000000000000000000000000000000000000000000000002000000000000000000000000000000000000000000000000000000000000040000000000000000000000000000000000000000000000000000000000000000000000000000",
          "type": "0x2",
          "transactionHash": "0x93acd043fee06059246f1caab8c8cead48ba051d086efb7efd75b23334e51f44",
          "transactionIndex": "0x1c",
          "blockHash": "0x23f54ce544229166ccf026cbdce79c505160d25aafd5976ef3812eb531b35204",
          "blockNumber": "0x19e4acc",
          "gasUsed": "0xbce1",
          "effectiveGasPrice": "0x20a427",
          "from": "0x64a822f980dc5f126215d75d11dd8114ed0bdb5f",
          "to": "0xdf8af2156452d563d8aaca797c66fda743fabee8",
          "contractAddress": null,
          "l1BaseFeeScalar": "0x1db0",
          "l1BlobBaseFee": "0x1",
          "l1BlobBaseFeeScalar": "0xd2730",
          "l1Fee": "0x1394c372e40",
          "l1GasPrice": "0x19c3bdcd0a",
          "l1GasUsed": "0x640"
        },
        {
          "status": "0x1",
          "cumulativeGasUsed": "0x12bb264",
          "logs": [
            {
              "address": "0xd44d0759ce9c6c850bbcd58e221d68e4dd44eec9",
              "topics": [
                "0x238399d427b947898edb290f5ff0f9109849b1c3ba196a42e35f00c50a54b98b"
              ],
              "data": "0x0000000000000000000000000000000000000000000000000000000000009d35000000000000000000000000d44d0759ce9c6c850bbcd58e221d68e4dd44eec9",
              "blockHash": "0x23f54ce544229166ccf026cbdce79c505160d25aafd5976ef3812eb531b35204",
              "blockNumber": "0x19e4acc",
              "transactionHash": "0xf60ca94a3e1d42ee0325df4e60a35b886c364aa30d8e56c91f54235a7157fe19",
              "transactionIndex": "0x1d",
              "logIndex": "0x4f",
              "removed": false
            }
          ],
          "logsBloom": "0x80000000000000000000000000000000000000000000000000000000000000000000000000000000000000000000000000000000000000000800000000000000000000000000000000000000000000000000000000000000000000000000000000000000000000000000000000000000000000000000000000000000000000000000000000000000000000000000000002000000000000000000000000000000000000000000000000000000000000000000000800000000000002000000000000000000000000000000000000000000000000000000000000040000000000000000000000000000000000000000000000000000000000000000000000000000",
          "type": "0x2",
          "transactionHash": "0xf60ca94a3e1d42ee0325df4e60a35b886c364aa30d8e56c91f54235a7157fe19",
          "transactionIndex": "0x1d",
          "blockHash": "0x23f54ce544229166ccf026cbdce79c505160d25aafd5976ef3812eb531b35204",
          "blockNumber": "0x19e4acc",
          "gasUsed": "0xbce1",
          "effectiveGasPrice": "0x20a427",
          "from": "0x64a822f980dc5f126215d75d11dd8114ed0bdb5f",
          "to": "0xd44d0759ce9c6c850bbcd58e221d68e4dd44eec9",
          "contractAddress": null,
          "l1BaseFeeScalar": "0x1db0",
          "l1BlobBaseFee": "0x1",
          "l1BlobBaseFeeScalar": "0xd2730",
          "l1Fee": "0x1394c372e40",
          "l1GasPrice": "0x19c3bdcd0a",
          "l1GasUsed": "0x640"
        },
        {
          "status": "0x1",
          "cumulativeGasUsed": "0x12c6eed",
          "logs": [
            {
              "address": "0x4e9a3a757404deb48c39848ffe42bef37f455cb2",
              "topics": [
                "0x238399d427b947898edb290f5ff0f9109849b1c3ba196a42e35f00c50a54b98b"
              ],
              "data": "0x0000000000000000000000000000000000000000000000000000000000009d350000000000000000000000004e9a3a757404deb48c39848ffe42bef37f455cb2",
              "blockHash": "0x23f54ce544229166ccf026cbdce79c505160d25aafd5976ef3812eb531b35204",
              "blockNumber": "0x19e4acc",
              "transactionHash": "0x243f1cff9f98cb0101175fc3dd5a7f29ac6ebb8626cfaf2bb85e6335b6bb9769",
              "transactionIndex": "0x1e",
              "logIndex": "0x50",
              "removed": false
            }
          ],
          "logsBloom": "0x00000000000000000000000000000002000000000000000000000000000000000000000000000000000000000000000000000000100000000800000000000000000000000000000000000000000000000000000000000000000000000000000040000000000000000000000000000000000000000000000000000000000000000000000000000000000000000000000000000000000000000000000000000000000000000000000000000000000000000000000000000000000002000000000000000000000000000000000000000000000000000000000000040000000000000000000000000000000000000000000000000000000000000000000000000000",
          "type": "0x2",
          "transactionHash": "0x243f1cff9f98cb0101175fc3dd5a7f29ac6ebb8626cfaf2bb85e6335b6bb9769",
          "transactionIndex": "0x1e",
          "blockHash": "0x23f54ce544229166ccf026cbdce79c505160d25aafd5976ef3812eb531b35204",
          "blockNumber": "0x19e4acc",
          "gasUsed": "0xbc89",
          "effectiveGasPrice": "0x20a427",
          "from": "0x64a822f980dc5f126215d75d11dd8114ed0bdb5f",
          "to": "0x4e9a3a757404deb48c39848ffe42bef37f455cb2",
          "contractAddress": null,
          "l1BaseFeeScalar": "0x1db0",
          "l1BlobBaseFee": "0x1",
          "l1BlobBaseFeeScalar": "0xd2730",
          "l1Fee": "0x1394c372e40",
          "l1GasPrice": "0x19c3bdcd0a",
          "l1GasUsed": "0x640"
        }
      ],
      "libraries": [],
      "pending": [],
      "returns": {},
      "timestamp": 1746104636,
      "chain": 11155420,
      "commit": "9a01c26"
    }
  ],
  "timestamp": 1746104645
}