{
  "deployments": [
    {
      "transactions": [
        {
          "hash": "0x7a630171512dd8daced9432c0fe8c38beeb7702da5b85bea8c83ae1eb9cd3dbb",
          "transactionType": "CALL",
          "contractName": null,
          "contractAddress": "0x5de653f33a781b98baceaecb097746d94695a50c",
          "function": "setPeer(uint32,bytes32)",
          "arguments": [
            "40232",
            "0x0000000000000000000000005de653f33a781b98baceaecb097746d94695a50c"
          ],
          "transaction": {
            "from": "0x64a822f980dc5f126215d75d11dd8114ed0bdb5f",
            "to": "0x5de653f33a781b98baceaecb097746d94695a50c",
            "gas": "0x1143c",
            "value": "0x0",
            "input": "0x3400288b0000000000000000000000000000000000000000000000000000000000009d280000000000000000000000005de653f33a781b98baceaecb097746d94695a50c",
            "nonce": "0x4f4",
            "chainId": "0x14a34"
          },
          "additionalContracts": [],
          "isFixedGasLimit": false
        },
        {
          "hash": "0x9d94d0316e530988ffd1ff1070dd3b8010501eb2b67aeb203a905e86bd558363",
          "transactionType": "CALL",
          "contractName": null,
          "contractAddress": "0xf08d9bbb37d131d334085c6884565f9996ef7a73",
          "function": "setPeer(uint32,bytes32)",
          "arguments": [
            "40232",
            "0x000000000000000000000000f08d9bbb37d131d334085c6884565f9996ef7a73"
          ],
          "transaction": {
            "from": "0x64a822f980dc5f126215d75d11dd8114ed0bdb5f",
            "to": "0xf08d9bbb37d131d334085c6884565f9996ef7a73",
            "gas": "0x1143c",
            "value": "0x0",
            "input": "0x3400288b0000000000000000000000000000000000000000000000000000000000009d28000000000000000000000000f08d9bbb37d131d334085c6884565f9996ef7a73",
            "nonce": "0x4f5",
            "chainId": "0x14a34"
          },
          "additionalContracts": [],
          "isFixedGasLimit": false
        },
        {
          "hash": "0x8c3f16007ec256cca0e5c14bf16155be2c34cd5cfee018a124a01060d0a5be8b",
          "transactionType": "CALL",
          "contractName": null,
          "contractAddress": "0xf027a9dfcfdc418e00dda523cb5f32588ec22806",
          "function": "setPeer(uint32,bytes32)",
          "arguments": [
            "40232",
            "0x000000000000000000000000f027a9dfcfdc418e00dda523cb5f32588ec22806"
          ],
          "transaction": {
            "from": "0x64a822f980dc5f126215d75d11dd8114ed0bdb5f",
            "to": "0xf027a9dfcfdc418e00dda523cb5f32588ec22806",
            "gas": "0x10458",
            "value": "0x0",
            "input": "0x3400288b0000000000000000000000000000000000000000000000000000000000009d28000000000000000000000000f027a9dfcfdc418e00dda523cb5f32588ec22806",
            "nonce": "0x4f6",
            "chainId": "0x14a34"
          },
          "additionalContracts": [],
          "isFixedGasLimit": false
        }
      ],
      "receipts": [
        {
          "status": "0x1",
          "cumulativeGasUsed": "0xae192b",
          "logs": [
            {
              "address": "0x5de653f33a781b98baceaecb097746d94695a50c",
              "topics": [
                "0x238399d427b947898edb290f5ff0f9109849b1c3ba196a42e35f00c50a54b98b"
              ],
              "data": "0x0000000000000000000000000000000000000000000000000000000000009d280000000000000000000000005de653f33a781b98baceaecb097746d94695a50c",
              "blockHash": "0xbeb4733ddfffce95c67897f29201f8e420deb1eb9992151f3de4f1c570e19319",
              "blockNumber": "0x1926d0e",
              "transactionHash": "0x7a630171512dd8daced9432c0fe8c38beeb7702da5b85bea8c83ae1eb9cd3dbb",
              "transactionIndex": "0xca",
              "logIndex": "0x68",
              "removed": false
            }
          ],
          "logsBloom": "0x00020000000000000000000000000000000000000000000000000000000000000000000000000000000000000000000000000000000000000800000000000000000000000000000000000000000000000000000000000000000000000000000000000000000000000000000000000000000000000000000000000000000000000000000000000000000000000000000200000000000000000000000000000000000000000000000000000000000000000000000000000000000002000000000000000000000000000000020000000000000000000000000000040000000000000000000000000000000000000000000000000000000000000000000000000000",
          "type": "0x2",
          "transactionHash": "0x7a630171512dd8daced9432c0fe8c38beeb7702da5b85bea8c83ae1eb9cd3dbb",
          "transactionIndex": "0xca",
          "blockHash": "0xbeb4733ddfffce95c67897f29201f8e420deb1eb9992151f3de4f1c570e19319",
          "blockNumber": "0x1926d0e",
          "gasUsed": "0xbce1",
          "effectiveGasPrice": "0x19d5e78b",
          "from": "0x64a822f980dc5f126215d75d11dd8114ed0bdb5f",
          "to": "0x5de653f33a781b98baceaecb097746d94695a50c",
          "contractAddress": null,
          "l1BaseFeeScalar": "0x44d",
          "l1BlobBaseFee": "0x1",
          "l1BlobBaseFeeScalar": "0xa118b",
          "l1Fee": "0x92f6acca",
          "l1GasPrice": "0x536d1a8f",
          "l1GasUsed": "0x640"
        },
        {
          "status": "0x1",
          "cumulativeGasUsed": "0xaed60c",
          "logs": [
            {
              "address": "0xf08d9bbb37d131d334085c6884565f9996ef7a73",
              "topics": [
                "0x238399d427b947898edb290f5ff0f9109849b1c3ba196a42e35f00c50a54b98b"
              ],
              "data": "0x0000000000000000000000000000000000000000000000000000000000009d28000000000000000000000000f08d9bbb37d131d334085c6884565f9996ef7a73",
              "blockHash": "0xbeb4733ddfffce95c67897f29201f8e420deb1eb9992151f3de4f1c570e19319",
              "blockNumber": "0x1926d0e",
              "transactionHash": "0x9d94d0316e530988ffd1ff1070dd3b8010501eb2b67aeb203a905e86bd558363",
              "transactionIndex": "0xcb",
              "logIndex": "0x69",
              "removed": false
            }
          ],
          "logsBloom": "0x00000000000000000000000000000000000000000000000040000000000000000000000000000000000000000000000000000000000000000800000000000000000000000000000000000000000000000000000000000000000000000000000000000000000000000000000000000000000000000800000000000000000000000000000000000000000000000000000000000000000000000000000000000000000000000000000000000000000000000000000000000800000002000000000000000000000000000000000000000000000000000000000000040000000000000000000000000000000000000000000000000000000000000000000000000000",
          "type": "0x2",
          "transactionHash": "0x9d94d0316e530988ffd1ff1070dd3b8010501eb2b67aeb203a905e86bd558363",
          "transactionIndex": "0xcb",
          "blockHash": "0xbeb4733ddfffce95c67897f29201f8e420deb1eb9992151f3de4f1c570e19319",
          "blockNumber": "0x1926d0e",
          "gasUsed": "0xbce1",
          "effectiveGasPrice": "0x19d5e78b",
          "from": "0x64a822f980dc5f126215d75d11dd8114ed0bdb5f",
          "to": "0xf08d9bbb37d131d334085c6884565f9996ef7a73",
          "contractAddress": null,
          "l1BaseFeeScalar": "0x44d",
          "l1BlobBaseFee": "0x1",
          "l1BlobBaseFeeScalar": "0xa118b",
          "l1Fee": "0x92f6acca",
          "l1GasPrice": "0x536d1a8f",
          "l1GasUsed": "0x640"
        },
        {
          "status": "0x1",
          "cumulativeGasUsed": "0xaf9289",
          "logs": [
            {
              "address": "0xf027a9dfcfdc418e00dda523cb5f32588ec22806",
              "topics": [
                "0x238399d427b947898edb290f5ff0f9109849b1c3ba196a42e35f00c50a54b98b"
              ],
              "data": "0x0000000000000000000000000000000000000000000000000000000000009d28000000000000000000000000f027a9dfcfdc418e00dda523cb5f32588ec22806",
              "blockHash": "0xbeb4733ddfffce95c67897f29201f8e420deb1eb9992151f3de4f1c570e19319",
              "blockNumber": "0x1926d0e",
              "transactionHash": "0x8c3f16007ec256cca0e5c14bf16155be2c34cd5cfee018a124a01060d0a5be8b",
              "transactionIndex": "0xcc",
              "logIndex": "0x6a",
              "removed": false
            }
          ],
          "logsBloom": "0x00000000000000000000000000000000000000000000000000000000000000000000000000000000000000000000000000000000000000000800000000000000000000000000000000000000000000000000000000000000000000000000000000000000000000000000000000000000000000000000000000000000000004000000000000000000001000000000000000000000000000000000000000000080000000000000000000000000000000000000000000000000000002000000000000000000000000000000000000000000000000000000000000040000000000000000000000000000000000000000000000000000000000000000000000000000",
          "type": "0x2",
          "transactionHash": "0x8c3f16007ec256cca0e5c14bf16155be2c34cd5cfee018a124a01060d0a5be8b",
          "transactionIndex": "0xcc",
          "blockHash": "0xbeb4733ddfffce95c67897f29201f8e420deb1eb9992151f3de4f1c570e19319",
          "blockNumber": "0x1926d0e",
          "gasUsed": "0xbc7d",
          "effectiveGasPrice": "0x19d5e78b",
          "from": "0x64a822f980dc5f126215d75d11dd8114ed0bdb5f",
          "to": "0xf027a9dfcfdc418e00dda523cb5f32588ec22806",
          "contractAddress": null,
          "l1BaseFeeScalar": "0x44d",
          "l1BlobBaseFee": "0x1",
          "l1BlobBaseFeeScalar": "0xa118b",
          "l1Fee": "0x92f6acca",
          "l1GasPrice": "0x536d1a8f",
          "l1GasUsed": "0x640"
        }
      ],
      "libraries": [],
      "pending": [],
      "returns": {},
      "timestamp": 1748515063,
      "chain": 84532,
      "commit": "b082e32"
    },
    {
      "transactions": [
        {
          "hash": "0x51faa83c5f6a6bec429d0351286ce5cfa7adb792dddb69582835fef62991e835",
          "transactionType": "CALL",
          "contractName": null,
          "contractAddress": "0x5de653f33a781b98baceaecb097746d94695a50c",
          "function": "setPeer(uint32,bytes32)",
          "arguments": [
            "40245",
            "0x0000000000000000000000005de653f33a781b98baceaecb097746d94695a50c"
          ],
          "transaction": {
            "from": "0x64a822f980dc5f126215d75d11dd8114ed0bdb5f",
            "to": "0x5de653f33a781b98baceaecb097746d94695a50c",
            "gas": "0x1143c",
            "value": "0x0",
            "input": "0x3400288b0000000000000000000000000000000000000000000000000000000000009d350000000000000000000000005de653f33a781b98baceaecb097746d94695a50c",
            "nonce": "0x338",
            "chainId": "0xaa37dc"
          },
          "additionalContracts": [],
          "isFixedGasLimit": false
        },
        {
          "hash": "0x768b3cfb1453288bfb81c820244859fe0952f15612ad6a81a8a9d205d1bbca3c",
          "transactionType": "CALL",
          "contractName": null,
          "contractAddress": "0xf08d9bbb37d131d334085c6884565f9996ef7a73",
          "function": "setPeer(uint32,bytes32)",
          "arguments": [
            "40245",
            "0x000000000000000000000000f08d9bbb37d131d334085c6884565f9996ef7a73"
          ],
          "transaction": {
            "from": "0x64a822f980dc5f126215d75d11dd8114ed0bdb5f",
            "to": "0xf08d9bbb37d131d334085c6884565f9996ef7a73",
            "gas": "0x1143c",
            "value": "0x0",
            "input": "0x3400288b0000000000000000000000000000000000000000000000000000000000009d35000000000000000000000000f08d9bbb37d131d334085c6884565f9996ef7a73",
            "nonce": "0x339",
            "chainId": "0xaa37dc"
          },
          "additionalContracts": [],
          "isFixedGasLimit": false
        },
        {
          "hash": "0xe393f39a658547a3964fc8e013bfc1d41eea1730bc6b4ceca2d810480db9511d",
          "transactionType": "CALL",
          "contractName": null,
          "contractAddress": "0xf027a9dfcfdc418e00dda523cb5f32588ec22806",
          "function": "setPeer(uint32,bytes32)",
          "arguments": [
            "40245",
            "0x000000000000000000000000f027a9dfcfdc418e00dda523cb5f32588ec22806"
          ],
          "transaction": {
            "from": "0x64a822f980dc5f126215d75d11dd8114ed0bdb5f",
            "to": "0xf027a9dfcfdc418e00dda523cb5f32588ec22806",
            "gas": "0x10458",
            "value": "0x0",
            "input": "0x3400288b0000000000000000000000000000000000000000000000000000000000009d35000000000000000000000000f027a9dfcfdc418e00dda523cb5f32588ec22806",
            "nonce": "0x33a",
            "chainId": "0xaa37dc"
          },
          "additionalContracts": [],
          "isFixedGasLimit": false
        }
      ],
      "receipts": [
        {
          "status": "0x1",
          "cumulativeGasUsed": "0x18db80",
          "logs": [
            {
              "address": "0x5de653f33a781b98baceaecb097746d94695a50c",
              "topics": [
                "0x238399d427b947898edb290f5ff0f9109849b1c3ba196a42e35f00c50a54b98b"
              ],
              "data": "0x0000000000000000000000000000000000000000000000000000000000009d350000000000000000000000005de653f33a781b98baceaecb097746d94695a50c",
              "blockHash": "0xaf504aa501fe4eb1c85e9e28cccb124e9a0bea86aad2fa04a7e94f8351924fad",
              "blockNumber": "0x1b0aea9",
              "transactionHash": "0x51faa83c5f6a6bec429d0351286ce5cfa7adb792dddb69582835fef62991e835",
              "transactionIndex": "0xc",
              "logIndex": "0x10",
              "removed": false
            }
          ],
          "logsBloom": "0x00020000000000000000000000000000000000000000000000000000000000000000000000000000000000000000000000000000000000000800000000000000000000000000000000000000000000000000000000000000000000000000000000000000000000000000000000000000000000000000000000000000000000000000000000000000000000000000000200000000000000000000000000000000000000000000000000000000000000000000000000000000000002000000000000000000000000000000020000000000000000000000000000040000000000000000000000000000000000000000000000000000000000000000000000000000",
          "type": "0x2",
          "transactionHash": "0x51faa83c5f6a6bec429d0351286ce5cfa7adb792dddb69582835fef62991e835",
          "transactionIndex": "0xc",
          "blockHash": "0xaf504aa501fe4eb1c85e9e28cccb124e9a0bea86aad2fa04a7e94f8351924fad",
          "blockNumber": "0x1b0aea9",
          "gasUsed": "0xbce1",
          "effectiveGasPrice": "0xf434d",
          "from": "0x64a822f980dc5f126215d75d11dd8114ed0bdb5f",
          "to": "0x5de653f33a781b98baceaecb097746d94695a50c",
          "contractAddress": null,
          "l1BaseFeeScalar": "0x1db0",
          "l1BlobBaseFee": "0x1",
          "l1BlobBaseFeeScalar": "0xd2730",
          "l1Fee": "0x319721eb4",
          "l1GasPrice": "0x41401f21",
          "l1GasUsed": "0x640"
        },
        {
          "status": "0x1",
          "cumulativeGasUsed": "0x199861",
          "logs": [
            {
              "address": "0xf08d9bbb37d131d334085c6884565f9996ef7a73",
              "topics": [
                "0x238399d427b947898edb290f5ff0f9109849b1c3ba196a42e35f00c50a54b98b"
              ],
              "data": "0x0000000000000000000000000000000000000000000000000000000000009d35000000000000000000000000f08d9bbb37d131d334085c6884565f9996ef7a73",
              "blockHash": "0xaf504aa501fe4eb1c85e9e28cccb124e9a0bea86aad2fa04a7e94f8351924fad",
              "blockNumber": "0x1b0aea9",
              "transactionHash": "0x768b3cfb1453288bfb81c820244859fe0952f15612ad6a81a8a9d205d1bbca3c",
              "transactionIndex": "0xd",
              "logIndex": "0x11",
              "removed": false
            }
          ],
          "logsBloom": "0x00000000000000000000000000000000000000000000000040000000000000000000000000000000000000000000000000000000000000000800000000000000000000000000000000000000000000000000000000000000000000000000000000000000000000000000000000000000000000000800000000000000000000000000000000000000000000000000000000000000000000000000000000000000000000000000000000000000000000000000000000000800000002000000000000000000000000000000000000000000000000000000000000040000000000000000000000000000000000000000000000000000000000000000000000000000",
          "type": "0x2",
          "transactionHash": "0x768b3cfb1453288bfb81c820244859fe0952f15612ad6a81a8a9d205d1bbca3c",
          "transactionIndex": "0xd",
          "blockHash": "0xaf504aa501fe4eb1c85e9e28cccb124e9a0bea86aad2fa04a7e94f8351924fad",
          "blockNumber": "0x1b0aea9",
          "gasUsed": "0xbce1",
          "effectiveGasPrice": "0xf434d",
          "from": "0x64a822f980dc5f126215d75d11dd8114ed0bdb5f",
          "to": "0xf08d9bbb37d131d334085c6884565f9996ef7a73",
          "contractAddress": null,
          "l1BaseFeeScalar": "0x1db0",
          "l1BlobBaseFee": "0x1",
          "l1BlobBaseFeeScalar": "0xd2730",
          "l1Fee": "0x319721eb4",
          "l1GasPrice": "0x41401f21",
          "l1GasUsed": "0x640"
        },
        {
          "status": "0x1",
          "cumulativeGasUsed": "0x1a54de",
          "logs": [
            {
              "address": "0xf027a9dfcfdc418e00dda523cb5f32588ec22806",
              "topics": [
                "0x238399d427b947898edb290f5ff0f9109849b1c3ba196a42e35f00c50a54b98b"
              ],
              "data": "0x0000000000000000000000000000000000000000000000000000000000009d35000000000000000000000000f027a9dfcfdc418e00dda523cb5f32588ec22806",
              "blockHash": "0xaf504aa501fe4eb1c85e9e28cccb124e9a0bea86aad2fa04a7e94f8351924fad",
              "blockNumber": "0x1b0aea9",
              "transactionHash": "0xe393f39a658547a3964fc8e013bfc1d41eea1730bc6b4ceca2d810480db9511d",
              "transactionIndex": "0xe",
              "logIndex": "0x12",
              "removed": false
            }
          ],
          "logsBloom": "0x00000000000000000000000000000000000000000000000000000000000000000000000000000000000000000000000000000000000000000800000000000000000000000000000000000000000000000000000000000000000000000000000000000000000000000000000000000000000000000000000000000000000004000000000000000000001000000000000000000000000000000000000000000080000000000000000000000000000000000000000000000000000002000000000000000000000000000000000000000000000000000000000000040000000000000000000000000000000000000000000000000000000000000000000000000000",
          "type": "0x2",
          "transactionHash": "0xe393f39a658547a3964fc8e013bfc1d41eea1730bc6b4ceca2d810480db9511d",
          "transactionIndex": "0xe",
          "blockHash": "0xaf504aa501fe4eb1c85e9e28cccb124e9a0bea86aad2fa04a7e94f8351924fad",
          "blockNumber": "0x1b0aea9",
          "gasUsed": "0xbc7d",
          "effectiveGasPrice": "0xf434d",
          "from": "0x64a822f980dc5f126215d75d11dd8114ed0bdb5f",
          "to": "0xf027a9dfcfdc418e00dda523cb5f32588ec22806",
          "contractAddress": null,
          "l1BaseFeeScalar": "0x1db0",
          "l1BlobBaseFee": "0x1",
          "l1BlobBaseFeeScalar": "0xd2730",
          "l1Fee": "0x319721eb4",
          "l1GasPrice": "0x41401f21",
          "l1GasUsed": "0x640"
        }
      ],
      "libraries": [],
      "pending": [],
      "returns": {},
      "timestamp": 1748515064,
      "chain": 11155420,
      "commit": "b082e32"
    }
  ],
  "timestamp": 1748515071
}