{
  "deployments": [
    {
      "transactions": [
        {
          "hash": "0x427f51f20a7f31c4b96868065e8ea1bebe47feaa33204f62218fa62d5ff8ecff",
          "transactionType": "CALL",
          "contractName": null,
          "contractAddress": "0xea666fd1cce5a212017d77b1436003f74cd84659",
          "function": "setPeer(uint32,bytes32)",
          "arguments": [
            "40232",
            "0x000000000000000000000000ea666fd1cce5a212017d77b1436003f74cd84659"
          ],
          "transaction": {
            "from": "0x64a822f980dc5f126215d75d11dd8114ed0bdb5f",
            "to": "0xea666fd1cce5a212017d77b1436003f74cd84659",
            "gas": "0x1143c",
            "value": "0x0",
            "input": "0x3400288b0000000000000000000000000000000000000000000000000000000000009d28000000000000000000000000ea666fd1cce5a212017d77b1436003f74cd84659",
            "nonce": "0x4ae",
            "chainId": "0x14a34"
          },
          "additionalContracts": [],
          "isFixedGasLimit": false
        },
        {
          "hash": "0x6a9a2dddeebe58a19d03fcee746c523488efcbb3aaabe6a1052b76d7a62910bf",
          "transactionType": "CALL",
          "contractName": null,
          "contractAddress": "0x3a1bd7a2ae508e96be93e0c315b83b84fc17547e",
          "function": "setPeer(uint32,bytes32)",
          "arguments": [
            "40232",
            "0x0000000000000000000000003a1bd7a2ae508e96be93e0c315b83b84fc17547e"
          ],
          "transaction": {
            "from": "0x64a822f980dc5f126215d75d11dd8114ed0bdb5f",
            "to": "0x3a1bd7a2ae508e96be93e0c315b83b84fc17547e",
            "gas": "0x1143c",
            "value": "0x0",
            "input": "0x3400288b0000000000000000000000000000000000000000000000000000000000009d280000000000000000000000003a1bd7a2ae508e96be93e0c315b83b84fc17547e",
            "nonce": "0x4af",
            "chainId": "0x14a34"
          },
          "additionalContracts": [],
          "isFixedGasLimit": false
        },
        {
          "hash": "0xd1d4e53ed028d74d00e27d2cf6dcf6491583686bb706c594d38091a4725182ca",
          "transactionType": "CALL",
          "contractName": null,
          "contractAddress": "0x2ac5a9ce935486c1b72ee737cc5b89801a116770",
          "function": "setPeer(uint32,bytes32)",
          "arguments": [
            "40232",
            "0x0000000000000000000000002ac5a9ce935486c1b72ee737cc5b89801a116770"
          ],
          "transaction": {
            "from": "0x64a822f980dc5f126215d75d11dd8114ed0bdb5f",
            "to": "0x2ac5a9ce935486c1b72ee737cc5b89801a116770",
            "gas": "0x113bb",
            "value": "0x0",
            "input": "0x3400288b0000000000000000000000000000000000000000000000000000000000009d280000000000000000000000002ac5a9ce935486c1b72ee737cc5b89801a116770",
            "nonce": "0x4b0",
            "chainId": "0x14a34"
          },
          "additionalContracts": [],
          "isFixedGasLimit": false
        }
      ],
      "receipts": [
        {
          "status": "0x1",
          "cumulativeGasUsed": "0x668c26",
          "logs": [
            {
              "address": "0xea666fd1cce5a212017d77b1436003f74cd84659",
              "topics": [
                "0x238399d427b947898edb290f5ff0f9109849b1c3ba196a42e35f00c50a54b98b"
              ],
              "data": "0x0000000000000000000000000000000000000000000000000000000000009d28000000000000000000000000ea666fd1cce5a212017d77b1436003f74cd84659",
              "blockHash": "0x05141ffcaf903d30401437d928ed39a39a33930459d5d7d82775264c3018b31c",
              "blockNumber": "0x17ff5e3",
              "transactionHash": "0x427f51f20a7f31c4b96868065e8ea1bebe47feaa33204f62218fa62d5ff8ecff",
              "transactionIndex": "0x2b",
              "logIndex": "0x93",
              "removed": false
            }
          ],
          "logsBloom": "0x00000000000000000000000000400000000000000000000000000000000000000000000000000000000000000000000000000000000000000800000000000000000000000000000000000000000000000000000000000000000000000000000000000000000000000000000000000000000000000000000000000000000000000000000000000000000000000000000000000000000000000000000000000000000000000000000000000000000000000000000000000000000002000000000000000000000000000000000000000080000000000000000040040000000000000000000000000000000000000000000000000000000000000000000000000000",
          "type": "0x2",
          "transactionHash": "0x427f51f20a7f31c4b96868065e8ea1bebe47feaa33204f62218fa62d5ff8ecff",
          "transactionIndex": "0x2b",
          "blockHash": "0x05141ffcaf903d30401437d928ed39a39a33930459d5d7d82775264c3018b31c",
          "blockNumber": "0x17ff5e3",
          "gasUsed": "0xbce1",
          "effectiveGasPrice": "0xf4449",
          "from": "0x64a822f980dc5f126215d75d11dd8114ed0bdb5f",
          "to": "0xea666fd1cce5a212017d77b1436003f74cd84659",
          "contractAddress": null,
          "l1BaseFeeScalar": "0x44d",
          "l1BlobBaseFee": "0x1",
          "l1BlobBaseFeeScalar": "0xa118b",
          "l1Fee": "0x1f6d68da3e",
          "l1GasPrice": "0x11d71a80dc",
          "l1GasUsed": "0x640"
        },
        {
          "status": "0x1",
          "cumulativeGasUsed": "0x674907",
          "logs": [
            {
              "address": "0x3a1bd7a2ae508e96be93e0c315b83b84fc17547e",
              "topics": [
                "0x238399d427b947898edb290f5ff0f9109849b1c3ba196a42e35f00c50a54b98b"
              ],
              "data": "0x0000000000000000000000000000000000000000000000000000000000009d280000000000000000000000003a1bd7a2ae508e96be93e0c315b83b84fc17547e",
              "blockHash": "0x05141ffcaf903d30401437d928ed39a39a33930459d5d7d82775264c3018b31c",
              "blockNumber": "0x17ff5e3",
              "transactionHash": "0x6a9a2dddeebe58a19d03fcee746c523488efcbb3aaabe6a1052b76d7a62910bf",
              "transactionIndex": "0x2c",
              "logIndex": "0x94",
              "removed": false
            }
          ],
          "logsBloom": "0x00000000000000000000000000000000100000000000000000000000000000000000000000000000000000000000000000000000000000000800000000000000000000000000000000000400000000000000000000000000000000000000000000000000000000000000000000000000000000000000000000000000000000000000000000000000000000000000000000000000000000000000000000000000000000000000000000000000000000000000000000000000000002000000000000000000000000000000000000000000000000000000000000040000000000000000000000000000000000000001000000000000000000000000000000000000",
          "type": "0x2",
          "transactionHash": "0x6a9a2dddeebe58a19d03fcee746c523488efcbb3aaabe6a1052b76d7a62910bf",
          "transactionIndex": "0x2c",
          "blockHash": "0x05141ffcaf903d30401437d928ed39a39a33930459d5d7d82775264c3018b31c",
          "blockNumber": "0x17ff5e3",
          "gasUsed": "0xbce1",
          "effectiveGasPrice": "0xf4449",
          "from": "0x64a822f980dc5f126215d75d11dd8114ed0bdb5f",
          "to": "0x3a1bd7a2ae508e96be93e0c315b83b84fc17547e",
          "contractAddress": null,
          "l1BaseFeeScalar": "0x44d",
          "l1BlobBaseFee": "0x1",
          "l1BlobBaseFeeScalar": "0xa118b",
          "l1Fee": "0x1f6d68da3e",
          "l1GasPrice": "0x11d71a80dc",
          "l1GasUsed": "0x640"
        },
        {
          "status": "0x1",
          "cumulativeGasUsed": "0x680590",
          "logs": [
            {
              "address": "0x2ac5a9ce935486c1b72ee737cc5b89801a116770",
              "topics": [
                "0x238399d427b947898edb290f5ff0f9109849b1c3ba196a42e35f00c50a54b98b"
              ],
              "data": "0x0000000000000000000000000000000000000000000000000000000000009d280000000000000000000000002ac5a9ce935486c1b72ee737cc5b89801a116770",
              "blockHash": "0x05141ffcaf903d30401437d928ed39a39a33930459d5d7d82775264c3018b31c",
              "blockNumber": "0x17ff5e3",
              "transactionHash": "0xd1d4e53ed028d74d00e27d2cf6dcf6491583686bb706c594d38091a4725182ca",
              "transactionIndex": "0x2d",
              "logIndex": "0x95",
              "removed": false
            }
          ],
          "logsBloom": "0x00000000000000000000000000000000000000000000000000000000000000000000000000000000000000000000000000000000000000000800000000000000000000400000000000000000000000000000000000000000000000000000000000000000000000000000000000000000000000000000000000000000000000000000000000000000000000000000000000000000000000008000000000000000000000000000000000000000000000000000000000000000000002000000000000000000000000000000000000000000000000000000000000040000001000000000000000000000000000000000000000000000000000000000000000000000",
          "type": "0x2",
          "transactionHash": "0xd1d4e53ed028d74d00e27d2cf6dcf6491583686bb706c594d38091a4725182ca",
          "transactionIndex": "0x2d",
          "blockHash": "0x05141ffcaf903d30401437d928ed39a39a33930459d5d7d82775264c3018b31c",
          "blockNumber": "0x17ff5e3",
          "gasUsed": "0xbc89",
          "effectiveGasPrice": "0xf4449",
          "from": "0x64a822f980dc5f126215d75d11dd8114ed0bdb5f",
          "to": "0x2ac5a9ce935486c1b72ee737cc5b89801a116770",
          "contractAddress": null,
          "l1BaseFeeScalar": "0x44d",
          "l1BlobBaseFee": "0x1",
          "l1BlobBaseFeeScalar": "0xa118b",
          "l1Fee": "0x1f6d68da3e",
          "l1GasPrice": "0x11d71a80dc",
          "l1GasUsed": "0x640"
        }
      ],
      "libraries": [],
      "pending": [],
      "returns": {},
      "timestamp": 1746094753,
      "chain": 84532,
      "commit": "0cdf533"
    },
    {
      "transactions": [
        {
          "hash": "0x850e6cc1bf50c48517948667feabcd257edcc459e5d60340109cdad1504b50e4",
          "transactionType": "CALL",
          "contractName": null,
          "contractAddress": "0xea666fd1cce5a212017d77b1436003f74cd84659",
          "function": "setPeer(uint32,bytes32)",
          "arguments": [
            "40245",
            "0x000000000000000000000000ea666fd1cce5a212017d77b1436003f74cd84659"
          ],
          "transaction": {
            "from": "0x64a822f980dc5f126215d75d11dd8114ed0bdb5f",
            "to": "0xea666fd1cce5a212017d77b1436003f74cd84659",
            "gas": "0x1143c",
            "value": "0x0",
            "input": "0x3400288b0000000000000000000000000000000000000000000000000000000000009d35000000000000000000000000ea666fd1cce5a212017d77b1436003f74cd84659",
            "nonce": "0x308",
            "chainId": "0xaa37dc"
          },
          "additionalContracts": [],
          "isFixedGasLimit": false
        },
        {
          "hash": "0xecf9d8d174f76757b4bc728bf8f4db570a4018e4496b6fa73e955519aef8f744",
          "transactionType": "CALL",
          "contractName": null,
          "contractAddress": "0x3a1bd7a2ae508e96be93e0c315b83b84fc17547e",
          "function": "setPeer(uint32,bytes32)",
          "arguments": [
            "40245",
            "0x0000000000000000000000003a1bd7a2ae508e96be93e0c315b83b84fc17547e"
          ],
          "transaction": {
            "from": "0x64a822f980dc5f126215d75d11dd8114ed0bdb5f",
            "to": "0x3a1bd7a2ae508e96be93e0c315b83b84fc17547e",
            "gas": "0x1143c",
            "value": "0x0",
            "input": "0x3400288b0000000000000000000000000000000000000000000000000000000000009d350000000000000000000000003a1bd7a2ae508e96be93e0c315b83b84fc17547e",
            "nonce": "0x309",
            "chainId": "0xaa37dc"
          },
          "additionalContracts": [],
          "isFixedGasLimit": false
        },
        {
          "hash": "0x57d9d37795ccdac918a7e7b12f5ec69efede6ed64e9efa24b61ab3b7e95878c0",
          "transactionType": "CALL",
          "contractName": null,
          "contractAddress": "0x2ac5a9ce935486c1b72ee737cc5b89801a116770",
          "function": "setPeer(uint32,bytes32)",
          "arguments": [
            "40245",
            "0x0000000000000000000000002ac5a9ce935486c1b72ee737cc5b89801a116770"
          ],
          "transaction": {
            "from": "0x64a822f980dc5f126215d75d11dd8114ed0bdb5f",
            "to": "0x2ac5a9ce935486c1b72ee737cc5b89801a116770",
            "gas": "0x113bb",
            "value": "0x0",
            "input": "0x3400288b0000000000000000000000000000000000000000000000000000000000009d350000000000000000000000002ac5a9ce935486c1b72ee737cc5b89801a116770",
            "nonce": "0x30a",
            "chainId": "0xaa37dc"
          },
          "additionalContracts": [],
          "isFixedGasLimit": false
        }
      ],
      "receipts": [
        {
          "status": "0x1",
          "cumulativeGasUsed": "0xa6a853",
          "logs": [
            {
              "address": "0xea666fd1cce5a212017d77b1436003f74cd84659",
              "topics": [
                "0x238399d427b947898edb290f5ff0f9109849b1c3ba196a42e35f00c50a54b98b"
              ],
              "data": "0x0000000000000000000000000000000000000000000000000000000000009d35000000000000000000000000ea666fd1cce5a212017d77b1436003f74cd84659",
              "blockHash": "0x80989524e17514cd328b97acdd0e8d6926ec9e86063d5665a6af7b6c1309f1da",
              "blockNumber": "0x19e377f",
              "transactionHash": "0x850e6cc1bf50c48517948667feabcd257edcc459e5d60340109cdad1504b50e4",
              "transactionIndex": "0x31",
              "logIndex": "0x5f",
              "removed": false
            }
          ],
          "logsBloom": "0x00000000000000000000000000400000000000000000000000000000000000000000000000000000000000000000000000000000000000000800000000000000000000000000000000000000000000000000000000000000000000000000000000000000000000000000000000000000000000000000000000000000000000000000000000000000000000000000000000000000000000000000000000000000000000000000000000000000000000000000000000000000000002000000000000000000000000000000000000000080000000000000000040040000000000000000000000000000000000000000000000000000000000000000000000000000",
          "type": "0x2",
          "transactionHash": "0x850e6cc1bf50c48517948667feabcd257edcc459e5d60340109cdad1504b50e4",
          "transactionIndex": "0x31",
          "blockHash": "0x80989524e17514cd328b97acdd0e8d6926ec9e86063d5665a6af7b6c1309f1da",
          "blockNumber": "0x19e377f",
          "gasUsed": "0xbce1",
          "effectiveGasPrice": "0x1e60f5",
          "from": "0x64a822f980dc5f126215d75d11dd8114ed0bdb5f",
          "to": "0xea666fd1cce5a212017d77b1436003f74cd84659",
          "contractAddress": null,
          "l1BaseFeeScalar": "0x1db0",
          "l1BlobBaseFee": "0x1",
          "l1BlobBaseFeeScalar": "0xd2730",
          "l1Fee": "0xfe96f0e4df",
          "l1GasPrice": "0x14efc80552",
          "l1GasUsed": "0x640"
        },
        {
          "status": "0x1",
          "cumulativeGasUsed": "0xa76534",
          "logs": [
            {
              "address": "0x3a1bd7a2ae508e96be93e0c315b83b84fc17547e",
              "topics": [
                "0x238399d427b947898edb290f5ff0f9109849b1c3ba196a42e35f00c50a54b98b"
              ],
              "data": "0x0000000000000000000000000000000000000000000000000000000000009d350000000000000000000000003a1bd7a2ae508e96be93e0c315b83b84fc17547e",
              "blockHash": "0x80989524e17514cd328b97acdd0e8d6926ec9e86063d5665a6af7b6c1309f1da",
              "blockNumber": "0x19e377f",
              "transactionHash": "0xecf9d8d174f76757b4bc728bf8f4db570a4018e4496b6fa73e955519aef8f744",
              "transactionIndex": "0x32",
              "logIndex": "0x60",
              "removed": false
            }
          ],
          "logsBloom": "0x00000000000000000000000000000000100000000000000000000000000000000000000000000000000000000000000000000000000000000800000000000000000000000000000000000400000000000000000000000000000000000000000000000000000000000000000000000000000000000000000000000000000000000000000000000000000000000000000000000000000000000000000000000000000000000000000000000000000000000000000000000000000002000000000000000000000000000000000000000000000000000000000000040000000000000000000000000000000000000001000000000000000000000000000000000000",
          "type": "0x2",
          "transactionHash": "0xecf9d8d174f76757b4bc728bf8f4db570a4018e4496b6fa73e955519aef8f744",
          "transactionIndex": "0x32",
          "blockHash": "0x80989524e17514cd328b97acdd0e8d6926ec9e86063d5665a6af7b6c1309f1da",
          "blockNumber": "0x19e377f",
          "gasUsed": "0xbce1",
          "effectiveGasPrice": "0x1e60f5",
          "from": "0x64a822f980dc5f126215d75d11dd8114ed0bdb5f",
          "to": "0x3a1bd7a2ae508e96be93e0c315b83b84fc17547e",
          "contractAddress": null,
          "l1BaseFeeScalar": "0x1db0",
          "l1BlobBaseFee": "0x1",
          "l1BlobBaseFeeScalar": "0xd2730",
          "l1Fee": "0xfe96f0e4df",
          "l1GasPrice": "0x14efc80552",
          "l1GasUsed": "0x640"
        },
        {
          "status": "0x1",
          "cumulativeGasUsed": "0xa821bd",
          "logs": [
            {
              "address": "0x2ac5a9ce935486c1b72ee737cc5b89801a116770",
              "topics": [
                "0x238399d427b947898edb290f5ff0f9109849b1c3ba196a42e35f00c50a54b98b"
              ],
              "data": "0x0000000000000000000000000000000000000000000000000000000000009d350000000000000000000000002ac5a9ce935486c1b72ee737cc5b89801a116770",
              "blockHash": "0x80989524e17514cd328b97acdd0e8d6926ec9e86063d5665a6af7b6c1309f1da",
              "blockNumber": "0x19e377f",
              "transactionHash": "0x57d9d37795ccdac918a7e7b12f5ec69efede6ed64e9efa24b61ab3b7e95878c0",
              "transactionIndex": "0x33",
              "logIndex": "0x61",
              "removed": false
            }
          ],
          "logsBloom": "0x00000000000000000000000000000000000000000000000000000000000000000000000000000000000000000000000000000000000000000800000000000000000000400000000000000000000000000000000000000000000000000000000000000000000000000000000000000000000000000000000000000000000000000000000000000000000000000000000000000000000000008000000000000000000000000000000000000000000000000000000000000000000002000000000000000000000000000000000000000000000000000000000000040000001000000000000000000000000000000000000000000000000000000000000000000000",
          "type": "0x2",
          "transactionHash": "0x57d9d37795ccdac918a7e7b12f5ec69efede6ed64e9efa24b61ab3b7e95878c0",
          "transactionIndex": "0x33",
          "blockHash": "0x80989524e17514cd328b97acdd0e8d6926ec9e86063d5665a6af7b6c1309f1da",
          "blockNumber": "0x19e377f",
          "gasUsed": "0xbc89",
          "effectiveGasPrice": "0x1e60f5",
          "from": "0x64a822f980dc5f126215d75d11dd8114ed0bdb5f",
          "to": "0x2ac5a9ce935486c1b72ee737cc5b89801a116770",
          "contractAddress": null,
          "l1BaseFeeScalar": "0x1db0",
          "l1BlobBaseFee": "0x1",
          "l1BlobBaseFeeScalar": "0xd2730",
          "l1Fee": "0xfe96f0e4df",
          "l1GasPrice": "0x14efc80552",
          "l1GasUsed": "0x640"
        }
      ],
      "libraries": [],
      "pending": [],
      "returns": {},
      "timestamp": 1746094753,
      "chain": 11155420,
      "commit": "0cdf533"
    }
  ],
  "timestamp": 1746094764
}