{
  "deployments": [
    {
      "transactions": [
        {
          "hash": "0x0b5628d91167b647a3e70625f8e30b9f1dcda83d6e777fc3377380c729680df9",
          "transactionType": "CALL",
          "contractName": null,
          "contractAddress": "0x2dbf3d10217f211181a896b7c647ec78e46eba2a",
          "function": "setPeer(uint32,bytes32)",
          "arguments": [
            "40232",
            "0x0000000000000000000000002dbf3d10217f211181a896b7c647ec78e46eba2a"
          ],
          "transaction": {
            "from": "0x64a822f980dc5f126215d75d11dd8114ed0bdb5f",
            "to": "0x2dbf3d10217f211181a896b7c647ec78e46eba2a",
            "gas": "0x1143c",
            "value": "0x0",
            "input": "0x3400288b0000000000000000000000000000000000000000000000000000000000009d280000000000000000000000002dbf3d10217f211181a896b7c647ec78e46eba2a",
            "nonce": "0x546",
            "chainId": "0x14a34"
          },
          "additionalContracts": [],
          "isFixedGasLimit": false
        },
        {
          "hash": "0x01c22f7d0e71e9339900c8eb817bbe959cbf6e810700b1ade0612da64626ed84",
          "transactionType": "CALL",
          "contractName": null,
          "contractAddress": "0x6eb6a9ea206d11ba3ad7c7ba6796bb585c2a1d5c",
          "function": "setPeer(uint32,bytes32)",
          "arguments": [
            "40232",
            "0x0000000000000000000000006eb6a9ea206d11ba3ad7c7ba6796bb585c2a1d5c"
          ],
          "transaction": {
            "from": "0x64a822f980dc5f126215d75d11dd8114ed0bdb5f",
            "to": "0x6eb6a9ea206d11ba3ad7c7ba6796bb585c2a1d5c",
            "gas": "0x1143c",
            "value": "0x0",
            "input": "0x3400288b0000000000000000000000000000000000000000000000000000000000009d280000000000000000000000006eb6a9ea206d11ba3ad7c7ba6796bb585c2a1d5c",
            "nonce": "0x547",
            "chainId": "0x14a34"
          },
          "additionalContracts": [],
          "isFixedGasLimit": false
        },
        {
          "hash": "0xb5d0bdfd341b1492cddf31bdee41f8d5bcb27c68547b7a5cebecf9aae97b8ff5",
          "transactionType": "CALL",
          "contractName": null,
          "contractAddress": "0x6c5169e8979067532f10330906b8a9fe2588c0e1",
          "function": "setPeer(uint32,bytes32)",
          "arguments": [
            "40232",
            "0x0000000000000000000000006c5169e8979067532f10330906b8a9fe2588c0e1"
          ],
          "transaction": {
            "from": "0x64a822f980dc5f126215d75d11dd8114ed0bdb5f",
            "to": "0x6c5169e8979067532f10330906b8a9fe2588c0e1",
            "gas": "0x10487",
            "value": "0x0",
            "input": "0x3400288b0000000000000000000000000000000000000000000000000000000000009d280000000000000000000000006c5169e8979067532f10330906b8a9fe2588c0e1",
            "nonce": "0x548",
            "chainId": "0x14a34"
          },
          "additionalContracts": [],
          "isFixedGasLimit": false
        }
      ],
      "receipts": [
        {
          "status": "0x1",
          "cumulativeGasUsed": "0x2ce549",
          "logs": [
            {
              "address": "0x2dbf3d10217f211181a896b7c647ec78e46eba2a",
              "topics": [
                "0x238399d427b947898edb290f5ff0f9109849b1c3ba196a42e35f00c50a54b98b"
              ],
              "data": "0x0000000000000000000000000000000000000000000000000000000000009d280000000000000000000000002dbf3d10217f211181a896b7c647ec78e46eba2a",
              "blockHash": "0x47c34de260045c8332f041b554e2cfa1d173fae4d0076d702ec919d237fc6732",
              "blockNumber": "0x19a6a51",
              "transactionHash": "0x0b5628d91167b647a3e70625f8e30b9f1dcda83d6e777fc3377380c729680df9",
              "transactionIndex": "0xe",
              "logIndex": "0x99",
              "removed": false
            }
          ],
          "logsBloom": "0x00000000000000000000000000000000000000000000000000000000000000000000000000000000000000000000000000000000000000000800000000000000000000000000000000000000100000000000000000000000000000000000000000000000000000000000000000000000000000000000000000000000000000000000000000000000000000000000000000000000000000000000000000000000080000000000000000000000000000000000000000000000000002000000000000000000000000000000000000400000000000000000000000040000000000000000000000000000000000000000000000000000000000000000000000000000",
          "type": "0x2",
          "transactionHash": "0x0b5628d91167b647a3e70625f8e30b9f1dcda83d6e777fc3377380c729680df9",
          "transactionIndex": "0xe",
          "blockHash": "0x47c34de260045c8332f041b554e2cfa1d173fae4d0076d702ec919d237fc6732",
          "blockNumber": "0x19a6a51",
          "gasUsed": "0xbce1",
          "effectiveGasPrice": "0xf42a1",
          "from": "0x64a822f980dc5f126215d75d11dd8114ed0bdb5f",
          "to": "0x2dbf3d10217f211181a896b7c647ec78e46eba2a",
          "contractAddress": null,
          "l1BaseFeeScalar": "0x44d",
          "l1BlobBaseFee": "0x2",
          "l1BlobBaseFeeScalar": "0xa118b",
          "l1Fee": "0x21ce033",
          "l1GasPrice": "0x1330918",
          "l1GasUsed": "0x640"
        },
        {
          "status": "0x1",
          "cumulativeGasUsed": "0x3f0005",
          "logs": [
            {
              "address": "0x6eb6a9ea206d11ba3ad7c7ba6796bb585c2a1d5c",
              "topics": [
                "0x238399d427b947898edb290f5ff0f9109849b1c3ba196a42e35f00c50a54b98b"
              ],
              "data": "0x0000000000000000000000000000000000000000000000000000000000009d280000000000000000000000006eb6a9ea206d11ba3ad7c7ba6796bb585c2a1d5c",
              "blockHash": "0x47c34de260045c8332f041b554e2cfa1d173fae4d0076d702ec919d237fc6732",
              "blockNumber": "0x19a6a51",
              "transactionHash": "0x01c22f7d0e71e9339900c8eb817bbe959cbf6e810700b1ade0612da64626ed84",
              "transactionIndex": "0x15",
              "logIndex": "0xcb",
              "removed": false
            }
          ],
          "logsBloom": "0x00000000000000000000000000000000000000000000000000000000000000000000000000000000000000000000000000000000000000000800000000000000000000000000000000000000000000000000000000000000000000000000000000002000000000000000000000000000000000000000000000000000000000000000000000000000000000000000000000000000000000000000000000000000000000000000000000000000000000000000000000000000000002000000000000000000000000000000000000000000000000000000000000040000000000000000000400000000000000000000000000000004000000000000000000000000",
          "type": "0x2",
          "transactionHash": "0x01c22f7d0e71e9339900c8eb817bbe959cbf6e810700b1ade0612da64626ed84",
          "transactionIndex": "0x15",
          "blockHash": "0x47c34de260045c8332f041b554e2cfa1d173fae4d0076d702ec919d237fc6732",
          "blockNumber": "0x19a6a51",
          "gasUsed": "0xbce1",
          "effectiveGasPrice": "0xf42a1",
          "from": "0x64a822f980dc5f126215d75d11dd8114ed0bdb5f",
          "to": "0x6eb6a9ea206d11ba3ad7c7ba6796bb585c2a1d5c",
          "contractAddress": null,
          "l1BaseFeeScalar": "0x44d",
          "l1BlobBaseFee": "0x2",
          "l1BlobBaseFeeScalar": "0xa118b",
          "l1Fee": "0x21ce033",
          "l1GasPrice": "0x1330918",
          "l1GasUsed": "0x640"
        },
        {
          "status": "0x1",
          "cumulativeGasUsed": "0x3fbca4",
          "logs": [
            {
              "address": "0x6c5169e8979067532f10330906b8a9fe2588c0e1",
              "topics": [
                "0x238399d427b947898edb290f5ff0f9109849b1c3ba196a42e35f00c50a54b98b"
              ],
              "data": "0x0000000000000000000000000000000000000000000000000000000000009d280000000000000000000000006c5169e8979067532f10330906b8a9fe2588c0e1",
              "blockHash": "0x47c34de260045c8332f041b554e2cfa1d173fae4d0076d702ec919d237fc6732",
              "blockNumber": "0x19a6a51",
              "transactionHash": "0xb5d0bdfd341b1492cddf31bdee41f8d5bcb27c68547b7a5cebecf9aae97b8ff5",
              "transactionIndex": "0x16",
              "logIndex": "0xcc",
              "removed": false
            }
          ],
          "logsBloom": "0x00000000000000000000000000000000000000000000000000000000000000000000000000000000000000000000000000000000000000000800000000000000000000000000000000000000000000400000000000000000000000000000000000000000000000000000000000000000000000000000000000000000000000000000000000000000000000000000000000000000000000000000000000000000004000000000000000000000000000000000000000000000000002000000000000000000000000000000000000000000000000000000000000040000000000800000000000000000000000000000000000000000000000000000000000000000",
          "type": "0x2",
          "transactionHash": "0xb5d0bdfd341b1492cddf31bdee41f8d5bcb27c68547b7a5cebecf9aae97b8ff5",
          "transactionIndex": "0x16",
          "blockHash": "0x47c34de260045c8332f041b554e2cfa1d173fae4d0076d702ec919d237fc6732",
          "blockNumber": "0x19a6a51",
          "gasUsed": "0xbc9f",
          "effectiveGasPrice": "0xf42a1",
          "from": "0x64a822f980dc5f126215d75d11dd8114ed0bdb5f",
          "to": "0x6c5169e8979067532f10330906b8a9fe2588c0e1",
          "contractAddress": null,
          "l1BaseFeeScalar": "0x44d",
          "l1BlobBaseFee": "0x2",
          "l1BlobBaseFeeScalar": "0xa118b",
          "l1Fee": "0x21ce033",
          "l1GasPrice": "0x1330918",
          "l1GasUsed": "0x640"
        }
      ],
      "libraries": [],
      "pending": [],
      "returns": {},
      "timestamp": 1749562238,
      "chain": 84532,
      "commit": "0433ab1"
    },
    {
      "transactions": [
        {
          "hash": "0xd825584d1b7448f6396664b269e8833037d48e37fa3cb93ed95cd237d631a124",
          "transactionType": "CALL",
          "contractName": null,
          "contractAddress": "0x2dbf3d10217f211181a896b7c647ec78e46eba2a",
          "function": "setPeer(uint32,bytes32)",
          "arguments": [
            "40245",
            "0x0000000000000000000000002dbf3d10217f211181a896b7c647ec78e46eba2a"
          ],
          "transaction": {
            "from": "0x64a822f980dc5f126215d75d11dd8114ed0bdb5f",
            "to": "0x2dbf3d10217f211181a896b7c647ec78e46eba2a",
            "gas": "0x1143c",
            "value": "0x0",
            "input": "0x3400288b0000000000000000000000000000000000000000000000000000000000009d350000000000000000000000002dbf3d10217f211181a896b7c647ec78e46eba2a",
            "nonce": "0x371",
            "chainId": "0xaa37dc"
          },
          "additionalContracts": [],
          "isFixedGasLimit": false
        },
        {
          "hash": "0x4885382801d16673061453113fea761ddfa803aa681d90686559e37589fba0ac",
          "transactionType": "CALL",
          "contractName": null,
          "contractAddress": "0x6eb6a9ea206d11ba3ad7c7ba6796bb585c2a1d5c",
          "function": "setPeer(uint32,bytes32)",
          "arguments": [
            "40245",
            "0x0000000000000000000000006eb6a9ea206d11ba3ad7c7ba6796bb585c2a1d5c"
          ],
          "transaction": {
            "from": "0x64a822f980dc5f126215d75d11dd8114ed0bdb5f",
            "to": "0x6eb6a9ea206d11ba3ad7c7ba6796bb585c2a1d5c",
            "gas": "0x1143c",
            "value": "0x0",
            "input": "0x3400288b0000000000000000000000000000000000000000000000000000000000009d350000000000000000000000006eb6a9ea206d11ba3ad7c7ba6796bb585c2a1d5c",
            "nonce": "0x372",
            "chainId": "0xaa37dc"
          },
          "additionalContracts": [],
          "isFixedGasLimit": false
        },
        {
          "hash": "0xdc7cef36b1f847f8c2c9421dcf73ef9e450f020bc28b5a78e3cb6c88bfbcc832",
          "transactionType": "CALL",
          "contractName": null,
          "contractAddress": "0x6c5169e8979067532f10330906b8a9fe2588c0e1",
          "function": "setPeer(uint32,bytes32)",
          "arguments": [
            "40245",
            "0x0000000000000000000000006c5169e8979067532f10330906b8a9fe2588c0e1"
          ],
          "transaction": {
            "from": "0x64a822f980dc5f126215d75d11dd8114ed0bdb5f",
            "to": "0x6c5169e8979067532f10330906b8a9fe2588c0e1",
            "gas": "0x10487",
            "value": "0x0",
            "input": "0x3400288b0000000000000000000000000000000000000000000000000000000000009d350000000000000000000000006c5169e8979067532f10330906b8a9fe2588c0e1",
            "nonce": "0x373",
            "chainId": "0xaa37dc"
          },
          "additionalContracts": [],
          "isFixedGasLimit": false
        }
      ],
      "receipts": [
        {
          "status": "0x1",
          "cumulativeGasUsed": "0x48534",
          "logs": [
            {
              "address": "0x2dbf3d10217f211181a896b7c647ec78e46eba2a",
              "topics": [
                "0x238399d427b947898edb290f5ff0f9109849b1c3ba196a42e35f00c50a54b98b"
              ],
              "data": "0x0000000000000000000000000000000000000000000000000000000000009d350000000000000000000000002dbf3d10217f211181a896b7c647ec78e46eba2a",
              "blockHash": "0x8e97b5c578141369b14731ea61d770336f4c36e8e364e82f59b0bba950a01400",
              "blockNumber": "0x1b8abec",
              "transactionHash": "0xd825584d1b7448f6396664b269e8833037d48e37fa3cb93ed95cd237d631a124",
              "transactionIndex": "0x4",
              "logIndex": "0x3",
              "removed": false
            }
          ],
          "logsBloom": "0x00000000000000000000000000000000000000000000000000000000000000000000000000000000000000000000000000000000000000000800000000000000000000000000000000000000100000000000000000000000000000000000000000000000000000000000000000000000000000000000000000000000000000000000000000000000000000000000000000000000000000000000000000000000080000000000000000000000000000000000000000000000000002000000000000000000000000000000000000400000000000000000000000040000000000000000000000000000000000000000000000000000000000000000000000000000",
          "type": "0x2",
          "transactionHash": "0xd825584d1b7448f6396664b269e8833037d48e37fa3cb93ed95cd237d631a124",
          "transactionIndex": "0x4",
          "blockHash": "0x8e97b5c578141369b14731ea61d770336f4c36e8e364e82f59b0bba950a01400",
          "blockNumber": "0x1b8abec",
          "gasUsed": "0xbce1",
          "effectiveGasPrice": "0x30e3d",
          "from": "0x64a822f980dc5f126215d75d11dd8114ed0bdb5f",
          "to": "0x2dbf3d10217f211181a896b7c647ec78e46eba2a",
          "contractAddress": null,
          "l1BaseFeeScalar": "0x1db0",
          "l1BlobBaseFee": "0x2",
          "l1BlobBaseFeeScalar": "0xd2730",
          "l1Fee": "0xe6468be",
          "l1GasPrice": "0x12efe74",
          "l1GasUsed": "0x640"
        },
        {
          "status": "0x1",
          "cumulativeGasUsed": "0x54215",
          "logs": [
            {
              "address": "0x6eb6a9ea206d11ba3ad7c7ba6796bb585c2a1d5c",
              "topics": [
                "0x238399d427b947898edb290f5ff0f9109849b1c3ba196a42e35f00c50a54b98b"
              ],
              "data": "0x0000000000000000000000000000000000000000000000000000000000009d350000000000000000000000006eb6a9ea206d11ba3ad7c7ba6796bb585c2a1d5c",
              "blockHash": "0x8e97b5c578141369b14731ea61d770336f4c36e8e364e82f59b0bba950a01400",
              "blockNumber": "0x1b8abec",
              "transactionHash": "0x4885382801d16673061453113fea761ddfa803aa681d90686559e37589fba0ac",
              "transactionIndex": "0x5",
              "logIndex": "0x4",
              "removed": false
            }
          ],
          "logsBloom": "0x00000000000000000000000000000000000000000000000000000000000000000000000000000000000000000000000000000000000000000800000000000000000000000000000000000000000000000000000000000000000000000000000000002000000000000000000000000000000000000000000000000000000000000000000000000000000000000000000000000000000000000000000000000000000000000000000000000000000000000000000000000000000002000000000000000000000000000000000000000000000000000000000000040000000000000000000400000000000000000000000000000004000000000000000000000000",
          "type": "0x2",
          "transactionHash": "0x4885382801d16673061453113fea761ddfa803aa681d90686559e37589fba0ac",
          "transactionIndex": "0x5",
          "blockHash": "0x8e97b5c578141369b14731ea61d770336f4c36e8e364e82f59b0bba950a01400",
          "blockNumber": "0x1b8abec",
          "gasUsed": "0xbce1",
          "effectiveGasPrice": "0x30e3d",
          "from": "0x64a822f980dc5f126215d75d11dd8114ed0bdb5f",
          "to": "0x6eb6a9ea206d11ba3ad7c7ba6796bb585c2a1d5c",
          "contractAddress": null,
          "l1BaseFeeScalar": "0x1db0",
          "l1BlobBaseFee": "0x2",
          "l1BlobBaseFeeScalar": "0xd2730",
          "l1Fee": "0xe6468be",
          "l1GasPrice": "0x12efe74",
          "l1GasUsed": "0x640"
        },
        {
          "status": "0x1",
          "cumulativeGasUsed": "0x5feb4",
          "logs": [
            {
              "address": "0x6c5169e8979067532f10330906b8a9fe2588c0e1",
              "topics": [
                "0x238399d427b947898edb290f5ff0f9109849b1c3ba196a42e35f00c50a54b98b"
              ],
              "data": "0x0000000000000000000000000000000000000000000000000000000000009d350000000000000000000000006c5169e8979067532f10330906b8a9fe2588c0e1",
              "blockHash": "0x8e97b5c578141369b14731ea61d770336f4c36e8e364e82f59b0bba950a01400",
              "blockNumber": "0x1b8abec",
              "transactionHash": "0xdc7cef36b1f847f8c2c9421dcf73ef9e450f020bc28b5a78e3cb6c88bfbcc832",
              "transactionIndex": "0x6",
              "logIndex": "0x5",
              "removed": false
            }
          ],
          "logsBloom": "0x00000000000000000000000000000000000000000000000000000000000000000000000000000000000000000000000000000000000000000800000000000000000000000000000000000000000000400000000000000000000000000000000000000000000000000000000000000000000000000000000000000000000000000000000000000000000000000000000000000000000000000000000000000000004000000000000000000000000000000000000000000000000002000000000000000000000000000000000000000000000000000000000000040000000000800000000000000000000000000000000000000000000000000000000000000000",
          "type": "0x2",
          "transactionHash": "0xdc7cef36b1f847f8c2c9421dcf73ef9e450f020bc28b5a78e3cb6c88bfbcc832",
          "transactionIndex": "0x6",
          "blockHash": "0x8e97b5c578141369b14731ea61d770336f4c36e8e364e82f59b0bba950a01400",
          "blockNumber": "0x1b8abec",
          "gasUsed": "0xbc9f",
          "effectiveGasPrice": "0x30e3d",
          "from": "0x64a822f980dc5f126215d75d11dd8114ed0bdb5f",
          "to": "0x6c5169e8979067532f10330906b8a9fe2588c0e1",
          "contractAddress": null,
          "l1BaseFeeScalar": "0x1db0",
          "l1BlobBaseFee": "0x2",
          "l1BlobBaseFeeScalar": "0xd2730",
          "l1Fee": "0xe6468be",
          "l1GasPrice": "0x12efe74",
          "l1GasUsed": "0x640"
        }
      ],
      "libraries": [],
      "pending": [],
      "returns": {},
      "timestamp": 1749562239,
      "chain": 11155420,
      "commit": "0433ab1"
    }
  ],
  "timestamp": 1749562246
}